{
  "contractName": "TopRouter",
  "abi": [
    {
      "inputs": [
        {
          "internalType": "contract TopShelf",
          "name": "_topshelf",
          "type": "address"
        },
        {
          "internalType": "contract TopToken",
          "name": "_token",
          "type": "address"
        }
      ],
      "stateMutability": "nonpayable",
      "type": "constructor"
    },
    {
      "anonymous": false,
      "inputs": [
        {
          "indexed": false,
          "internalType": "address",
          "name": "affiliate",
          "type": "address"
        },
        {
          "indexed": false,
          "internalType": "uint256",
          "name": "_itemId",
          "type": "uint256"
        }
      ],
      "name": "AffiliatePurchase",
      "type": "event"
    },
    {
      "anonymous": false,
      "inputs": [
        {
          "indexed": false,
          "internalType": "address",
          "name": "customer",
          "type": "address"
        },
        {
          "indexed": false,
          "internalType": "uint256",
          "name": "_itemId",
          "type": "uint256"
        },
        {
          "indexed": false,
          "internalType": "uint256",
          "name": "amount",
          "type": "uint256"
        }
      ],
      "name": "CustomerRenewal",
      "type": "event"
    },
    {
      "inputs": [
        {
          "internalType": "address",
          "name": "",
          "type": "address"
        },
        {
          "internalType": "uint256",
          "name": "",
          "type": "uint256"
        }
      ],
      "name": "mintContract",
      "outputs": [
        {
          "internalType": "contract NFTFactory",
          "name": "",
          "type": "address"
        }
      ],
      "stateMutability": "view",
      "type": "function"
    },
    {
      "inputs": [
        {
          "internalType": "uint256",
          "name": "_itemId",
          "type": "uint256"
        },
        {
          "internalType": "contract NFTFactory",
          "name": "tokenContract",
          "type": "address"
        }
      ],
      "name": "setMinter",
      "outputs": [],
      "stateMutability": "nonpayable",
      "type": "function"
    },
    {
      "inputs": [
        {
          "internalType": "string",
          "name": "name_",
          "type": "string"
        },
        {
          "internalType": "string",
          "name": "symbol_",
          "type": "string"
        },
        {
          "internalType": "string",
          "name": "_name",
          "type": "string"
        },
        {
          "internalType": "string",
          "name": "_description",
          "type": "string"
        },
        {
          "internalType": "string",
          "name": "_URI",
          "type": "string"
        },
        {
          "internalType": "uint256",
          "name": "_price",
          "type": "uint256"
        },
        {
          "internalType": "bool",
          "name": "_paused",
          "type": "bool"
        },
        {
          "internalType": "uint256",
          "name": "_stock",
          "type": "uint256"
        }
      ],
      "name": "sellerNFTContractList",
      "outputs": [
        {
          "internalType": "bool",
          "name": "",
          "type": "bool"
        }
      ],
      "stateMutability": "payable",
      "type": "function"
    },
    {
      "inputs": [
        {
          "internalType": "address",
          "name": "lister",
          "type": "address"
        },
        {
          "internalType": "uint256",
          "name": "_itemId",
          "type": "uint256"
        }
      ],
      "name": "affiliateBuyMint",
      "outputs": [
        {
          "internalType": "bool",
          "name": "",
          "type": "bool"
        }
      ],
      "stateMutability": "payable",
      "type": "function"
    },
    {
      "inputs": [
        {
          "internalType": "uint256",
          "name": "_itemId",
          "type": "uint256"
        },
        {
          "internalType": "uint256",
          "name": "_tokenAmount",
          "type": "uint256"
        }
      ],
      "name": "customerItemRenewal",
      "outputs": [
        {
          "internalType": "bool",
          "name": "",
          "type": "bool"
        }
      ],
      "stateMutability": "nonpayable",
      "type": "function"
    }
  ],
  "bytecode": "0x60806040523480156200001157600080fd5b5060405162004575380380620045758339818101604052810190620000379190620001c5565b81600160006101000a81548173ffffffffffffffffffffffffffffffffffffffff021916908373ffffffffffffffffffffffffffffffffffffffff16021790555080600260006101000a81548173ffffffffffffffffffffffffffffffffffffffff021916908373ffffffffffffffffffffffffffffffffffffffff16021790555033600360006101000a81548173ffffffffffffffffffffffffffffffffffffffff021916908373ffffffffffffffffffffffffffffffffffffffff16021790555050506200020c565b600080fd5b600073ffffffffffffffffffffffffffffffffffffffff82169050919050565b6000620001348262000107565b9050919050565b6000620001488262000127565b9050919050565b6200015a816200013b565b81146200016657600080fd5b50565b6000815190506200017a816200014f565b92915050565b60006200018d8262000127565b9050919050565b6200019f8162000180565b8114620001ab57600080fd5b50565b600081519050620001bf8162000194565b92915050565b60008060408385031215620001df57620001de62000102565b5b6000620001ef8582860162000169565b92505060206200020285828601620001ae565b9150509250929050565b614359806200021c6000396000f3fe608060405260043610620000505760003560e01c806356c3e31a14620000555780636bb9158a14620000995780638f52dea214620000cf578063a048046b1462000105578063b46f03ec1462000133575b600080fd5b3480156200006257600080fd5b506200008160048036038101906200007b919062000730565b62000177565b604051620000909190620007e2565b60405180910390f35b620000b76004803603810190620000b191906200099e565b620001b9565b604051620000c6919062000b13565b60405180910390f35b620000ed6004803603810190620000e7919062000730565b620002ca565b604051620000fc919062000b13565b60405180910390f35b3480156200011257600080fd5b506200013160048036038101906200012b919062000b75565b62000458565b005b3480156200014057600080fd5b506200015f600480360381019062000159919062000bbc565b620004ea565b6040516200016e919062000b13565b60405180910390f35b60006020528160005260406000206020528060005260406000206000915091509054906101000a900473ffffffffffffffffffffffffffffffffffffffff1681565b600080600160009054906101000a900473ffffffffffffffffffffffffffffffffffffffff1673ffffffffffffffffffffffffffffffffffffffff16633eb628858989898989896040518763ffffffff1660e01b8152600401620002239695949392919062000ca7565b6020604051808303816000875af115801562000243573d6000803e3d6000fd5b505050506040513d601f19601f8201168201806040525081019062000269919062000d40565b905060008a8a306040516200027e906200066e565b6200028c9392919062000d83565b604051809103906000f080158015620002a9573d6000803e3d6000fd5b509050620002b8828262000458565b60019250505098975050505050505050565b6000600160009054906101000a900473ffffffffffffffffffffffffffffffffffffffff1673ffffffffffffffffffffffffffffffffffffffff1663e7fb74c7836040518263ffffffff1660e01b815260040162000329919062000dce565b6020604051808303816000875af115801562000349573d6000803e3d6000fd5b505050506040513d601f19601f820116820180604052508101906200036f919062000e02565b506000808473ffffffffffffffffffffffffffffffffffffffff1673ffffffffffffffffffffffffffffffffffffffff168152602001908152602001600020600083815260200190815260200160002060009054906101000a900473ffffffffffffffffffffffffffffffffffffffff1673ffffffffffffffffffffffffffffffffffffffff16636a627842336040518263ffffffff1660e01b81526004016200041a919062000e34565b600060405180830381600087803b1580156200043557600080fd5b505af11580156200044a573d6000803e3d6000fd5b505050506001905092915050565b806000803373ffffffffffffffffffffffffffffffffffffffff1673ffffffffffffffffffffffffffffffffffffffff168152602001908152602001600020600084815260200190815260200160002060006101000a81548173ffffffffffffffffffffffffffffffffffffffff021916908373ffffffffffffffffffffffffffffffffffffffff1602179055505050565b6000600260009054906101000a900473ffffffffffffffffffffffffffffffffffffffff1673ffffffffffffffffffffffffffffffffffffffff166323b872dd3330856040518463ffffffff1660e01b81526004016200054d9392919062000e51565b6020604051808303816000875af11580156200056d573d6000803e3d6000fd5b505050506040513d601f19601f8201168201806040525081019062000593919062000e02565b50600160009054906101000a900473ffffffffffffffffffffffffffffffffffffffff1673ffffffffffffffffffffffffffffffffffffffff1663f2caa83e84846040518363ffffffff1660e01b8152600401620005f392919062000e8e565b600060405180830381600087803b1580156200060e57600080fd5b505af115801562000623573d6000803e3d6000fd5b505050507f0a65686470fa0cfad78a66c81d7b0470ad04027346e12d455faa9150bc1a4dd03384846040516200065c9392919062000ebb565b60405180910390a16001905092915050565b61342b8062000ef983390190565b6000604051905090565b600080fd5b600080fd5b600073ffffffffffffffffffffffffffffffffffffffff82169050919050565b6000620006bd8262000690565b9050919050565b620006cf81620006b0565b8114620006db57600080fd5b50565b600081359050620006ef81620006c4565b92915050565b6000819050919050565b6200070a81620006f5565b81146200071657600080fd5b50565b6000813590506200072a81620006ff565b92915050565b600080604083850312156200074a576200074962000686565b5b60006200075a85828601620006de565b92505060206200076d8582860162000719565b9150509250929050565b6000819050919050565b6000620007a26200079c620007968462000690565b62000777565b62000690565b9050919050565b6000620007b68262000781565b9050919050565b6000620007ca82620007a9565b9050919050565b620007dc81620007bd565b82525050565b6000602082019050620007f96000830184620007d1565b92915050565b600080fd5b600080fd5b6000601f19601f8301169050919050565b7f4e487b7100000000000000000000000000000000000000000000000000000000600052604160045260246000fd5b620008548262000809565b810181811067ffffffffffffffff821117156200087657620008756200081a565b5b80604052505050565b60006200088b6200067c565b905062000899828262000849565b919050565b600067ffffffffffffffff821115620008bc57620008bb6200081a565b5b620008c78262000809565b9050602081019050919050565b82818337600083830152505050565b6000620008fa620008f4846200089e565b6200087f565b90508281526020810184848401111562000919576200091862000804565b5b62000926848285620008d4565b509392505050565b600082601f830112620009465762000945620007ff565b5b813562000958848260208601620008e3565b91505092915050565b60008115159050919050565b620009788162000961565b81146200098457600080fd5b50565b60008135905062000998816200096d565b92915050565b600080600080600080600080610100898b031215620009c257620009c162000686565b5b600089013567ffffffffffffffff811115620009e357620009e26200068b565b5b620009f18b828c016200092e565b985050602089013567ffffffffffffffff81111562000a155762000a146200068b565b5b62000a238b828c016200092e565b975050604089013567ffffffffffffffff81111562000a475762000a466200068b565b5b62000a558b828c016200092e565b965050606089013567ffffffffffffffff81111562000a795762000a786200068b565b5b62000a878b828c016200092e565b955050608089013567ffffffffffffffff81111562000aab5762000aaa6200068b565b5b62000ab98b828c016200092e565b94505060a062000acc8b828c0162000719565b93505060c062000adf8b828c0162000987565b92505060e062000af28b828c0162000719565b9150509295985092959890939650565b62000b0d8162000961565b82525050565b600060208201905062000b2a600083018462000b02565b92915050565b600062000b3d82620006b0565b9050919050565b62000b4f8162000b30565b811462000b5b57600080fd5b50565b60008135905062000b6f8162000b44565b92915050565b6000806040838503121562000b8f5762000b8e62000686565b5b600062000b9f8582860162000719565b925050602062000bb28582860162000b5e565b9150509250929050565b6000806040838503121562000bd65762000bd562000686565b5b600062000be68582860162000719565b925050602062000bf98582860162000719565b9150509250929050565b600081519050919050565b600082825260208201905092915050565b60005b8381101562000c3f57808201518184015260208101905062000c22565b8381111562000c4f576000848401525b50505050565b600062000c628262000c03565b62000c6e818562000c0e565b935062000c8081856020860162000c1f565b62000c8b8162000809565b840191505092915050565b62000ca181620006f5565b82525050565b600060c082019050818103600083015262000cc3818962000c55565b9050818103602083015262000cd9818862000c55565b9050818103604083015262000cef818762000c55565b905062000d00606083018662000c96565b62000d0f608083018562000b02565b62000d1e60a083018462000c96565b979650505050505050565b60008151905062000d3a81620006ff565b92915050565b60006020828403121562000d595762000d5862000686565b5b600062000d698482850162000d29565b91505092915050565b62000d7d81620006b0565b82525050565b6000606082019050818103600083015262000d9f818662000c55565b9050818103602083015262000db5818562000c55565b905062000dc6604083018462000d72565b949350505050565b600060208201905062000de5600083018462000c96565b92915050565b60008151905062000dfc816200096d565b92915050565b60006020828403121562000e1b5762000e1a62000686565b5b600062000e2b8482850162000deb565b91505092915050565b600060208201905062000e4b600083018462000d72565b92915050565b600060608201905062000e68600083018662000d72565b62000e77602083018562000d72565b62000e86604083018462000c96565b949350505050565b600060408201905062000ea5600083018562000c96565b62000eb4602083018462000c96565b9392505050565b600060608201905062000ed2600083018662000d72565b62000ee1602083018562000c96565b62000ef0604083018462000c96565b94935050505056fe60806040523480156200001157600080fd5b506040516200342b3803806200342b833981810160405281019062000037919062000369565b8282816000908051906020019062000051929190620000b7565b5080600190805190602001906200006a929190620000b7565b50505080600a60006101000a81548173ffffffffffffffffffffffffffffffffffffffff021916908373ffffffffffffffffffffffffffffffffffffffff16021790555050505062000468565b828054620000c59062000432565b90600052602060002090601f016020900481019282620000e9576000855562000135565b82601f106200010457805160ff191683800117855562000135565b8280016001018555821562000135579182015b828111156200013457825182559160200191906001019062000117565b5b50905062000144919062000148565b5090565b5b808211156200016357600081600090555060010162000149565b5090565b6000604051905090565b600080fd5b600080fd5b600080fd5b600080fd5b6000601f19601f8301169050919050565b7f4e487b7100000000000000000000000000000000000000000000000000000000600052604160045260246000fd5b620001d08262000185565b810181811067ffffffffffffffff82111715620001f257620001f162000196565b5b80604052505050565b60006200020762000167565b9050620002158282620001c5565b919050565b600067ffffffffffffffff82111562000238576200023762000196565b5b620002438262000185565b9050602081019050919050565b60005b838110156200027057808201518184015260208101905062000253565b8381111562000280576000848401525b50505050565b60006200029d62000297846200021a565b620001fb565b905082815260208101848484011115620002bc57620002bb62000180565b5b620002c984828562000250565b509392505050565b600082601f830112620002e957620002e86200017b565b5b8151620002fb84826020860162000286565b91505092915050565b600073ffffffffffffffffffffffffffffffffffffffff82169050919050565b6000620003318262000304565b9050919050565b620003438162000324565b81146200034f57600080fd5b50565b600081519050620003638162000338565b92915050565b60008060006060848603121562000385576200038462000171565b5b600084015167ffffffffffffffff811115620003a657620003a562000176565b5b620003b486828701620002d1565b935050602084015167ffffffffffffffff811115620003d857620003d762000176565b5b620003e686828701620002d1565b9250506040620003f98682870162000352565b9150509250925092565b7f4e487b7100000000000000000000000000000000000000000000000000000000600052602260045260246000fd5b600060028204905060018216806200044b57607f821691505b6020821081141562000462576200046162000403565b5b50919050565b612fb380620004786000396000f3fe608060405234801561001057600080fd5b506004361061010b5760003560e01c80634f6ccce7116100a257806395d89b411161007157806395d89b41146102dc578063a22cb465146102fa578063b88d4fde14610316578063c87b56dd14610332578063e985e9c5146103625761010b565b80634f6ccce7146102305780636352211e146102605780636a6278421461029057806370a08231146102ac5761010b565b806318160ddd116100de57806318160ddd146101aa57806323b872dd146101c85780632f745c59146101e457806342842e0e146102145761010b565b806301ffc9a71461011057806306fdde0314610140578063081812fc1461015e578063095ea7b31461018e575b600080fd5b61012a60048036038101906101259190611d51565b610392565b6040516101379190611d99565b60405180910390f35b61014861040c565b6040516101559190611e4d565b60405180910390f35b61017860048036038101906101739190611ea5565b61049e565b6040516101859190611f13565b60405180910390f35b6101a860048036038101906101a39190611f5a565b610523565b005b6101b261063b565b6040516101bf9190611fa9565b60405180910390f35b6101e260048036038101906101dd9190611fc4565b610648565b005b6101fe60048036038101906101f99190611f5a565b6106a8565b60405161020b9190611fa9565b60405180910390f35b61022e60048036038101906102299190611fc4565b61074d565b005b61024a60048036038101906102459190611ea5565b61076d565b6040516102579190611fa9565b60405180910390f35b61027a60048036038101906102759190611ea5565b6107de565b6040516102879190611f13565b60405180910390f35b6102aa60048036038101906102a59190612017565b610890565b005b6102c660048036038101906102c19190612017565b610940565b6040516102d39190611fa9565b60405180910390f35b6102e46109f8565b6040516102f19190611e4d565b60405180910390f35b610314600480360381019061030f9190612070565b610a8a565b005b610330600480360381019061032b91906121e5565b610aa0565b005b61034c60048036038101906103479190611ea5565b610b02565b6040516103599190611e4d565b60405180910390f35b61037c60048036038101906103779190612268565b610ba9565b6040516103899190611d99565b60405180910390f35b60007f780e9d63000000000000000000000000000000000000000000000000000000007bffffffffffffffffffffffffffffffffffffffffffffffffffffffff1916827bffffffffffffffffffffffffffffffffffffffffffffffffffffffff19161480610405575061040482610c3d565b5b9050919050565b60606000805461041b906122d7565b80601f0160208091040260200160405190810160405280929190818152602001828054610447906122d7565b80156104945780601f1061046957610100808354040283529160200191610494565b820191906000526020600020905b81548152906001019060200180831161047757829003601f168201915b5050505050905090565b60006104a982610d1f565b6104e8576040517f08c379a00000000000000000000000000000000000000000000000000000000081526004016104df9061237b565b60405180910390fd5b6004600083815260200190815260200160002060009054906101000a900473ffffffffffffffffffffffffffffffffffffffff169050919050565b600061052e826107de565b90508073ffffffffffffffffffffffffffffffffffffffff168373ffffffffffffffffffffffffffffffffffffffff16141561059f576040517f08c379a00000000000000000000000000000000000000000000000000000000081526004016105969061240d565b60405180910390fd5b8073ffffffffffffffffffffffffffffffffffffffff166105be610d8b565b73ffffffffffffffffffffffffffffffffffffffff1614806105ed57506105ec816105e7610d8b565b610ba9565b5b61062c576040517f08c379a00000000000000000000000000000000000000000000000000000000081526004016106239061249f565b60405180910390fd5b6106368383610d93565b505050565b6000600880549050905090565b610659610653610d8b565b82610e4c565b610698576040517f08c379a000000000000000000000000000000000000000000000000000000000815260040161068f90612531565b60405180910390fd5b6106a3838383610f2a565b505050565b60006106b383610940565b82106106f4576040517f08c379a00000000000000000000000000000000000000000000000000000000081526004016106eb906125c3565b60405180910390fd5b600660008473ffffffffffffffffffffffffffffffffffffffff1673ffffffffffffffffffffffffffffffffffffffff168152602001908152602001600020600083815260200190815260200160002054905092915050565b61076883838360405180602001604052806000815250610aa0565b505050565b600061077761063b565b82106107b8576040517f08c379a00000000000000000000000000000000000000000000000000000000081526004016107af90612655565b60405180910390fd5b600882815481106107cc576107cb612675565b5b90600052602060002001549050919050565b6000806002600084815260200190815260200160002060009054906101000a900473ffffffffffffffffffffffffffffffffffffffff169050600073ffffffffffffffffffffffffffffffffffffffff168173ffffffffffffffffffffffffffffffffffffffff161415610887576040517f08c379a000000000000000000000000000000000000000000000000000000000815260040161087e90612716565b60405180910390fd5b80915050919050565b600a60009054906101000a900473ffffffffffffffffffffffffffffffffffffffff1673ffffffffffffffffffffffffffffffffffffffff163373ffffffffffffffffffffffffffffffffffffffff1614610920576040517f08c379a0000000000000000000000000000000000000000000000000000000008152600401610917906127a8565b60405180910390fd5b61093d81600161092e61063b565b61093891906127f7565b611191565b50565b60008073ffffffffffffffffffffffffffffffffffffffff168273ffffffffffffffffffffffffffffffffffffffff1614156109b1576040517f08c379a00000000000000000000000000000000000000000000000000000000081526004016109a8906128bf565b60405180910390fd5b600360008373ffffffffffffffffffffffffffffffffffffffff1673ffffffffffffffffffffffffffffffffffffffff168152602001908152602001600020549050919050565b606060018054610a07906122d7565b80601f0160208091040260200160405190810160405280929190818152602001828054610a33906122d7565b8015610a805780601f10610a5557610100808354040283529160200191610a80565b820191906000526020600020905b815481529060010190602001808311610a6357829003601f168201915b5050505050905090565b610a9c610a95610d8b565b838361136b565b5050565b610ab1610aab610d8b565b83610e4c565b610af0576040517f08c379a0000000000000000000000000000000000000000000000000000000008152600401610ae790612531565b60405180910390fd5b610afc848484846114d8565b50505050565b6060610b0d82610d1f565b610b4c576040517f08c379a0000000000000000000000000000000000000000000000000000000008152600401610b4390612951565b60405180910390fd5b6000610b56611534565b90506000815111610b765760405180602001604052806000815250610ba1565b80610b808461154b565b604051602001610b919291906129ad565b6040516020818303038152906040525b915050919050565b6000600560008473ffffffffffffffffffffffffffffffffffffffff1673ffffffffffffffffffffffffffffffffffffffff16815260200190815260200160002060008373ffffffffffffffffffffffffffffffffffffffff1673ffffffffffffffffffffffffffffffffffffffff16815260200190815260200160002060009054906101000a900460ff16905092915050565b60007f80ac58cd000000000000000000000000000000000000000000000000000000007bffffffffffffffffffffffffffffffffffffffffffffffffffffffff1916827bffffffffffffffffffffffffffffffffffffffffffffffffffffffff19161480610d0857507f5b5e139f000000000000000000000000000000000000000000000000000000007bffffffffffffffffffffffffffffffffffffffffffffffffffffffff1916827bffffffffffffffffffffffffffffffffffffffffffffffffffffffff1916145b80610d185750610d17826116ac565b5b9050919050565b60008073ffffffffffffffffffffffffffffffffffffffff166002600084815260200190815260200160002060009054906101000a900473ffffffffffffffffffffffffffffffffffffffff1673ffffffffffffffffffffffffffffffffffffffff1614159050919050565b600033905090565b816004600083815260200190815260200160002060006101000a81548173ffffffffffffffffffffffffffffffffffffffff021916908373ffffffffffffffffffffffffffffffffffffffff160217905550808273ffffffffffffffffffffffffffffffffffffffff16610e06836107de565b73ffffffffffffffffffffffffffffffffffffffff167f8c5be1e5ebec7d5bd14f71427d1e84f3dd0314c0f7b2291e5b200ac8c7c3b92560405160405180910390a45050565b6000610e5782610d1f565b610e96576040517f08c379a0000000000000000000000000000000000000000000000000000000008152600401610e8d90612a43565b60405180910390fd5b6000610ea1836107de565b90508073ffffffffffffffffffffffffffffffffffffffff168473ffffffffffffffffffffffffffffffffffffffff161480610f1057508373ffffffffffffffffffffffffffffffffffffffff16610ef88461049e565b73ffffffffffffffffffffffffffffffffffffffff16145b80610f215750610f208185610ba9565b5b91505092915050565b8273ffffffffffffffffffffffffffffffffffffffff16610f4a826107de565b73ffffffffffffffffffffffffffffffffffffffff1614610fa0576040517f08c379a0000000000000000000000000000000000000000000000000000000008152600401610f9790612ad5565b60405180910390fd5b600073ffffffffffffffffffffffffffffffffffffffff168273ffffffffffffffffffffffffffffffffffffffff161415611010576040517f08c379a000000000000000000000000000000000000000000000000000000000815260040161100790612b67565b60405180910390fd5b61101b838383611716565b611026600082610d93565b6001600360008573ffffffffffffffffffffffffffffffffffffffff1673ffffffffffffffffffffffffffffffffffffffff16815260200190815260200160002060008282546110769190612b87565b925050819055506001600360008473ffffffffffffffffffffffffffffffffffffffff1673ffffffffffffffffffffffffffffffffffffffff16815260200190815260200160002060008282546110cd91906127f7565b92505081905550816002600083815260200190815260200160002060006101000a81548173ffffffffffffffffffffffffffffffffffffffff021916908373ffffffffffffffffffffffffffffffffffffffff160217905550808273ffffffffffffffffffffffffffffffffffffffff168473ffffffffffffffffffffffffffffffffffffffff167fddf252ad1be2c89b69c2b068fc378daa952ba7f163c4a11628f55a4df523b3ef60405160405180910390a461118c83838361182a565b505050565b600073ffffffffffffffffffffffffffffffffffffffff168273ffffffffffffffffffffffffffffffffffffffff161415611201576040517f08c379a00000000000000000000000000000000000000000000000000000000081526004016111f890612c07565b60405180910390fd5b61120a81610d1f565b1561124a576040517f08c379a000000000000000000000000000000000000000000000000000000000815260040161124190612c73565b60405180910390fd5b61125660008383611716565b6001600360008473ffffffffffffffffffffffffffffffffffffffff1673ffffffffffffffffffffffffffffffffffffffff16815260200190815260200160002060008282546112a691906127f7565b92505081905550816002600083815260200190815260200160002060006101000a81548173ffffffffffffffffffffffffffffffffffffffff021916908373ffffffffffffffffffffffffffffffffffffffff160217905550808273ffffffffffffffffffffffffffffffffffffffff16600073ffffffffffffffffffffffffffffffffffffffff167fddf252ad1be2c89b69c2b068fc378daa952ba7f163c4a11628f55a4df523b3ef60405160405180910390a46113676000838361182a565b5050565b8173ffffffffffffffffffffffffffffffffffffffff168373ffffffffffffffffffffffffffffffffffffffff1614156113da576040517f08c379a00000000000000000000000000000000000000000000000000000000081526004016113d190612cdf565b60405180910390fd5b80600560008573ffffffffffffffffffffffffffffffffffffffff1673ffffffffffffffffffffffffffffffffffffffff16815260200190815260200160002060008473ffffffffffffffffffffffffffffffffffffffff1673ffffffffffffffffffffffffffffffffffffffff16815260200190815260200160002060006101000a81548160ff0219169083151502179055508173ffffffffffffffffffffffffffffffffffffffff168373ffffffffffffffffffffffffffffffffffffffff167f17307eab39ab6107e8899845ad3d59bd9653f200f220920489ca2b5937696c31836040516114cb9190611d99565b60405180910390a3505050565b6114e3848484610f2a565b6114ef8484848461182f565b61152e576040517f08c379a000000000000000000000000000000000000000000000000000000000815260040161152590612d71565b60405180910390fd5b50505050565b606060405180602001604052806000815250905090565b60606000821415611593576040518060400160405280600181526020017f300000000000000000000000000000000000000000000000000000000000000081525090506116a7565b600082905060005b600082146115c55780806115ae90612d91565b915050600a826115be9190612e09565b915061159b565b60008167ffffffffffffffff8111156115e1576115e06120ba565b5b6040519080825280601f01601f1916602001820160405280156116135781602001600182028036833780820191505090505b5090505b600085146116a05760018261162c9190612b87565b9150600a8561163b9190612e3a565b603061164791906127f7565b60f81b81838151811061165d5761165c612675565b5b60200101907effffffffffffffffffffffffffffffffffffffffffffffffffffffffffffff1916908160001a905350600a856116999190612e09565b9450611617565b8093505050505b919050565b60007f01ffc9a7000000000000000000000000000000000000000000000000000000007bffffffffffffffffffffffffffffffffffffffffffffffffffffffff1916827bffffffffffffffffffffffffffffffffffffffffffffffffffffffff1916149050919050565b6117218383836119b7565b600073ffffffffffffffffffffffffffffffffffffffff168373ffffffffffffffffffffffffffffffffffffffff1614156117645761175f816119bc565b6117a3565b8173ffffffffffffffffffffffffffffffffffffffff168373ffffffffffffffffffffffffffffffffffffffff16146117a2576117a18382611a05565b5b5b600073ffffffffffffffffffffffffffffffffffffffff168273ffffffffffffffffffffffffffffffffffffffff1614156117e6576117e181611b72565b611825565b8273ffffffffffffffffffffffffffffffffffffffff168273ffffffffffffffffffffffffffffffffffffffff1614611824576118238282611c43565b5b5b505050565b505050565b60006118508473ffffffffffffffffffffffffffffffffffffffff16611cc2565b156119aa578373ffffffffffffffffffffffffffffffffffffffff1663150b7a02611879610d8b565b8786866040518563ffffffff1660e01b815260040161189b9493929190612ec0565b6020604051808303816000875af19250505080156118d757506040513d601f19601f820116820180604052508101906118d49190612f21565b60015b61195a573d8060008114611907576040519150601f19603f3d011682016040523d82523d6000602084013e61190c565b606091505b50600081511415611952576040517f08c379a000000000000000000000000000000000000000000000000000000000815260040161194990612d71565b60405180910390fd5b805181602001fd5b63150b7a0260e01b7bffffffffffffffffffffffffffffffffffffffffffffffffffffffff1916817bffffffffffffffffffffffffffffffffffffffffffffffffffffffff1916149150506119af565b600190505b949350505050565b505050565b6008805490506009600083815260200190815260200160002081905550600881908060018154018082558091505060019003906000526020600020016000909190919091505550565b60006001611a1284610940565b611a1c9190612b87565b9050600060076000848152602001908152602001600020549050818114611b01576000600660008673ffffffffffffffffffffffffffffffffffffffff1673ffffffffffffffffffffffffffffffffffffffff168152602001908152602001600020600084815260200190815260200160002054905080600660008773ffffffffffffffffffffffffffffffffffffffff1673ffffffffffffffffffffffffffffffffffffffff168152602001908152602001600020600084815260200190815260200160002081905550816007600083815260200190815260200160002081905550505b6007600084815260200190815260200160002060009055600660008573ffffffffffffffffffffffffffffffffffffffff1673ffffffffffffffffffffffffffffffffffffffff16815260200190815260200160002060008381526020019081526020016000206000905550505050565b60006001600880549050611b869190612b87565b9050600060096000848152602001908152602001600020549050600060088381548110611bb657611bb5612675565b5b906000526020600020015490508060088381548110611bd857611bd7612675565b5b906000526020600020018190555081600960008381526020019081526020016000208190555060096000858152602001908152602001600020600090556008805480611c2757611c26612f4e565b5b6001900381819060005260206000200160009055905550505050565b6000611c4e83610940565b905081600660008573ffffffffffffffffffffffffffffffffffffffff1673ffffffffffffffffffffffffffffffffffffffff168152602001908152602001600020600083815260200190815260200160002081905550806007600084815260200190815260200160002081905550505050565b6000808273ffffffffffffffffffffffffffffffffffffffff163b119050919050565b6000604051905090565b600080fd5b600080fd5b60007fffffffff0000000000000000000000000000000000000000000000000000000082169050919050565b611d2e81611cf9565b8114611d3957600080fd5b50565b600081359050611d4b81611d25565b92915050565b600060208284031215611d6757611d66611cef565b5b6000611d7584828501611d3c565b91505092915050565b60008115159050919050565b611d9381611d7e565b82525050565b6000602082019050611dae6000830184611d8a565b92915050565b600081519050919050565b600082825260208201905092915050565b60005b83811015611dee578082015181840152602081019050611dd3565b83811115611dfd576000848401525b50505050565b6000601f19601f8301169050919050565b6000611e1f82611db4565b611e298185611dbf565b9350611e39818560208601611dd0565b611e4281611e03565b840191505092915050565b60006020820190508181036000830152611e678184611e14565b905092915050565b6000819050919050565b611e8281611e6f565b8114611e8d57600080fd5b50565b600081359050611e9f81611e79565b92915050565b600060208284031215611ebb57611eba611cef565b5b6000611ec984828501611e90565b91505092915050565b600073ffffffffffffffffffffffffffffffffffffffff82169050919050565b6000611efd82611ed2565b9050919050565b611f0d81611ef2565b82525050565b6000602082019050611f286000830184611f04565b92915050565b611f3781611ef2565b8114611f4257600080fd5b50565b600081359050611f5481611f2e565b92915050565b60008060408385031215611f7157611f70611cef565b5b6000611f7f85828601611f45565b9250506020611f9085828601611e90565b9150509250929050565b611fa381611e6f565b82525050565b6000602082019050611fbe6000830184611f9a565b92915050565b600080600060608486031215611fdd57611fdc611cef565b5b6000611feb86828701611f45565b9350506020611ffc86828701611f45565b925050604061200d86828701611e90565b9150509250925092565b60006020828403121561202d5761202c611cef565b5b600061203b84828501611f45565b91505092915050565b61204d81611d7e565b811461205857600080fd5b50565b60008135905061206a81612044565b92915050565b6000806040838503121561208757612086611cef565b5b600061209585828601611f45565b92505060206120a68582860161205b565b9150509250929050565b600080fd5b600080fd5b7f4e487b7100000000000000000000000000000000000000000000000000000000600052604160045260246000fd5b6120f282611e03565b810181811067ffffffffffffffff82111715612111576121106120ba565b5b80604052505050565b6000612124611ce5565b905061213082826120e9565b919050565b600067ffffffffffffffff8211156121505761214f6120ba565b5b61215982611e03565b9050602081019050919050565b82818337600083830152505050565b600061218861218384612135565b61211a565b9050828152602081018484840111156121a4576121a36120b5565b5b6121af848285612166565b509392505050565b600082601f8301126121cc576121cb6120b0565b5b81356121dc848260208601612175565b91505092915050565b600080600080608085870312156121ff576121fe611cef565b5b600061220d87828801611f45565b945050602061221e87828801611f45565b935050604061222f87828801611e90565b925050606085013567ffffffffffffffff8111156122505761224f611cf4565b5b61225c878288016121b7565b91505092959194509250565b6000806040838503121561227f5761227e611cef565b5b600061228d85828601611f45565b925050602061229e85828601611f45565b9150509250929050565b7f4e487b7100000000000000000000000000000000000000000000000000000000600052602260045260246000fd5b600060028204905060018216806122ef57607f821691505b60208210811415612303576123026122a8565b5b50919050565b7f4552433732313a20617070726f76656420717565727920666f72206e6f6e657860008201527f697374656e7420746f6b656e0000000000000000000000000000000000000000602082015250565b6000612365602c83611dbf565b915061237082612309565b604082019050919050565b6000602082019050818103600083015261239481612358565b9050919050565b7f4552433732313a20617070726f76616c20746f2063757272656e74206f776e6560008201527f7200000000000000000000000000000000000000000000000000000000000000602082015250565b60006123f7602183611dbf565b91506124028261239b565b604082019050919050565b60006020820190508181036000830152612426816123ea565b9050919050565b7f4552433732313a20617070726f76652063616c6c6572206973206e6f74206f7760008201527f6e6572206e6f7220617070726f76656420666f7220616c6c0000000000000000602082015250565b6000612489603883611dbf565b91506124948261242d565b604082019050919050565b600060208201905081810360008301526124b88161247c565b9050919050565b7f4552433732313a207472616e736665722063616c6c6572206973206e6f74206f60008201527f776e6572206e6f7220617070726f766564000000000000000000000000000000602082015250565b600061251b603183611dbf565b9150612526826124bf565b604082019050919050565b6000602082019050818103600083015261254a8161250e565b9050919050565b7f455243373231456e756d657261626c653a206f776e657220696e646578206f7560008201527f74206f6620626f756e6473000000000000000000000000000000000000000000602082015250565b60006125ad602b83611dbf565b91506125b882612551565b604082019050919050565b600060208201905081810360008301526125dc816125a0565b9050919050565b7f455243373231456e756d657261626c653a20676c6f62616c20696e646578206f60008201527f7574206f6620626f756e64730000000000000000000000000000000000000000602082015250565b600061263f602c83611dbf565b915061264a826125e3565b604082019050919050565b6000602082019050818103600083015261266e81612632565b9050919050565b7f4e487b7100000000000000000000000000000000000000000000000000000000600052603260045260246000fd5b7f4552433732313a206f776e657220717565727920666f72206e6f6e657869737460008201527f656e7420746f6b656e0000000000000000000000000000000000000000000000602082015250565b6000612700602983611dbf565b915061270b826126a4565b604082019050919050565b6000602082019050818103600083015261272f816126f3565b9050919050565b7f4f6e6c7920726f7574696e6720616464726573732063616e206d696e74206f6e60008201527f2073656c6c65727320626568616c660000000000000000000000000000000000602082015250565b6000612792602f83611dbf565b915061279d82612736565b604082019050919050565b600060208201905081810360008301526127c181612785565b9050919050565b7f4e487b7100000000000000000000000000000000000000000000000000000000600052601160045260246000fd5b600061280282611e6f565b915061280d83611e6f565b9250827fffffffffffffffffffffffffffffffffffffffffffffffffffffffffffffffff03821115612842576128416127c8565b5b828201905092915050565b7f4552433732313a2062616c616e636520717565727920666f7220746865207a6560008201527f726f206164647265737300000000000000000000000000000000000000000000602082015250565b60006128a9602a83611dbf565b91506128b48261284d565b604082019050919050565b600060208201905081810360008301526128d88161289c565b9050919050565b7f4552433732314d657461646174613a2055524920717565727920666f72206e6f60008201527f6e6578697374656e7420746f6b656e0000000000000000000000000000000000602082015250565b600061293b602f83611dbf565b9150612946826128df565b604082019050919050565b6000602082019050818103600083015261296a8161292e565b9050919050565b600081905092915050565b600061298782611db4565b6129918185612971565b93506129a1818560208601611dd0565b80840191505092915050565b60006129b9828561297c565b91506129c5828461297c565b91508190509392505050565b7f4552433732313a206f70657261746f7220717565727920666f72206e6f6e657860008201527f697374656e7420746f6b656e0000000000000000000000000000000000000000602082015250565b6000612a2d602c83611dbf565b9150612a38826129d1565b604082019050919050565b60006020820190508181036000830152612a5c81612a20565b9050919050565b7f4552433732313a207472616e736665722066726f6d20696e636f72726563742060008201527f6f776e6572000000000000000000000000000000000000000000000000000000602082015250565b6000612abf602583611dbf565b9150612aca82612a63565b604082019050919050565b60006020820190508181036000830152612aee81612ab2565b9050919050565b7f4552433732313a207472616e7366657220746f20746865207a65726f2061646460008201527f7265737300000000000000000000000000000000000000000000000000000000602082015250565b6000612b51602483611dbf565b9150612b5c82612af5565b604082019050919050565b60006020820190508181036000830152612b8081612b44565b9050919050565b6000612b9282611e6f565b9150612b9d83611e6f565b925082821015612bb057612baf6127c8565b5b828203905092915050565b7f4552433732313a206d696e7420746f20746865207a65726f2061646472657373600082015250565b6000612bf1602083611dbf565b9150612bfc82612bbb565b602082019050919050565b60006020820190508181036000830152612c2081612be4565b9050919050565b7f4552433732313a20746f6b656e20616c7265616479206d696e74656400000000600082015250565b6000612c5d601c83611dbf565b9150612c6882612c27565b602082019050919050565b60006020820190508181036000830152612c8c81612c50565b9050919050565b7f4552433732313a20617070726f766520746f2063616c6c657200000000000000600082015250565b6000612cc9601983611dbf565b9150612cd482612c93565b602082019050919050565b60006020820190508181036000830152612cf881612cbc565b9050919050565b7f4552433732313a207472616e7366657220746f206e6f6e20455243373231526560008201527f63656976657220696d706c656d656e7465720000000000000000000000000000602082015250565b6000612d5b603283611dbf565b9150612d6682612cff565b604082019050919050565b60006020820190508181036000830152612d8a81612d4e565b9050919050565b6000612d9c82611e6f565b91507fffffffffffffffffffffffffffffffffffffffffffffffffffffffffffffffff821415612dcf57612dce6127c8565b5b600182019050919050565b7f4e487b7100000000000000000000000000000000000000000000000000000000600052601260045260246000fd5b6000612e1482611e6f565b9150612e1f83611e6f565b925082612e2f57612e2e612dda565b5b828204905092915050565b6000612e4582611e6f565b9150612e5083611e6f565b925082612e6057612e5f612dda565b5b828206905092915050565b600081519050919050565b600082825260208201905092915050565b6000612e9282612e6b565b612e9c8185612e76565b9350612eac818560208601611dd0565b612eb581611e03565b840191505092915050565b6000608082019050612ed56000830187611f04565b612ee26020830186611f04565b612eef6040830185611f9a565b8181036060830152612f018184612e87565b905095945050505050565b600081519050612f1b81611d25565b92915050565b600060208284031215612f3757612f36611cef565b5b6000612f4584828501612f0c565b91505092915050565b7f4e487b7100000000000000000000000000000000000000000000000000000000600052603160045260246000fdfea26469706673582212205d58e847be36393dc007ac1a208fb68fcf9e2cb764c17d0aa2e9932c401aafc064736f6c634300080c0033a26469706673582212204381823d2fdc33935c4e9e8317450706e4821b9309abd0703143808cdc2ab0c664736f6c634300080c0033",
  "immutableReferences": {},
  "source": "//// SPDX-License-Identifier: MIT\npragma solidity ^0.8.6;\nimport \"./TopShelf.sol\";\nimport \"./TopToken.sol\";\nimport \"./NFTFactory.sol\";\n\n\n// TopShelf Market Routing contract allows\n// Affiliate purchasing of TopShelf listings\n// NFT contract generation for sellers to reward buyers\n// Purchasing through affiliates\n// Customers listing renewals\ncontract TopRouter {\n\n    mapping(address => mapping(uint256 => NFTFactory)) public mintContract;  // Contract owned by listing owner that can mint upon purchasing of item\n    TopShelf topshelf;\n    TopToken token;\n    address admin;\n\n    event AffiliatePurchase(address affiliate, uint256 _itemId);\n    event CustomerRenewal(address customer, uint256 _itemId, uint256 amount);\n\n    constructor(TopShelf _topshelf, TopToken _token){\n        topshelf = _topshelf;\n        token = _token;\n        admin = msg.sender;\n    }\n\n    function setMinter(uint256 _itemId, NFTFactory tokenContract) public {  // People can route purchases through their contracts\n        // Function listers will set their minting contract\n        mintContract[msg.sender][_itemId] = tokenContract;  // TODO public visibility may be vulnerable\n    }\n\n    function sellerNFTContractList(string memory name_, string memory symbol_, \n      string memory _name, string memory _description, string memory _URI, uint256 _price, bool _paused,  uint256 _stock) external payable returns(bool){\n        // Create a TopShelf listing\n        uint256 itemId = topshelf.mint(_name, _description, _URI, _price, _paused, _stock);//(topshelf.listFee);\n        // Deploy an OpenZeppelin NFT contract for the seller\n        NFTFactory _contract = new NFTFactory(name_, symbol_, address(this));\n        // Set this new contract as the mint reward for purchases of this listing\n        setMinter(itemId, _contract);\n        return true;\n    }\n\n\n    function affiliateBuyMint(address lister, uint256 _itemId) external payable returns(bool){  // Function customers call\n        // require(topshelf.ownerOf(_itemId)==lister, \"Only listing owner can issue NFTs upon purchase\");  // NOTE todo idea bug\n        topshelf.buyItem(_itemId);  // NEED TO FORWARD PAYMENT HERE\n        mintContract[lister][_itemId].mint(msg.sender);\n        return true;\n    }\n\n    function customerItemRenewal(uint256 _itemId, uint256 _tokenAmount) external returns(bool){  // Function customers call\n        // require(topshelf.ownerOf(_itemId)==lister, \"Only listing owner can issue NFTs upon purchase\");\n        token.transferFrom(msg.sender, address(this), _tokenAmount); // @NOTE: Not ideal since customer transfer TOP to Router then router to renewal \n        topshelf.renewItem(_itemId, _tokenAmount);  // NEED TO FORWARD PAYMENT HERE\n        emit CustomerRenewal(msg.sender, _itemId, _tokenAmount);\n        return true;\n    }\n}\n",
  "sourcePath": "/Users/alexa/PycharmProjects/VsShelf/src/contracts/TopRoute.sol",
  "compiler": {
    "name": "solc",
    "version": "0.8.12+commit.f00d7308.Emscripten.clang"
  },
  "schemaVersion": "3.4.4",
  "updatedAt": "2022-03-14T20:07:54.235Z",
  "devdoc": {
    "kind": "dev",
    "methods": {},
    "version": 1
  },
  "userdoc": {
    "kind": "user",
    "methods": {},
    "version": 1
  }
}