{
  "contractName": "TopShelf",
  "abi": [
    {
      "inputs": [
        {
          "internalType": "string",
          "name": "_name",
          "type": "string"
        },
        {
          "internalType": "string",
          "name": "_symbol",
          "type": "string"
        },
        {
          "internalType": "contract TopToken",
          "name": "_token",
          "type": "address"
        },
        {
          "internalType": "uint256",
          "name": "_listFee",
          "type": "uint256"
        },
        {
          "internalType": "uint256",
          "name": "_transferFee",
          "type": "uint256"
        },
        {
          "internalType": "uint256",
          "name": "_foreclosureFee",
          "type": "uint256"
        },
        {
          "internalType": "uint256",
          "name": "_stakerReward",
          "type": "uint256"
        },
        {
          "internalType": "uint256",
          "name": "_unstakePenalty",
          "type": "uint256"
        },
        {
          "internalType": "uint256",
          "name": "_buyReward",
          "type": "uint256"
        },
        {
          "internalType": "uint256",
          "name": "_defaultLeaseDuration",
          "type": "uint256"
        },
        {
          "internalType": "uint256",
          "name": "_renewalRatio",
          "type": "uint256"
        }
      ],
      "stateMutability": "nonpayable",
      "type": "constructor"
    },
    {
      "anonymous": false,
      "inputs": [
        {
          "indexed": true,
          "internalType": "address",
          "name": "_owner",
          "type": "address"
        },
        {
          "indexed": true,
          "internalType": "address",
          "name": "_approved",
          "type": "address"
        },
        {
          "indexed": true,
          "internalType": "uint256",
          "name": "_tokenId",
          "type": "uint256"
        }
      ],
      "name": "Approval",
      "type": "event"
    },
    {
      "anonymous": false,
      "inputs": [
        {
          "indexed": true,
          "internalType": "address",
          "name": "_owner",
          "type": "address"
        },
        {
          "indexed": true,
          "internalType": "address",
          "name": "_operator",
          "type": "address"
        },
        {
          "indexed": false,
          "internalType": "bool",
          "name": "_approved",
          "type": "bool"
        }
      ],
      "name": "ApprovalForAll",
      "type": "event"
    },
    {
      "anonymous": false,
      "inputs": [
        {
          "indexed": true,
          "internalType": "uint256",
          "name": "_itemId",
          "type": "uint256"
        }
      ],
      "name": "ItemForeclosed",
      "type": "event"
    },
    {
      "anonymous": false,
      "inputs": [
        {
          "indexed": true,
          "internalType": "address",
          "name": "_buyer",
          "type": "address"
        },
        {
          "indexed": true,
          "internalType": "uint256",
          "name": "_itemId",
          "type": "uint256"
        }
      ],
      "name": "ItemPurchased",
      "type": "event"
    },
    {
      "anonymous": false,
      "inputs": [
        {
          "indexed": true,
          "internalType": "uint256",
          "name": "_itemId",
          "type": "uint256"
        }
      ],
      "name": "PausedItem",
      "type": "event"
    },
    {
      "anonymous": false,
      "inputs": [
        {
          "indexed": true,
          "internalType": "uint256",
          "name": "_itemId",
          "type": "uint256"
        }
      ],
      "name": "RenewedItem",
      "type": "event"
    },
    {
      "anonymous": false,
      "inputs": [
        {
          "indexed": true,
          "internalType": "uint256",
          "name": "_itemId",
          "type": "uint256"
        }
      ],
      "name": "SelfForeclosedItem",
      "type": "event"
    },
    {
      "anonymous": false,
      "inputs": [
        {
          "indexed": true,
          "internalType": "address",
          "name": "_staker",
          "type": "address"
        },
        {
          "indexed": true,
          "internalType": "uint256",
          "name": "_itemId",
          "type": "uint256"
        },
        {
          "indexed": true,
          "internalType": "uint256",
          "name": "_amount",
          "type": "uint256"
        }
      ],
      "name": "StakeAdded",
      "type": "event"
    },
    {
      "anonymous": false,
      "inputs": [
        {
          "indexed": true,
          "internalType": "address",
          "name": "_staker",
          "type": "address"
        },
        {
          "indexed": true,
          "internalType": "uint256",
          "name": "_itemId",
          "type": "uint256"
        },
        {
          "indexed": true,
          "internalType": "uint256",
          "name": "_amount",
          "type": "uint256"
        }
      ],
      "name": "StakeRemoved",
      "type": "event"
    },
    {
      "anonymous": false,
      "inputs": [
        {
          "indexed": true,
          "internalType": "address",
          "name": "_sender",
          "type": "address"
        }
      ],
      "name": "TestSender",
      "type": "event"
    },
    {
      "anonymous": false,
      "inputs": [
        {
          "indexed": true,
          "internalType": "address",
          "name": "_from",
          "type": "address"
        },
        {
          "indexed": true,
          "internalType": "address",
          "name": "_to",
          "type": "address"
        },
        {
          "indexed": true,
          "internalType": "uint256",
          "name": "_itemId",
          "type": "uint256"
        }
      ],
      "name": "Transfer",
      "type": "event"
    },
    {
      "inputs": [],
      "name": "buyReward",
      "outputs": [
        {
          "internalType": "uint256",
          "name": "",
          "type": "uint256"
        }
      ],
      "stateMutability": "view",
      "type": "function",
      "constant": true
    },
    {
      "inputs": [],
      "name": "defaultLeaseDuration",
      "outputs": [
        {
          "internalType": "uint256",
          "name": "",
          "type": "uint256"
        }
      ],
      "stateMutability": "view",
      "type": "function",
      "constant": true
    },
    {
      "inputs": [],
      "name": "foreclosureFee",
      "outputs": [
        {
          "internalType": "uint256",
          "name": "",
          "type": "uint256"
        }
      ],
      "stateMutability": "view",
      "type": "function",
      "constant": true
    },
    {
      "inputs": [
        {
          "internalType": "uint256",
          "name": "",
          "type": "uint256"
        }
      ],
      "name": "itemOperator",
      "outputs": [
        {
          "internalType": "address",
          "name": "",
          "type": "address"
        }
      ],
      "stateMutability": "view",
      "type": "function",
      "constant": true
    },
    {
      "inputs": [
        {
          "internalType": "uint256",
          "name": "",
          "type": "uint256"
        }
      ],
      "name": "itemOwner",
      "outputs": [
        {
          "internalType": "address",
          "name": "",
          "type": "address"
        }
      ],
      "stateMutability": "view",
      "type": "function",
      "constant": true
    },
    {
      "inputs": [],
      "name": "listFee",
      "outputs": [
        {
          "internalType": "uint256",
          "name": "",
          "type": "uint256"
        }
      ],
      "stateMutability": "view",
      "type": "function",
      "constant": true
    },
    {
      "inputs": [
        {
          "internalType": "uint256",
          "name": "",
          "type": "uint256"
        }
      ],
      "name": "listings",
      "outputs": [
        {
          "internalType": "string",
          "name": "name",
          "type": "string"
        },
        {
          "internalType": "string",
          "name": "description",
          "type": "string"
        },
        {
          "internalType": "string",
          "name": "URI",
          "type": "string"
        },
        {
          "internalType": "bool",
          "name": "paused",
          "type": "bool"
        },
        {
          "internalType": "uint256",
          "name": "price",
          "type": "uint256"
        },
        {
          "internalType": "uint256",
          "name": "stock",
          "type": "uint256"
        },
        {
          "internalType": "uint256",
          "name": "leaseDuration",
          "type": "uint256"
        },
        {
          "internalType": "uint256",
          "name": "dateCreated",
          "type": "uint256"
        },
        {
          "internalType": "uint256",
          "name": "timesPurchased",
          "type": "uint256"
        },
        {
          "internalType": "uint256",
          "name": "totalStaked",
          "type": "uint256"
        }
      ],
      "stateMutability": "view",
      "type": "function",
      "constant": true
    },
    {
      "inputs": [],
      "name": "name",
      "outputs": [
        {
          "internalType": "string",
          "name": "",
          "type": "string"
        }
      ],
      "stateMutability": "view",
      "type": "function",
      "constant": true
    },
    {
      "inputs": [
        {
          "internalType": "address",
          "name": "",
          "type": "address"
        }
      ],
      "name": "ownerItemCount",
      "outputs": [
        {
          "internalType": "uint256",
          "name": "",
          "type": "uint256"
        }
      ],
      "stateMutability": "view",
      "type": "function",
      "constant": true
    },
    {
      "inputs": [
        {
          "internalType": "address",
          "name": "",
          "type": "address"
        }
      ],
      "name": "ownerOperator",
      "outputs": [
        {
          "internalType": "address",
          "name": "",
          "type": "address"
        }
      ],
      "stateMutability": "view",
      "type": "function",
      "constant": true
    },
    {
      "inputs": [],
      "name": "renewalRatio",
      "outputs": [
        {
          "internalType": "uint256",
          "name": "",
          "type": "uint256"
        }
      ],
      "stateMutability": "view",
      "type": "function",
      "constant": true
    },
    {
      "inputs": [],
      "name": "stakeLeaseReward",
      "outputs": [
        {
          "internalType": "uint256",
          "name": "",
          "type": "uint256"
        }
      ],
      "stateMutability": "view",
      "type": "function",
      "constant": true
    },
    {
      "inputs": [
        {
          "internalType": "address",
          "name": "",
          "type": "address"
        }
      ],
      "name": "stakerItemCount",
      "outputs": [
        {
          "internalType": "uint256",
          "name": "",
          "type": "uint256"
        }
      ],
      "stateMutability": "view",
      "type": "function",
      "constant": true
    },
    {
      "inputs": [
        {
          "internalType": "address",
          "name": "",
          "type": "address"
        },
        {
          "internalType": "uint256",
          "name": "",
          "type": "uint256"
        }
      ],
      "name": "stakerItemStakeId",
      "outputs": [
        {
          "internalType": "uint256",
          "name": "",
          "type": "uint256"
        }
      ],
      "stateMutability": "view",
      "type": "function",
      "constant": true
    },
    {
      "inputs": [],
      "name": "stakerReward",
      "outputs": [
        {
          "internalType": "uint256",
          "name": "",
          "type": "uint256"
        }
      ],
      "stateMutability": "view",
      "type": "function",
      "constant": true
    },
    {
      "inputs": [],
      "name": "symbol",
      "outputs": [
        {
          "internalType": "string",
          "name": "",
          "type": "string"
        }
      ],
      "stateMutability": "view",
      "type": "function",
      "constant": true
    },
    {
      "inputs": [],
      "name": "totalSupply",
      "outputs": [
        {
          "internalType": "uint256",
          "name": "",
          "type": "uint256"
        }
      ],
      "stateMutability": "view",
      "type": "function",
      "constant": true
    },
    {
      "inputs": [],
      "name": "transferFee",
      "outputs": [
        {
          "internalType": "uint256",
          "name": "",
          "type": "uint256"
        }
      ],
      "stateMutability": "view",
      "type": "function",
      "constant": true
    },
    {
      "inputs": [],
      "name": "unstakePenalty",
      "outputs": [
        {
          "internalType": "uint256",
          "name": "",
          "type": "uint256"
        }
      ],
      "stateMutability": "view",
      "type": "function",
      "constant": true
    },
    {
      "inputs": [
        {
          "internalType": "address",
          "name": "_address",
          "type": "address"
        }
      ],
      "name": "setTokenAddress",
      "outputs": [],
      "stateMutability": "nonpayable",
      "type": "function"
    },
    {
      "inputs": [
        {
          "internalType": "uint256",
          "name": "_amount",
          "type": "uint256"
        }
      ],
      "name": "setTransferFee",
      "outputs": [],
      "stateMutability": "nonpayable",
      "type": "function"
    },
    {
      "inputs": [
        {
          "internalType": "uint256",
          "name": "_amount",
          "type": "uint256"
        }
      ],
      "name": "setListFee",
      "outputs": [],
      "stateMutability": "nonpayable",
      "type": "function"
    },
    {
      "inputs": [
        {
          "internalType": "uint256",
          "name": "_seconds",
          "type": "uint256"
        }
      ],
      "name": "setDefaultLeaseDuration",
      "outputs": [],
      "stateMutability": "nonpayable",
      "type": "function"
    },
    {
      "inputs": [
        {
          "internalType": "uint256",
          "name": "_tokenSeconds",
          "type": "uint256"
        }
      ],
      "name": "setRenewalRatio",
      "outputs": [],
      "stateMutability": "nonpayable",
      "type": "function"
    },
    {
      "inputs": [
        {
          "internalType": "uint256",
          "name": "_amount",
          "type": "uint256"
        }
      ],
      "name": "setForeclosureFee",
      "outputs": [],
      "stateMutability": "nonpayable",
      "type": "function"
    },
    {
      "inputs": [
        {
          "internalType": "uint256",
          "name": "_amount",
          "type": "uint256"
        }
      ],
      "name": "setStakerReward",
      "outputs": [],
      "stateMutability": "nonpayable",
      "type": "function"
    },
    {
      "inputs": [
        {
          "internalType": "uint256",
          "name": "_amount",
          "type": "uint256"
        }
      ],
      "name": "setBuyReward",
      "outputs": [],
      "stateMutability": "nonpayable",
      "type": "function"
    },
    {
      "inputs": [
        {
          "internalType": "address",
          "name": "_owner",
          "type": "address"
        }
      ],
      "name": "balanceOf",
      "outputs": [
        {
          "internalType": "uint256",
          "name": "",
          "type": "uint256"
        }
      ],
      "stateMutability": "view",
      "type": "function",
      "constant": true
    },
    {
      "inputs": [
        {
          "internalType": "uint256",
          "name": "_itemId",
          "type": "uint256"
        }
      ],
      "name": "ownerOf",
      "outputs": [
        {
          "internalType": "address",
          "name": "",
          "type": "address"
        }
      ],
      "stateMutability": "view",
      "type": "function",
      "constant": true
    },
    {
      "inputs": [
        {
          "internalType": "uint256",
          "name": "_itemId",
          "type": "uint256"
        }
      ],
      "name": "itemExpiryDate",
      "outputs": [
        {
          "internalType": "uint256",
          "name": "",
          "type": "uint256"
        }
      ],
      "stateMutability": "view",
      "type": "function",
      "constant": true
    },
    {
      "inputs": [
        {
          "internalType": "uint256",
          "name": "_itemId",
          "type": "uint256"
        }
      ],
      "name": "itemDelinquent",
      "outputs": [
        {
          "internalType": "bool",
          "name": "",
          "type": "bool"
        }
      ],
      "stateMutability": "view",
      "type": "function",
      "constant": true
    },
    {
      "inputs": [
        {
          "internalType": "address",
          "name": "owner",
          "type": "address"
        }
      ],
      "name": "getOwnerItems",
      "outputs": [
        {
          "internalType": "uint256[]",
          "name": "",
          "type": "uint256[]"
        }
      ],
      "stateMutability": "view",
      "type": "function",
      "constant": true
    },
    {
      "inputs": [
        {
          "internalType": "address",
          "name": "owner",
          "type": "address"
        },
        {
          "internalType": "uint256",
          "name": "itemId",
          "type": "uint256"
        }
      ],
      "name": "getstakerItemStakeId",
      "outputs": [
        {
          "internalType": "uint256",
          "name": "",
          "type": "uint256"
        }
      ],
      "stateMutability": "view",
      "type": "function",
      "constant": true
    },
    {
      "inputs": [
        {
          "internalType": "uint256",
          "name": "itemId",
          "type": "uint256"
        },
        {
          "internalType": "uint256",
          "name": "stakeId",
          "type": "uint256"
        }
      ],
      "name": "getItemStakeIdStake",
      "outputs": [
        {
          "internalType": "uint256",
          "name": "",
          "type": "uint256"
        }
      ],
      "stateMutability": "view",
      "type": "function",
      "constant": true
    },
    {
      "inputs": [
        {
          "internalType": "uint256",
          "name": "itemId",
          "type": "uint256"
        }
      ],
      "name": "getStakedAmounts",
      "outputs": [
        {
          "internalType": "uint256[]",
          "name": "",
          "type": "uint256[]"
        }
      ],
      "stateMutability": "view",
      "type": "function",
      "constant": true
    },
    {
      "inputs": [],
      "name": "getBalance",
      "outputs": [
        {
          "internalType": "uint256",
          "name": "",
          "type": "uint256"
        }
      ],
      "stateMutability": "view",
      "type": "function",
      "constant": true
    },
    {
      "inputs": [
        {
          "internalType": "uint256",
          "name": "_amount",
          "type": "uint256"
        }
      ],
      "name": "withdraw",
      "outputs": [
        {
          "internalType": "bool",
          "name": "",
          "type": "bool"
        }
      ],
      "stateMutability": "nonpayable",
      "type": "function"
    },
    {
      "inputs": [
        {
          "internalType": "string",
          "name": "_name",
          "type": "string"
        },
        {
          "internalType": "string",
          "name": "_description",
          "type": "string"
        },
        {
          "internalType": "string",
          "name": "_URI",
          "type": "string"
        },
        {
          "internalType": "uint256",
          "name": "_price",
          "type": "uint256"
        },
        {
          "internalType": "bool",
          "name": "_paused",
          "type": "bool"
        },
        {
          "internalType": "uint256",
          "name": "_stock",
          "type": "uint256"
        }
      ],
      "name": "mint",
      "outputs": [],
      "stateMutability": "payable",
      "type": "function",
      "payable": true
    },
    {
      "inputs": [
        {
          "internalType": "uint256",
          "name": "_itemId",
          "type": "uint256"
        }
      ],
      "name": "buyItem",
      "outputs": [
        {
          "internalType": "address",
          "name": "",
          "type": "address"
        }
      ],
      "stateMutability": "payable",
      "type": "function",
      "payable": true
    },
    {
      "inputs": [
        {
          "components": [
            {
              "internalType": "string",
              "name": "name",
              "type": "string"
            },
            {
              "internalType": "string",
              "name": "description",
              "type": "string"
            },
            {
              "internalType": "string",
              "name": "URI",
              "type": "string"
            },
            {
              "internalType": "bool",
              "name": "paused",
              "type": "bool"
            },
            {
              "internalType": "uint256",
              "name": "price",
              "type": "uint256"
            },
            {
              "internalType": "uint256",
              "name": "stock",
              "type": "uint256"
            },
            {
              "internalType": "uint256",
              "name": "leaseDuration",
              "type": "uint256"
            },
            {
              "internalType": "uint256",
              "name": "dateCreated",
              "type": "uint256"
            },
            {
              "internalType": "uint256",
              "name": "timesPurchased",
              "type": "uint256"
            },
            {
              "internalType": "uint256",
              "name": "totalStaked",
              "type": "uint256"
            },
            {
              "internalType": "uint256[]",
              "name": "vacantStakeSlots",
              "type": "uint256[]"
            },
            {
              "internalType": "address[]",
              "name": "stakerAddresses",
              "type": "address[]"
            },
            {
              "internalType": "uint256[]",
              "name": "stakerAmounts",
              "type": "uint256[]"
            }
          ],
          "internalType": "struct TopShelf.Item",
          "name": "_item",
          "type": "tuple"
        },
        {
          "internalType": "uint256",
          "name": "_reward",
          "type": "uint256"
        }
      ],
      "name": "rewardStakers",
      "outputs": [
        {
          "internalType": "uint256",
          "name": "",
          "type": "uint256"
        }
      ],
      "stateMutability": "nonpayable",
      "type": "function"
    },
    {
      "inputs": [
        {
          "internalType": "uint256",
          "name": "_itemId",
          "type": "uint256"
        },
        {
          "internalType": "uint256",
          "name": "_amount",
          "type": "uint256"
        }
      ],
      "name": "addItemStake",
      "outputs": [
        {
          "internalType": "bool",
          "name": "",
          "type": "bool"
        }
      ],
      "stateMutability": "nonpayable",
      "type": "function"
    },
    {
      "inputs": [
        {
          "internalType": "uint256",
          "name": "_itemId",
          "type": "uint256"
        },
        {
          "internalType": "uint256",
          "name": "_amount",
          "type": "uint256"
        }
      ],
      "name": "removeItemStake",
      "outputs": [
        {
          "internalType": "bool",
          "name": "",
          "type": "bool"
        }
      ],
      "stateMutability": "nonpayable",
      "type": "function"
    },
    {
      "inputs": [
        {
          "internalType": "address",
          "name": "_to",
          "type": "address"
        },
        {
          "internalType": "uint256",
          "name": "_itemId",
          "type": "uint256"
        }
      ],
      "name": "transfer",
      "outputs": [],
      "stateMutability": "nonpayable",
      "type": "function"
    },
    {
      "inputs": [
        {
          "internalType": "uint256",
          "name": "_itemId",
          "type": "uint256"
        },
        {
          "internalType": "uint256",
          "name": "_tokenAmount",
          "type": "uint256"
        }
      ],
      "name": "renewItem",
      "outputs": [],
      "stateMutability": "nonpayable",
      "type": "function"
    },
    {
      "inputs": [
        {
          "internalType": "uint256",
          "name": "_itemId",
          "type": "uint256"
        }
      ],
      "name": "forecloseItem",
      "outputs": [
        {
          "internalType": "bool",
          "name": "",
          "type": "bool"
        }
      ],
      "stateMutability": "nonpayable",
      "type": "function"
    },
    {
      "inputs": [
        {
          "internalType": "uint256",
          "name": "_itemId",
          "type": "uint256"
        },
        {
          "internalType": "string",
          "name": "_name",
          "type": "string"
        },
        {
          "internalType": "uint256",
          "name": "_price",
          "type": "uint256"
        },
        {
          "internalType": "string",
          "name": "_description",
          "type": "string"
        }
      ],
      "name": "forecloseRenovate",
      "outputs": [
        {
          "internalType": "bool",
          "name": "",
          "type": "bool"
        }
      ],
      "stateMutability": "nonpayable",
      "type": "function"
    },
    {
      "inputs": [
        {
          "internalType": "uint256",
          "name": "_itemId",
          "type": "uint256"
        },
        {
          "internalType": "uint256",
          "name": "_price",
          "type": "uint256"
        }
      ],
      "name": "changeItemPrice",
      "outputs": [
        {
          "internalType": "bool",
          "name": "",
          "type": "bool"
        }
      ],
      "stateMutability": "nonpayable",
      "type": "function"
    },
    {
      "inputs": [
        {
          "internalType": "uint256",
          "name": "_itemId",
          "type": "uint256"
        },
        {
          "internalType": "bool",
          "name": "_state",
          "type": "bool"
        }
      ],
      "name": "pausePlayItem",
      "outputs": [
        {
          "internalType": "bool",
          "name": "",
          "type": "bool"
        }
      ],
      "stateMutability": "nonpayable",
      "type": "function"
    },
    {
      "inputs": [
        {
          "internalType": "uint256",
          "name": "_itemId",
          "type": "uint256"
        }
      ],
      "name": "selfForecloseItem",
      "outputs": [
        {
          "internalType": "bool",
          "name": "",
          "type": "bool"
        }
      ],
      "stateMutability": "nonpayable",
      "type": "function"
    }
  ],
  "bytecode": "0x60806040523480156200001157600080fd5b5060405162005f0138038062005f01833981810160405281019062000037919062000434565b8a600190805190602001906200004f92919062000133565b5089600290805190602001906200006892919062000133565b50336000806101000a81548173ffffffffffffffffffffffffffffffffffffffff021916908373ffffffffffffffffffffffffffffffffffffffff16021790555088601360006101000a81548173ffffffffffffffffffffffffffffffffffffffff021916908373ffffffffffffffffffffffffffffffffffffffff160217905550876004819055508660058190555085600681905550846007819055508360098190555082600a8190555081600b8190555080600c819055505050505050505050505050620005e4565b8280546200014190620005ae565b90600052602060002090601f016020900481019282620001655760008555620001b1565b82601f106200018057805160ff1916838001178555620001b1565b82800160010185558215620001b1579182015b82811115620001b057825182559160200191906001019062000193565b5b509050620001c09190620001c4565b5090565b5b80821115620001df576000816000905550600101620001c5565b5090565b6000604051905090565b600080fd5b600080fd5b600080fd5b600080fd5b6000601f19601f8301169050919050565b7f4e487b7100000000000000000000000000000000000000000000000000000000600052604160045260246000fd5b6200024c8262000201565b810181811067ffffffffffffffff821117156200026e576200026d62000212565b5b80604052505050565b600062000283620001e3565b905062000291828262000241565b919050565b600067ffffffffffffffff821115620002b457620002b362000212565b5b620002bf8262000201565b9050602081019050919050565b60005b83811015620002ec578082015181840152602081019050620002cf565b83811115620002fc576000848401525b50505050565b600062000319620003138462000296565b62000277565b905082815260208101848484011115620003385762000337620001fc565b5b62000345848285620002cc565b509392505050565b600082601f830112620003655762000364620001f7565b5b81516200037784826020860162000302565b91505092915050565b600073ffffffffffffffffffffffffffffffffffffffff82169050919050565b6000620003ad8262000380565b9050919050565b6000620003c182620003a0565b9050919050565b620003d381620003b4565b8114620003df57600080fd5b50565b600081519050620003f381620003c8565b92915050565b6000819050919050565b6200040e81620003f9565b81146200041a57600080fd5b50565b6000815190506200042e8162000403565b92915050565b60008060008060008060008060008060006101608c8e0312156200045d576200045c620001ed565b5b60008c015167ffffffffffffffff8111156200047e576200047d620001f2565b5b6200048c8e828f016200034d565b9b505060208c015167ffffffffffffffff811115620004b057620004af620001f2565b5b620004be8e828f016200034d565b9a50506040620004d18e828f01620003e2565b9950506060620004e48e828f016200041d565b9850506080620004f78e828f016200041d565b97505060a06200050a8e828f016200041d565b96505060c06200051d8e828f016200041d565b95505060e0620005308e828f016200041d565b945050610100620005448e828f016200041d565b935050610120620005588e828f016200041d565b9250506101406200056c8e828f016200041d565b9150509295989b509295989b9093969950565b7f4e487b7100000000000000000000000000000000000000000000000000000000600052602260045260246000fd5b60006002820490506001821680620005c757607f821691505b60208210811415620005de57620005dd6200057f565b5b50919050565b61590d80620005f46000396000f3fe6080604052600436106102ae5760003560e01c80638ffa332f11610175578063ae379b69116100dc578063dbf143c411610095578063f01da5241161006f578063f01da52414610bbb578063f2caa83e14610be6578063f6a82e6814610c0f578063fc7efd1114610c4c576102ae565b8063dbf143c414610b08578063de74e57b14610b45578063e7fb74c714610b8b576102ae565b8063ae379b69146109d0578063b39b2c8d146109fb578063b8e7207014610a38578063c3a9c37914610a63578063d428bf5a14610aa0578063d69285ad14610acb576102ae565b8063988d18361161012e578063988d1836146108ae578063a5d84155146108d9578063a7b1942414610902578063a9059cbb1461093f578063aa22a80314610968578063acb2ad6f146109a5576102ae565b80638ffa332f1461077857806391bf31d7146107b5578063942bcdef146107f25780639548573b1461081d57806395d89b411461085a5780639839523c14610885576102ae565b8063435b9a2811610219578063683e9758116101d2578063683e97581461064457806370a08231146106815780637fa42e94146106be578063872de727146106e9578063894459bd146107125780638f02bb5b1461074f576102ae565b8063435b9a28146104fe5780634a8b5faf146105275780634c79847314610550578063573d6e7e1461058d578063632028a8146105ca5780636352211e14610607576102ae565b806326a4e8d21161026b57806326a4e8d2146103d7578063270e8464146104005780632d6c5c8b1461043d5780632e1a7d4d146104685780633c7baa2a146104a55780633eb62885146104e2576102ae565b806306fdde03146102b35780630928f2d1146102de57806312065fe01461031b57806318160ddd146103465780631d04886014610371578063231f40971461039a575b600080fd5b3480156102bf57600080fd5b506102c8610c89565b6040516102d5919061446b565b60405180910390f35b3480156102ea57600080fd5b50610305600480360381019061030091906144ff565b610d17565b6040516103129190614545565b60405180910390f35b34801561032757600080fd5b50610330610d2f565b60405161033d9190614545565b60405180910390f35b34801561035257600080fd5b5061035b610d37565b6040516103689190614545565b60405180910390f35b34801561037d57600080fd5b506103986004803603810190610393919061458c565b610d3d565b005b3480156103a657600080fd5b506103c160048036038101906103bc919061458c565b610dd5565b6040516103ce91906145c8565b60405180910390f35b3480156103e357600080fd5b506103fe60048036038101906103f991906144ff565b610e08565b005b34801561040c57600080fd5b50610427600480360381019061042291906145e3565b610eda565b6040516104349190614545565b60405180910390f35b34801561044957600080fd5b50610452610f35565b60405161045f9190614545565b60405180910390f35b34801561047457600080fd5b5061048f600480360381019061048a919061458c565b610f3b565b60405161049c919061463e565b60405180910390f35b3480156104b157600080fd5b506104cc60048036038101906104c7919061458c565b611015565b6040516104d9919061463e565b60405180910390f35b6104fc60048036038101906104f791906147ba565b6113b2565b005b34801561050a57600080fd5b506105256004803603810190610520919061458c565b611739565b005b34801561053357600080fd5b5061054e6004803603810190610549919061458c565b6117d1565b005b34801561055c57600080fd5b50610577600480360381019061057291906144ff565b611869565b6040516105849190614545565b60405180910390f35b34801561059957600080fd5b506105b460048036038101906105af9190614c10565b611881565b6040516105c19190614545565b60405180910390f35b3480156105d657600080fd5b506105f160048036038101906105ec9190614c6c565b6119ed565b6040516105fe919061463e565b60405180910390f35b34801561061357600080fd5b5061062e6004803603810190610629919061458c565b611d01565b60405161063b91906145c8565b60405180910390f35b34801561065057600080fd5b5061066b60048036038101906106669190614cac565b611de3565b604051610678919061463e565b60405180910390f35b34801561068d57600080fd5b506106a860048036038101906106a391906144ff565b611ed5565b6040516106b59190614545565b60405180910390f35b3480156106ca57600080fd5b506106d3611f90565b6040516106e09190614545565b60405180910390f35b3480156106f557600080fd5b50610710600480360381019061070b919061458c565b611f96565b005b34801561071e57600080fd5b50610739600480360381019061073491906145e3565b61202e565b6040516107469190614545565b60405180910390f35b34801561075b57600080fd5b506107766004803603810190610771919061458c565b612053565b005b34801561078457600080fd5b5061079f600480360381019061079a919061458c565b6120eb565b6040516107ac919061463e565b60405180910390f35b3480156107c157600080fd5b506107dc60048036038101906107d79190614c6c565b6125fc565b6040516107e99190614545565b60405180910390f35b3480156107fe57600080fd5b50610807612648565b6040516108149190614545565b60405180910390f35b34801561082957600080fd5b50610844600480360381019061083f919061458c565b61264e565b60405161085191906145c8565b60405180910390f35b34801561086657600080fd5b5061086f612681565b60405161087c919061446b565b60405180910390f35b34801561089157600080fd5b506108ac60048036038101906108a7919061458c565b61270f565b005b3480156108ba57600080fd5b506108c36127a7565b6040516108d09190614545565b60405180910390f35b3480156108e557600080fd5b5061090060048036038101906108fb919061458c565b6127ad565b005b34801561090e57600080fd5b5061092960048036038101906109249190614c6c565b612845565b604051610936919061463e565b60405180910390f35b34801561094b57600080fd5b50610966600480360381019061096191906145e3565b612924565b005b34801561097457600080fd5b5061098f600480360381019061098a919061458c565b612aba565b60405161099c919061463e565b60405180910390f35b3480156109b157600080fd5b506109ba612bd8565b6040516109c79190614545565b60405180910390f35b3480156109dc57600080fd5b506109e5612bde565b6040516109f29190614545565b60405180910390f35b348015610a0757600080fd5b50610a226004803603810190610a1d919061458c565b612be4565b604051610a2f9190614545565b60405180910390f35b348015610a4457600080fd5b50610a4d612f7e565b604051610a5a9190614545565b60405180910390f35b348015610a6f57600080fd5b50610a8a6004803603810190610a85919061458c565b612f84565b604051610a979190614daa565b60405180910390f35b348015610aac57600080fd5b50610ab5613001565b604051610ac29190614545565b60405180910390f35b348015610ad757600080fd5b50610af26004803603810190610aed9190614dcc565b613007565b604051610aff919061463e565b60405180910390f35b348015610b1457600080fd5b50610b2f6004803603810190610b2a9190614c6c565b6130a8565b604051610b3c919061463e565b60405180910390f35b348015610b5157600080fd5b50610b6c6004803603810190610b67919061458c565b613552565b604051610b829a99989796959493929190614e6b565b60405180910390f35b610ba56004803603810190610ba0919061458c565b61375b565b604051610bb291906145c8565b60405180910390f35b348015610bc757600080fd5b50610bd0613e0c565b604051610bdd9190614545565b60405180910390f35b348015610bf257600080fd5b50610c0d6004803603810190610c089190614c6c565b613e12565b005b348015610c1b57600080fd5b50610c366004803603810190610c3191906144ff565b613fa4565b604051610c4391906145c8565b60405180910390f35b348015610c5857600080fd5b50610c736004803603810190610c6e91906144ff565b613fd7565b604051610c809190614daa565b60405180910390f35b60018054610c9690614f4b565b80601f0160208091040260200160405190810160405280929190818152602001828054610cc290614f4b565b8015610d0f5780601f10610ce457610100808354040283529160200191610d0f565b820191906000526020600020905b815481529060010190602001808311610cf257829003601f168201915b505050505081565b60116020528060005260406000206000915090505481565b600047905090565b60035481565b60008054906101000a900473ffffffffffffffffffffffffffffffffffffffff1673ffffffffffffffffffffffffffffffffffffffff163373ffffffffffffffffffffffffffffffffffffffff1614610dcb576040517f08c379a0000000000000000000000000000000000000000000000000000000008152600401610dc290614fc9565b60405180910390fd5b8060048190555050565b600e6020528060005260406000206000915054906101000a900473ffffffffffffffffffffffffffffffffffffffff1681565b60008054906101000a900473ffffffffffffffffffffffffffffffffffffffff1673ffffffffffffffffffffffffffffffffffffffff163373ffffffffffffffffffffffffffffffffffffffff1614610e96576040517f08c379a0000000000000000000000000000000000000000000000000000000008152600401610e8d90614fc9565b60405180910390fd5b80601360006101000a81548173ffffffffffffffffffffffffffffffffffffffff021916908373ffffffffffffffffffffffffffffffffffffffff16021790555050565b6000601260008473ffffffffffffffffffffffffffffffffffffffff1673ffffffffffffffffffffffffffffffffffffffff168152602001908152602001600020600083815260200190815260200160002054905092915050565b60065481565b60008060009054906101000a900473ffffffffffffffffffffffffffffffffffffffff1673ffffffffffffffffffffffffffffffffffffffff163373ffffffffffffffffffffffffffffffffffffffff1614610fcc576040517f08c379a0000000000000000000000000000000000000000000000000000000008152600401610fc390614fc9565b60405180910390fd5b47821115610fd957600080fd5b3373ffffffffffffffffffffffffffffffffffffffff166108fc839081150290604051600060405180830381858888f193505050509050919050565b6000806014838154811061102c5761102b614fe9565b5b90600052602060002090600d0201604051806101a001604052908160008201805461105690614f4b565b80601f016020809104026020016040519081016040528092919081815260200182805461108290614f4b565b80156110cf5780601f106110a4576101008083540402835291602001916110cf565b820191906000526020600020905b8154815290600101906020018083116110b257829003601f168201915b505050505081526020016001820180546110e890614f4b565b80601f016020809104026020016040519081016040528092919081815260200182805461111490614f4b565b80156111615780601f1061113657610100808354040283529160200191611161565b820191906000526020600020905b81548152906001019060200180831161114457829003601f168201915b5050505050815260200160028201805461117a90614f4b565b80601f01602080910402602001604051908101604052809291908181526020018280546111a690614f4b565b80156111f35780601f106111c8576101008083540402835291602001916111f3565b820191906000526020600020905b8154815290600101906020018083116111d657829003601f168201915b505050505081526020016003820160009054906101000a900460ff16151515158152602001600482015481526020016005820154815260200160068201548152602001600782015481526020016008820154815260200160098201548152602001600a82018054806020026020016040519081016040528092919081815260200182805480156112a257602002820191906000526020600020905b81548152602001906001019080831161128e575b50505050508152602001600b820180548060200260200160405190810160405280929190818152602001828054801561133057602002820191906000526020600020905b8160009054906101000a900473ffffffffffffffffffffffffffffffffffffffff1673ffffffffffffffffffffffffffffffffffffffff16815260200190600101908083116112e6575b50505050508152602001600c820180548060200260200160405190810160405280929190818152602001828054801561138857602002820191906000526020600020905b815481526020019060010190808311611374575b5050505050815250509050428160c001518260e001516113a89190615047565b1115915050919050565b6004543410156113f7576040517f08c379a00000000000000000000000000000000000000000000000000000000081526004016113ee906150e9565b60405180910390fd5b60003390506014600181600181540180825580915050039060005260206000209050506000600160148054905061142e9190615109565b905060006014828154811061144657611445614fe9565b5b90600052602060002090600d020190508881600001908051906020019061146e92919061432f565b508781600101908051906020019061148792919061432f565b50868160020190805190602001906114a092919061432f565b50838160050181905550848160030160006101000a81548160ff021916908315150217905550858160040181905550428160070181905550600b548160060181905550601482815481106114f7576114f6614fe9565b5b90600052602060002090600d0201600b0160009080600181540180825580915050600190039060005260206000200160009091909190916101000a81548173ffffffffffffffffffffffffffffffffffffffff021916908373ffffffffffffffffffffffffffffffffffffffff1602179055506014828154811061157e5761157d614fe9565b5b90600052602060002090600d0201600c016000908060018154018082558091505060019003906000526020600020016000909190919091505582600d6000600354815260200190815260200160002060006101000a81548173ffffffffffffffffffffffffffffffffffffffff021916908373ffffffffffffffffffffffffffffffffffffffff16021790555082600e6000600354815260200190815260200160002060006101000a81548173ffffffffffffffffffffffffffffffffffffffff021916908373ffffffffffffffffffffffffffffffffffffffff1602179055506001601060008573ffffffffffffffffffffffffffffffffffffffff1673ffffffffffffffffffffffffffffffffffffffff16815260200190815260200160002060008282546116af9190615047565b925050819055506003548373ffffffffffffffffffffffffffffffffffffffff16600073ffffffffffffffffffffffffffffffffffffffff167fddf252ad1be2c89b69c2b068fc378daa952ba7f163c4a11628f55a4df523b3ef60405160405180910390a46001600360008282546117279190615047565b92505081905550505050505050505050565b60008054906101000a900473ffffffffffffffffffffffffffffffffffffffff1673ffffffffffffffffffffffffffffffffffffffff163373ffffffffffffffffffffffffffffffffffffffff16146117c7576040517f08c379a00000000000000000000000000000000000000000000000000000000081526004016117be90614fc9565b60405180910390fd5b80600c8190555050565b60008054906101000a900473ffffffffffffffffffffffffffffffffffffffff1673ffffffffffffffffffffffffffffffffffffffff163373ffffffffffffffffffffffffffffffffffffffff161461185f576040517f08c379a000000000000000000000000000000000000000000000000000000000815260040161185690614fc9565b60405180910390fd5b80600b8190555050565b60106020528060005260406000206000915090505481565b600080836101600151516001436118989190615109565b4060001c6118a6919061516c565b9050600084610160015182815181106118c2576118c1614fe9565b5b60200260200101519050600085610180015183815181106118e6576118e5614fe9565b5b602002602001015190503373ffffffffffffffffffffffffffffffffffffffff168273ffffffffffffffffffffffffffffffffffffffff16146119e157600086610120015182611936919061519d565b8660075461194491906151ce565b61194e91906151ce565b9050601360009054906101000a900473ffffffffffffffffffffffffffffffffffffffff1673ffffffffffffffffffffffffffffffffffffffff166340c10f1984836040518363ffffffff1660e01b81526004016119ad929190615228565b600060405180830381600087803b1580156119c757600080fd5b505af11580156119db573d6000803e3d6000fd5b50505050505b82935050505092915050565b60008060148481548110611a0457611a03614fe9565b5b90600052602060002090600d020190506000601260003373ffffffffffffffffffffffffffffffffffffffff1673ffffffffffffffffffffffffffffffffffffffff16815260200190815260200160002060008681526020019081526020016000205490506000811415611aad576040517f08c379a0000000000000000000000000000000000000000000000000000000008152600401611aa49061529d565b60405180910390fd5b600082600c018281548110611ac557611ac4614fe9565b5b9060005260206000200154905084811015611b15576040517f08c379a0000000000000000000000000000000000000000000000000000000008152600401611b0c9061532f565b60405180910390fd5b84836009016000828254611b299190615109565b925050819055508481611b3c9190615109565b90506000811415611c205782600a018290806001815401808255809150506001900390600052602060002001600090919091909150556001601160003373ffffffffffffffffffffffffffffffffffffffff1673ffffffffffffffffffffffffffffffffffffffff1681526020019081526020016000206000828254611bc29190615109565b925050819055506000601260003373ffffffffffffffffffffffffffffffffffffffff1673ffffffffffffffffffffffffffffffffffffffff1681526020019081526020016000206000888152602001908152602001600020819055505b601360009054906101000a900473ffffffffffffffffffffffffffffffffffffffff1673ffffffffffffffffffffffffffffffffffffffff166340c10f1933876040518363ffffffff1660e01b8152600401611c7d929190615228565b600060405180830381600087803b158015611c9757600080fd5b505af1158015611cab573d6000803e3d6000fd5b5050505084863373ffffffffffffffffffffffffffffffffffffffff167fdcca95406ac9554449be02d88dcdf9c877f96e4c02bdad4bd5cadefc98a20e3d60405160405180910390a46001935050505092915050565b600081600073ffffffffffffffffffffffffffffffffffffffff16600d600083815260200190815260200160002060009054906101000a900473ffffffffffffffffffffffffffffffffffffffff1673ffffffffffffffffffffffffffffffffffffffff161415611da7576040517f08c379a0000000000000000000000000000000000000000000000000000000008152600401611d9e9061539b565b60405180910390fd5b600d600084815260200190815260200160002060009054906101000a900473ffffffffffffffffffffffffffffffffffffffff16915050919050565b600082600d600082815260200190815260200160002060009054906101000a900473ffffffffffffffffffffffffffffffffffffffff1673ffffffffffffffffffffffffffffffffffffffff163373ffffffffffffffffffffffffffffffffffffffff1614611e87576040517f08c379a0000000000000000000000000000000000000000000000000000000008152600401611e7e90615407565b60405180910390fd5b600060148581548110611e9d57611e9c614fe9565b5b90600052602060002090600d02019050838160030160006101000a81548160ff02191690831515021790555060019250505092915050565b600081600073ffffffffffffffffffffffffffffffffffffffff168173ffffffffffffffffffffffffffffffffffffffff161415611f48576040517f08c379a0000000000000000000000000000000000000000000000000000000008152600401611f3f90615473565b60405180910390fd5b601060008473ffffffffffffffffffffffffffffffffffffffff1673ffffffffffffffffffffffffffffffffffffffff16815260200190815260200160002054915050919050565b60085481565b60008054906101000a900473ffffffffffffffffffffffffffffffffffffffff1673ffffffffffffffffffffffffffffffffffffffff163373ffffffffffffffffffffffffffffffffffffffff1614612024576040517f08c379a000000000000000000000000000000000000000000000000000000000815260040161201b90614fc9565b60405180910390fd5b80600a8190555050565b6012602052816000526040600020602052806000526040600020600091509150505481565b60008054906101000a900473ffffffffffffffffffffffffffffffffffffffff1673ffffffffffffffffffffffffffffffffffffffff163373ffffffffffffffffffffffffffffffffffffffff16146120e1576040517f08c379a00000000000000000000000000000000000000000000000000000000081526004016120d890614fc9565b60405180910390fd5b8060058190555050565b6000806014838154811061210257612101614fe9565b5b90600052602060002090600d0201604051806101a001604052908160008201805461212c90614f4b565b80601f016020809104026020016040519081016040528092919081815260200182805461215890614f4b565b80156121a55780601f1061217a576101008083540402835291602001916121a5565b820191906000526020600020905b81548152906001019060200180831161218857829003601f168201915b505050505081526020016001820180546121be90614f4b565b80601f01602080910402602001604051908101604052809291908181526020018280546121ea90614f4b565b80156122375780601f1061220c57610100808354040283529160200191612237565b820191906000526020600020905b81548152906001019060200180831161221a57829003601f168201915b5050505050815260200160028201805461225090614f4b565b80601f016020809104026020016040519081016040528092919081815260200182805461227c90614f4b565b80156122c95780601f1061229e576101008083540402835291602001916122c9565b820191906000526020600020905b8154815290600101906020018083116122ac57829003601f168201915b505050505081526020016003820160009054906101000a900460ff16151515158152602001600482015481526020016005820154815260200160068201548152602001600782015481526020016008820154815260200160098201548152602001600a820180548060200260200160405190810160405280929190818152602001828054801561237857602002820191906000526020600020905b815481526020019060010190808311612364575b50505050508152602001600b820180548060200260200160405190810160405280929190818152602001828054801561240657602002820191906000526020600020905b8160009054906101000a900473ffffffffffffffffffffffffffffffffffffffff1673ffffffffffffffffffffffffffffffffffffffff16815260200190600101908083116123bc575b50505050508152602001600c820180548060200260200160405190810160405280929190818152602001828054801561245e57602002820191906000526020600020905b81548152602001906001019080831161244a575b5050505050815250509050428160c001518260e0015161247e9190615047565b11156124bf576040517f08c379a00000000000000000000000000000000000000000000000000000000081526004016124b6906154df565b60405180910390fd5b601360009054906101000a900473ffffffffffffffffffffffffffffffffffffffff1673ffffffffffffffffffffffffffffffffffffffff166323b872dd33306006546040518463ffffffff1660e01b8152600401612520939291906154ff565b6020604051808303816000875af115801561253f573d6000803e3d6000fd5b505050506040513d601f19601f82011682018060405250810190612563919061554b565b506000600d600085815260200190815260200160002060009054906101000a900473ffffffffffffffffffffffffffffffffffffffff1690506125a781338661410b565b600c5460016125b691906151ce565b601485815481106125ca576125c9614fe9565b5b90600052602060002090600d020160060160008282546125ea9190615047565b92505081905550600192505050919050565b60006014838154811061261257612611614fe9565b5b90600052602060002090600d0201600c01828154811061263557612634614fe9565b5b9060005260206000200154905092915050565b60095481565b600d6020528060005260406000206000915054906101000a900473ffffffffffffffffffffffffffffffffffffffff1681565b6002805461268e90614f4b565b80601f01602080910402602001604051908101604052809291908181526020018280546126ba90614f4b565b80156127075780601f106126dc57610100808354040283529160200191612707565b820191906000526020600020905b8154815290600101906020018083116126ea57829003601f168201915b505050505081565b60008054906101000a900473ffffffffffffffffffffffffffffffffffffffff1673ffffffffffffffffffffffffffffffffffffffff163373ffffffffffffffffffffffffffffffffffffffff161461279d576040517f08c379a000000000000000000000000000000000000000000000000000000000815260040161279490614fc9565b60405180910390fd5b8060068190555050565b600a5481565b60008054906101000a900473ffffffffffffffffffffffffffffffffffffffff1673ffffffffffffffffffffffffffffffffffffffff163373ffffffffffffffffffffffffffffffffffffffff161461283b576040517f08c379a000000000000000000000000000000000000000000000000000000000815260040161283290614fc9565b60405180910390fd5b8060078190555050565b600082600d600082815260200190815260200160002060009054906101000a900473ffffffffffffffffffffffffffffffffffffffff1673ffffffffffffffffffffffffffffffffffffffff163373ffffffffffffffffffffffffffffffffffffffff16146128e9576040517f08c379a00000000000000000000000000000000000000000000000000000000081526004016128e090615407565b60405180910390fd5b6000601485815481106128ff576128fe614fe9565b5b90600052602060002090600d0201905083816004018190555060019250505092915050565b80600d600082815260200190815260200160002060009054906101000a900473ffffffffffffffffffffffffffffffffffffffff1673ffffffffffffffffffffffffffffffffffffffff163373ffffffffffffffffffffffffffffffffffffffff16146129c6576040517f08c379a00000000000000000000000000000000000000000000000000000000081526004016129bd90615407565b60405180910390fd5b6000612a07576040517f08c379a00000000000000000000000000000000000000000000000000000000081526004016129fe90615610565b60405180910390fd5b601360009054906101000a900473ffffffffffffffffffffffffffffffffffffffff1673ffffffffffffffffffffffffffffffffffffffff1663a9059cbb306005546040518363ffffffff1660e01b8152600401612a66929190615228565b6020604051808303816000875af1158015612a85573d6000803e3d6000fd5b505050506040513d601f19601f82011682018060405250810190612aa9919061554b565b50612ab533848461410b565b505050565b600081600d600082815260200190815260200160002060009054906101000a900473ffffffffffffffffffffffffffffffffffffffff1673ffffffffffffffffffffffffffffffffffffffff163373ffffffffffffffffffffffffffffffffffffffff1614612b5e576040517f08c379a0000000000000000000000000000000000000000000000000000000008152600401612b5590615407565b60405180910390fd5b600060148481548110612b7457612b73614fe9565b5b90600052602060002090600d020190506000816007015442612b969190615109565b90506000811015612ba657600080fd5b80826006018190555060018260030160006101000a81548160ff02191690831515021790555060019350505050919050565b60055481565b600b5481565b60008060148381548110612bfb57612bfa614fe9565b5b90600052602060002090600d0201604051806101a0016040529081600082018054612c2590614f4b565b80601f0160208091040260200160405190810160405280929190818152602001828054612c5190614f4b565b8015612c9e5780601f10612c7357610100808354040283529160200191612c9e565b820191906000526020600020905b815481529060010190602001808311612c8157829003601f168201915b50505050508152602001600182018054612cb790614f4b565b80601f0160208091040260200160405190810160405280929190818152602001828054612ce390614f4b565b8015612d305780601f10612d0557610100808354040283529160200191612d30565b820191906000526020600020905b815481529060010190602001808311612d1357829003601f168201915b50505050508152602001600282018054612d4990614f4b565b80601f0160208091040260200160405190810160405280929190818152602001828054612d7590614f4b565b8015612dc25780601f10612d9757610100808354040283529160200191612dc2565b820191906000526020600020905b815481529060010190602001808311612da557829003601f168201915b505050505081526020016003820160009054906101000a900460ff16151515158152602001600482015481526020016005820154815260200160068201548152602001600782015481526020016008820154815260200160098201548152602001600a8201805480602002602001604051908101604052809291908181526020018280548015612e7157602002820191906000526020600020905b815481526020019060010190808311612e5d575b50505050508152602001600b8201805480602002602001604051908101604052809291908181526020018280548015612eff57602002820191906000526020600020905b8160009054906101000a900473ffffffffffffffffffffffffffffffffffffffff1673ffffffffffffffffffffffffffffffffffffffff1681526020019060010190808311612eb5575b50505050508152602001600c8201805480602002602001604051908101604052809291908181526020018280548015612f5757602002820191906000526020600020905b815481526020019060010190808311612f43575b50505050508152505090508060c001518160e00151612f769190615047565b915050919050565b60045481565b606060148281548110612f9a57612f99614fe9565b5b90600052602060002090600d0201600c01805480602002602001604051908101604052809291908181526020018280548015612ff557602002820191906000526020600020905b815481526020019060010190808311612fe1575b50505050509050919050565b60075481565b600080613013866120eb565b9050801561309c5760006014878154811061303157613030614fe9565b5b90600052602060002090600d020190508581600001908051906020019061305992919061432f565b508481600401819055508381600101908051906020019061307b92919061432f565b5060008160080181905550600b548160060181905550428160070181905550505b80915050949350505050565b60008082116130ec576040517f08c379a00000000000000000000000000000000000000000000000000000000081526004016130e39061567c565b60405180910390fd5b601360009054906101000a900473ffffffffffffffffffffffffffffffffffffffff1673ffffffffffffffffffffffffffffffffffffffff166379cc679033846040518363ffffffff1660e01b8152600401613149929190615228565b600060405180830381600087803b15801561316357600080fd5b505af1158015613177573d6000803e3d6000fd5b5050505060006014848154811061319157613190614fe9565b5b90600052602060002090600d020190506000601260003373ffffffffffffffffffffffffffffffffffffffff1673ffffffffffffffffffffffffffffffffffffffff16815260200190815260200160002060008681526020019081526020016000205490506000811461325557838260090160008282546132129190615047565b925050819055508382600c0182815481106132305761322f614fe9565b5b9060005260206000200160008282546132499190615047565b92505081905550613501565b600182600a018054905011156133a1576000600183600a018054905061327b9190615109565b905082600a018054806132915761329061569c565b5b60019003818190600052602060002001600090559055848360090160008282546132bb9190615047565b925050819055503383600b0182815481106132d9576132d8614fe9565b5b9060005260206000200160006101000a81548173ffffffffffffffffffffffffffffffffffffffff021916908373ffffffffffffffffffffffffffffffffffffffff1602179055508483600c01828154811061333857613337614fe9565b5b906000526020600020018190555080601260003373ffffffffffffffffffffffffffffffffffffffff1673ffffffffffffffffffffffffffffffffffffffff168152602001908152602001600020600088815260200190815260200160002081905550506134a9565b81600b0180549050601260003373ffffffffffffffffffffffffffffffffffffffff1673ffffffffffffffffffffffffffffffffffffffff168152602001908152602001600020600087815260200190815260200160002081905550838260090160008282546134119190615047565b9250508190555081600b01339080600181540180825580915050600190039060005260206000200160009091909190916101000a81548173ffffffffffffffffffffffffffffffffffffffff021916908373ffffffffffffffffffffffffffffffffffffffff16021790555081600c018490806001815401808255809150506001900390600052602060002001600090919091909150555b6001601160003373ffffffffffffffffffffffffffffffffffffffff1673ffffffffffffffffffffffffffffffffffffffff16815260200190815260200160002060008282546134f99190615047565b925050819055505b83853373ffffffffffffffffffffffffffffffffffffffff167f270d6dd254edd1d985c81cf7861b8f28fb06b6d719df04d90464034d4341244060405160405180910390a460019250505092915050565b6014818154811061356257600080fd5b90600052602060002090600d020160009150905080600001805461358590614f4b565b80601f01602080910402602001604051908101604052809291908181526020018280546135b190614f4b565b80156135fe5780601f106135d3576101008083540402835291602001916135fe565b820191906000526020600020905b8154815290600101906020018083116135e157829003601f168201915b50505050509080600101805461361390614f4b565b80601f016020809104026020016040519081016040528092919081815260200182805461363f90614f4b565b801561368c5780601f106136615761010080835404028352916020019161368c565b820191906000526020600020905b81548152906001019060200180831161366f57829003601f168201915b5050505050908060020180546136a190614f4b565b80601f01602080910402602001604051908101604052809291908181526020018280546136cd90614f4b565b801561371a5780601f106136ef5761010080835404028352916020019161371a565b820191906000526020600020905b8154815290600101906020018083116136fd57829003601f168201915b5050505050908060030160009054906101000a900460ff1690806004015490806005015490806006015490806007015490806008015490806009015490508a565b600081600073ffffffffffffffffffffffffffffffffffffffff16600d600083815260200190815260200160002060009054906101000a900473ffffffffffffffffffffffffffffffffffffffff1673ffffffffffffffffffffffffffffffffffffffff161415613801576040517f08c379a00000000000000000000000000000000000000000000000000000000081526004016137f89061539b565b60405180910390fd5b60006014848154811061381757613816614fe9565b5b90600052602060002090600d020190508060030160009054906101000a900460ff1615613879576040517f08c379a000000000000000000000000000000000000000000000000000000000815260040161387090615717565b60405180910390fd5b80600401543410156138c0576040517f08c379a00000000000000000000000000000000000000000000000000000000081526004016138b790615783565b60405180910390fd5b60006138cb85611d01565b905060008173ffffffffffffffffffffffffffffffffffffffff16346040516138f3906157d4565b60006040518083038185875af1925050503d8060008114613930576040519150601f19603f3d011682016040523d82523d6000602084013e613935565b606091505b5050905080613979576040517f08c379a000000000000000000000000000000000000000000000000000000000815260040161397090615835565b60405180910390fd5b600183600801600082825461398e9190615047565b92505081905550600034600a546139a591906151ce565b9050600184600a018054905085600b01805490506139c39190615109565b1115613d2c57613d2a84604051806101a00160405290816000820180546139e990614f4b565b80601f0160208091040260200160405190810160405280929190818152602001828054613a1590614f4b565b8015613a625780601f10613a3757610100808354040283529160200191613a62565b820191906000526020600020905b815481529060010190602001808311613a4557829003601f168201915b50505050508152602001600182018054613a7b90614f4b565b80601f0160208091040260200160405190810160405280929190818152602001828054613aa790614f4b565b8015613af45780601f10613ac957610100808354040283529160200191613af4565b820191906000526020600020905b815481529060010190602001808311613ad757829003601f168201915b50505050508152602001600282018054613b0d90614f4b565b80601f0160208091040260200160405190810160405280929190818152602001828054613b3990614f4b565b8015613b865780601f10613b5b57610100808354040283529160200191613b86565b820191906000526020600020905b815481529060010190602001808311613b6957829003601f168201915b505050505081526020016003820160009054906101000a900460ff16151515158152602001600482015481526020016005820154815260200160068201548152602001600782015481526020016008820154815260200160098201548152602001600a8201805480602002602001604051908101604052809291908181526020018280548015613c3557602002820191906000526020600020905b815481526020019060010190808311613c21575b50505050508152602001600b8201805480602002602001604051908101604052809291908181526020018280548015613cc357602002820191906000526020600020905b8160009054906101000a900473ffffffffffffffffffffffffffffffffffffffff1673ffffffffffffffffffffffffffffffffffffffff1681526020019060010190808311613c79575b50505050508152602001600c8201805480602002602001604051908101604052809291908181526020018280548015613d1b57602002820191906000526020600020905b815481526020019060010190808311613d07575b50505050508152505082611881565b505b601360009054906101000a900473ffffffffffffffffffffffffffffffffffffffff1673ffffffffffffffffffffffffffffffffffffffff166340c10f1933836040518363ffffffff1660e01b8152600401613d89929190615228565b600060405180830381600087803b158015613da357600080fd5b505af1158015613db7573d6000803e3d6000fd5b50505050863373ffffffffffffffffffffffffffffffffffffffff167f792fe07c0f3ce4ef42df79c4a2b07925168cddbaabf7a7ef1351f027a376031360405160405180910390a33395505050505050919050565b600c5481565b81600d600082815260200190815260200160002060009054906101000a900473ffffffffffffffffffffffffffffffffffffffff1673ffffffffffffffffffffffffffffffffffffffff163373ffffffffffffffffffffffffffffffffffffffff1614613eb4576040517f08c379a0000000000000000000000000000000000000000000000000000000008152600401613eab90615407565b60405180910390fd5b601360009054906101000a900473ffffffffffffffffffffffffffffffffffffffff1673ffffffffffffffffffffffffffffffffffffffff166379cc679033846040518363ffffffff1660e01b8152600401613f11929190615228565b600060405180830381600087803b158015613f2b57600080fd5b505af1158015613f3f573d6000803e3d6000fd5b50505050670de0b6b3a7640000600c5483613f5a91906151ce565b613f64919061519d565b60148481548110613f7857613f77614fe9565b5b90600052602060002090600d02016006016000828254613f989190615047565b92505081905550505050565b600f6020528060005260406000206000915054906101000a900473ffffffffffffffffffffffffffffffffffffffff1681565b60606000601060008473ffffffffffffffffffffffffffffffffffffffff1673ffffffffffffffffffffffffffffffffffffffff1681526020019081526020016000205467ffffffffffffffff81111561403457614033614663565b5b6040519080825280602002602001820160405280156140625781602001602082028036833780820191505090505b5090506000805b6014805490508161ffff161015614100578473ffffffffffffffffffffffffffffffffffffffff1661409e8261ffff16611d01565b73ffffffffffffffffffffffffffffffffffffffff1614156140ed578061ffff168383815181106140d2576140d1614fe9565b5b60200260200101818152505081806140e990615855565b9250505b80806140f8906158ac565b915050614069565b508192505050919050565b81600073ffffffffffffffffffffffffffffffffffffffff168173ffffffffffffffffffffffffffffffffffffffff16141561417c576040517f08c379a000000000000000000000000000000000000000000000000000000000815260040161417390615473565b60405180910390fd5b6001601060008673ffffffffffffffffffffffffffffffffffffffff1673ffffffffffffffffffffffffffffffffffffffff16815260200190815260200160002060008282546141cc9190615109565b9250508190555082600d600084815260200190815260200160002060006101000a81548173ffffffffffffffffffffffffffffffffffffffff021916908373ffffffffffffffffffffffffffffffffffffffff16021790555082600e600084815260200190815260200160002060006101000a81548173ffffffffffffffffffffffffffffffffffffffff021916908373ffffffffffffffffffffffffffffffffffffffff1602179055506001601060008573ffffffffffffffffffffffffffffffffffffffff1673ffffffffffffffffffffffffffffffffffffffff16815260200190815260200160002060008282546142c79190615047565b92505081905550818373ffffffffffffffffffffffffffffffffffffffff168573ffffffffffffffffffffffffffffffffffffffff167fddf252ad1be2c89b69c2b068fc378daa952ba7f163c4a11628f55a4df523b3ef60405160405180910390a450505050565b82805461433b90614f4b565b90600052602060002090601f01602090048101928261435d57600085556143a4565b82601f1061437657805160ff19168380011785556143a4565b828001600101855582156143a4579182015b828111156143a3578251825591602001919060010190614388565b5b5090506143b191906143b5565b5090565b5b808211156143ce5760008160009055506001016143b6565b5090565b600081519050919050565b600082825260208201905092915050565b60005b8381101561440c5780820151818401526020810190506143f1565b8381111561441b576000848401525b50505050565b6000601f19601f8301169050919050565b600061443d826143d2565b61444781856143dd565b93506144578185602086016143ee565b61446081614421565b840191505092915050565b600060208201905081810360008301526144858184614432565b905092915050565b6000604051905090565b600080fd5b600080fd5b600073ffffffffffffffffffffffffffffffffffffffff82169050919050565b60006144cc826144a1565b9050919050565b6144dc816144c1565b81146144e757600080fd5b50565b6000813590506144f9816144d3565b92915050565b60006020828403121561451557614514614497565b5b6000614523848285016144ea565b91505092915050565b6000819050919050565b61453f8161452c565b82525050565b600060208201905061455a6000830184614536565b92915050565b6145698161452c565b811461457457600080fd5b50565b60008135905061458681614560565b92915050565b6000602082840312156145a2576145a1614497565b5b60006145b084828501614577565b91505092915050565b6145c2816144c1565b82525050565b60006020820190506145dd60008301846145b9565b92915050565b600080604083850312156145fa576145f9614497565b5b6000614608858286016144ea565b925050602061461985828601614577565b9150509250929050565b60008115159050919050565b61463881614623565b82525050565b6000602082019050614653600083018461462f565b92915050565b600080fd5b600080fd5b7f4e487b7100000000000000000000000000000000000000000000000000000000600052604160045260246000fd5b61469b82614421565b810181811067ffffffffffffffff821117156146ba576146b9614663565b5b80604052505050565b60006146cd61448d565b90506146d98282614692565b919050565b600067ffffffffffffffff8211156146f9576146f8614663565b5b61470282614421565b9050602081019050919050565b82818337600083830152505050565b600061473161472c846146de565b6146c3565b90508281526020810184848401111561474d5761474c61465e565b5b61475884828561470f565b509392505050565b600082601f83011261477557614774614659565b5b813561478584826020860161471e565b91505092915050565b61479781614623565b81146147a257600080fd5b50565b6000813590506147b48161478e565b92915050565b60008060008060008060c087890312156147d7576147d6614497565b5b600087013567ffffffffffffffff8111156147f5576147f461449c565b5b61480189828a01614760565b965050602087013567ffffffffffffffff8111156148225761482161449c565b5b61482e89828a01614760565b955050604087013567ffffffffffffffff81111561484f5761484e61449c565b5b61485b89828a01614760565b945050606061486c89828a01614577565b935050608061487d89828a016147a5565b92505060a061488e89828a01614577565b9150509295509295509295565b600080fd5b600080fd5b600067ffffffffffffffff8211156148c0576148bf614663565b5b602082029050602081019050919050565b600080fd5b60006148e96148e4846148a5565b6146c3565b9050808382526020820190506020840283018581111561490c5761490b6148d1565b5b835b8181101561493557806149218882614577565b84526020840193505060208101905061490e565b5050509392505050565b600082601f83011261495457614953614659565b5b81356149648482602086016148d6565b91505092915050565b600067ffffffffffffffff82111561498857614987614663565b5b602082029050602081019050919050565b60006149ac6149a78461496d565b6146c3565b905080838252602082019050602084028301858111156149cf576149ce6148d1565b5b835b818110156149f857806149e488826144ea565b8452602084019350506020810190506149d1565b5050509392505050565b600082601f830112614a1757614a16614659565b5b8135614a27848260208601614999565b91505092915050565b60006101a08284031215614a4757614a4661489b565b5b614a526101a06146c3565b9050600082013567ffffffffffffffff811115614a7257614a716148a0565b5b614a7e84828501614760565b600083015250602082013567ffffffffffffffff811115614aa257614aa16148a0565b5b614aae84828501614760565b602083015250604082013567ffffffffffffffff811115614ad257614ad16148a0565b5b614ade84828501614760565b6040830152506060614af2848285016147a5565b6060830152506080614b0684828501614577565b60808301525060a0614b1a84828501614577565b60a08301525060c0614b2e84828501614577565b60c08301525060e0614b4284828501614577565b60e083015250610100614b5784828501614577565b61010083015250610120614b6d84828501614577565b6101208301525061014082013567ffffffffffffffff811115614b9357614b926148a0565b5b614b9f8482850161493f565b6101408301525061016082013567ffffffffffffffff811115614bc557614bc46148a0565b5b614bd184828501614a02565b6101608301525061018082013567ffffffffffffffff811115614bf757614bf66148a0565b5b614c038482850161493f565b6101808301525092915050565b60008060408385031215614c2757614c26614497565b5b600083013567ffffffffffffffff811115614c4557614c4461449c565b5b614c5185828601614a30565b9250506020614c6285828601614577565b9150509250929050565b60008060408385031215614c8357614c82614497565b5b6000614c9185828601614577565b9250506020614ca285828601614577565b9150509250929050565b60008060408385031215614cc357614cc2614497565b5b6000614cd185828601614577565b9250506020614ce2858286016147a5565b9150509250929050565b600081519050919050565b600082825260208201905092915050565b6000819050602082019050919050565b614d218161452c565b82525050565b6000614d338383614d18565b60208301905092915050565b6000602082019050919050565b6000614d5782614cec565b614d618185614cf7565b9350614d6c83614d08565b8060005b83811015614d9d578151614d848882614d27565b9750614d8f83614d3f565b925050600181019050614d70565b5085935050505092915050565b60006020820190508181036000830152614dc48184614d4c565b905092915050565b60008060008060808587031215614de657614de5614497565b5b6000614df487828801614577565b945050602085013567ffffffffffffffff811115614e1557614e1461449c565b5b614e2187828801614760565b9350506040614e3287828801614577565b925050606085013567ffffffffffffffff811115614e5357614e5261449c565b5b614e5f87828801614760565b91505092959194509250565b6000610140820190508181036000830152614e86818d614432565b90508181036020830152614e9a818c614432565b90508181036040830152614eae818b614432565b9050614ebd606083018a61462f565b614eca6080830189614536565b614ed760a0830188614536565b614ee460c0830187614536565b614ef160e0830186614536565b614eff610100830185614536565b614f0d610120830184614536565b9b9a5050505050505050505050565b7f4e487b7100000000000000000000000000000000000000000000000000000000600052602260045260246000fd5b60006002820490506001821680614f6357607f821691505b60208210811415614f7757614f76614f1c565b5b50919050565b7f4f6e6c79206465706c6f79657200000000000000000000000000000000000000600082015250565b6000614fb3600d836143dd565b9150614fbe82614f7d565b602082019050919050565b60006020820190508181036000830152614fe281614fa6565b9050919050565b7f4e487b7100000000000000000000000000000000000000000000000000000000600052603260045260246000fd5b7f4e487b7100000000000000000000000000000000000000000000000000000000600052601160045260246000fd5b60006150528261452c565b915061505d8361452c565b9250827fffffffffffffffffffffffffffffffffffffffffffffffffffffffffffffffff0382111561509257615091615018565b5b828201905092915050565b7f4d75737420706179206d696e7420666565000000000000000000000000000000600082015250565b60006150d36011836143dd565b91506150de8261509d565b602082019050919050565b60006020820190508181036000830152615102816150c6565b9050919050565b60006151148261452c565b915061511f8361452c565b92508282101561513257615131615018565b5b828203905092915050565b7f4e487b7100000000000000000000000000000000000000000000000000000000600052601260045260246000fd5b60006151778261452c565b91506151828361452c565b9250826151925761519161513d565b5b828206905092915050565b60006151a88261452c565b91506151b38361452c565b9250826151c3576151c261513d565b5b828204905092915050565b60006151d98261452c565b91506151e48361452c565b9250817fffffffffffffffffffffffffffffffffffffffffffffffffffffffffffffffff048311821515161561521d5761521c615018565b5b828202905092915050565b600060408201905061523d60008301856145b9565b61524a6020830184614536565b9392505050565b7f4d757374207374616b65206265666f726520756e7374616b696e670000000000600082015250565b6000615287601b836143dd565b915061529282615251565b602082019050919050565b600060208201905081810360008301526152b68161527a565b9050919050565b7f43616e6e6f7420756e7374616b65206d6f7265207468616e206973207374616b60008201527f6564000000000000000000000000000000000000000000000000000000000000602082015250565b60006153196022836143dd565b9150615324826152bd565b604082019050919050565b600060208201905081810360008301526153488161530c565b9050919050565b7f4974656d206d7573742065786973740000000000000000000000000000000000600082015250565b6000615385600f836143dd565b91506153908261534f565b602082019050919050565b600060208201905081810360008301526153b481615378565b9050919050565b7f4f6e6c79204974656d204f776e65720000000000000000000000000000000000600082015250565b60006153f1600f836143dd565b91506153fc826153bb565b602082019050919050565b60006020820190508181036000830152615420816153e4565b9050919050565b7f4d696e7420746f20746865207a65726f20616464726573730000000000000000600082015250565b600061545d6018836143dd565b915061546882615427565b602082019050919050565b6000602082019050818103600083015261548c81615450565b9050919050565b7f4974656d206973206e6f742064656c696e7175656e7400000000000000000000600082015250565b60006154c96016836143dd565b91506154d482615493565b602082019050919050565b600060208201905081810360008301526154f8816154bc565b9050919050565b600060608201905061551460008301866145b9565b61552160208301856145b9565b61552e6040830184614536565b949350505050565b6000815190506155458161478e565b92915050565b60006020828403121561556157615560614497565b5b600061556f84828501615536565b91505092915050565b7f4572726f723a205472616e7366657272696e67206c697374696e67732069732060008201527f6e6f7420737570706f727465642e2055736520666f7265636c6f73654974656d60208201527f20746f2064656c657465206c697374696e672e00000000000000000000000000604082015250565b60006155fa6053836143dd565b915061560582615578565b606082019050919050565b60006020820190508181036000830152615629816155ed565b9050919050565b7f4d757374207374616b6520746f6b656e73000000000000000000000000000000600082015250565b60006156666011836143dd565b915061567182615630565b602082019050919050565b6000602082019050818103600083015261569581615659565b9050919050565b7f4e487b7100000000000000000000000000000000000000000000000000000000600052603160045260246000fd5b7f4974656d206973206e6f74207075726368617361626c65000000000000000000600082015250565b60006157016017836143dd565b915061570c826156cb565b602082019050919050565b60006020820190508181036000830152615730816156f4565b9050919050565b7f4d75737420706179206974656d20707269636500000000000000000000000000600082015250565b600061576d6013836143dd565b915061577882615737565b602082019050919050565b6000602082019050818103600083015261579c81615760565b9050919050565b600081905092915050565b50565b60006157be6000836157a3565b91506157c9826157ae565b600082019050919050565b60006157df826157b1565b9150819050919050565b7f4661696c656420746f2073656e64204574686572000000000000000000000000600082015250565b600061581f6014836143dd565b915061582a826157e9565b602082019050919050565b6000602082019050818103600083015261584e81615812565b9050919050565b60006158608261452c565b91507fffffffffffffffffffffffffffffffffffffffffffffffffffffffffffffffff82141561589357615892615018565b5b600182019050919050565b600061ffff82169050919050565b60006158b78261589e565b915061ffff8214156158cc576158cb615018565b5b60018201905091905056fea264697066735822122053e466f483930a947cbcdd93d527cbde401e804d9d2ed482ba164ca36ea9cbe864736f6c634300080b0033",
  "immutableReferences": {},
  "source": "//// SPDX-License-Identifier: MIT\npragma solidity ^0.8.6;\nimport \"./TopToken.sol\";\n\n// VIEW FUNCTIONS CAN RECIEVE SPOOFED MSG.SENDER ADDRESSES\n\ncontract TopShelf {\n    struct Item {\n        string name;\n        string description;\n        string URI;\n        bool paused;\n        uint256 price;\n        uint256 stock;\n        uint256 leaseDuration;  // Seconds before needing to renew\n        uint256 dateCreated;\n        uint256 timesPurchased;\n        uint256 totalStaked;\n        uint256[] vacantStakeSlots;  // Unstaked investors stay in stakers array which can be chosen for investor payouts, if new staker arrives, add them to old spot\n        address[] stakerAddresses;\n        uint256[] stakerAmounts;\n    }\n\n    address private deployer;\n    string public name;\n    string public symbol;\n    uint256 public totalSupply;\n    uint256 public listFee;  // ETH paid to contract for minting items\n    uint256 public transferFee;  // ETH paid to contract for transferring items to another address\n    uint256 public foreclosureFee;  // Tokens paid to take ownership away from delinquent seller\n    uint256 public stakerReward;  // Tokens paid to item stakers per user buying item\n    uint256 public stakeLeaseReward;  // Adding of stake to item adds lease duration by n seconds (DEFAULT IS 1)\n    uint256 public unstakePenalty;  // Removal of stake from item lowers lease duration by 1/(2**n)\n    uint256 public buyReward;  // Tokens paid to contract to foreclose delinquent items\n    uint256 public defaultLeaseDuration;  // Lease period in seconds for newly minted items\n    uint256 public renewalRatio;  // Number of seconds per token given to items' lease duration (bonus for number of stakers?)\n    mapping(uint256 => address) public itemOwner;  // itemId to owner address\n    mapping(uint256 => address) public itemOperator;  // itemId to approved operator's address\n    mapping(address => address) public ownerOperator;  // Operator for all items owned by this address\n    mapping(address => uint256) public ownerItemCount;  // Owner address to number of items held\n    mapping(address => uint256) public stakerItemCount;\n    mapping(address => mapping(uint256 => uint256)) public stakerItemStakeId;  // Address to itemId to stakeId\n    TopToken token;  // address of TOPS token\n    Item[] public listings;\n\n    modifier onlyDeployer(){require(msg.sender == deployer, \"Only deployer\"); _;}\n    modifier onlyOwnerOf(uint256 _itemId){require(msg.sender == itemOwner[_itemId], \"Only Item Owner\"); _;}  // add approved operators\n    modifier notOwnerOf(uint256 _itemId){require(msg.sender != itemOwner[_itemId], \"Only not owners of this Item\"); _;}  // add approved operators\n    modifier onlyBuyers(){require(ownerItemCount[msg.sender] == 0, \"Only non-item owning accounts\"); _;}  // Prevent B2B purchases..  // todo preventing buyers somehow??\n    modifier onlyOperatorsOf(uint256 _itemId){require((msg.sender == itemOperator[_itemId]) || (msg.sender == ownerOperator[itemOwner[_itemId]]), \"Only operators of\"); _;}  // add approved operators\n    modifier itemExists(uint256 _itemId){require(itemOwner[_itemId] != address(0), \"Item must exist\"); _;}  //modifier isDelinquent(uint256 _itemId){Item memory item = listings[_itemId]; require(item.dateCreated+item.leaseDuration<=block.timestamp, \"Item is not delinquent\"); _;} // Use storage here?\n    modifier notNullAddress(address _to){require(_to != address(0), \"Mint to the zero address\"); _;}\n    // EVENTS\n    event TestSender(address indexed _sender);\n    event Approval(address indexed _owner, address indexed _approved, uint256 indexed _tokenId);  // todo\n    event ApprovalForAll(address indexed _owner, address indexed _operator, bool _approved);  // todo\n    event Transfer(address indexed _from, address indexed _to, uint256 indexed _itemId);  // todo allow transfers?\n    event ItemPurchased(address indexed _buyer, uint256 indexed _itemId);\n    event RenewedItem(uint256 indexed _itemId);\n    event SelfForeclosedItem(uint256 indexed _itemId);\n    event ItemForeclosed(uint256 indexed _itemId);\n    event PausedItem(uint256 indexed _itemId);  // event ItemPurchasedToken(address indexed _buyer, uint256 indexed _itemId);\n    event StakeAdded(address indexed _staker, uint256 indexed _itemId, uint256 indexed _amount);\n    event StakeRemoved(address indexed _staker, uint256 indexed _itemId, uint256 indexed _amount);\n    // CONSTRUCTOR\n    constructor(string memory _name, string memory _symbol, TopToken _token, uint256 _listFee, uint256 _transferFee,\n        uint256 _foreclosureFee, uint256 _stakerReward, uint256 _unstakePenalty, uint256 _buyReward, uint256 _defaultLeaseDuration,\n        uint256 _renewalRatio) {\n        name = _name;\n        symbol = _symbol;\n        deployer = msg.sender;\n        token = _token;\n        listFee = _listFee;  // WEI ~10 dollars (higher = more good items but less overall)\n        transferFee = _transferFee;\n        foreclosureFee = _foreclosureFee;  // 10 tokens (set higher to slow down foreclosures, depends on inflation)\n        stakerReward = _stakerReward;  // Tokens paid to item stakers per user buying item\n        unstakePenalty = _unstakePenalty;\n        buyReward = _buyReward;  // Tokens rewarded to buyers\n        defaultLeaseDuration = _defaultLeaseDuration;  // 604800 is 7 days\n        renewalRatio = _renewalRatio;  // 1 token = 1 day  (Set higher for favoring consumers over producers)\n    }\n    // SETTERS\n    function setTokenAddress(address _address) external onlyDeployer(){token = TopToken(_address);}\n    function setTransferFee(uint256 _amount) external onlyDeployer(){transferFee = _amount;}\n    function setListFee(uint256 _amount) external onlyDeployer(){listFee = _amount;}\n    function setDefaultLeaseDuration(uint256 _seconds) external onlyDeployer(){defaultLeaseDuration = _seconds;}\n    function setRenewalRatio(uint256 _tokenSeconds) external onlyDeployer(){renewalRatio = _tokenSeconds;}\n    function setForeclosureFee(uint256 _amount) external onlyDeployer(){foreclosureFee = _amount;}\n    function setStakerReward(uint256 _amount) external onlyDeployer(){stakerReward = _amount;}\n    function setBuyReward(uint256 _amount) external onlyDeployer(){buyReward = _amount;}\n    // READ VARIABLES\n    function balanceOf(address _owner) public view notNullAddress(_owner) returns (uint256) {return ownerItemCount[_owner];}\n    function ownerOf(uint256 _itemId) public view itemExists(_itemId) returns (address) {return itemOwner[_itemId];}\n    function itemExpiryDate(uint256 _itemId) public view returns(uint256){Item memory item = listings[_itemId]; return item.dateCreated+item.leaseDuration;} // item.dateCreated+item.leaseDuration-block.timestamp;}\n    function itemDelinquent(uint256 _itemId) public view returns(bool){Item memory item = listings[_itemId]; return (item.dateCreated+item.leaseDuration)<=block.timestamp;}\n//    function getUserItemStake(uint256 _itemId, address _staker) public view itemExists(_itemId) returns (uint256) {Item memory item = listings[_itemId]; uint256 stakerId = stakerItemStakeId[msg.sender][_itemId]; return item.stakerAmounts[stakerId];}\n//    function getItemTotalStake(uint256 _itemId) public view itemExists(_itemId) returns (uint256) {Item memory item = listings[_itemId]; return item.totalStaked;}\n    function getOwnerItems(address owner) external view returns(uint[] memory){\n        uint[] memory result = new uint[](ownerItemCount[owner]);\n        uint counter = 0;\n        for(uint16 i=0; i<listings.length; i++){\n            if (ownerOf(i)==owner){\n                result[counter] = i;\n                counter++;\n            }\n        }\n        return result;\n    }\n    function getstakerItemStakeId(address owner, uint256 itemId) public view returns(uint256){return stakerItemStakeId[owner][itemId];}\n    function getItemStakeIdStake(uint256 itemId, uint256 stakeId) public view returns(uint256){return listings[itemId].stakerAmounts[stakeId];}\n    function getStakedAmounts(uint256 itemId) public view returns(uint256[] memory){return listings[itemId].stakerAmounts;}\n    function getBalance() public view returns (uint) {return address(this).balance;}\n    // FUNCTIONS\n    function withdraw(uint256 _amount) public onlyDeployer() returns(bool){require(_amount<=address(this).balance); return payable(msg.sender).send(_amount) ;}\n    function mint(string memory _name, string memory _description, string memory _URI, uint256 _price, bool _paused,  uint256 _stock) external payable{ // notNullAddress(_to)\n        // address _to, \n        // uint256 userTokenBalance = token.balanceOf(msg.sender);\n        // if (userTokenBalance>0){\n        //     token.burnFrom(msg.sender, userTokenBalance);  // Prevent buyers from using their tokens on their own listings\n        // }\n        require(msg.value >= listFee, \"Must pay mint fee\");\n        address _to = msg.sender;\n        listings.push();  //Item memory item = Item(_name, _description, _URI, _paused, _price, _stock, defaultLeaseDuration, block.timestamp, 0, 0);  // uninitialized set to default? //listings[itemId] = Item(_name, _description, _URI, _paused, _price, _stock, defaultLeaseDuration, block.timestamp, 0, 0);\n        uint256 itemId = listings.length - 1;\n        Item storage item = listings[itemId];\n        item.name = _name;\n        item.description = _description;\n        item.URI = _URI;\n        item.stock = _stock;\n        item.paused = _paused;\n        item.price = _price;  // Ether cost in WEI\n        item.dateCreated = block.timestamp;\n        item.leaseDuration = defaultLeaseDuration;\n        listings[itemId].stakerAddresses.push(address(0)); \n        listings[itemId].stakerAmounts.push(0);  // listings[itemId].stakers.push();  // First entry for non-staker defaults // item.stakers[item.stakers.length-1] = Staker(address(0), 0);\n        itemOwner[totalSupply] = _to;  // starts at itemId 0 for item[] indexing\n        itemOperator[totalSupply] = _to;  // Overwrite item Operators\n        ownerItemCount[_to] += 1;  // Increase number that address owns\n        emit Transfer(address(0), _to, totalSupply);\n        totalSupply += 1;\n    }\n\n    function buyItem(uint256 _itemId) external payable itemExists(_itemId) /*onlyBuyers()*/ returns(address){\n        // emit TestSender(msg.sender);\n        // require(ownerItemCount[msg.sender] == 0, \"Only buying accounts\");\n        Item storage item = listings[_itemId];\n        require(!item.paused, \"Item is not purchasable\");\n        require(msg.value >= item.price, \"Must pay item price\");\n\n        // Forward buyer payment to seller\n        address payable seller = payable(ownerOf(_itemId));\n        (bool sent, ) = seller.call{value: msg.value}(\"\");   // todo return excess payment?\n        require(sent, \"Failed to send Ether\");\n\n        // Update item and reward stakers\n        item.timesPurchased += 1;\n        uint256 reward = (buyReward * msg.value);\n        if ((item.stakerAddresses.length - item.vacantStakeSlots.length)>1){  // Unstaking doesnt remove their address from stakeAddresses\n            rewardStakers(item, reward); \n        }\n        // Reward buyer\n        token.mint(msg.sender, reward);\n\n        emit ItemPurchased(msg.sender, _itemId);\n        return msg.sender;\n    }\n    function rewardStakers(Item memory _item, uint256 _reward) public returns(uint256){ // private?  // https://en.wikipedia.org/wiki/Modulo_operation#Performance_issues + https://medium.com/coinmonks/math-in-solidity-part-5-exponent-and-logarithm-9aef8515136e#ebd5\n        // uint256 randomInt = 1;  // _item.stakerAddresses.length%((block.timestamp%10)+1); \n        uint256 randomInt = uint(blockhash(block.number - 1)) % _item.stakerAddresses.length;\n        // uint256 randomInt = (block.timestamp & ((1 << _item.stakerAddresses.length)-1))+1;  // TODO random int from oracle (0->n]\n        address stakerAddress = _item.stakerAddresses[randomInt];\n        uint256 stakerAmount = _item.stakerAmounts[randomInt];\n        if (stakerAddress != msg.sender){\n            uint256 reward = (stakerReward *_reward) * (stakerAmount/_item.totalStaked);  // Reward proportional to other stakers and price of the item\n            token.mint(stakerAddress, reward);  // Reward curator in token\n        }\n        return randomInt;\n    }\n\n    function addItemStake(uint256 _itemId, uint256 _amount) /*onlyBuyers(msg.sender)*/ public returns(bool){\n        require(_amount>0, 'Must stake tokens');\n        token.burnFrom(msg.sender, _amount);\n        Item storage item = listings[_itemId];\n        uint256 stakeId = stakerItemStakeId[msg.sender][_itemId];  // See what stake ID they have\n\n        if (stakeId != 0){  // They've already staked\n            item.totalStaked += _amount;\n            item.stakerAmounts[stakeId] += _amount;\n            // item.leaseDuration += _amount;  // (_amount*renewalRatio);\n        } else{  // New staker\n            if (item.vacantStakeSlots.length>1){  // There are empty slots, assign them to an old one\n                uint256 _vacantStakeSlot = item.vacantStakeSlots.length-1;\n                item.vacantStakeSlots.pop();  // Get last empty slot\n                item.totalStaked += _amount;\n                item.stakerAddresses[_vacantStakeSlot] =  msg.sender;\n                item.stakerAmounts[_vacantStakeSlot] = _amount;\n                stakerItemStakeId[msg.sender][_itemId] = _vacantStakeSlot;\n                // item.leaseDuration += _amount;  // (_amount*renewalRatio);\n            } else{  // No empty slots, push new slot\n                stakerItemStakeId[msg.sender][_itemId] = item.stakerAddresses.length;  // Assign user a stakeId\n                item.totalStaked += _amount;\n                item.stakerAddresses.push(msg.sender);\n                item.stakerAmounts.push(_amount);\n                // item.leaseDuration += _amount;  // (_amount*renewalRatio);\n            }\n            stakerItemCount[msg.sender] +=1;\n        }\n        emit StakeAdded(msg.sender, _itemId, _amount);\n        return true;\n    }\n    function removeItemStake(uint256 _itemId, uint256 _amount) public returns(bool){ // if remove all stake just move last user to vacant spot\n        Item storage item = listings[_itemId];\n        uint256 stakeId = stakerItemStakeId[msg.sender][_itemId];\n        require(stakeId!=0, \"Must stake before unstaking\");\n        uint256 userStake = item.stakerAmounts[stakeId];\n        require(userStake>= _amount, \"Cannot unstake more than is staked\");\n\n        item.totalStaked -= _amount;\n        userStake -= _amount;  // does this change storage?\n        // item.leaseDuration -= _amount; //1 >> _amount;  // Un-stake penalty is half of stake leaseDuration reward (exploitable)\n        if (userStake == 0){\n            item.vacantStakeSlots.push(stakeId);  // todo reentrancy vulnerability?\n            stakerItemCount[msg.sender] -=1;\n            stakerItemStakeId[msg.sender][_itemId] = 0;\n        }\n        token.mint(msg.sender, _amount);\n        emit StakeRemoved(msg.sender, _itemId, _amount);\n        return true;\n    }\n\n    function _transfer(address _from, address _to, uint256 _itemId) private notNullAddress(_to) {\n        ownerItemCount[_from] -= 1;\n        itemOwner[_itemId] = _to;\n        itemOperator[_itemId] = _to;  // Overwrite item Operators\n        ownerItemCount[_to] += 1;\n        emit Transfer(_from, _to, _itemId);\n    }\n    function transfer(address _to, uint256 _itemId) external onlyOwnerOf(_itemId) {\n        require(false, \"Error: Transferring listings is not supported. Use forecloseItem to delete listing.\");\n        token.transfer(address(this), transferFee);  // May cause userOperator to pay instead of user\n        _transfer(msg.sender, _to, _itemId);\n    }\n\n    function renewItem(uint256 _itemId, uint256 _tokenAmount) onlyOwnerOf(_itemId) public {  // TEST BURNING\n       token.burnFrom(msg.sender, _tokenAmount);  // todo will this throw if msg.sender doesn't have tokens?\n        listings[_itemId].leaseDuration += (_tokenAmount*renewalRatio)/1e18;  // _tokenAmount in WEI, remove decimals for units\n    }\n    function forecloseItem(uint256 _itemId) public returns(bool){\n        Item memory item = listings[_itemId]; \n        require(item.dateCreated+item.leaseDuration<=block.timestamp, \"Item is not delinquent\");\n        token.transferFrom(msg.sender, address(this), foreclosureFee);  // User pays foreclosure fee in tokens\n        address owner = itemOwner[_itemId];\n        _transfer(owner, msg.sender, _itemId);\n        listings[_itemId].leaseDuration += (1*renewalRatio);\n        return true;\n    }\n    function forecloseRenovate(uint256 _itemId, string memory _name, uint256 _price, string memory _description) public returns(bool){\n        bool success = forecloseItem(_itemId);\n        if (success){\n            Item storage item = listings[_itemId];\n            item.name = _name;\n            item.price = _price;\n            item.description = _description;\n            item.timesPurchased = 0;\n            item.leaseDuration = defaultLeaseDuration;\n            item.dateCreated = block.timestamp;\n        }\n        return success;\n    }\n    // ITEM SETTERS\n    function changeItemPrice(uint256 _itemId, uint256 _price) external onlyOwnerOf(_itemId) returns(bool){\n        Item storage item = listings[_itemId];\n        item.price = _price;\n        return true;\n    }\n    function pausePlayItem(uint256 _itemId, bool _state) external onlyOwnerOf(_itemId) returns(bool){\n        Item storage item = listings[_itemId];\n        item.paused = _state;\n        return true;\n    }\n    function selfForecloseItem(uint256 _itemId) external onlyOwnerOf(_itemId) returns(bool){\n        Item storage item = listings[_itemId];\n        uint256 difference = block.timestamp - item.dateCreated;\n        require(difference>=0);\n        item.leaseDuration = difference;\n        item.paused = true;\n        return true;\n    }\n}\n",
  "sourcePath": "/Users/alexa/PycharmProjects/VsShelf/src/contracts/TopShelf.sol",
  "compiler": {
    "name": "solc",
    "version": "0.8.11+commit.d7f03943.Emscripten.clang"
  },
  "schemaVersion": "3.4.4",
  "updatedAt": "2022-02-03T16:06:06.240Z",
  "networkType": "ethereum",
  "devdoc": {
    "kind": "dev",
    "methods": {},
    "version": 1
  },
  "userdoc": {
    "kind": "user",
    "methods": {},
    "version": 1
  }
}