{
  "contractName": "TopShelf",
  "abi": [
    {
      "inputs": [
        {
          "internalType": "string",
          "name": "_name",
          "type": "string"
        },
        {
          "internalType": "string",
          "name": "_symbol",
          "type": "string"
        },
        {
          "internalType": "contract TopToken",
          "name": "_token",
          "type": "address"
        },
        {
          "internalType": "uint256",
          "name": "_listFee",
          "type": "uint256"
        },
        {
          "internalType": "uint256",
          "name": "_transferFee",
          "type": "uint256"
        },
        {
          "internalType": "uint256",
          "name": "_foreclosureFee",
          "type": "uint256"
        },
        {
          "internalType": "uint256",
          "name": "_stakerReward",
          "type": "uint256"
        },
        {
          "internalType": "uint256",
          "name": "_buyReward",
          "type": "uint256"
        },
        {
          "internalType": "uint256",
          "name": "_defaultLeaseDuration",
          "type": "uint256"
        },
        {
          "internalType": "uint256",
          "name": "_renewalRatio",
          "type": "uint256"
        }
      ],
      "stateMutability": "nonpayable",
      "type": "constructor"
    },
    {
      "anonymous": false,
      "inputs": [
        {
          "indexed": true,
          "internalType": "address",
          "name": "_owner",
          "type": "address"
        },
        {
          "indexed": true,
          "internalType": "address",
          "name": "_approved",
          "type": "address"
        },
        {
          "indexed": true,
          "internalType": "uint256",
          "name": "_tokenId",
          "type": "uint256"
        }
      ],
      "name": "Approval",
      "type": "event"
    },
    {
      "anonymous": false,
      "inputs": [
        {
          "indexed": true,
          "internalType": "address",
          "name": "_owner",
          "type": "address"
        },
        {
          "indexed": true,
          "internalType": "address",
          "name": "_operator",
          "type": "address"
        },
        {
          "indexed": false,
          "internalType": "bool",
          "name": "_approved",
          "type": "bool"
        }
      ],
      "name": "ApprovalForAll",
      "type": "event"
    },
    {
      "anonymous": false,
      "inputs": [
        {
          "indexed": true,
          "internalType": "uint256",
          "name": "_itemId",
          "type": "uint256"
        }
      ],
      "name": "ItemForeclosed",
      "type": "event"
    },
    {
      "anonymous": false,
      "inputs": [
        {
          "indexed": true,
          "internalType": "address",
          "name": "_buyer",
          "type": "address"
        },
        {
          "indexed": true,
          "internalType": "uint256",
          "name": "_itemId",
          "type": "uint256"
        }
      ],
      "name": "ItemPurchased",
      "type": "event"
    },
    {
      "anonymous": false,
      "inputs": [
        {
          "indexed": true,
          "internalType": "uint256",
          "name": "_itemId",
          "type": "uint256"
        }
      ],
      "name": "PausedItem",
      "type": "event"
    },
    {
      "anonymous": false,
      "inputs": [
        {
          "indexed": true,
          "internalType": "uint256",
          "name": "_itemId",
          "type": "uint256"
        }
      ],
      "name": "RenewedItem",
      "type": "event"
    },
    {
      "anonymous": false,
      "inputs": [
        {
          "indexed": true,
          "internalType": "uint256",
          "name": "_itemId",
          "type": "uint256"
        }
      ],
      "name": "SelfForeclosedItem",
      "type": "event"
    },
    {
      "anonymous": false,
      "inputs": [
        {
          "indexed": true,
          "internalType": "address",
          "name": "_staker",
          "type": "address"
        },
        {
          "indexed": true,
          "internalType": "uint256",
          "name": "_itemId",
          "type": "uint256"
        },
        {
          "indexed": true,
          "internalType": "uint256",
          "name": "_amount",
          "type": "uint256"
        }
      ],
      "name": "StakeAdded",
      "type": "event"
    },
    {
      "anonymous": false,
      "inputs": [
        {
          "indexed": true,
          "internalType": "address",
          "name": "_staker",
          "type": "address"
        },
        {
          "indexed": true,
          "internalType": "uint256",
          "name": "_itemId",
          "type": "uint256"
        },
        {
          "indexed": true,
          "internalType": "uint256",
          "name": "_amount",
          "type": "uint256"
        }
      ],
      "name": "StakeRemoved",
      "type": "event"
    },
    {
      "anonymous": false,
      "inputs": [
        {
          "indexed": true,
          "internalType": "address",
          "name": "_sender",
          "type": "address"
        }
      ],
      "name": "TestSender",
      "type": "event"
    },
    {
      "anonymous": false,
      "inputs": [
        {
          "indexed": true,
          "internalType": "address",
          "name": "_from",
          "type": "address"
        },
        {
          "indexed": true,
          "internalType": "address",
          "name": "_to",
          "type": "address"
        },
        {
          "indexed": true,
          "internalType": "uint256",
          "name": "_itemId",
          "type": "uint256"
        }
      ],
      "name": "Transfer",
      "type": "event"
    },
    {
      "inputs": [],
      "name": "buyReward",
      "outputs": [
        {
          "internalType": "uint256",
          "name": "",
          "type": "uint256"
        }
      ],
      "stateMutability": "view",
      "type": "function",
      "constant": true
    },
    {
      "inputs": [],
      "name": "defaultLeaseDuration",
      "outputs": [
        {
          "internalType": "uint256",
          "name": "",
          "type": "uint256"
        }
      ],
      "stateMutability": "view",
      "type": "function",
      "constant": true
    },
    {
      "inputs": [],
      "name": "foreclosureFee",
      "outputs": [
        {
          "internalType": "uint256",
          "name": "",
          "type": "uint256"
        }
      ],
      "stateMutability": "view",
      "type": "function",
      "constant": true
    },
    {
      "inputs": [
        {
          "internalType": "uint256",
          "name": "",
          "type": "uint256"
        }
      ],
      "name": "itemOperator",
      "outputs": [
        {
          "internalType": "address",
          "name": "",
          "type": "address"
        }
      ],
      "stateMutability": "view",
      "type": "function",
      "constant": true
    },
    {
      "inputs": [
        {
          "internalType": "uint256",
          "name": "",
          "type": "uint256"
        }
      ],
      "name": "itemOwner",
      "outputs": [
        {
          "internalType": "address",
          "name": "",
          "type": "address"
        }
      ],
      "stateMutability": "view",
      "type": "function",
      "constant": true
    },
    {
      "inputs": [],
      "name": "listFee",
      "outputs": [
        {
          "internalType": "uint256",
          "name": "",
          "type": "uint256"
        }
      ],
      "stateMutability": "view",
      "type": "function",
      "constant": true
    },
    {
      "inputs": [
        {
          "internalType": "uint256",
          "name": "",
          "type": "uint256"
        }
      ],
      "name": "listings",
      "outputs": [
        {
          "internalType": "string",
          "name": "name",
          "type": "string"
        },
        {
          "internalType": "string",
          "name": "description",
          "type": "string"
        },
        {
          "internalType": "string",
          "name": "URI",
          "type": "string"
        },
        {
          "internalType": "bool",
          "name": "paused",
          "type": "bool"
        },
        {
          "internalType": "uint256",
          "name": "price",
          "type": "uint256"
        },
        {
          "internalType": "uint256",
          "name": "stock",
          "type": "uint256"
        },
        {
          "internalType": "uint256",
          "name": "leaseDuration",
          "type": "uint256"
        },
        {
          "internalType": "uint256",
          "name": "dateCreated",
          "type": "uint256"
        },
        {
          "internalType": "uint256",
          "name": "timesPurchased",
          "type": "uint256"
        }
      ],
      "stateMutability": "view",
      "type": "function",
      "constant": true
    },
    {
      "inputs": [],
      "name": "name",
      "outputs": [
        {
          "internalType": "string",
          "name": "",
          "type": "string"
        }
      ],
      "stateMutability": "view",
      "type": "function",
      "constant": true
    },
    {
      "inputs": [
        {
          "internalType": "address",
          "name": "",
          "type": "address"
        }
      ],
      "name": "ownerItemCount",
      "outputs": [
        {
          "internalType": "uint256",
          "name": "",
          "type": "uint256"
        }
      ],
      "stateMutability": "view",
      "type": "function",
      "constant": true
    },
    {
      "inputs": [
        {
          "internalType": "address",
          "name": "",
          "type": "address"
        }
      ],
      "name": "ownerOperator",
      "outputs": [
        {
          "internalType": "address",
          "name": "",
          "type": "address"
        }
      ],
      "stateMutability": "view",
      "type": "function",
      "constant": true
    },
    {
      "inputs": [],
      "name": "renewalRatio",
      "outputs": [
        {
          "internalType": "uint256",
          "name": "",
          "type": "uint256"
        }
      ],
      "stateMutability": "view",
      "type": "function",
      "constant": true
    },
    {
      "inputs": [
        {
          "internalType": "address",
          "name": "",
          "type": "address"
        }
      ],
      "name": "stakerItemCount",
      "outputs": [
        {
          "internalType": "uint256",
          "name": "",
          "type": "uint256"
        }
      ],
      "stateMutability": "view",
      "type": "function",
      "constant": true
    },
    {
      "inputs": [],
      "name": "symbol",
      "outputs": [
        {
          "internalType": "string",
          "name": "",
          "type": "string"
        }
      ],
      "stateMutability": "view",
      "type": "function",
      "constant": true
    },
    {
      "inputs": [],
      "name": "totalSupply",
      "outputs": [
        {
          "internalType": "uint256",
          "name": "",
          "type": "uint256"
        }
      ],
      "stateMutability": "view",
      "type": "function",
      "constant": true
    },
    {
      "inputs": [],
      "name": "transferFee",
      "outputs": [
        {
          "internalType": "uint256",
          "name": "",
          "type": "uint256"
        }
      ],
      "stateMutability": "view",
      "type": "function",
      "constant": true
    },
    {
      "inputs": [
        {
          "internalType": "address",
          "name": "_address",
          "type": "address"
        }
      ],
      "name": "setTokenAddress",
      "outputs": [],
      "stateMutability": "nonpayable",
      "type": "function"
    },
    {
      "inputs": [
        {
          "internalType": "uint256",
          "name": "_amount",
          "type": "uint256"
        }
      ],
      "name": "setTransferFee",
      "outputs": [],
      "stateMutability": "nonpayable",
      "type": "function"
    },
    {
      "inputs": [
        {
          "internalType": "uint256",
          "name": "_amount",
          "type": "uint256"
        }
      ],
      "name": "setListFee",
      "outputs": [],
      "stateMutability": "nonpayable",
      "type": "function"
    },
    {
      "inputs": [
        {
          "internalType": "uint256",
          "name": "_seconds",
          "type": "uint256"
        }
      ],
      "name": "setDefaultLeaseDuration",
      "outputs": [],
      "stateMutability": "nonpayable",
      "type": "function"
    },
    {
      "inputs": [
        {
          "internalType": "uint256",
          "name": "_tokenSeconds",
          "type": "uint256"
        }
      ],
      "name": "setRenewalRatio",
      "outputs": [],
      "stateMutability": "nonpayable",
      "type": "function"
    },
    {
      "inputs": [
        {
          "internalType": "uint256",
          "name": "_amount",
          "type": "uint256"
        }
      ],
      "name": "setForeclosureFee",
      "outputs": [],
      "stateMutability": "nonpayable",
      "type": "function"
    },
    {
      "inputs": [
        {
          "internalType": "uint256",
          "name": "_amount",
          "type": "uint256"
        }
      ],
      "name": "setBuyReward",
      "outputs": [],
      "stateMutability": "nonpayable",
      "type": "function"
    },
    {
      "inputs": [
        {
          "internalType": "address",
          "name": "_owner",
          "type": "address"
        }
      ],
      "name": "balanceOf",
      "outputs": [
        {
          "internalType": "uint256",
          "name": "",
          "type": "uint256"
        }
      ],
      "stateMutability": "view",
      "type": "function",
      "constant": true
    },
    {
      "inputs": [
        {
          "internalType": "uint256",
          "name": "_itemId",
          "type": "uint256"
        }
      ],
      "name": "ownerOf",
      "outputs": [
        {
          "internalType": "address",
          "name": "",
          "type": "address"
        }
      ],
      "stateMutability": "view",
      "type": "function",
      "constant": true
    },
    {
      "inputs": [
        {
          "internalType": "uint256",
          "name": "_itemId",
          "type": "uint256"
        }
      ],
      "name": "itemExpiryDate",
      "outputs": [
        {
          "internalType": "uint256",
          "name": "",
          "type": "uint256"
        }
      ],
      "stateMutability": "view",
      "type": "function",
      "constant": true
    },
    {
      "inputs": [
        {
          "internalType": "uint256",
          "name": "_itemId",
          "type": "uint256"
        }
      ],
      "name": "itemDelinquent",
      "outputs": [
        {
          "internalType": "bool",
          "name": "",
          "type": "bool"
        }
      ],
      "stateMutability": "view",
      "type": "function",
      "constant": true
    },
    {
      "inputs": [
        {
          "internalType": "address",
          "name": "owner",
          "type": "address"
        }
      ],
      "name": "getOwnerItems",
      "outputs": [
        {
          "internalType": "uint256[]",
          "name": "",
          "type": "uint256[]"
        }
      ],
      "stateMutability": "view",
      "type": "function",
      "constant": true
    },
    {
      "inputs": [],
      "name": "getBalance",
      "outputs": [
        {
          "internalType": "uint256",
          "name": "",
          "type": "uint256"
        }
      ],
      "stateMutability": "view",
      "type": "function",
      "constant": true
    },
    {
      "inputs": [
        {
          "internalType": "uint256",
          "name": "_amount",
          "type": "uint256"
        }
      ],
      "name": "withdraw",
      "outputs": [
        {
          "internalType": "bool",
          "name": "",
          "type": "bool"
        }
      ],
      "stateMutability": "nonpayable",
      "type": "function"
    },
    {
      "inputs": [
        {
          "internalType": "string",
          "name": "_name",
          "type": "string"
        },
        {
          "internalType": "string",
          "name": "_description",
          "type": "string"
        },
        {
          "internalType": "string",
          "name": "_URI",
          "type": "string"
        },
        {
          "internalType": "uint256",
          "name": "_price",
          "type": "uint256"
        },
        {
          "internalType": "bool",
          "name": "_paused",
          "type": "bool"
        },
        {
          "internalType": "uint256",
          "name": "_stock",
          "type": "uint256"
        }
      ],
      "name": "mint",
      "outputs": [],
      "stateMutability": "payable",
      "type": "function",
      "payable": true
    },
    {
      "inputs": [
        {
          "internalType": "uint256",
          "name": "_itemId",
          "type": "uint256"
        }
      ],
      "name": "buyItem",
      "outputs": [
        {
          "internalType": "bool",
          "name": "",
          "type": "bool"
        }
      ],
      "stateMutability": "payable",
      "type": "function",
      "payable": true
    },
    {
      "inputs": [
        {
          "internalType": "address",
          "name": "_to",
          "type": "address"
        },
        {
          "internalType": "uint256",
          "name": "_itemId",
          "type": "uint256"
        }
      ],
      "name": "transfer",
      "outputs": [],
      "stateMutability": "nonpayable",
      "type": "function"
    },
    {
      "inputs": [
        {
          "internalType": "uint256",
          "name": "_itemId",
          "type": "uint256"
        },
        {
          "internalType": "uint256",
          "name": "_tokenAmount",
          "type": "uint256"
        }
      ],
      "name": "renewItem",
      "outputs": [],
      "stateMutability": "nonpayable",
      "type": "function"
    },
    {
      "inputs": [
        {
          "internalType": "uint256",
          "name": "_itemId",
          "type": "uint256"
        }
      ],
      "name": "forecloseItem",
      "outputs": [
        {
          "internalType": "bool",
          "name": "",
          "type": "bool"
        }
      ],
      "stateMutability": "nonpayable",
      "type": "function"
    },
    {
      "inputs": [
        {
          "internalType": "uint256",
          "name": "_itemId",
          "type": "uint256"
        },
        {
          "internalType": "string",
          "name": "_name",
          "type": "string"
        },
        {
          "internalType": "uint256",
          "name": "_price",
          "type": "uint256"
        },
        {
          "internalType": "string",
          "name": "_description",
          "type": "string"
        }
      ],
      "name": "forecloseRenovate",
      "outputs": [
        {
          "internalType": "bool",
          "name": "",
          "type": "bool"
        }
      ],
      "stateMutability": "nonpayable",
      "type": "function"
    },
    {
      "inputs": [
        {
          "internalType": "uint256",
          "name": "_itemId",
          "type": "uint256"
        },
        {
          "internalType": "uint256",
          "name": "_price",
          "type": "uint256"
        }
      ],
      "name": "changeItemPrice",
      "outputs": [
        {
          "internalType": "bool",
          "name": "",
          "type": "bool"
        }
      ],
      "stateMutability": "nonpayable",
      "type": "function"
    },
    {
      "inputs": [
        {
          "internalType": "uint256",
          "name": "_itemId",
          "type": "uint256"
        },
        {
          "internalType": "bool",
          "name": "_state",
          "type": "bool"
        }
      ],
      "name": "pausePlayItem",
      "outputs": [
        {
          "internalType": "bool",
          "name": "",
          "type": "bool"
        }
      ],
      "stateMutability": "nonpayable",
      "type": "function"
    },
    {
      "inputs": [
        {
          "internalType": "uint256",
          "name": "_itemId",
          "type": "uint256"
        }
      ],
      "name": "selfForecloseItem",
      "outputs": [
        {
          "internalType": "bool",
          "name": "",
          "type": "bool"
        }
      ],
      "stateMutability": "nonpayable",
      "type": "function"
    }
  ],
  "bytecode": "0x60806040523480156200001157600080fd5b50604051620043d0380380620043d0833981810160405281019062000037919062000425565b89600190805190602001906200004f92919062000124565b5088600290805190602001906200006892919062000124565b50336000806101000a81548173ffffffffffffffffffffffffffffffffffffffff021916908373ffffffffffffffffffffffffffffffffffffffff16021790555087600f60006101000a81548173ffffffffffffffffffffffffffffffffffffffff021916908373ffffffffffffffffffffffffffffffffffffffff16021790555086600481905550856005819055508460068190555082600781905550816008819055508060098190555050505050505050505050620005be565b828054620001329062000588565b90600052602060002090601f016020900481019282620001565760008555620001a2565b82601f106200017157805160ff1916838001178555620001a2565b82800160010185558215620001a2579182015b82811115620001a157825182559160200191906001019062000184565b5b509050620001b19190620001b5565b5090565b5b80821115620001d0576000816000905550600101620001b6565b5090565b6000604051905090565b600080fd5b600080fd5b600080fd5b600080fd5b6000601f19601f8301169050919050565b7f4e487b7100000000000000000000000000000000000000000000000000000000600052604160045260246000fd5b6200023d82620001f2565b810181811067ffffffffffffffff821117156200025f576200025e62000203565b5b80604052505050565b600062000274620001d4565b905062000282828262000232565b919050565b600067ffffffffffffffff821115620002a557620002a462000203565b5b620002b082620001f2565b9050602081019050919050565b60005b83811015620002dd578082015181840152602081019050620002c0565b83811115620002ed576000848401525b50505050565b60006200030a620003048462000287565b62000268565b905082815260208101848484011115620003295762000328620001ed565b5b62000336848285620002bd565b509392505050565b600082601f830112620003565762000355620001e8565b5b815162000368848260208601620002f3565b91505092915050565b600073ffffffffffffffffffffffffffffffffffffffff82169050919050565b60006200039e8262000371565b9050919050565b6000620003b28262000391565b9050919050565b620003c481620003a5565b8114620003d057600080fd5b50565b600081519050620003e481620003b9565b92915050565b6000819050919050565b620003ff81620003ea565b81146200040b57600080fd5b50565b6000815190506200041f81620003f4565b92915050565b6000806000806000806000806000806101408b8d0312156200044c576200044b620001de565b5b60008b015167ffffffffffffffff8111156200046d576200046c620001e3565b5b6200047b8d828e016200033e565b9a505060208b015167ffffffffffffffff8111156200049f576200049e620001e3565b5b620004ad8d828e016200033e565b9950506040620004c08d828e01620003d3565b9850506060620004d38d828e016200040e565b9750506080620004e68d828e016200040e565b96505060a0620004f98d828e016200040e565b95505060c06200050c8d828e016200040e565b94505060e06200051f8d828e016200040e565b935050610100620005338d828e016200040e565b925050610120620005478d828e016200040e565b9150509295989b9194979a5092959850565b7f4e487b7100000000000000000000000000000000000000000000000000000000600052602260045260246000fd5b60006002820490506001821680620005a157607f821691505b60208210811415620005b857620005b762000559565b5b50919050565b613e0280620005ce6000396000f3fe6080604052600436106102255760003560e01c80638ffa332f11610123578063ae379b69116100ab578063e7fb74c71161006f578063e7fb74c7146108ac578063f01da524146108dc578063f2caa83e14610907578063f6a82e6814610930578063fc7efd111461096d57610225565b8063ae379b6914610797578063b39b2c8d146107c2578063b8e72070146107ff578063d69285ad1461082a578063de74e57b1461086757610225565b8063988d1836116100f2578063988d18361461069e578063a7b19424146106c9578063a9059cbb14610706578063aa22a8031461072f578063acb2ad6f1461076c57610225565b80638ffa332f146105d05780639548573b1461060d57806395d89b411461064a5780639839523c1461067557610225565b80633c7baa2a116101b15780636352211e116101755780636352211e146104c7578063683e97581461050457806370a0823114610541578063872de7271461057e5780638f02bb5b146105a757610225565b80633c7baa2a146103df5780633eb628851461041c578063435b9a28146104385780634a8b5faf146104615780634c7984731461048a57610225565b80631d048860116101f85780631d048860146102e8578063231f40971461031157806326a4e8d21461034e5780632d6c5c8b146103775780632e1a7d4d146103a257610225565b806306fdde031461022a5780630928f2d11461025557806312065fe01461029257806318160ddd146102bd575b600080fd5b34801561023657600080fd5b5061023f6109aa565b60405161024c9190612e9e565b60405180910390f35b34801561026157600080fd5b5061027c60048036038101906102779190612f32565b610a38565b6040516102899190612f78565b60405180910390f35b34801561029e57600080fd5b506102a7610a50565b6040516102b49190612f78565b60405180910390f35b3480156102c957600080fd5b506102d2610a58565b6040516102df9190612f78565b60405180910390f35b3480156102f457600080fd5b5061030f600480360381019061030a9190612fbf565b610a5e565b005b34801561031d57600080fd5b5061033860048036038101906103339190612fbf565b610af6565b6040516103459190612ffb565b60405180910390f35b34801561035a57600080fd5b5061037560048036038101906103709190612f32565b610b29565b005b34801561038357600080fd5b5061038c610bfb565b6040516103999190612f78565b60405180910390f35b3480156103ae57600080fd5b506103c960048036038101906103c49190612fbf565b610c01565b6040516103d69190613031565b60405180910390f35b3480156103eb57600080fd5b5061040660048036038101906104019190612fbf565b610cdb565b6040516104139190613031565b60405180910390f35b610436600480360381019061043191906131ad565b610f30565b005b34801561044457600080fd5b5061045f600480360381019061045a9190612fbf565b6111e3565b005b34801561046d57600080fd5b5061048860048036038101906104839190612fbf565b61127b565b005b34801561049657600080fd5b506104b160048036038101906104ac9190612f32565b611313565b6040516104be9190612f78565b60405180910390f35b3480156104d357600080fd5b506104ee60048036038101906104e99190612fbf565b61132b565b6040516104fb9190612ffb565b60405180910390f35b34801561051057600080fd5b5061052b6004803603810190610526919061328e565b61140d565b6040516105389190613031565b60405180910390f35b34801561054d57600080fd5b5061056860048036038101906105639190612f32565b6114ff565b6040516105759190612f78565b60405180910390f35b34801561058a57600080fd5b506105a560048036038101906105a09190612fbf565b6115ba565b005b3480156105b357600080fd5b506105ce60048036038101906105c99190612fbf565b611652565b005b3480156105dc57600080fd5b506105f760048036038101906105f29190612fbf565b6116ea565b6040516106049190613031565b60405180910390f35b34801561061957600080fd5b50610634600480360381019061062f9190612fbf565b611ab3565b6040516106419190612ffb565b60405180910390f35b34801561065657600080fd5b5061065f611ae6565b60405161066c9190612e9e565b60405180910390f35b34801561068157600080fd5b5061069c60048036038101906106979190612fbf565b611b74565b005b3480156106aa57600080fd5b506106b3611c0c565b6040516106c09190612f78565b60405180910390f35b3480156106d557600080fd5b506106f060048036038101906106eb91906132ce565b611c12565b6040516106fd9190613031565b60405180910390f35b34801561071257600080fd5b5061072d6004803603810190610728919061330e565b611cf1565b005b34801561073b57600080fd5b5061075660048036038101906107519190612fbf565b611e87565b6040516107639190613031565b60405180910390f35b34801561077857600080fd5b50610781611fa5565b60405161078e9190612f78565b60405180910390f35b3480156107a357600080fd5b506107ac611fab565b6040516107b99190612f78565b60405180910390f35b3480156107ce57600080fd5b506107e960048036038101906107e49190612fbf565b611fb1565b6040516107f69190612f78565b60405180910390f35b34801561080b57600080fd5b50610814612203565b6040516108219190612f78565b60405180910390f35b34801561083657600080fd5b50610851600480360381019061084c919061334e565b612209565b60405161085e9190613031565b60405180910390f35b34801561087357600080fd5b5061088e60048036038101906108899190612fbf565b6122aa565b6040516108a3999897969594939291906133ed565b60405180910390f35b6108c660048036038101906108c19190612fbf565b6124ad565b6040516108d39190613031565b60405180910390f35b3480156108e857600080fd5b506108f161283f565b6040516108fe9190612f78565b60405180910390f35b34801561091357600080fd5b5061092e600480360381019061092991906132ce565b612845565b005b34801561093c57600080fd5b5061095760048036038101906109529190612f32565b6129d7565b6040516109649190612ffb565b60405180910390f35b34801561097957600080fd5b50610994600480360381019061098f9190612f32565b612a0a565b6040516109a1919061354d565b60405180910390f35b600180546109b79061359e565b80601f01602080910402602001604051908101604052809291908181526020018280546109e39061359e565b8015610a305780601f10610a0557610100808354040283529160200191610a30565b820191906000526020600020905b815481529060010190602001808311610a1357829003601f168201915b505050505081565b600e6020528060005260406000206000915090505481565b600047905090565b60035481565b60008054906101000a900473ffffffffffffffffffffffffffffffffffffffff1673ffffffffffffffffffffffffffffffffffffffff163373ffffffffffffffffffffffffffffffffffffffff1614610aec576040517f08c379a0000000000000000000000000000000000000000000000000000000008152600401610ae39061361c565b60405180910390fd5b8060048190555050565b600b6020528060005260406000206000915054906101000a900473ffffffffffffffffffffffffffffffffffffffff1681565b60008054906101000a900473ffffffffffffffffffffffffffffffffffffffff1673ffffffffffffffffffffffffffffffffffffffff163373ffffffffffffffffffffffffffffffffffffffff1614610bb7576040517f08c379a0000000000000000000000000000000000000000000000000000000008152600401610bae9061361c565b60405180910390fd5b80600f60006101000a81548173ffffffffffffffffffffffffffffffffffffffff021916908373ffffffffffffffffffffffffffffffffffffffff16021790555050565b60065481565b60008060009054906101000a900473ffffffffffffffffffffffffffffffffffffffff1673ffffffffffffffffffffffffffffffffffffffff163373ffffffffffffffffffffffffffffffffffffffff1614610c92576040517f08c379a0000000000000000000000000000000000000000000000000000000008152600401610c899061361c565b60405180910390fd5b47821115610c9f57600080fd5b3373ffffffffffffffffffffffffffffffffffffffff166108fc839081150290604051600060405180830381858888f193505050509050919050565b60008060108381548110610cf257610cf161363c565b5b906000526020600020906009020160405180610120016040529081600082018054610d1c9061359e565b80601f0160208091040260200160405190810160405280929190818152602001828054610d489061359e565b8015610d955780601f10610d6a57610100808354040283529160200191610d95565b820191906000526020600020905b815481529060010190602001808311610d7857829003601f168201915b50505050508152602001600182018054610dae9061359e565b80601f0160208091040260200160405190810160405280929190818152602001828054610dda9061359e565b8015610e275780601f10610dfc57610100808354040283529160200191610e27565b820191906000526020600020905b815481529060010190602001808311610e0a57829003601f168201915b50505050508152602001600282018054610e409061359e565b80601f0160208091040260200160405190810160405280929190818152602001828054610e6c9061359e565b8015610eb95780601f10610e8e57610100808354040283529160200191610eb9565b820191906000526020600020905b815481529060010190602001808311610e9c57829003601f168201915b505050505081526020016003820160009054906101000a900460ff16151515158152602001600482015481526020016005820154815260200160068201548152602001600782015481526020016008820154815250509050428160c001518260e00151610f26919061369a565b1115915050919050565b600454341015610f75576040517f08c379a0000000000000000000000000000000000000000000000000000000008152600401610f6c9061373c565b60405180910390fd5b600033905060106001816001815401808255809150500390600052602060002090505060006001601080549050610fac919061375c565b9050600060108281548110610fc457610fc361363c565b5b9060005260206000209060090201905088816000019080519060200190610fec929190612d62565b5087816001019080519060200190611005929190612d62565b508681600201908051906020019061101e929190612d62565b50838160050181905550848160030160006101000a81548160ff021916908315150217905550858160040181905550428160070181905550600854816006018190555082600a6000600354815260200190815260200160002060006101000a81548173ffffffffffffffffffffffffffffffffffffffff021916908373ffffffffffffffffffffffffffffffffffffffff16021790555082600b6000600354815260200190815260200160002060006101000a81548173ffffffffffffffffffffffffffffffffffffffff021916908373ffffffffffffffffffffffffffffffffffffffff1602179055506001600d60008573ffffffffffffffffffffffffffffffffffffffff1673ffffffffffffffffffffffffffffffffffffffff1681526020019081526020016000206000828254611159919061369a565b925050819055506003548373ffffffffffffffffffffffffffffffffffffffff16600073ffffffffffffffffffffffffffffffffffffffff167fddf252ad1be2c89b69c2b068fc378daa952ba7f163c4a11628f55a4df523b3ef60405160405180910390a46001600360008282546111d1919061369a565b92505081905550505050505050505050565b60008054906101000a900473ffffffffffffffffffffffffffffffffffffffff1673ffffffffffffffffffffffffffffffffffffffff163373ffffffffffffffffffffffffffffffffffffffff1614611271576040517f08c379a00000000000000000000000000000000000000000000000000000000081526004016112689061361c565b60405180910390fd5b8060098190555050565b60008054906101000a900473ffffffffffffffffffffffffffffffffffffffff1673ffffffffffffffffffffffffffffffffffffffff163373ffffffffffffffffffffffffffffffffffffffff1614611309576040517f08c379a00000000000000000000000000000000000000000000000000000000081526004016113009061361c565b60405180910390fd5b8060088190555050565b600d6020528060005260406000206000915090505481565b600081600073ffffffffffffffffffffffffffffffffffffffff16600a600083815260200190815260200160002060009054906101000a900473ffffffffffffffffffffffffffffffffffffffff1673ffffffffffffffffffffffffffffffffffffffff1614156113d1576040517f08c379a00000000000000000000000000000000000000000000000000000000081526004016113c8906137dc565b60405180910390fd5b600a600084815260200190815260200160002060009054906101000a900473ffffffffffffffffffffffffffffffffffffffff16915050919050565b600082600a600082815260200190815260200160002060009054906101000a900473ffffffffffffffffffffffffffffffffffffffff1673ffffffffffffffffffffffffffffffffffffffff163373ffffffffffffffffffffffffffffffffffffffff16146114b1576040517f08c379a00000000000000000000000000000000000000000000000000000000081526004016114a890613848565b60405180910390fd5b6000601085815481106114c7576114c661363c565b5b90600052602060002090600902019050838160030160006101000a81548160ff02191690831515021790555060019250505092915050565b600081600073ffffffffffffffffffffffffffffffffffffffff168173ffffffffffffffffffffffffffffffffffffffff161415611572576040517f08c379a0000000000000000000000000000000000000000000000000000000008152600401611569906138b4565b60405180910390fd5b600d60008473ffffffffffffffffffffffffffffffffffffffff1673ffffffffffffffffffffffffffffffffffffffff16815260200190815260200160002054915050919050565b60008054906101000a900473ffffffffffffffffffffffffffffffffffffffff1673ffffffffffffffffffffffffffffffffffffffff163373ffffffffffffffffffffffffffffffffffffffff1614611648576040517f08c379a000000000000000000000000000000000000000000000000000000000815260040161163f9061361c565b60405180910390fd5b8060078190555050565b60008054906101000a900473ffffffffffffffffffffffffffffffffffffffff1673ffffffffffffffffffffffffffffffffffffffff163373ffffffffffffffffffffffffffffffffffffffff16146116e0576040517f08c379a00000000000000000000000000000000000000000000000000000000081526004016116d79061361c565b60405180910390fd5b8060058190555050565b600080601083815481106117015761170061363c565b5b90600052602060002090600902016040518061012001604052908160008201805461172b9061359e565b80601f01602080910402602001604051908101604052809291908181526020018280546117579061359e565b80156117a45780601f10611779576101008083540402835291602001916117a4565b820191906000526020600020905b81548152906001019060200180831161178757829003601f168201915b505050505081526020016001820180546117bd9061359e565b80601f01602080910402602001604051908101604052809291908181526020018280546117e99061359e565b80156118365780601f1061180b57610100808354040283529160200191611836565b820191906000526020600020905b81548152906001019060200180831161181957829003601f168201915b5050505050815260200160028201805461184f9061359e565b80601f016020809104026020016040519081016040528092919081815260200182805461187b9061359e565b80156118c85780601f1061189d576101008083540402835291602001916118c8565b820191906000526020600020905b8154815290600101906020018083116118ab57829003601f168201915b505050505081526020016003820160009054906101000a900460ff16151515158152602001600482015481526020016005820154815260200160068201548152602001600782015481526020016008820154815250509050428160c001518260e00151611935919061369a565b1115611976576040517f08c379a000000000000000000000000000000000000000000000000000000000815260040161196d90613920565b60405180910390fd5b600f60009054906101000a900473ffffffffffffffffffffffffffffffffffffffff1673ffffffffffffffffffffffffffffffffffffffff166323b872dd33306006546040518463ffffffff1660e01b81526004016119d793929190613940565b6020604051808303816000875af11580156119f6573d6000803e3d6000fd5b505050506040513d601f19601f82011682018060405250810190611a1a919061398c565b506000600a600085815260200190815260200160002060009054906101000a900473ffffffffffffffffffffffffffffffffffffffff169050611a5e813386612b3e565b6009546001611a6d91906139b9565b60108581548110611a8157611a8061363c565b5b90600052602060002090600902016006016000828254611aa1919061369a565b92505081905550600192505050919050565b600a6020528060005260406000206000915054906101000a900473ffffffffffffffffffffffffffffffffffffffff1681565b60028054611af39061359e565b80601f0160208091040260200160405190810160405280929190818152602001828054611b1f9061359e565b8015611b6c5780601f10611b4157610100808354040283529160200191611b6c565b820191906000526020600020905b815481529060010190602001808311611b4f57829003601f168201915b505050505081565b60008054906101000a900473ffffffffffffffffffffffffffffffffffffffff1673ffffffffffffffffffffffffffffffffffffffff163373ffffffffffffffffffffffffffffffffffffffff1614611c02576040517f08c379a0000000000000000000000000000000000000000000000000000000008152600401611bf99061361c565b60405180910390fd5b8060068190555050565b60075481565b600082600a600082815260200190815260200160002060009054906101000a900473ffffffffffffffffffffffffffffffffffffffff1673ffffffffffffffffffffffffffffffffffffffff163373ffffffffffffffffffffffffffffffffffffffff1614611cb6576040517f08c379a0000000000000000000000000000000000000000000000000000000008152600401611cad90613848565b60405180910390fd5b600060108581548110611ccc57611ccb61363c565b5b9060005260206000209060090201905083816004018190555060019250505092915050565b80600a600082815260200190815260200160002060009054906101000a900473ffffffffffffffffffffffffffffffffffffffff1673ffffffffffffffffffffffffffffffffffffffff163373ffffffffffffffffffffffffffffffffffffffff1614611d93576040517f08c379a0000000000000000000000000000000000000000000000000000000008152600401611d8a90613848565b60405180910390fd5b6000611dd4576040517f08c379a0000000000000000000000000000000000000000000000000000000008152600401611dcb90613aab565b60405180910390fd5b600f60009054906101000a900473ffffffffffffffffffffffffffffffffffffffff1673ffffffffffffffffffffffffffffffffffffffff1663a9059cbb306005546040518363ffffffff1660e01b8152600401611e33929190613acb565b6020604051808303816000875af1158015611e52573d6000803e3d6000fd5b505050506040513d601f19601f82011682018060405250810190611e76919061398c565b50611e82338484612b3e565b505050565b600081600a600082815260200190815260200160002060009054906101000a900473ffffffffffffffffffffffffffffffffffffffff1673ffffffffffffffffffffffffffffffffffffffff163373ffffffffffffffffffffffffffffffffffffffff1614611f2b576040517f08c379a0000000000000000000000000000000000000000000000000000000008152600401611f2290613848565b60405180910390fd5b600060108481548110611f4157611f4061363c565b5b906000526020600020906009020190506000816007015442611f63919061375c565b90506000811015611f7357600080fd5b80826006018190555060018260030160006101000a81548160ff02191690831515021790555060019350505050919050565b60055481565b60085481565b60008060108381548110611fc857611fc761363c565b5b906000526020600020906009020160405180610120016040529081600082018054611ff29061359e565b80601f016020809104026020016040519081016040528092919081815260200182805461201e9061359e565b801561206b5780601f106120405761010080835404028352916020019161206b565b820191906000526020600020905b81548152906001019060200180831161204e57829003601f168201915b505050505081526020016001820180546120849061359e565b80601f01602080910402602001604051908101604052809291908181526020018280546120b09061359e565b80156120fd5780601f106120d2576101008083540402835291602001916120fd565b820191906000526020600020905b8154815290600101906020018083116120e057829003601f168201915b505050505081526020016002820180546121169061359e565b80601f01602080910402602001604051908101604052809291908181526020018280546121429061359e565b801561218f5780601f106121645761010080835404028352916020019161218f565b820191906000526020600020905b81548152906001019060200180831161217257829003601f168201915b505050505081526020016003820160009054906101000a900460ff161515151581526020016004820154815260200160058201548152602001600682015481526020016007820154815260200160088201548152505090508060c001518160e001516121fb919061369a565b915050919050565b60045481565b600080612215866116ea565b9050801561229e576000601087815481106122335761223261363c565b5b906000526020600020906009020190508581600001908051906020019061225b929190612d62565b508481600401819055508381600101908051906020019061227d929190612d62565b50600081600801819055506008548160060181905550428160070181905550505b80915050949350505050565b601081815481106122ba57600080fd5b90600052602060002090600902016000915090508060000180546122dd9061359e565b80601f01602080910402602001604051908101604052809291908181526020018280546123099061359e565b80156123565780601f1061232b57610100808354040283529160200191612356565b820191906000526020600020905b81548152906001019060200180831161233957829003601f168201915b50505050509080600101805461236b9061359e565b80601f01602080910402602001604051908101604052809291908181526020018280546123979061359e565b80156123e45780601f106123b9576101008083540402835291602001916123e4565b820191906000526020600020905b8154815290600101906020018083116123c757829003601f168201915b5050505050908060020180546123f99061359e565b80601f01602080910402602001604051908101604052809291908181526020018280546124259061359e565b80156124725780601f1061244757610100808354040283529160200191612472565b820191906000526020600020905b81548152906001019060200180831161245557829003601f168201915b5050505050908060030160009054906101000a900460ff16908060040154908060050154908060060154908060070154908060080154905089565b600081600073ffffffffffffffffffffffffffffffffffffffff16600a600083815260200190815260200160002060009054906101000a900473ffffffffffffffffffffffffffffffffffffffff1673ffffffffffffffffffffffffffffffffffffffff161415612553576040517f08c379a000000000000000000000000000000000000000000000000000000000815260040161254a906137dc565b60405180910390fd5b6000601084815481106125695761256861363c565b5b906000526020600020906009020190508060030160009054906101000a900460ff16156125cb576040517f08c379a00000000000000000000000000000000000000000000000000000000081526004016125c290613b40565b60405180910390fd5b8060040154341015612612576040517f08c379a000000000000000000000000000000000000000000000000000000000815260040161260990613bac565b60405180910390fd5b61261b84610cdb565b1561265b576040517f08c379a000000000000000000000000000000000000000000000000000000000815260040161265290613c18565b60405180910390fd5b60006126668561132b565b905060008173ffffffffffffffffffffffffffffffffffffffff163460405161268e90613c69565b60006040518083038185875af1925050503d80600081146126cb576040519150601f19603f3d011682016040523d82523d6000602084013e6126d0565b606091505b5050905080612714576040517f08c379a000000000000000000000000000000000000000000000000000000000815260040161270b90613cca565b60405180910390fd5b6001836005016000828254612729919061375c565b925050819055506001836008016000828254612745919061369a565b9250508190555060003460075461275c91906139b9565b9050600f60009054906101000a900473ffffffffffffffffffffffffffffffffffffffff1673ffffffffffffffffffffffffffffffffffffffff166340c10f1933836040518363ffffffff1660e01b81526004016127bb929190613acb565b600060405180830381600087803b1580156127d557600080fd5b505af11580156127e9573d6000803e3d6000fd5b50505050863373ffffffffffffffffffffffffffffffffffffffff167f792fe07c0f3ce4ef42df79c4a2b07925168cddbaabf7a7ef1351f027a376031360405160405180910390a3600195505050505050919050565b60095481565b81600a600082815260200190815260200160002060009054906101000a900473ffffffffffffffffffffffffffffffffffffffff1673ffffffffffffffffffffffffffffffffffffffff163373ffffffffffffffffffffffffffffffffffffffff16146128e7576040517f08c379a00000000000000000000000000000000000000000000000000000000081526004016128de90613848565b60405180910390fd5b600f60009054906101000a900473ffffffffffffffffffffffffffffffffffffffff1673ffffffffffffffffffffffffffffffffffffffff166379cc679033846040518363ffffffff1660e01b8152600401612944929190613acb565b600060405180830381600087803b15801561295e57600080fd5b505af1158015612972573d6000803e3d6000fd5b50505050670de0b6b3a76400006009548361298d91906139b9565b6129979190613d19565b601084815481106129ab576129aa61363c565b5b906000526020600020906009020160060160008282546129cb919061369a565b92505081905550505050565b600c6020528060005260406000206000915054906101000a900473ffffffffffffffffffffffffffffffffffffffff1681565b60606000600d60008473ffffffffffffffffffffffffffffffffffffffff1673ffffffffffffffffffffffffffffffffffffffff1681526020019081526020016000205467ffffffffffffffff811115612a6757612a66613056565b5b604051908082528060200260200182016040528015612a955781602001602082028036833780820191505090505b5090506000805b6010805490508161ffff161015612b33578473ffffffffffffffffffffffffffffffffffffffff16612ad18261ffff1661132b565b73ffffffffffffffffffffffffffffffffffffffff161415612b20578061ffff16838381518110612b0557612b0461363c565b5b6020026020010181815250508180612b1c90613d4a565b9250505b8080612b2b90613da1565b915050612a9c565b508192505050919050565b81600073ffffffffffffffffffffffffffffffffffffffff168173ffffffffffffffffffffffffffffffffffffffff161415612baf576040517f08c379a0000000000000000000000000000000000000000000000000000000008152600401612ba6906138b4565b60405180910390fd5b6001600d60008673ffffffffffffffffffffffffffffffffffffffff1673ffffffffffffffffffffffffffffffffffffffff1681526020019081526020016000206000828254612bff919061375c565b9250508190555082600a600084815260200190815260200160002060006101000a81548173ffffffffffffffffffffffffffffffffffffffff021916908373ffffffffffffffffffffffffffffffffffffffff16021790555082600b600084815260200190815260200160002060006101000a81548173ffffffffffffffffffffffffffffffffffffffff021916908373ffffffffffffffffffffffffffffffffffffffff1602179055506001600d60008573ffffffffffffffffffffffffffffffffffffffff1673ffffffffffffffffffffffffffffffffffffffff1681526020019081526020016000206000828254612cfa919061369a565b92505081905550818373ffffffffffffffffffffffffffffffffffffffff168573ffffffffffffffffffffffffffffffffffffffff167fddf252ad1be2c89b69c2b068fc378daa952ba7f163c4a11628f55a4df523b3ef60405160405180910390a450505050565b828054612d6e9061359e565b90600052602060002090601f016020900481019282612d905760008555612dd7565b82601f10612da957805160ff1916838001178555612dd7565b82800160010185558215612dd7579182015b82811115612dd6578251825591602001919060010190612dbb565b5b509050612de49190612de8565b5090565b5b80821115612e01576000816000905550600101612de9565b5090565b600081519050919050565b600082825260208201905092915050565b60005b83811015612e3f578082015181840152602081019050612e24565b83811115612e4e576000848401525b50505050565b6000601f19601f8301169050919050565b6000612e7082612e05565b612e7a8185612e10565b9350612e8a818560208601612e21565b612e9381612e54565b840191505092915050565b60006020820190508181036000830152612eb88184612e65565b905092915050565b6000604051905090565b600080fd5b600080fd5b600073ffffffffffffffffffffffffffffffffffffffff82169050919050565b6000612eff82612ed4565b9050919050565b612f0f81612ef4565b8114612f1a57600080fd5b50565b600081359050612f2c81612f06565b92915050565b600060208284031215612f4857612f47612eca565b5b6000612f5684828501612f1d565b91505092915050565b6000819050919050565b612f7281612f5f565b82525050565b6000602082019050612f8d6000830184612f69565b92915050565b612f9c81612f5f565b8114612fa757600080fd5b50565b600081359050612fb981612f93565b92915050565b600060208284031215612fd557612fd4612eca565b5b6000612fe384828501612faa565b91505092915050565b612ff581612ef4565b82525050565b60006020820190506130106000830184612fec565b92915050565b60008115159050919050565b61302b81613016565b82525050565b60006020820190506130466000830184613022565b92915050565b600080fd5b600080fd5b7f4e487b7100000000000000000000000000000000000000000000000000000000600052604160045260246000fd5b61308e82612e54565b810181811067ffffffffffffffff821117156130ad576130ac613056565b5b80604052505050565b60006130c0612ec0565b90506130cc8282613085565b919050565b600067ffffffffffffffff8211156130ec576130eb613056565b5b6130f582612e54565b9050602081019050919050565b82818337600083830152505050565b600061312461311f846130d1565b6130b6565b9050828152602081018484840111156131405761313f613051565b5b61314b848285613102565b509392505050565b600082601f8301126131685761316761304c565b5b8135613178848260208601613111565b91505092915050565b61318a81613016565b811461319557600080fd5b50565b6000813590506131a781613181565b92915050565b60008060008060008060c087890312156131ca576131c9612eca565b5b600087013567ffffffffffffffff8111156131e8576131e7612ecf565b5b6131f489828a01613153565b965050602087013567ffffffffffffffff81111561321557613214612ecf565b5b61322189828a01613153565b955050604087013567ffffffffffffffff81111561324257613241612ecf565b5b61324e89828a01613153565b945050606061325f89828a01612faa565b935050608061327089828a01613198565b92505060a061328189828a01612faa565b9150509295509295509295565b600080604083850312156132a5576132a4612eca565b5b60006132b385828601612faa565b92505060206132c485828601613198565b9150509250929050565b600080604083850312156132e5576132e4612eca565b5b60006132f385828601612faa565b925050602061330485828601612faa565b9150509250929050565b6000806040838503121561332557613324612eca565b5b600061333385828601612f1d565b925050602061334485828601612faa565b9150509250929050565b6000806000806080858703121561336857613367612eca565b5b600061337687828801612faa565b945050602085013567ffffffffffffffff81111561339757613396612ecf565b5b6133a387828801613153565b93505060406133b487828801612faa565b925050606085013567ffffffffffffffff8111156133d5576133d4612ecf565b5b6133e187828801613153565b91505092959194509250565b6000610120820190508181036000830152613408818c612e65565b9050818103602083015261341c818b612e65565b90508181036040830152613430818a612e65565b905061343f6060830189613022565b61344c6080830188612f69565b61345960a0830187612f69565b61346660c0830186612f69565b61347360e0830185612f69565b613481610100830184612f69565b9a9950505050505050505050565b600081519050919050565b600082825260208201905092915050565b6000819050602082019050919050565b6134c481612f5f565b82525050565b60006134d683836134bb565b60208301905092915050565b6000602082019050919050565b60006134fa8261348f565b613504818561349a565b935061350f836134ab565b8060005b8381101561354057815161352788826134ca565b9750613532836134e2565b925050600181019050613513565b5085935050505092915050565b6000602082019050818103600083015261356781846134ef565b905092915050565b7f4e487b7100000000000000000000000000000000000000000000000000000000600052602260045260246000fd5b600060028204905060018216806135b657607f821691505b602082108114156135ca576135c961356f565b5b50919050565b7f4f6e6c79206465706c6f79657200000000000000000000000000000000000000600082015250565b6000613606600d83612e10565b9150613611826135d0565b602082019050919050565b60006020820190508181036000830152613635816135f9565b9050919050565b7f4e487b7100000000000000000000000000000000000000000000000000000000600052603260045260246000fd5b7f4e487b7100000000000000000000000000000000000000000000000000000000600052601160045260246000fd5b60006136a582612f5f565b91506136b083612f5f565b9250827fffffffffffffffffffffffffffffffffffffffffffffffffffffffffffffffff038211156136e5576136e461366b565b5b828201905092915050565b7f4d75737420706179206d696e7420666565000000000000000000000000000000600082015250565b6000613726601183612e10565b9150613731826136f0565b602082019050919050565b6000602082019050818103600083015261375581613719565b9050919050565b600061376782612f5f565b915061377283612f5f565b9250828210156137855761378461366b565b5b828203905092915050565b7f4974656d206d7573742065786973740000000000000000000000000000000000600082015250565b60006137c6600f83612e10565b91506137d182613790565b602082019050919050565b600060208201905081810360008301526137f5816137b9565b9050919050565b7f4f6e6c79204974656d204f776e65720000000000000000000000000000000000600082015250565b6000613832600f83612e10565b915061383d826137fc565b602082019050919050565b6000602082019050818103600083015261386181613825565b9050919050565b7f4d696e7420746f20746865207a65726f20616464726573730000000000000000600082015250565b600061389e601883612e10565b91506138a982613868565b602082019050919050565b600060208201905081810360008301526138cd81613891565b9050919050565b7f4974656d206973206e6f742064656c696e7175656e7400000000000000000000600082015250565b600061390a601683612e10565b9150613915826138d4565b602082019050919050565b60006020820190508181036000830152613939816138fd565b9050919050565b60006060820190506139556000830186612fec565b6139626020830185612fec565b61396f6040830184612f69565b949350505050565b60008151905061398681613181565b92915050565b6000602082840312156139a2576139a1612eca565b5b60006139b084828501613977565b91505092915050565b60006139c482612f5f565b91506139cf83612f5f565b9250817fffffffffffffffffffffffffffffffffffffffffffffffffffffffffffffffff0483118215151615613a0857613a0761366b565b5b828202905092915050565b7f4572726f723a205472616e7366657272696e67206c697374696e67732069732060008201527f6e6f7420737570706f727465642e2055736520666f7265636c6f73654974656d60208201527f20746f2064656c657465206c697374696e672e00000000000000000000000000604082015250565b6000613a95605383612e10565b9150613aa082613a13565b606082019050919050565b60006020820190508181036000830152613ac481613a88565b9050919050565b6000604082019050613ae06000830185612fec565b613aed6020830184612f69565b9392505050565b7f4974656d206973206e6f74207075726368617361626c65000000000000000000600082015250565b6000613b2a601783612e10565b9150613b3582613af4565b602082019050919050565b60006020820190508181036000830152613b5981613b1d565b9050919050565b7f4d75737420706179206974656d20707269636500000000000000000000000000600082015250565b6000613b96601383612e10565b9150613ba182613b60565b602082019050919050565b60006020820190508181036000830152613bc581613b89565b9050919050565b7f4974656d20657870697265640000000000000000000000000000000000000000600082015250565b6000613c02600c83612e10565b9150613c0d82613bcc565b602082019050919050565b60006020820190508181036000830152613c3181613bf5565b9050919050565b600081905092915050565b50565b6000613c53600083613c38565b9150613c5e82613c43565b600082019050919050565b6000613c7482613c46565b9150819050919050565b7f4661696c656420746f2073656e64204574686572000000000000000000000000600082015250565b6000613cb4601483612e10565b9150613cbf82613c7e565b602082019050919050565b60006020820190508181036000830152613ce381613ca7565b9050919050565b7f4e487b7100000000000000000000000000000000000000000000000000000000600052601260045260246000fd5b6000613d2482612f5f565b9150613d2f83612f5f565b925082613d3f57613d3e613cea565b5b828204905092915050565b6000613d5582612f5f565b91507fffffffffffffffffffffffffffffffffffffffffffffffffffffffffffffffff821415613d8857613d8761366b565b5b600182019050919050565b600061ffff82169050919050565b6000613dac82613d93565b915061ffff821415613dc157613dc061366b565b5b60018201905091905056fea2646970667358221220d0a58cd6a4394f543e05f07e0dae291cff747f7ddf46f7d92f64a1ab4108f9cb64736f6c634300080c0033",
  "immutableReferences": {},
  "source": "//// SPDX-License-Identifier: MIT\npragma solidity ^0.8.6;\nimport \"./TopToken.sol\";\n\n// VIEW FUNCTIONS CAN RECIEVE SPOOFED MSG.SENDER ADDRESSES\n\ncontract TopShelf {\n    struct Item {\n        string name;\n        string description;\n        string URI;\n        bool paused;\n        uint256 price;\n        uint256 stock;\n        uint256 leaseDuration;  // Seconds before needing to renew\n        uint256 dateCreated;\n        uint256 timesPurchased;\n    }\n\n    address private deployer;\n    string public name;\n    string public symbol;\n    uint256 public totalSupply;\n    uint256 public listFee;  // ETH paid to contract for minting items\n    uint256 public transferFee;  // ETH paid to contract for transferring items to another address\n    uint256 public foreclosureFee;  // Tokens paid to take ownership away from delinquent seller\n    uint256 public buyReward;  // Tokens paid to contract to foreclose delinquent items\n    uint256 public defaultLeaseDuration;  // Lease period in seconds for newly minted items\n    uint256 public renewalRatio;  // Number of seconds per token given to items' lease duration (bonus for number of stakers?)\n    mapping(uint256 => address) public itemOwner;  // itemId to owner address\n    mapping(uint256 => address) public itemOperator;  // itemId to approved operator's address\n    mapping(address => address) public ownerOperator;  // Operator for all items owned by this address\n    mapping(address => uint256) public ownerItemCount;  // Owner address to number of items held\n    mapping(address => uint256) public stakerItemCount;\n    TopToken token;  // address of TOPS token\n    Item[] public listings;\n\n    modifier onlyDeployer(){require(msg.sender == deployer, \"Only deployer\"); _;}\n    modifier onlyOwnerOf(uint256 _itemId){require(msg.sender == itemOwner[_itemId], \"Only Item Owner\"); _;}  // add approved operators\n    modifier notOwnerOf(uint256 _itemId){require(msg.sender != itemOwner[_itemId], \"Only not owners of this Item\"); _;}  // add approved operators\n    modifier onlyBuyers(){require(ownerItemCount[msg.sender] == 0, \"Only non-item owning accounts\"); _;}  // Prevent B2B purchases..  // todo preventing buyers somehow??\n    modifier onlyOperatorsOf(uint256 _itemId){require((msg.sender == itemOperator[_itemId]) || (msg.sender == ownerOperator[itemOwner[_itemId]]), \"Only operators of\"); _;}  // add approved operators\n    modifier itemExists(uint256 _itemId){require(itemOwner[_itemId] != address(0), \"Item must exist\"); _;}  //modifier isDelinquent(uint256 _itemId){Item memory item = listings[_itemId]; require(item.dateCreated+item.leaseDuration<=block.timestamp, \"Item is not delinquent\"); _;} // Use storage here?\n    modifier notNullAddress(address _to){require(_to != address(0), \"Mint to the zero address\"); _;}\n    // EVENTS\n    event TestSender(address indexed _sender);\n    event Approval(address indexed _owner, address indexed _approved, uint256 indexed _tokenId);  // todo\n    event ApprovalForAll(address indexed _owner, address indexed _operator, bool _approved);  // todo\n    event Transfer(address indexed _from, address indexed _to, uint256 indexed _itemId);  // todo allow transfers?\n    event ItemPurchased(address indexed _buyer, uint256 indexed _itemId);\n    event RenewedItem(uint256 indexed _itemId);\n    event SelfForeclosedItem(uint256 indexed _itemId);\n    event ItemForeclosed(uint256 indexed _itemId);\n    event PausedItem(uint256 indexed _itemId);  // event ItemPurchasedToken(address indexed _buyer, uint256 indexed _itemId);\n    event StakeAdded(address indexed _staker, uint256 indexed _itemId, uint256 indexed _amount);\n    event StakeRemoved(address indexed _staker, uint256 indexed _itemId, uint256 indexed _amount);\n    // CONSTRUCTOR\n    constructor(string memory _name, string memory _symbol, TopToken _token, uint256 _listFee, uint256 _transferFee,\n        uint256 _foreclosureFee, uint256 _stakerReward,  uint256 _buyReward, uint256 _defaultLeaseDuration,\n        uint256 _renewalRatio) { //uint256 _unstakePenalty,\n        name = _name;\n        symbol = _symbol;\n        deployer = msg.sender;\n        token = _token;\n        listFee = _listFee;  // WEI ~10 dollars (higher = more good items but less overall)\n        transferFee = _transferFee;\n        foreclosureFee = _foreclosureFee;  // 10 tokens (set higher to slow down foreclosures, depends on inflation)\n        buyReward = _buyReward;  // Tokens rewarded to buyers\n        defaultLeaseDuration = _defaultLeaseDuration;  // 604800 is 7 days\n        renewalRatio = _renewalRatio;  // 1 token = 1 day  (Set higher for favoring consumers over producers)\n    }\n    // SETTERS\n    function setTokenAddress(address _address) external onlyDeployer(){token = TopToken(_address);}\n    function setTransferFee(uint256 _amount) external onlyDeployer(){transferFee = _amount;}\n    function setListFee(uint256 _amount) external onlyDeployer(){listFee = _amount;}\n    function setDefaultLeaseDuration(uint256 _seconds) external onlyDeployer(){defaultLeaseDuration = _seconds;}\n    function setRenewalRatio(uint256 _tokenSeconds) external onlyDeployer(){renewalRatio = _tokenSeconds;}\n    function setForeclosureFee(uint256 _amount) external onlyDeployer(){foreclosureFee = _amount;}\n    function setBuyReward(uint256 _amount) external onlyDeployer(){buyReward = _amount;}\n    // READ VARIABLES\n    function balanceOf(address _owner) public view notNullAddress(_owner) returns (uint256) {return ownerItemCount[_owner];}\n    function ownerOf(uint256 _itemId) public view itemExists(_itemId) returns (address) {return itemOwner[_itemId];}\n    function itemExpiryDate(uint256 _itemId) public view returns(uint256){Item memory item = listings[_itemId]; return item.dateCreated+item.leaseDuration;} // item.dateCreated+item.leaseDuration-block.timestamp;}\n    function itemDelinquent(uint256 _itemId) public view returns(bool){Item memory item = listings[_itemId]; return (item.dateCreated+item.leaseDuration)<=block.timestamp;}\n    function getOwnerItems(address owner) external view returns(uint[] memory){\n        uint[] memory result = new uint[](ownerItemCount[owner]);\n        uint counter = 0;\n        for(uint16 i=0; i<listings.length; i++){\n            if (ownerOf(i)==owner){\n                result[counter] = i;\n                counter++;\n            }\n        }\n        return result;\n    }\n    function getBalance() public view returns (uint) {return address(this).balance;}\n    // FUNCTIONS\n    function withdraw(uint256 _amount) public onlyDeployer() returns(bool){require(_amount<=address(this).balance); return payable(msg.sender).send(_amount) ;}\n    function mint(string memory _name, string memory _description, string memory _URI, uint256 _price, bool _paused,  uint256 _stock) external payable{ // notNullAddress(_to)\n        // address _to, \n        // uint256 userTokenBalance = token.balanceOf(msg.sender);\n        // if (userTokenBalance>0){\n        //     token.burnFrom(msg.sender, userTokenBalance);  // Prevent buyers from using their tokens on their own listings\n        // }\n        require(msg.value >= listFee, \"Must pay mint fee\");\n        address _to = msg.sender;\n        listings.push();  //Item memory item = Item(_name, _description, _URI, _paused, _price, _stock, defaultLeaseDuration, block.timestamp, 0, 0);  // uninitialized set to default? //listings[itemId] = Item(_name, _description, _URI, _paused, _price, _stock, defaultLeaseDuration, block.timestamp, 0, 0);\n        uint256 itemId = listings.length - 1;\n        Item storage item = listings[itemId];\n        item.name = _name;\n        item.description = _description;\n        item.URI = _URI;\n        item.stock = _stock;\n        item.paused = _paused;\n        item.price = _price;  // Ether cost in WEI\n        item.dateCreated = block.timestamp;\n        item.leaseDuration = defaultLeaseDuration;\n        // listings[itemId].stakerAddresses.push(address(0)); \n        // listings[itemId].stakerAmounts.push(0);  // listings[itemId].stakers.push();  // First entry for non-staker defaults // item.stakers[item.stakers.length-1] = Staker(address(0), 0);\n        itemOwner[totalSupply] = _to;  // starts at itemId 0 for item[] indexing\n        itemOperator[totalSupply] = _to;  // Overwrite item Operators\n        ownerItemCount[_to] += 1;  // Increase number that address owns\n        emit Transfer(address(0), _to, totalSupply);\n        totalSupply += 1;\n    }\n\n    // 160_639 gas for \n    function buyItem(uint256 _itemId) external payable itemExists(_itemId) returns(bool){ // onlyBuyers()*\n        // require(ownerItemCount[msg.sender] == 0, \"Only buying accounts\");\n        Item storage item = listings[_itemId];\n        require(!item.paused, \"Item is not purchasable\");\n        require(msg.value >= item.price, \"Must pay item price\");\n        require(!itemDelinquent(_itemId), \"Item expired\");\n        // require(item.stock > 0, \"Out of stock\");\n\n        address payable seller = payable(ownerOf(_itemId));  // Forward buyer payment to seller\n        (bool sent, ) = seller.call{value: msg.value}(\"\");   // todo return excess payment?\n        require(sent, \"Failed to send Ether\");\n        \n        item.stock -= 1;\n        item.timesPurchased += 1;\n\n        uint256 reward = (buyReward * msg.value);\n        token.mint(msg.sender, reward);  // Reward buyer\n\n        emit ItemPurchased(msg.sender, _itemId);\n        return true;\n    }\n\n    function _transfer(address _from, address _to, uint256 _itemId) private notNullAddress(_to) {\n        ownerItemCount[_from] -= 1;\n        itemOwner[_itemId] = _to;\n        itemOperator[_itemId] = _to;  // Overwrite item Operators\n        ownerItemCount[_to] += 1;\n        emit Transfer(_from, _to, _itemId);\n    }\n    function transfer(address _to, uint256 _itemId) external onlyOwnerOf(_itemId) {\n        require(false, \"Error: Transferring listings is not supported. Use forecloseItem to delete listing.\");\n        token.transfer(address(this), transferFee);  // May cause userOperator to pay instead of user\n        _transfer(msg.sender, _to, _itemId);\n    }\n\n    function renewItem(uint256 _itemId, uint256 _tokenAmount) onlyOwnerOf(_itemId) public {  // TEST BURNING\n       token.burnFrom(msg.sender, _tokenAmount);  // todo will this throw if msg.sender doesn't have tokens?\n        listings[_itemId].leaseDuration += (_tokenAmount*renewalRatio)/1e18;  // _tokenAmount in WEI, remove decimals for units\n    }\n    function forecloseItem(uint256 _itemId) public returns(bool){\n        Item memory item = listings[_itemId]; \n        require(item.dateCreated+item.leaseDuration<=block.timestamp, \"Item is not delinquent\");\n        token.transferFrom(msg.sender, address(this), foreclosureFee);  // User pays foreclosure fee in tokens\n        address owner = itemOwner[_itemId];\n        _transfer(owner, msg.sender, _itemId);\n        listings[_itemId].leaseDuration += (1*renewalRatio);\n        return true;\n    }\n    function forecloseRenovate(uint256 _itemId, string memory _name, uint256 _price, string memory _description) public returns(bool){\n        bool success = forecloseItem(_itemId);\n        if (success){\n            Item storage item = listings[_itemId];\n            item.name = _name;\n            item.price = _price;\n            item.description = _description;\n            item.timesPurchased = 0;\n            item.leaseDuration = defaultLeaseDuration;\n            item.dateCreated = block.timestamp;\n        }\n        return success;\n    }\n    // ITEM SETTERS\n    function changeItemPrice(uint256 _itemId, uint256 _price) external onlyOwnerOf(_itemId) returns(bool){\n        Item storage item = listings[_itemId];\n        item.price = _price;\n        return true;\n    }\n    function pausePlayItem(uint256 _itemId, bool _state) external onlyOwnerOf(_itemId) returns(bool){\n        Item storage item = listings[_itemId];\n        item.paused = _state;\n        return true;\n    }\n    function selfForecloseItem(uint256 _itemId) external onlyOwnerOf(_itemId) returns(bool){\n        Item storage item = listings[_itemId];\n        uint256 difference = block.timestamp - item.dateCreated;\n        require(difference>=0);\n        item.leaseDuration = difference;\n        item.paused = true;\n        return true;\n    }\n}\n",
  "sourcePath": "/Users/alexa/PycharmProjects/VsShelf/src/contracts/TopShelf.sol",
  "compiler": {
    "name": "solc",
    "version": "0.8.12+commit.f00d7308.Emscripten.clang"
  },
  "schemaVersion": "3.4.4",
  "updatedAt": "2022-02-17T01:46:11.816Z",
  "networkType": "ethereum",
  "devdoc": {
    "kind": "dev",
    "methods": {},
    "version": 1
  },
  "userdoc": {
    "kind": "user",
    "methods": {},
    "version": 1
  }
}