{
  "contractName": "TopStake",
  "abi": [
    {
      "inputs": [
        {
          "internalType": "address",
          "name": "_deployer",
          "type": "address"
        },
        {
          "internalType": "contract TopToken",
          "name": "_token",
          "type": "address"
        },
        {
          "internalType": "contract TopShelf",
          "name": "_topshelf",
          "type": "address"
        }
      ],
      "stateMutability": "nonpayable",
      "type": "constructor"
    },
    {
      "anonymous": false,
      "inputs": [
        {
          "indexed": true,
          "internalType": "address",
          "name": "_staker",
          "type": "address"
        },
        {
          "indexed": true,
          "internalType": "uint256",
          "name": "_itemId",
          "type": "uint256"
        },
        {
          "indexed": true,
          "internalType": "uint256",
          "name": "_amount",
          "type": "uint256"
        }
      ],
      "name": "StakeAdded",
      "type": "event"
    },
    {
      "anonymous": false,
      "inputs": [
        {
          "indexed": true,
          "internalType": "address",
          "name": "_staker",
          "type": "address"
        },
        {
          "indexed": true,
          "internalType": "uint256",
          "name": "_itemId",
          "type": "uint256"
        },
        {
          "indexed": true,
          "internalType": "uint256",
          "name": "_amount",
          "type": "uint256"
        }
      ],
      "name": "StakeRemoved",
      "type": "event"
    },
    {
      "inputs": [
        {
          "internalType": "uint256",
          "name": "",
          "type": "uint256"
        },
        {
          "internalType": "uint256",
          "name": "",
          "type": "uint256"
        }
      ],
      "name": "itemStake",
      "outputs": [
        {
          "internalType": "address",
          "name": "Address",
          "type": "address"
        },
        {
          "internalType": "uint256",
          "name": "Amount",
          "type": "uint256"
        }
      ],
      "stateMutability": "view",
      "type": "function"
    },
    {
      "inputs": [
        {
          "internalType": "uint256",
          "name": "",
          "type": "uint256"
        },
        {
          "internalType": "address",
          "name": "",
          "type": "address"
        }
      ],
      "name": "itemStakerId",
      "outputs": [
        {
          "internalType": "uint256",
          "name": "",
          "type": "uint256"
        }
      ],
      "stateMutability": "view",
      "type": "function"
    },
    {
      "inputs": [
        {
          "internalType": "uint256",
          "name": "",
          "type": "uint256"
        }
      ],
      "name": "itemTotalStake",
      "outputs": [
        {
          "internalType": "uint256",
          "name": "",
          "type": "uint256"
        }
      ],
      "stateMutability": "view",
      "type": "function"
    },
    {
      "inputs": [
        {
          "internalType": "uint256",
          "name": "",
          "type": "uint256"
        }
      ],
      "name": "itemTotalStakers",
      "outputs": [
        {
          "internalType": "uint256",
          "name": "",
          "type": "uint256"
        }
      ],
      "stateMutability": "view",
      "type": "function"
    },
    {
      "inputs": [
        {
          "internalType": "address",
          "name": "",
          "type": "address"
        }
      ],
      "name": "stakerTotalStaked",
      "outputs": [
        {
          "internalType": "uint256",
          "name": "",
          "type": "uint256"
        }
      ],
      "stateMutability": "view",
      "type": "function"
    },
    {
      "inputs": [
        {
          "internalType": "address",
          "name": "",
          "type": "address"
        }
      ],
      "name": "stakerTotalStakes",
      "outputs": [
        {
          "internalType": "uint256",
          "name": "",
          "type": "uint256"
        }
      ],
      "stateMutability": "view",
      "type": "function"
    },
    {
      "inputs": [],
      "name": "token",
      "outputs": [
        {
          "internalType": "contract TopToken",
          "name": "",
          "type": "address"
        }
      ],
      "stateMutability": "view",
      "type": "function"
    },
    {
      "inputs": [],
      "name": "topshelf",
      "outputs": [
        {
          "internalType": "contract TopShelf",
          "name": "",
          "type": "address"
        }
      ],
      "stateMutability": "view",
      "type": "function"
    },
    {
      "inputs": [
        {
          "internalType": "uint256",
          "name": "_itemId",
          "type": "uint256"
        },
        {
          "internalType": "uint256",
          "name": "_amount",
          "type": "uint256"
        }
      ],
      "name": "addItemStake",
      "outputs": [
        {
          "internalType": "bool",
          "name": "",
          "type": "bool"
        }
      ],
      "stateMutability": "nonpayable",
      "type": "function"
    },
    {
      "inputs": [
        {
          "internalType": "uint256",
          "name": "_itemId",
          "type": "uint256"
        },
        {
          "internalType": "uint256",
          "name": "_amount",
          "type": "uint256"
        }
      ],
      "name": "removeItemStake",
      "outputs": [
        {
          "internalType": "bool",
          "name": "",
          "type": "bool"
        }
      ],
      "stateMutability": "nonpayable",
      "type": "function"
    },
    {
      "inputs": [
        {
          "internalType": "uint256",
          "name": "_itemId",
          "type": "uint256"
        },
        {
          "internalType": "uint256",
          "name": "_stakerReward",
          "type": "uint256"
        },
        {
          "internalType": "uint256",
          "name": "_reward",
          "type": "uint256"
        }
      ],
      "name": "rewardStakers",
      "outputs": [
        {
          "internalType": "bool",
          "name": "",
          "type": "bool"
        }
      ],
      "stateMutability": "nonpayable",
      "type": "function"
    },
    {
      "inputs": [
        {
          "internalType": "address",
          "name": "account",
          "type": "address"
        },
        {
          "internalType": "uint256",
          "name": "amount",
          "type": "uint256"
        }
      ],
      "name": "mint",
      "outputs": [],
      "stateMutability": "nonpayable",
      "type": "function"
    }
  ],
  "bytecode": "0x60806040523480156200001157600080fd5b506040516200199d3803806200199d8339818101604052810190620000379190620001f6565b826000806101000a81548173ffffffffffffffffffffffffffffffffffffffff021916908373ffffffffffffffffffffffffffffffffffffffff16021790555081600260006101000a81548173ffffffffffffffffffffffffffffffffffffffff021916908373ffffffffffffffffffffffffffffffffffffffff16021790555080600160006101000a81548173ffffffffffffffffffffffffffffffffffffffff021916908373ffffffffffffffffffffffffffffffffffffffff16021790555050505062000252565b600080fd5b600073ffffffffffffffffffffffffffffffffffffffff82169050919050565b6000620001348262000107565b9050919050565b620001468162000127565b81146200015257600080fd5b50565b60008151905062000166816200013b565b92915050565b6000620001798262000127565b9050919050565b6200018b816200016c565b81146200019757600080fd5b50565b600081519050620001ab8162000180565b92915050565b6000620001be8262000127565b9050919050565b620001d081620001b1565b8114620001dc57600080fd5b50565b600081519050620001f081620001c5565b92915050565b60008060006060848603121562000212576200021162000102565b5b6000620002228682870162000155565b935050602062000235868287016200019a565b92505060406200024886828701620001df565b9150509250925092565b61173b80620002626000396000f3fe608060405234801561001057600080fd5b50600436106100b45760003560e01c8063808e5fe711610071578063808e5fe7146101c5578063ca237911146101e3578063db4e1d5614610213578063dbf143c414610244578063fc0c546a14610274578063fdd88e3014610292576100b4565b8063206b32a7146100b9578063219a318c146100e957806323bf2c1c1461011957806340c10f1914610149578063632028a81461016557806374b5a99314610195575b600080fd5b6100d360048036038101906100ce919061101f565b6102c2565b6040516100e0919061105b565b60405180910390f35b61010360048036038101906100fe91906110d4565b6102da565b604051610110919061105b565b60405180910390f35b610133600480360381019061012e919061101f565b6102f2565b604051610140919061105b565b60405180910390f35b610163600480360381019061015e9190611101565b61030a565b005b61017f600480360381019061017a9190611141565b61042d565b60405161018c919061119c565b60405180910390f35b6101af60048036038101906101aa91906111b7565b6108ec565b6040516101bc919061105b565b60405180910390f35b6101cd610911565b6040516101da9190611256565b60405180910390f35b6101fd60048036038101906101f891906110d4565b610937565b60405161020a919061105b565b60405180910390f35b61022d60048036038101906102289190611141565b61094f565b60405161023b929190611280565b60405180910390f35b61025e60048036038101906102599190611141565b6109a0565b60405161026b919061119c565b60405180910390f35b61027c610db7565b60405161028991906112ca565b60405180910390f35b6102ac60048036038101906102a791906112e5565b610ddd565b6040516102b9919061119c565b60405180910390f35b60066020528060005260406000206000915090505481565b60086020528060005260406000206000915090505481565b60056020528060005260406000206000915090505481565b600160009054906101000a900473ffffffffffffffffffffffffffffffffffffffff1673ffffffffffffffffffffffffffffffffffffffff163373ffffffffffffffffffffffffffffffffffffffff161461039a576040517f08c379a000000000000000000000000000000000000000000000000000000000815260040161039190611395565b60405180910390fd5b600260009054906101000a900473ffffffffffffffffffffffffffffffffffffffff1673ffffffffffffffffffffffffffffffffffffffff166340c10f1983836040518363ffffffff1660e01b81526004016103f7929190611280565b600060405180830381600087803b15801561041157600080fd5b505af1158015610425573d6000803e3d6000fd5b505050505050565b6000806004600085815260200190815260200160002060003373ffffffffffffffffffffffffffffffffffffffff1673ffffffffffffffffffffffffffffffffffffffff16815260200190815260200160002054905060008114156104c7576040517f08c379a00000000000000000000000000000000000000000000000000000000081526004016104be90611401565b60405180910390fd5b600060036000868152602001908152602001600020600083815260200190815260200160002060010154905083811015610536576040517f08c379a000000000000000000000000000000000000000000000000000000000815260040161052d90611493565b60405180910390fd5b838161054291906114e2565b905083600760003373ffffffffffffffffffffffffffffffffffffffff1673ffffffffffffffffffffffffffffffffffffffff168152602001908152602001600020600082825461059391906114e2565b92505081905550836006600087815260200190815260200160002060008282546105bd91906114e2565b92505081905550600060056000878152602001908152602001600020549050600082141561080b576001600860003373ffffffffffffffffffffffffffffffffffffffff1673ffffffffffffffffffffffffffffffffffffffff168152602001908152602001600020600082825461063591906114e2565b925050819055508083141561069f5760006004600088815260200190815260200160002060003373ffffffffffffffffffffffffffffffffffffffff1673ffffffffffffffffffffffffffffffffffffffff168152602001908152602001600020819055506107fb565b600060036000888152602001908152602001600020600083815260200190815260200160002060000160009054906101000a900473ffffffffffffffffffffffffffffffffffffffff1690508060036000898152602001908152602001600020600086815260200190815260200160002060000160006101000a81548173ffffffffffffffffffffffffffffffffffffffff021916908373ffffffffffffffffffffffffffffffffffffffff1602179055506003600088815260200190815260200160002060008381526020019081526020016000206001015460036000898152602001908152602001600020600086815260200190815260200160002060010181905550836004600089815260200190815260200160002060008373ffffffffffffffffffffffffffffffffffffffff1673ffffffffffffffffffffffffffffffffffffffff16815260200190815260200160002081905550505b60018161080891906114e2565b90505b600260009054906101000a900473ffffffffffffffffffffffffffffffffffffffff1673ffffffffffffffffffffffffffffffffffffffff166340c10f1933876040518363ffffffff1660e01b8152600401610868929190611280565b600060405180830381600087803b15801561088257600080fd5b505af1158015610896573d6000803e3d6000fd5b5050505084863373ffffffffffffffffffffffffffffffffffffffff167fdcca95406ac9554449be02d88dcdf9c877f96e4c02bdad4bd5cadefc98a20e3d60405160405180910390a46001935050505092915050565b6004602052816000526040600020602052806000526040600020600091509150505481565b600160009054906101000a900473ffffffffffffffffffffffffffffffffffffffff1681565b60076020528060005260406000206000915090505481565b6003602052816000526040600020602052806000526040600020600091509150508060000160009054906101000a900473ffffffffffffffffffffffffffffffffffffffff16908060010154905082565b60008073ffffffffffffffffffffffffffffffffffffffff16600160009054906101000a900473ffffffffffffffffffffffffffffffffffffffff1673ffffffffffffffffffffffffffffffffffffffff16636352211e856040518263ffffffff1660e01b8152600401610a14919061105b565b602060405180830381865afa158015610a31573d6000803e3d6000fd5b505050506040513d601f19601f82011682018060405250810190610a55919061152b565b73ffffffffffffffffffffffffffffffffffffffff161415610a7657600080fd5b60008211610ab9576040517f08c379a0000000000000000000000000000000000000000000000000000000008152600401610ab0906115a4565b60405180910390fd5b600260009054906101000a900473ffffffffffffffffffffffffffffffffffffffff1673ffffffffffffffffffffffffffffffffffffffff166379cc679033846040518363ffffffff1660e01b8152600401610b16929190611280565b600060405180830381600087803b158015610b3057600080fd5b505af1158015610b44573d6000803e3d6000fd5b5050505060006004600085815260200190815260200160002060003373ffffffffffffffffffffffffffffffffffffffff1673ffffffffffffffffffffffffffffffffffffffff16815260200190815260200160002054905060008114610be857826003600086815260200190815260200160002060008381526020019081526020016000206001016000828254610bdc91906115c4565b92505081905550610ce7565b6001600860003373ffffffffffffffffffffffffffffffffffffffff1673ffffffffffffffffffffffffffffffffffffffff1681526020019081526020016000206000828254610c3891906115c4565b925050819055506001600560008681526020019081526020016000206000828254610c6391906115c4565b92505081905550600560008581526020019081526020016000205490503360036000868152602001908152602001600020600083815260200190815260200160002060000160006101000a81548173ffffffffffffffffffffffffffffffffffffffff021916908373ffffffffffffffffffffffffffffffffffffffff1602179055505b82600760003373ffffffffffffffffffffffffffffffffffffffff1673ffffffffffffffffffffffffffffffffffffffff1681526020019081526020016000206000828254610d3691906115c4565b9250508190555082600660008681526020019081526020016000206000828254610d6091906115c4565b9250508190555082843373ffffffffffffffffffffffffffffffffffffffff167f270d6dd254edd1d985c81cf7861b8f28fb06b6d719df04d90464034d4341244060405160405180910390a4600191505092915050565b600260009054906101000a900473ffffffffffffffffffffffffffffffffffffffff1681565b6000600160009054906101000a900473ffffffffffffffffffffffffffffffffffffffff1673ffffffffffffffffffffffffffffffffffffffff163373ffffffffffffffffffffffffffffffffffffffff1614610e6f576040517f08c379a0000000000000000000000000000000000000000000000000000000008152600401610e6690611395565b60405180910390fd5b6000600560008681526020019081526020016000205490506001811115610fd857600081600143610ea091906114e2565b4060001c610eae9190611649565b90506000600360008881526020019081526020016000206000838152602001908152602001600020905060008160000160009054906101000a900473ffffffffffffffffffffffffffffffffffffffff1690506000826001015490506000600660008b81526020019081526020016000205482610f2b919061167a565b888a610f3791906116ab565b610f4191906116ab565b9050600260009054906101000a900473ffffffffffffffffffffffffffffffffffffffff1673ffffffffffffffffffffffffffffffffffffffff166340c10f1984836040518363ffffffff1660e01b8152600401610fa0929190611280565b600060405180830381600087803b158015610fba57600080fd5b505af1158015610fce573d6000803e3d6000fd5b5050505050505050505b60019150509392505050565b600080fd5b6000819050919050565b610ffc81610fe9565b811461100757600080fd5b50565b60008135905061101981610ff3565b92915050565b60006020828403121561103557611034610fe4565b5b60006110438482850161100a565b91505092915050565b61105581610fe9565b82525050565b6000602082019050611070600083018461104c565b92915050565b600073ffffffffffffffffffffffffffffffffffffffff82169050919050565b60006110a182611076565b9050919050565b6110b181611096565b81146110bc57600080fd5b50565b6000813590506110ce816110a8565b92915050565b6000602082840312156110ea576110e9610fe4565b5b60006110f8848285016110bf565b91505092915050565b6000806040838503121561111857611117610fe4565b5b6000611126858286016110bf565b92505060206111378582860161100a565b9150509250929050565b6000806040838503121561115857611157610fe4565b5b60006111668582860161100a565b92505060206111778582860161100a565b9150509250929050565b60008115159050919050565b61119681611181565b82525050565b60006020820190506111b1600083018461118d565b92915050565b600080604083850312156111ce576111cd610fe4565b5b60006111dc8582860161100a565b92505060206111ed858286016110bf565b9150509250929050565b6000819050919050565b600061121c61121761121284611076565b6111f7565b611076565b9050919050565b600061122e82611201565b9050919050565b600061124082611223565b9050919050565b61125081611235565b82525050565b600060208201905061126b6000830184611247565b92915050565b61127a81611096565b82525050565b60006040820190506112956000830185611271565b6112a2602083018461104c565b9392505050565b60006112b482611223565b9050919050565b6112c4816112a9565b82525050565b60006020820190506112df60008301846112bb565b92915050565b6000806000606084860312156112fe576112fd610fe4565b5b600061130c8682870161100a565b935050602061131d8682870161100a565b925050604061132e8682870161100a565b9150509250925092565b600082825260208201905092915050565b7f4f6e6c7920746f707368656c6600000000000000000000000000000000000000600082015250565b600061137f600d83611338565b915061138a82611349565b602082019050919050565b600060208201905081810360008301526113ae81611372565b9050919050565b7f4d757374207374616b65206265666f726520756e7374616b696e670000000000600082015250565b60006113eb601b83611338565b91506113f6826113b5565b602082019050919050565b6000602082019050818103600083015261141a816113de565b9050919050565b7f43616e6e6f7420756e7374616b65206d6f7265207468616e206973207374616b60008201527f6564000000000000000000000000000000000000000000000000000000000000602082015250565b600061147d602283611338565b915061148882611421565b604082019050919050565b600060208201905081810360008301526114ac81611470565b9050919050565b7f4e487b7100000000000000000000000000000000000000000000000000000000600052601160045260246000fd5b60006114ed82610fe9565b91506114f883610fe9565b92508282101561150b5761150a6114b3565b5b828203905092915050565b600081519050611525816110a8565b92915050565b60006020828403121561154157611540610fe4565b5b600061154f84828501611516565b91505092915050565b7f4d757374207374616b6520746f6b656e73000000000000000000000000000000600082015250565b600061158e601183611338565b915061159982611558565b602082019050919050565b600060208201905081810360008301526115bd81611581565b9050919050565b60006115cf82610fe9565b91506115da83610fe9565b9250827fffffffffffffffffffffffffffffffffffffffffffffffffffffffffffffffff0382111561160f5761160e6114b3565b5b828201905092915050565b7f4e487b7100000000000000000000000000000000000000000000000000000000600052601260045260246000fd5b600061165482610fe9565b915061165f83610fe9565b92508261166f5761166e61161a565b5b828206905092915050565b600061168582610fe9565b915061169083610fe9565b9250826116a05761169f61161a565b5b828204905092915050565b60006116b682610fe9565b91506116c183610fe9565b9250817fffffffffffffffffffffffffffffffffffffffffffffffffffffffffffffffff04831182151516156116fa576116f96114b3565b5b82820290509291505056fea2646970667358221220f2fdb7d8425398fc817ed76dff7802fa4965415bc5d793975b43886b1ed45df364736f6c634300080c0033",
  "immutableReferences": {},
  "source": "//// SPDX-License-Identifier: MIT\npragma solidity ^0.8.6;\nimport \"./TopToken.sol\";\nimport \"./TopShelf.sol\";\n\ncontract TopStake{\n\n    address private deployer;  // uint256 totalStaked;\n    TopShelf public topshelf;  // Admin\n    TopToken public token;\n\n    struct Stake{\n        address Address;\n        uint256 Amount;\n    }\n    mapping(uint256 => mapping(uint256 => Stake)) public itemStake;   \n    mapping(uint256 => mapping(address => uint256)) public itemStakerId;  // itemId to address to stakeIndex (user's stakeId for their item investment) [This is used as the storage limiter for ISAs, everything after is not considered]\n    mapping(uint256 => uint256) public itemTotalStakers;  // itemId to number of staker\n    mapping(uint256 => uint256) public itemTotalStake;  // itemId to number of stakes \n\n    mapping(address => uint256) public stakerTotalStaked;  // ItemId to stakerAddress to stakeAmount (amount of investment user made)\n    mapping(address => uint256) public stakerTotalStakes;  // Address to itemId to stakeIndex (number of investments user has)\n\n    constructor (address _deployer, TopToken _token, TopShelf _topshelf){\n        deployer = _deployer;\n        token = _token;\n        topshelf = _topshelf;\n    }\n    // modifier onlyDeployer(){require(msg.sender == deployer, \"Only deployer\"); _;}\n    modifier onlyShelf(){require(msg.sender == address(topshelf), \"Only topshelf\"); _;}\n    event StakeAdded(address indexed _staker, uint256 indexed _itemId, uint256 indexed _amount);\n    event StakeRemoved(address indexed _staker, uint256 indexed _itemId, uint256 indexed _amount);\n\n    function addItemStake(uint256 _itemId, uint256 _amount) external returns(bool){  /*onlyBuyers(msg.sender)*/ \n        require(topshelf.ownerOf(_itemId) != address(0));\n        require(_amount>0, 'Must stake tokens');\n\n        token.burnFrom(msg.sender, _amount);\n        uint256 stakeId = itemStakerId[_itemId][msg.sender];  // Find their stakeId for an item\n        if (stakeId != 0){  // They've already staked\n            itemStake[_itemId][stakeId].Amount += _amount;\n        } else{  // New staker\n            stakerTotalStakes[msg.sender] +=1;\n            itemTotalStakers[_itemId] += 1;  // Another unique staker is added\n            stakeId = itemTotalStakers[_itemId];  // DOES THIS UPDATE STORAGE??\n            itemStake[_itemId][stakeId].Address = msg.sender;\n        }\n        stakerTotalStaked[msg.sender] += _amount;\n        itemTotalStake[_itemId] += _amount;   // leaseDuration += _amount;  // (_amount*renewalRatio);\n\n        emit StakeAdded(msg.sender, _itemId, _amount);\n        return true;\n    }\n\n    function removeItemStake(uint256 _itemId, uint256 _amount) external returns(bool){ // if remove all stake just move last user to vacant spot\n        uint256 stakeId = itemStakerId[_itemId][msg.sender];\n        require(stakeId !=0, \"Must stake before unstaking\");\n        \n        uint256 userStake = itemStake[_itemId][stakeId].Amount;\n        require(userStake >= _amount, \"Cannot unstake more than is staked\");\n        userStake -= _amount;  // does this change storage?  // leaseDuration -= _amount; //1 >> _amount;  // Un-stake penalty is half of stake leaseDuration reward (exploitable)\n        \n        stakerTotalStaked[msg.sender] -= _amount;\n        itemTotalStake[_itemId] -= _amount;\n        uint256 thisItemTotalStakers = itemTotalStakers[_itemId];\n        \n        if (userStake == 0){  // User is removing all of item stake\n            stakerTotalStakes[msg.sender] -= 1;\n            if (stakeId == thisItemTotalStakers){  // Exiting staker is also last staker, just disregard them and after\n                itemStakerId[_itemId][msg.sender] = 0;\n            } else{  // Exiting staker leaves hole, fill it with last staker's info\n                address lastStaker = itemStake[_itemId][thisItemTotalStakers].Address;\n                itemStake[_itemId][stakeId].Address = lastStaker;\n                itemStake[_itemId][stakeId].Amount = itemStake[_itemId][thisItemTotalStakers].Amount;\n                itemStakerId[_itemId][lastStaker] = stakeId;\n            }\n            thisItemTotalStakers -= 1;  // Every stake after this index is disregarded\n        }\n        token.mint(msg.sender, _amount);\n        emit StakeRemoved(msg.sender, _itemId, _amount);\n        return true;\n    }\n\n    function rewardStakers(uint256 _itemId, uint256 _stakerReward, uint256 _reward) external onlyShelf() returns(bool){ // private?  // https://en.wikipedia.org/wiki/Modulo_operation#Performance_issues + https://medium.com/coinmonks/math-in-solidity-part-5-exponent-and-logarithm-9aef8515136e#ebd5\n        uint256 totalStakers = itemTotalStakers[_itemId];\n        if (totalStakers > 1){  // uint256 randomInt = 1;  // _item.itemStakeAddresses.length%((block.timestamp%10)+1);  // uint256 randomInt = (block.timestamp & ((1 << _item.itemStakeAddresses.length)-1))+1;  // TODO random int from oracle (0->n]\n            uint256 randomInt = uint(blockhash(block.number - 1)) % totalStakers; //itemStakeAddresses[_itemId].length;\n            Stake storage randStake = itemStake[_itemId][randomInt];\n            address stakerAddress = randStake.Address;\n            uint256 stakerAmount = randStake.Amount;\n\n            uint256 reward = (_stakerReward *_reward) * (stakerAmount/itemTotalStake[_itemId]);  // Reward proportional to other stakers and price of the item\n            token.mint(stakerAddress, reward);  // Reward curator in token\n        }\n        return true;\n    }\n\n    function mint(address account, uint256 amount) public onlyShelf(){\n        token.mint(account, amount);\n    }\n}\n\n    // struct Stake{\n    //     address[] itemStakeAddresses;  // ItemId to stakers\n    //     uint256[] itemStakeAddresses;  // ItemId to stakes (Must be synced with itemStakeAddresses)\n    //     uint256[] vacantStakeSlots;  // Unstaked investors stay in stakers array which can be chosen for investor payouts, if new staker arrives, add them to old spot\n    // }\n\n    // itemTotalStakers[_itemId] -= 1;\n\n    // vacantStakeSlots[_itemId].push(stakeId);  // todo reentrancy vulnerability?\n    // itemStakerId[_itemId][msg.sender] = 0;\n    // stakerTotalStakes[msg.sender] -= 1;\n\n\n// ADD STAKE FUNCTION\n    // if (vacantStakeSlots[_itemId].length>1){  // There are empty slots, assign them to an old one\n    //     uint256 _vacantStakeSlot = vacantStakeSlots[_itemId][0];\n    //     delete vacantStakeSlots[0];\n    //     itemStakerId[_itemId][msg.sender] = _vacantStakeSlot;  // leaseDuration += _amount;  // (_amount*renewalRatio);\n    //     itemStakeAddresses[_itemId][_vacantStakeSlot] = msg.sender;\n    //     itemStakeAmounts[_itemId][_vacantStakeSlot] = _amount;\n    // } else{  // No empty slots, push new slot\n    //     itemStakerId[_itemId][msg.sender] = itemStakeAddresses[_itemId].length;  // Assign user a stakeId\n    //     itemStakeAddresses[_itemId].push(msg.sender);\n    //     itemStakeAmounts[_itemId].push(_amount);  // leaseDuration += _amount;  // (_amount*renewalRatio);\n    // }",
  "sourcePath": "/Users/alexa/PycharmProjects/VsShelf/src/contracts/TopStake.sol",
  "compiler": {
    "name": "solc",
    "version": "0.8.12+commit.f00d7308.Emscripten.clang"
  },
  "schemaVersion": "3.4.4",
  "updatedAt": "2022-03-01T00:26:18.824Z",
  "devdoc": {
    "kind": "dev",
    "methods": {},
    "version": 1
  },
  "userdoc": {
    "kind": "user",
    "methods": {},
    "version": 1
  }
}