{
  "contractName": "TopShelf",
  "abi": [
    {
      "inputs": [
        {
          "internalType": "string",
          "name": "_name",
          "type": "string"
        },
        {
          "internalType": "string",
          "name": "_symbol",
          "type": "string"
        },
        {
          "internalType": "contract TopToken",
          "name": "_token",
          "type": "address"
        },
        {
          "internalType": "uint256",
          "name": "_listFee",
          "type": "uint256"
        },
        {
          "internalType": "uint256",
          "name": "_transferFee",
          "type": "uint256"
        },
        {
          "internalType": "uint256",
          "name": "_foreclosureFee",
          "type": "uint256"
        },
        {
          "internalType": "uint256",
          "name": "_stakerReward",
          "type": "uint256"
        },
        {
          "internalType": "uint256",
          "name": "_buyReward",
          "type": "uint256"
        },
        {
          "internalType": "uint256",
          "name": "_defaultLeaseDuration",
          "type": "uint256"
        },
        {
          "internalType": "uint256",
          "name": "_renewalRatio",
          "type": "uint256"
        }
      ],
      "stateMutability": "nonpayable",
      "type": "constructor"
    },
    {
      "anonymous": false,
      "inputs": [
        {
          "indexed": true,
          "internalType": "address",
          "name": "_owner",
          "type": "address"
        },
        {
          "indexed": true,
          "internalType": "address",
          "name": "_approved",
          "type": "address"
        },
        {
          "indexed": true,
          "internalType": "uint256",
          "name": "_tokenId",
          "type": "uint256"
        }
      ],
      "name": "Approval",
      "type": "event"
    },
    {
      "anonymous": false,
      "inputs": [
        {
          "indexed": true,
          "internalType": "address",
          "name": "_owner",
          "type": "address"
        },
        {
          "indexed": true,
          "internalType": "address",
          "name": "_operator",
          "type": "address"
        },
        {
          "indexed": false,
          "internalType": "bool",
          "name": "_approved",
          "type": "bool"
        }
      ],
      "name": "ApprovalForAll",
      "type": "event"
    },
    {
      "anonymous": false,
      "inputs": [
        {
          "indexed": true,
          "internalType": "uint256",
          "name": "_itemId",
          "type": "uint256"
        }
      ],
      "name": "ItemForeclosed",
      "type": "event"
    },
    {
      "anonymous": false,
      "inputs": [
        {
          "indexed": true,
          "internalType": "address",
          "name": "_buyer",
          "type": "address"
        },
        {
          "indexed": true,
          "internalType": "uint256",
          "name": "_itemId",
          "type": "uint256"
        }
      ],
      "name": "ItemPurchased",
      "type": "event"
    },
    {
      "anonymous": false,
      "inputs": [
        {
          "indexed": true,
          "internalType": "uint256",
          "name": "_itemId",
          "type": "uint256"
        }
      ],
      "name": "PausedItem",
      "type": "event"
    },
    {
      "anonymous": false,
      "inputs": [
        {
          "indexed": true,
          "internalType": "uint256",
          "name": "_itemId",
          "type": "uint256"
        }
      ],
      "name": "RenewedItem",
      "type": "event"
    },
    {
      "anonymous": false,
      "inputs": [
        {
          "indexed": true,
          "internalType": "uint256",
          "name": "_itemId",
          "type": "uint256"
        }
      ],
      "name": "SelfForeclosedItem",
      "type": "event"
    },
    {
      "anonymous": false,
      "inputs": [
        {
          "indexed": true,
          "internalType": "address",
          "name": "_sender",
          "type": "address"
        }
      ],
      "name": "TestSender",
      "type": "event"
    },
    {
      "anonymous": false,
      "inputs": [
        {
          "indexed": true,
          "internalType": "address",
          "name": "_from",
          "type": "address"
        },
        {
          "indexed": true,
          "internalType": "address",
          "name": "_to",
          "type": "address"
        },
        {
          "indexed": true,
          "internalType": "uint256",
          "name": "_itemId",
          "type": "uint256"
        }
      ],
      "name": "Transfer",
      "type": "event"
    },
    {
      "inputs": [],
      "name": "buyReward",
      "outputs": [
        {
          "internalType": "uint256",
          "name": "",
          "type": "uint256"
        }
      ],
      "stateMutability": "view",
      "type": "function"
    },
    {
      "inputs": [],
      "name": "defaultLeaseDuration",
      "outputs": [
        {
          "internalType": "uint256",
          "name": "",
          "type": "uint256"
        }
      ],
      "stateMutability": "view",
      "type": "function"
    },
    {
      "inputs": [],
      "name": "foreclosureFee",
      "outputs": [
        {
          "internalType": "uint256",
          "name": "",
          "type": "uint256"
        }
      ],
      "stateMutability": "view",
      "type": "function"
    },
    {
      "inputs": [
        {
          "internalType": "uint256",
          "name": "",
          "type": "uint256"
        }
      ],
      "name": "itemOperator",
      "outputs": [
        {
          "internalType": "address",
          "name": "",
          "type": "address"
        }
      ],
      "stateMutability": "view",
      "type": "function"
    },
    {
      "inputs": [
        {
          "internalType": "uint256",
          "name": "",
          "type": "uint256"
        }
      ],
      "name": "itemOwner",
      "outputs": [
        {
          "internalType": "address",
          "name": "",
          "type": "address"
        }
      ],
      "stateMutability": "view",
      "type": "function"
    },
    {
      "inputs": [],
      "name": "listFee",
      "outputs": [
        {
          "internalType": "uint256",
          "name": "",
          "type": "uint256"
        }
      ],
      "stateMutability": "view",
      "type": "function"
    },
    {
      "inputs": [
        {
          "internalType": "uint256",
          "name": "",
          "type": "uint256"
        }
      ],
      "name": "listings",
      "outputs": [
        {
          "internalType": "string",
          "name": "name",
          "type": "string"
        },
        {
          "internalType": "string",
          "name": "description",
          "type": "string"
        },
        {
          "internalType": "string",
          "name": "URI",
          "type": "string"
        },
        {
          "internalType": "bool",
          "name": "paused",
          "type": "bool"
        },
        {
          "internalType": "uint256",
          "name": "price",
          "type": "uint256"
        },
        {
          "internalType": "uint256",
          "name": "stock",
          "type": "uint256"
        },
        {
          "internalType": "uint256",
          "name": "leaseDuration",
          "type": "uint256"
        },
        {
          "internalType": "uint256",
          "name": "dateCreated",
          "type": "uint256"
        },
        {
          "internalType": "uint256",
          "name": "timesPurchased",
          "type": "uint256"
        }
      ],
      "stateMutability": "view",
      "type": "function"
    },
    {
      "inputs": [],
      "name": "name",
      "outputs": [
        {
          "internalType": "string",
          "name": "",
          "type": "string"
        }
      ],
      "stateMutability": "view",
      "type": "function"
    },
    {
      "inputs": [
        {
          "internalType": "address",
          "name": "",
          "type": "address"
        }
      ],
      "name": "ownerItemCount",
      "outputs": [
        {
          "internalType": "uint256",
          "name": "",
          "type": "uint256"
        }
      ],
      "stateMutability": "view",
      "type": "function"
    },
    {
      "inputs": [
        {
          "internalType": "address",
          "name": "",
          "type": "address"
        }
      ],
      "name": "ownerOperator",
      "outputs": [
        {
          "internalType": "address",
          "name": "",
          "type": "address"
        }
      ],
      "stateMutability": "view",
      "type": "function"
    },
    {
      "inputs": [],
      "name": "renewalRatio",
      "outputs": [
        {
          "internalType": "uint256",
          "name": "",
          "type": "uint256"
        }
      ],
      "stateMutability": "view",
      "type": "function"
    },
    {
      "inputs": [],
      "name": "stakeLeaseReward",
      "outputs": [
        {
          "internalType": "uint256",
          "name": "",
          "type": "uint256"
        }
      ],
      "stateMutability": "view",
      "type": "function"
    },
    {
      "inputs": [
        {
          "internalType": "address",
          "name": "",
          "type": "address"
        }
      ],
      "name": "stakerItemCount",
      "outputs": [
        {
          "internalType": "uint256",
          "name": "",
          "type": "uint256"
        }
      ],
      "stateMutability": "view",
      "type": "function"
    },
    {
      "inputs": [],
      "name": "stakerReward",
      "outputs": [
        {
          "internalType": "uint256",
          "name": "",
          "type": "uint256"
        }
      ],
      "stateMutability": "view",
      "type": "function"
    },
    {
      "inputs": [],
      "name": "symbol",
      "outputs": [
        {
          "internalType": "string",
          "name": "",
          "type": "string"
        }
      ],
      "stateMutability": "view",
      "type": "function"
    },
    {
      "inputs": [],
      "name": "totalSupply",
      "outputs": [
        {
          "internalType": "uint256",
          "name": "",
          "type": "uint256"
        }
      ],
      "stateMutability": "view",
      "type": "function"
    },
    {
      "inputs": [],
      "name": "transferFee",
      "outputs": [
        {
          "internalType": "uint256",
          "name": "",
          "type": "uint256"
        }
      ],
      "stateMutability": "view",
      "type": "function"
    },
    {
      "inputs": [],
      "name": "unstakePenalty",
      "outputs": [
        {
          "internalType": "uint256",
          "name": "",
          "type": "uint256"
        }
      ],
      "stateMutability": "view",
      "type": "function"
    },
    {
      "inputs": [
        {
          "internalType": "address",
          "name": "_address",
          "type": "address"
        }
      ],
      "name": "setTokenAddress",
      "outputs": [],
      "stateMutability": "nonpayable",
      "type": "function"
    },
    {
      "inputs": [
        {
          "internalType": "address",
          "name": "_address",
          "type": "address"
        }
      ],
      "name": "setStakingAddress",
      "outputs": [],
      "stateMutability": "nonpayable",
      "type": "function"
    },
    {
      "inputs": [
        {
          "internalType": "uint256",
          "name": "_amount",
          "type": "uint256"
        }
      ],
      "name": "setTransferFee",
      "outputs": [],
      "stateMutability": "nonpayable",
      "type": "function"
    },
    {
      "inputs": [
        {
          "internalType": "uint256",
          "name": "_amount",
          "type": "uint256"
        }
      ],
      "name": "setListFee",
      "outputs": [],
      "stateMutability": "nonpayable",
      "type": "function"
    },
    {
      "inputs": [
        {
          "internalType": "uint256",
          "name": "_seconds",
          "type": "uint256"
        }
      ],
      "name": "setDefaultLeaseDuration",
      "outputs": [],
      "stateMutability": "nonpayable",
      "type": "function"
    },
    {
      "inputs": [
        {
          "internalType": "uint256",
          "name": "_tokenSeconds",
          "type": "uint256"
        }
      ],
      "name": "setRenewalRatio",
      "outputs": [],
      "stateMutability": "nonpayable",
      "type": "function"
    },
    {
      "inputs": [
        {
          "internalType": "uint256",
          "name": "_amount",
          "type": "uint256"
        }
      ],
      "name": "setForeclosureFee",
      "outputs": [],
      "stateMutability": "nonpayable",
      "type": "function"
    },
    {
      "inputs": [
        {
          "internalType": "uint256",
          "name": "_amount",
          "type": "uint256"
        }
      ],
      "name": "setBuyReward",
      "outputs": [],
      "stateMutability": "nonpayable",
      "type": "function"
    },
    {
      "inputs": [
        {
          "internalType": "address",
          "name": "_owner",
          "type": "address"
        }
      ],
      "name": "balanceOf",
      "outputs": [
        {
          "internalType": "uint256",
          "name": "",
          "type": "uint256"
        }
      ],
      "stateMutability": "view",
      "type": "function"
    },
    {
      "inputs": [
        {
          "internalType": "uint256",
          "name": "_itemId",
          "type": "uint256"
        }
      ],
      "name": "ownerOf",
      "outputs": [
        {
          "internalType": "address",
          "name": "",
          "type": "address"
        }
      ],
      "stateMutability": "view",
      "type": "function"
    },
    {
      "inputs": [
        {
          "internalType": "uint256",
          "name": "_itemId",
          "type": "uint256"
        }
      ],
      "name": "itemExpiryDate",
      "outputs": [
        {
          "internalType": "uint256",
          "name": "",
          "type": "uint256"
        }
      ],
      "stateMutability": "view",
      "type": "function"
    },
    {
      "inputs": [
        {
          "internalType": "uint256",
          "name": "_itemId",
          "type": "uint256"
        }
      ],
      "name": "itemDelinquent",
      "outputs": [
        {
          "internalType": "bool",
          "name": "",
          "type": "bool"
        }
      ],
      "stateMutability": "view",
      "type": "function"
    },
    {
      "inputs": [
        {
          "internalType": "address",
          "name": "owner",
          "type": "address"
        }
      ],
      "name": "getOwnerItems",
      "outputs": [
        {
          "internalType": "uint256[]",
          "name": "",
          "type": "uint256[]"
        }
      ],
      "stateMutability": "view",
      "type": "function"
    },
    {
      "inputs": [],
      "name": "getBalance",
      "outputs": [
        {
          "internalType": "uint256",
          "name": "",
          "type": "uint256"
        }
      ],
      "stateMutability": "view",
      "type": "function"
    },
    {
      "inputs": [
        {
          "internalType": "uint256",
          "name": "_amount",
          "type": "uint256"
        }
      ],
      "name": "withdraw",
      "outputs": [
        {
          "internalType": "bool",
          "name": "",
          "type": "bool"
        }
      ],
      "stateMutability": "nonpayable",
      "type": "function"
    },
    {
      "inputs": [
        {
          "internalType": "string",
          "name": "_name",
          "type": "string"
        },
        {
          "internalType": "string",
          "name": "_description",
          "type": "string"
        },
        {
          "internalType": "string",
          "name": "_URI",
          "type": "string"
        },
        {
          "internalType": "uint256",
          "name": "_price",
          "type": "uint256"
        },
        {
          "internalType": "bool",
          "name": "_paused",
          "type": "bool"
        },
        {
          "internalType": "uint256",
          "name": "_stock",
          "type": "uint256"
        }
      ],
      "name": "mint",
      "outputs": [],
      "stateMutability": "payable",
      "type": "function"
    },
    {
      "inputs": [
        {
          "internalType": "uint256",
          "name": "_itemId",
          "type": "uint256"
        }
      ],
      "name": "buyItem",
      "outputs": [
        {
          "internalType": "bool",
          "name": "",
          "type": "bool"
        }
      ],
      "stateMutability": "payable",
      "type": "function"
    },
    {
      "inputs": [
        {
          "internalType": "uint256",
          "name": "_itemId",
          "type": "uint256"
        },
        {
          "internalType": "uint256",
          "name": "_tokenAmount",
          "type": "uint256"
        }
      ],
      "name": "renewItem",
      "outputs": [],
      "stateMutability": "nonpayable",
      "type": "function"
    },
    {
      "inputs": [
        {
          "internalType": "uint256",
          "name": "_itemId",
          "type": "uint256"
        }
      ],
      "name": "forecloseItem",
      "outputs": [
        {
          "internalType": "bool",
          "name": "",
          "type": "bool"
        }
      ],
      "stateMutability": "nonpayable",
      "type": "function"
    },
    {
      "inputs": [
        {
          "internalType": "uint256",
          "name": "_itemId",
          "type": "uint256"
        },
        {
          "internalType": "string",
          "name": "_name",
          "type": "string"
        },
        {
          "internalType": "uint256",
          "name": "_price",
          "type": "uint256"
        },
        {
          "internalType": "string",
          "name": "_description",
          "type": "string"
        }
      ],
      "name": "forecloseRenovate",
      "outputs": [
        {
          "internalType": "bool",
          "name": "",
          "type": "bool"
        }
      ],
      "stateMutability": "nonpayable",
      "type": "function"
    },
    {
      "inputs": [
        {
          "internalType": "uint256",
          "name": "_itemId",
          "type": "uint256"
        },
        {
          "internalType": "uint256",
          "name": "_price",
          "type": "uint256"
        }
      ],
      "name": "changeItemPrice",
      "outputs": [
        {
          "internalType": "bool",
          "name": "",
          "type": "bool"
        }
      ],
      "stateMutability": "nonpayable",
      "type": "function"
    },
    {
      "inputs": [
        {
          "internalType": "uint256",
          "name": "_itemId",
          "type": "uint256"
        },
        {
          "internalType": "bool",
          "name": "_state",
          "type": "bool"
        }
      ],
      "name": "pausePlayItem",
      "outputs": [
        {
          "internalType": "bool",
          "name": "",
          "type": "bool"
        }
      ],
      "stateMutability": "nonpayable",
      "type": "function"
    },
    {
      "inputs": [
        {
          "internalType": "uint256",
          "name": "_itemId",
          "type": "uint256"
        }
      ],
      "name": "selfForecloseItem",
      "outputs": [
        {
          "internalType": "bool",
          "name": "",
          "type": "bool"
        }
      ],
      "stateMutability": "nonpayable",
      "type": "function"
    },
    {
      "inputs": [
        {
          "internalType": "address",
          "name": "_to",
          "type": "address"
        },
        {
          "internalType": "uint256",
          "name": "_itemId",
          "type": "uint256"
        }
      ],
      "name": "transfer",
      "outputs": [],
      "stateMutability": "nonpayable",
      "type": "function"
    }
  ],
  "bytecode": "0x60806040523480156200001157600080fd5b50604051620063be380380620063be8339818101604052810190620000379190620004b7565b89600190805190602001906200004f929190620001a8565b50886002908051906020019062000068929190620001a8565b50336000806101000a81548173ffffffffffffffffffffffffffffffffffffffff021916908373ffffffffffffffffffffffffffffffffffffffff16021790555087601260006101000a81548173ffffffffffffffffffffffffffffffffffffffff021916908373ffffffffffffffffffffffffffffffffffffffff16021790555086600481905550856005819055508460068190555083600a819055508260078190555081600881905550806009819055503388306040516200012c9062000239565b6200013a939291906200068c565b604051809103906000f08015801562000157573d6000803e3d6000fd5b50601360006101000a81548173ffffffffffffffffffffffffffffffffffffffff021916908373ffffffffffffffffffffffffffffffffffffffff160217905550505050505050505050506200072e565b828054620001b690620006f8565b90600052602060002090601f016020900481019282620001da576000855562000226565b82601f10620001f557805160ff191683800117855562000226565b8280016001018555821562000226579182015b828111156200022557825182559160200191906001019062000208565b5b50905062000235919062000247565b5090565b61199d8062004a2183390190565b5b808211156200026257600081600090555060010162000248565b5090565b6000604051905090565b600080fd5b600080fd5b600080fd5b600080fd5b6000601f19601f8301169050919050565b7f4e487b7100000000000000000000000000000000000000000000000000000000600052604160045260246000fd5b620002cf8262000284565b810181811067ffffffffffffffff82111715620002f157620002f062000295565b5b80604052505050565b60006200030662000266565b9050620003148282620002c4565b919050565b600067ffffffffffffffff82111562000337576200033662000295565b5b620003428262000284565b9050602081019050919050565b60005b838110156200036f57808201518184015260208101905062000352565b838111156200037f576000848401525b50505050565b60006200039c620003968462000319565b620002fa565b905082815260208101848484011115620003bb57620003ba6200027f565b5b620003c88482856200034f565b509392505050565b600082601f830112620003e857620003e76200027a565b5b8151620003fa84826020860162000385565b91505092915050565b600073ffffffffffffffffffffffffffffffffffffffff82169050919050565b6000620004308262000403565b9050919050565b6000620004448262000423565b9050919050565b620004568162000437565b81146200046257600080fd5b50565b60008151905062000476816200044b565b92915050565b6000819050919050565b62000491816200047c565b81146200049d57600080fd5b50565b600081519050620004b18162000486565b92915050565b6000806000806000806000806000806101408b8d031215620004de57620004dd62000270565b5b60008b015167ffffffffffffffff811115620004ff57620004fe62000275565b5b6200050d8d828e01620003d0565b9a505060208b015167ffffffffffffffff81111562000531576200053062000275565b5b6200053f8d828e01620003d0565b9950506040620005528d828e0162000465565b9850506060620005658d828e01620004a0565b9750506080620005788d828e01620004a0565b96505060a06200058b8d828e01620004a0565b95505060c06200059e8d828e01620004a0565b94505060e0620005b18d828e01620004a0565b935050610100620005c58d828e01620004a0565b925050610120620005d98d828e01620004a0565b9150509295989b9194979a5092959850565b620005f68162000423565b82525050565b6000819050919050565b600062000627620006216200061b8462000403565b620005fc565b62000403565b9050919050565b60006200063b8262000606565b9050919050565b60006200064f826200062e565b9050919050565b620006618162000642565b82525050565b600062000674826200062e565b9050919050565b620006868162000667565b82525050565b6000606082019050620006a36000830186620005eb565b620006b2602083018562000656565b620006c160408301846200067b565b949350505050565b7f4e487b7100000000000000000000000000000000000000000000000000000000600052602260045260246000fd5b600060028204905060018216806200071157607f821691505b60208210811415620007285762000727620006c9565b5b50919050565b6142e3806200073e6000396000f3fe6080604052600436106102515760003560e01c8063942bcdef11610139578063b39b2c8d116100b6578063e7fb74c71161007a578063e7fb74c714610959578063f01da52414610989578063f2caa83e146109b4578063f4e0d9ac146109dd578063f6a82e6814610a06578063fc7efd1114610a4357610251565b8063b39b2c8d14610844578063b8e7207014610881578063d428bf5a146108ac578063d69285ad146108d7578063de74e57b1461091457610251565b8063a7b19424116100fd578063a7b194241461074b578063a9059cbb14610788578063aa22a803146107b1578063acb2ad6f146107ee578063ae379b691461081957610251565b8063942bcdef146106645780639548573b1461068f57806395d89b41146106cc5780639839523c146106f7578063988d18361461072057610251565b80633eb62885116101d2578063683e975811610196578063683e97581461053057806370a082311461056d5780637fa42e94146105aa578063872de727146105d55780638f02bb5b146105fe5780638ffa332f1461062757610251565b80633eb6288514610448578063435b9a28146104645780634a8b5faf1461048d5780634c798473146104b65780636352211e146104f357610251565b8063231f409711610219578063231f40971461033d57806326a4e8d21461037a5780632d6c5c8b146103a35780632e1a7d4d146103ce5780633c7baa2a1461040b57610251565b806306fdde03146102565780630928f2d11461028157806312065fe0146102be57806318160ddd146102e95780631d04886014610314575b600080fd5b34801561026257600080fd5b5061026b610a80565b6040516102789190613204565b60405180910390f35b34801561028d57600080fd5b506102a860048036038101906102a39190613298565b610b0e565b6040516102b591906132de565b60405180910390f35b3480156102ca57600080fd5b506102d3610b26565b6040516102e091906132de565b60405180910390f35b3480156102f557600080fd5b506102fe610b2e565b60405161030b91906132de565b60405180910390f35b34801561032057600080fd5b5061033b60048036038101906103369190613325565b610b34565b005b34801561034957600080fd5b50610364600480360381019061035f9190613325565b610bcc565b6040516103719190613361565b60405180910390f35b34801561038657600080fd5b506103a1600480360381019061039c9190613298565b610bff565b005b3480156103af57600080fd5b506103b8610cd1565b6040516103c591906132de565b60405180910390f35b3480156103da57600080fd5b506103f560048036038101906103f09190613325565b610cd7565b6040516104029190613397565b60405180910390f35b34801561041757600080fd5b50610432600480360381019061042d9190613325565b610db1565b60405161043f9190613397565b60405180910390f35b610462600480360381019061045d9190613513565b611006565b005b34801561047057600080fd5b5061048b60048036038101906104869190613325565b6112b9565b005b34801561049957600080fd5b506104b460048036038101906104af9190613325565b611351565b005b3480156104c257600080fd5b506104dd60048036038101906104d89190613298565b6113e9565b6040516104ea91906132de565b60405180910390f35b3480156104ff57600080fd5b5061051a60048036038101906105159190613325565b611401565b6040516105279190613361565b60405180910390f35b34801561053c57600080fd5b50610557600480360381019061055291906135f4565b6114e3565b6040516105649190613397565b60405180910390f35b34801561057957600080fd5b50610594600480360381019061058f9190613298565b6115d5565b6040516105a191906132de565b60405180910390f35b3480156105b657600080fd5b506105bf611690565b6040516105cc91906132de565b60405180910390f35b3480156105e157600080fd5b506105fc60048036038101906105f79190613325565b611696565b005b34801561060a57600080fd5b5061062560048036038101906106209190613325565b61172e565b005b34801561063357600080fd5b5061064e60048036038101906106499190613325565b6117c6565b60405161065b9190613397565b60405180910390f35b34801561067057600080fd5b50610679611b8f565b60405161068691906132de565b60405180910390f35b34801561069b57600080fd5b506106b660048036038101906106b19190613325565b611b95565b6040516106c39190613361565b60405180910390f35b3480156106d857600080fd5b506106e1611bc8565b6040516106ee9190613204565b60405180910390f35b34801561070357600080fd5b5061071e60048036038101906107199190613325565b611c56565b005b34801561072c57600080fd5b50610735611cee565b60405161074291906132de565b60405180910390f35b34801561075757600080fd5b50610772600480360381019061076d9190613634565b611cf4565b60405161077f9190613397565b60405180910390f35b34801561079457600080fd5b506107af60048036038101906107aa9190613674565b611dd3565b005b3480156107bd57600080fd5b506107d860048036038101906107d39190613325565b611f69565b6040516107e59190613397565b60405180910390f35b3480156107fa57600080fd5b50610803612087565b60405161081091906132de565b60405180910390f35b34801561082557600080fd5b5061082e61208d565b60405161083b91906132de565b60405180910390f35b34801561085057600080fd5b5061086b60048036038101906108669190613325565b612093565b60405161087891906132de565b60405180910390f35b34801561088d57600080fd5b506108966122e5565b6040516108a391906132de565b60405180910390f35b3480156108b857600080fd5b506108c16122eb565b6040516108ce91906132de565b60405180910390f35b3480156108e357600080fd5b506108fe60048036038101906108f991906136b4565b6122f1565b60405161090b9190613397565b60405180910390f35b34801561092057600080fd5b5061093b60048036038101906109369190613325565b612392565b60405161095099989796959493929190613753565b60405180910390f35b610973600480360381019061096e9190613325565b612595565b6040516109809190613397565b60405180910390f35b34801561099557600080fd5b5061099e612ad3565b6040516109ab91906132de565b60405180910390f35b3480156109c057600080fd5b506109db60048036038101906109d69190613634565b612ad9565b005b3480156109e957600080fd5b50610a0460048036038101906109ff9190613298565b612c6b565b005b348015610a1257600080fd5b50610a2d6004803603810190610a289190613298565b612d3d565b604051610a3a9190613361565b60405180910390f35b348015610a4f57600080fd5b50610a6a6004803603810190610a659190613298565b612d70565b604051610a7791906138b3565b60405180910390f35b60018054610a8d90613904565b80601f0160208091040260200160405190810160405280929190818152602001828054610ab990613904565b8015610b065780601f10610adb57610100808354040283529160200191610b06565b820191906000526020600020905b815481529060010190602001808311610ae957829003601f168201915b505050505081565b60116020528060005260406000206000915090505481565b600047905090565b60035481565b60008054906101000a900473ffffffffffffffffffffffffffffffffffffffff1673ffffffffffffffffffffffffffffffffffffffff163373ffffffffffffffffffffffffffffffffffffffff1614610bc2576040517f08c379a0000000000000000000000000000000000000000000000000000000008152600401610bb990613982565b60405180910390fd5b8060048190555050565b600e6020528060005260406000206000915054906101000a900473ffffffffffffffffffffffffffffffffffffffff1681565b60008054906101000a900473ffffffffffffffffffffffffffffffffffffffff1673ffffffffffffffffffffffffffffffffffffffff163373ffffffffffffffffffffffffffffffffffffffff1614610c8d576040517f08c379a0000000000000000000000000000000000000000000000000000000008152600401610c8490613982565b60405180910390fd5b80601260006101000a81548173ffffffffffffffffffffffffffffffffffffffff021916908373ffffffffffffffffffffffffffffffffffffffff16021790555050565b60065481565b60008060009054906101000a900473ffffffffffffffffffffffffffffffffffffffff1673ffffffffffffffffffffffffffffffffffffffff163373ffffffffffffffffffffffffffffffffffffffff1614610d68576040517f08c379a0000000000000000000000000000000000000000000000000000000008152600401610d5f90613982565b60405180910390fd5b47821115610d7557600080fd5b3373ffffffffffffffffffffffffffffffffffffffff166108fc839081150290604051600060405180830381858888f193505050509050919050565b60008060148381548110610dc857610dc76139a2565b5b906000526020600020906009020160405180610120016040529081600082018054610df290613904565b80601f0160208091040260200160405190810160405280929190818152602001828054610e1e90613904565b8015610e6b5780601f10610e4057610100808354040283529160200191610e6b565b820191906000526020600020905b815481529060010190602001808311610e4e57829003601f168201915b50505050508152602001600182018054610e8490613904565b80601f0160208091040260200160405190810160405280929190818152602001828054610eb090613904565b8015610efd5780601f10610ed257610100808354040283529160200191610efd565b820191906000526020600020905b815481529060010190602001808311610ee057829003601f168201915b50505050508152602001600282018054610f1690613904565b80601f0160208091040260200160405190810160405280929190818152602001828054610f4290613904565b8015610f8f5780601f10610f6457610100808354040283529160200191610f8f565b820191906000526020600020905b815481529060010190602001808311610f7257829003601f168201915b505050505081526020016003820160009054906101000a900460ff16151515158152602001600482015481526020016005820154815260200160068201548152602001600782015481526020016008820154815250509050428160c001518260e00151610ffc9190613a00565b1115915050919050565b60045434101561104b576040517f08c379a000000000000000000000000000000000000000000000000000000000815260040161104290613aa2565b60405180910390fd5b6000339050601460018160018154018082558091505003906000526020600020905050600060016014805490506110829190613ac2565b905060006014828154811061109a576110996139a2565b5b90600052602060002090600902019050888160000190805190602001906110c29291906130c8565b50878160010190805190602001906110db9291906130c8565b50868160020190805190602001906110f49291906130c8565b50838160050181905550848160030160006101000a81548160ff021916908315150217905550858160040181905550428160070181905550600854816006018190555082600d6000600354815260200190815260200160002060006101000a81548173ffffffffffffffffffffffffffffffffffffffff021916908373ffffffffffffffffffffffffffffffffffffffff16021790555082600e6000600354815260200190815260200160002060006101000a81548173ffffffffffffffffffffffffffffffffffffffff021916908373ffffffffffffffffffffffffffffffffffffffff1602179055506001601060008573ffffffffffffffffffffffffffffffffffffffff1673ffffffffffffffffffffffffffffffffffffffff168152602001908152602001600020600082825461122f9190613a00565b925050819055506003548373ffffffffffffffffffffffffffffffffffffffff16600073ffffffffffffffffffffffffffffffffffffffff167fddf252ad1be2c89b69c2b068fc378daa952ba7f163c4a11628f55a4df523b3ef60405160405180910390a46001600360008282546112a79190613a00565b92505081905550505050505050505050565b60008054906101000a900473ffffffffffffffffffffffffffffffffffffffff1673ffffffffffffffffffffffffffffffffffffffff163373ffffffffffffffffffffffffffffffffffffffff1614611347576040517f08c379a000000000000000000000000000000000000000000000000000000000815260040161133e90613982565b60405180910390fd5b8060098190555050565b60008054906101000a900473ffffffffffffffffffffffffffffffffffffffff1673ffffffffffffffffffffffffffffffffffffffff163373ffffffffffffffffffffffffffffffffffffffff16146113df576040517f08c379a00000000000000000000000000000000000000000000000000000000081526004016113d690613982565b60405180910390fd5b8060088190555050565b60106020528060005260406000206000915090505481565b600081600073ffffffffffffffffffffffffffffffffffffffff16600d600083815260200190815260200160002060009054906101000a900473ffffffffffffffffffffffffffffffffffffffff1673ffffffffffffffffffffffffffffffffffffffff1614156114a7576040517f08c379a000000000000000000000000000000000000000000000000000000000815260040161149e90613b42565b60405180910390fd5b600d600084815260200190815260200160002060009054906101000a900473ffffffffffffffffffffffffffffffffffffffff16915050919050565b600082600d600082815260200190815260200160002060009054906101000a900473ffffffffffffffffffffffffffffffffffffffff1673ffffffffffffffffffffffffffffffffffffffff163373ffffffffffffffffffffffffffffffffffffffff1614611587576040517f08c379a000000000000000000000000000000000000000000000000000000000815260040161157e90613bae565b60405180910390fd5b60006014858154811061159d5761159c6139a2565b5b90600052602060002090600902019050838160030160006101000a81548160ff02191690831515021790555060019250505092915050565b600081600073ffffffffffffffffffffffffffffffffffffffff168173ffffffffffffffffffffffffffffffffffffffff161415611648576040517f08c379a000000000000000000000000000000000000000000000000000000000815260040161163f90613c1a565b60405180910390fd5b601060008473ffffffffffffffffffffffffffffffffffffffff1673ffffffffffffffffffffffffffffffffffffffff16815260200190815260200160002054915050919050565b600b5481565b60008054906101000a900473ffffffffffffffffffffffffffffffffffffffff1673ffffffffffffffffffffffffffffffffffffffff163373ffffffffffffffffffffffffffffffffffffffff1614611724576040517f08c379a000000000000000000000000000000000000000000000000000000000815260040161171b90613982565b60405180910390fd5b8060078190555050565b60008054906101000a900473ffffffffffffffffffffffffffffffffffffffff1673ffffffffffffffffffffffffffffffffffffffff163373ffffffffffffffffffffffffffffffffffffffff16146117bc576040517f08c379a00000000000000000000000000000000000000000000000000000000081526004016117b390613982565b60405180910390fd5b8060058190555050565b600080601483815481106117dd576117dc6139a2565b5b90600052602060002090600902016040518061012001604052908160008201805461180790613904565b80601f016020809104026020016040519081016040528092919081815260200182805461183390613904565b80156118805780601f1061185557610100808354040283529160200191611880565b820191906000526020600020905b81548152906001019060200180831161186357829003601f168201915b5050505050815260200160018201805461189990613904565b80601f01602080910402602001604051908101604052809291908181526020018280546118c590613904565b80156119125780601f106118e757610100808354040283529160200191611912565b820191906000526020600020905b8154815290600101906020018083116118f557829003601f168201915b5050505050815260200160028201805461192b90613904565b80601f016020809104026020016040519081016040528092919081815260200182805461195790613904565b80156119a45780601f10611979576101008083540402835291602001916119a4565b820191906000526020600020905b81548152906001019060200180831161198757829003601f168201915b505050505081526020016003820160009054906101000a900460ff16151515158152602001600482015481526020016005820154815260200160068201548152602001600782015481526020016008820154815250509050428160c001518260e00151611a119190613a00565b1115611a52576040517f08c379a0000000000000000000000000000000000000000000000000000000008152600401611a4990613c86565b60405180910390fd5b601260009054906101000a900473ffffffffffffffffffffffffffffffffffffffff1673ffffffffffffffffffffffffffffffffffffffff166323b872dd33306006546040518463ffffffff1660e01b8152600401611ab393929190613ca6565b6020604051808303816000875af1158015611ad2573d6000803e3d6000fd5b505050506040513d601f19601f82011682018060405250810190611af69190613cf2565b506000600d600085815260200190815260200160002060009054906101000a900473ffffffffffffffffffffffffffffffffffffffff169050611b3a813386612ea4565b6009546001611b499190613d1f565b60148581548110611b5d57611b5c6139a2565b5b90600052602060002090600902016006016000828254611b7d9190613a00565b92505081905550600192505050919050565b600c5481565b600d6020528060005260406000206000915054906101000a900473ffffffffffffffffffffffffffffffffffffffff1681565b60028054611bd590613904565b80601f0160208091040260200160405190810160405280929190818152602001828054611c0190613904565b8015611c4e5780601f10611c2357610100808354040283529160200191611c4e565b820191906000526020600020905b815481529060010190602001808311611c3157829003601f168201915b505050505081565b60008054906101000a900473ffffffffffffffffffffffffffffffffffffffff1673ffffffffffffffffffffffffffffffffffffffff163373ffffffffffffffffffffffffffffffffffffffff1614611ce4576040517f08c379a0000000000000000000000000000000000000000000000000000000008152600401611cdb90613982565b60405180910390fd5b8060068190555050565b60075481565b600082600d600082815260200190815260200160002060009054906101000a900473ffffffffffffffffffffffffffffffffffffffff1673ffffffffffffffffffffffffffffffffffffffff163373ffffffffffffffffffffffffffffffffffffffff1614611d98576040517f08c379a0000000000000000000000000000000000000000000000000000000008152600401611d8f90613bae565b60405180910390fd5b600060148581548110611dae57611dad6139a2565b5b9060005260206000209060090201905083816004018190555060019250505092915050565b80600d600082815260200190815260200160002060009054906101000a900473ffffffffffffffffffffffffffffffffffffffff1673ffffffffffffffffffffffffffffffffffffffff163373ffffffffffffffffffffffffffffffffffffffff1614611e75576040517f08c379a0000000000000000000000000000000000000000000000000000000008152600401611e6c90613bae565b60405180910390fd5b6000611eb6576040517f08c379a0000000000000000000000000000000000000000000000000000000008152600401611ead90613e11565b60405180910390fd5b601260009054906101000a900473ffffffffffffffffffffffffffffffffffffffff1673ffffffffffffffffffffffffffffffffffffffff1663a9059cbb306005546040518363ffffffff1660e01b8152600401611f15929190613e31565b6020604051808303816000875af1158015611f34573d6000803e3d6000fd5b505050506040513d601f19601f82011682018060405250810190611f589190613cf2565b50611f64338484612ea4565b505050565b600081600d600082815260200190815260200160002060009054906101000a900473ffffffffffffffffffffffffffffffffffffffff1673ffffffffffffffffffffffffffffffffffffffff163373ffffffffffffffffffffffffffffffffffffffff161461200d576040517f08c379a000000000000000000000000000000000000000000000000000000000815260040161200490613bae565b60405180910390fd5b600060148481548110612023576120226139a2565b5b9060005260206000209060090201905060008160070154426120459190613ac2565b9050600081101561205557600080fd5b80826006018190555060018260030160006101000a81548160ff02191690831515021790555060019350505050919050565b60055481565b60085481565b600080601483815481106120aa576120a96139a2565b5b9060005260206000209060090201604051806101200160405290816000820180546120d490613904565b80601f016020809104026020016040519081016040528092919081815260200182805461210090613904565b801561214d5780601f106121225761010080835404028352916020019161214d565b820191906000526020600020905b81548152906001019060200180831161213057829003601f168201915b5050505050815260200160018201805461216690613904565b80601f016020809104026020016040519081016040528092919081815260200182805461219290613904565b80156121df5780601f106121b4576101008083540402835291602001916121df565b820191906000526020600020905b8154815290600101906020018083116121c257829003601f168201915b505050505081526020016002820180546121f890613904565b80601f016020809104026020016040519081016040528092919081815260200182805461222490613904565b80156122715780601f1061224657610100808354040283529160200191612271565b820191906000526020600020905b81548152906001019060200180831161225457829003601f168201915b505050505081526020016003820160009054906101000a900460ff161515151581526020016004820154815260200160058201548152602001600682015481526020016007820154815260200160088201548152505090508060c001518160e001516122dd9190613a00565b915050919050565b60045481565b600a5481565b6000806122fd866117c6565b905080156123865760006014878154811061231b5761231a6139a2565b5b90600052602060002090600902019050858160000190805190602001906123439291906130c8565b50848160040181905550838160010190805190602001906123659291906130c8565b50600081600801819055506008548160060181905550428160070181905550505b80915050949350505050565b601481815481106123a257600080fd5b90600052602060002090600902016000915090508060000180546123c590613904565b80601f01602080910402602001604051908101604052809291908181526020018280546123f190613904565b801561243e5780601f106124135761010080835404028352916020019161243e565b820191906000526020600020905b81548152906001019060200180831161242157829003601f168201915b50505050509080600101805461245390613904565b80601f016020809104026020016040519081016040528092919081815260200182805461247f90613904565b80156124cc5780601f106124a1576101008083540402835291602001916124cc565b820191906000526020600020905b8154815290600101906020018083116124af57829003601f168201915b5050505050908060020180546124e190613904565b80601f016020809104026020016040519081016040528092919081815260200182805461250d90613904565b801561255a5780601f1061252f5761010080835404028352916020019161255a565b820191906000526020600020905b81548152906001019060200180831161253d57829003601f168201915b5050505050908060030160009054906101000a900460ff16908060040154908060050154908060060154908060070154908060080154905089565b600081600073ffffffffffffffffffffffffffffffffffffffff16600d600083815260200190815260200160002060009054906101000a900473ffffffffffffffffffffffffffffffffffffffff1673ffffffffffffffffffffffffffffffffffffffff16141561263b576040517f08c379a000000000000000000000000000000000000000000000000000000000815260040161263290613b42565b60405180910390fd5b6000601060003373ffffffffffffffffffffffffffffffffffffffff1673ffffffffffffffffffffffffffffffffffffffff16815260200190815260200160002054146126bd576040517f08c379a00000000000000000000000000000000000000000000000000000000081526004016126b490613ea6565b60405180910390fd5b6000601484815481106126d3576126d26139a2565b5b906000526020600020906009020190508060030160009054906101000a900460ff1615612735576040517f08c379a000000000000000000000000000000000000000000000000000000000815260040161272c90613f12565b60405180910390fd5b806004015434101561277c576040517f08c379a000000000000000000000000000000000000000000000000000000000815260040161277390613f7e565b60405180910390fd5b61278584610db1565b156127c5576040517f08c379a00000000000000000000000000000000000000000000000000000000081526004016127bc90613fea565b60405180910390fd5b600081600501541161280c576040517f08c379a000000000000000000000000000000000000000000000000000000000815260040161280390614056565b60405180910390fd5b600061281785611401565b905060008173ffffffffffffffffffffffffffffffffffffffff163460405161283f906140a7565b60006040518083038185875af1925050503d806000811461287c576040519150601f19603f3d011682016040523d82523d6000602084013e612881565b606091505b50509050806128c5576040517f08c379a00000000000000000000000000000000000000000000000000000000081526004016128bc90614108565b60405180910390fd5b60018360050160008282546128da9190613ac2565b9250508190555060018360080160008282546128f69190613a00565b9250508190555060003460075461290d9190613d1f565b9050601360009054906101000a900473ffffffffffffffffffffffffffffffffffffffff1673ffffffffffffffffffffffffffffffffffffffff1663fdd88e3088600a54846040518463ffffffff1660e01b815260040161297093929190614128565b6020604051808303816000875af115801561298f573d6000803e3d6000fd5b505050506040513d601f19601f820116820180604052508101906129b39190613cf2565b6129f2576040517f08c379a00000000000000000000000000000000000000000000000000000000081526004016129e9906141ab565b60405180910390fd5b601360009054906101000a900473ffffffffffffffffffffffffffffffffffffffff1673ffffffffffffffffffffffffffffffffffffffff166340c10f1933836040518363ffffffff1660e01b8152600401612a4f929190613e31565b600060405180830381600087803b158015612a6957600080fd5b505af1158015612a7d573d6000803e3d6000fd5b50505050863373ffffffffffffffffffffffffffffffffffffffff167f792fe07c0f3ce4ef42df79c4a2b07925168cddbaabf7a7ef1351f027a376031360405160405180910390a3600195505050505050919050565b60095481565b81600d600082815260200190815260200160002060009054906101000a900473ffffffffffffffffffffffffffffffffffffffff1673ffffffffffffffffffffffffffffffffffffffff163373ffffffffffffffffffffffffffffffffffffffff1614612b7b576040517f08c379a0000000000000000000000000000000000000000000000000000000008152600401612b7290613bae565b60405180910390fd5b601260009054906101000a900473ffffffffffffffffffffffffffffffffffffffff1673ffffffffffffffffffffffffffffffffffffffff166379cc679033846040518363ffffffff1660e01b8152600401612bd8929190613e31565b600060405180830381600087803b158015612bf257600080fd5b505af1158015612c06573d6000803e3d6000fd5b50505050670de0b6b3a764000060095483612c219190613d1f565b612c2b91906141fa565b60148481548110612c3f57612c3e6139a2565b5b90600052602060002090600902016006016000828254612c5f9190613a00565b92505081905550505050565b60008054906101000a900473ffffffffffffffffffffffffffffffffffffffff1673ffffffffffffffffffffffffffffffffffffffff163373ffffffffffffffffffffffffffffffffffffffff1614612cf9576040517f08c379a0000000000000000000000000000000000000000000000000000000008152600401612cf090613982565b60405180910390fd5b80601360006101000a81548173ffffffffffffffffffffffffffffffffffffffff021916908373ffffffffffffffffffffffffffffffffffffffff16021790555050565b600f6020528060005260406000206000915054906101000a900473ffffffffffffffffffffffffffffffffffffffff1681565b60606000601060008473ffffffffffffffffffffffffffffffffffffffff1673ffffffffffffffffffffffffffffffffffffffff1681526020019081526020016000205467ffffffffffffffff811115612dcd57612dcc6133bc565b5b604051908082528060200260200182016040528015612dfb5781602001602082028036833780820191505090505b5090506000805b6014805490508161ffff161015612e99578473ffffffffffffffffffffffffffffffffffffffff16612e378261ffff16611401565b73ffffffffffffffffffffffffffffffffffffffff161415612e86578061ffff16838381518110612e6b57612e6a6139a2565b5b6020026020010181815250508180612e829061422b565b9250505b8080612e9190614282565b915050612e02565b508192505050919050565b81600073ffffffffffffffffffffffffffffffffffffffff168173ffffffffffffffffffffffffffffffffffffffff161415612f15576040517f08c379a0000000000000000000000000000000000000000000000000000000008152600401612f0c90613c1a565b60405180910390fd5b6001601060008673ffffffffffffffffffffffffffffffffffffffff1673ffffffffffffffffffffffffffffffffffffffff1681526020019081526020016000206000828254612f659190613ac2565b9250508190555082600d600084815260200190815260200160002060006101000a81548173ffffffffffffffffffffffffffffffffffffffff021916908373ffffffffffffffffffffffffffffffffffffffff16021790555082600e600084815260200190815260200160002060006101000a81548173ffffffffffffffffffffffffffffffffffffffff021916908373ffffffffffffffffffffffffffffffffffffffff1602179055506001601060008573ffffffffffffffffffffffffffffffffffffffff1673ffffffffffffffffffffffffffffffffffffffff16815260200190815260200160002060008282546130609190613a00565b92505081905550818373ffffffffffffffffffffffffffffffffffffffff168573ffffffffffffffffffffffffffffffffffffffff167fddf252ad1be2c89b69c2b068fc378daa952ba7f163c4a11628f55a4df523b3ef60405160405180910390a450505050565b8280546130d490613904565b90600052602060002090601f0160209004810192826130f6576000855561313d565b82601f1061310f57805160ff191683800117855561313d565b8280016001018555821561313d579182015b8281111561313c578251825591602001919060010190613121565b5b50905061314a919061314e565b5090565b5b8082111561316757600081600090555060010161314f565b5090565b600081519050919050565b600082825260208201905092915050565b60005b838110156131a557808201518184015260208101905061318a565b838111156131b4576000848401525b50505050565b6000601f19601f8301169050919050565b60006131d68261316b565b6131e08185613176565b93506131f0818560208601613187565b6131f9816131ba565b840191505092915050565b6000602082019050818103600083015261321e81846131cb565b905092915050565b6000604051905090565b600080fd5b600080fd5b600073ffffffffffffffffffffffffffffffffffffffff82169050919050565b60006132658261323a565b9050919050565b6132758161325a565b811461328057600080fd5b50565b6000813590506132928161326c565b92915050565b6000602082840312156132ae576132ad613230565b5b60006132bc84828501613283565b91505092915050565b6000819050919050565b6132d8816132c5565b82525050565b60006020820190506132f360008301846132cf565b92915050565b613302816132c5565b811461330d57600080fd5b50565b60008135905061331f816132f9565b92915050565b60006020828403121561333b5761333a613230565b5b600061334984828501613310565b91505092915050565b61335b8161325a565b82525050565b60006020820190506133766000830184613352565b92915050565b60008115159050919050565b6133918161337c565b82525050565b60006020820190506133ac6000830184613388565b92915050565b600080fd5b600080fd5b7f4e487b7100000000000000000000000000000000000000000000000000000000600052604160045260246000fd5b6133f4826131ba565b810181811067ffffffffffffffff82111715613413576134126133bc565b5b80604052505050565b6000613426613226565b905061343282826133eb565b919050565b600067ffffffffffffffff821115613452576134516133bc565b5b61345b826131ba565b9050602081019050919050565b82818337600083830152505050565b600061348a61348584613437565b61341c565b9050828152602081018484840111156134a6576134a56133b7565b5b6134b1848285613468565b509392505050565b600082601f8301126134ce576134cd6133b2565b5b81356134de848260208601613477565b91505092915050565b6134f08161337c565b81146134fb57600080fd5b50565b60008135905061350d816134e7565b92915050565b60008060008060008060c087890312156135305761352f613230565b5b600087013567ffffffffffffffff81111561354e5761354d613235565b5b61355a89828a016134b9565b965050602087013567ffffffffffffffff81111561357b5761357a613235565b5b61358789828a016134b9565b955050604087013567ffffffffffffffff8111156135a8576135a7613235565b5b6135b489828a016134b9565b94505060606135c589828a01613310565b93505060806135d689828a016134fe565b92505060a06135e789828a01613310565b9150509295509295509295565b6000806040838503121561360b5761360a613230565b5b600061361985828601613310565b925050602061362a858286016134fe565b9150509250929050565b6000806040838503121561364b5761364a613230565b5b600061365985828601613310565b925050602061366a85828601613310565b9150509250929050565b6000806040838503121561368b5761368a613230565b5b600061369985828601613283565b92505060206136aa85828601613310565b9150509250929050565b600080600080608085870312156136ce576136cd613230565b5b60006136dc87828801613310565b945050602085013567ffffffffffffffff8111156136fd576136fc613235565b5b613709878288016134b9565b935050604061371a87828801613310565b925050606085013567ffffffffffffffff81111561373b5761373a613235565b5b613747878288016134b9565b91505092959194509250565b600061012082019050818103600083015261376e818c6131cb565b90508181036020830152613782818b6131cb565b90508181036040830152613796818a6131cb565b90506137a56060830189613388565b6137b260808301886132cf565b6137bf60a08301876132cf565b6137cc60c08301866132cf565b6137d960e08301856132cf565b6137e76101008301846132cf565b9a9950505050505050505050565b600081519050919050565b600082825260208201905092915050565b6000819050602082019050919050565b61382a816132c5565b82525050565b600061383c8383613821565b60208301905092915050565b6000602082019050919050565b6000613860826137f5565b61386a8185613800565b935061387583613811565b8060005b838110156138a657815161388d8882613830565b975061389883613848565b925050600181019050613879565b5085935050505092915050565b600060208201905081810360008301526138cd8184613855565b905092915050565b7f4e487b7100000000000000000000000000000000000000000000000000000000600052602260045260246000fd5b6000600282049050600182168061391c57607f821691505b602082108114156139305761392f6138d5565b5b50919050565b7f4f6e6c79206465706c6f79657200000000000000000000000000000000000000600082015250565b600061396c600d83613176565b915061397782613936565b602082019050919050565b6000602082019050818103600083015261399b8161395f565b9050919050565b7f4e487b7100000000000000000000000000000000000000000000000000000000600052603260045260246000fd5b7f4e487b7100000000000000000000000000000000000000000000000000000000600052601160045260246000fd5b6000613a0b826132c5565b9150613a16836132c5565b9250827fffffffffffffffffffffffffffffffffffffffffffffffffffffffffffffffff03821115613a4b57613a4a6139d1565b5b828201905092915050565b7f4d75737420706179206d696e7420666565000000000000000000000000000000600082015250565b6000613a8c601183613176565b9150613a9782613a56565b602082019050919050565b60006020820190508181036000830152613abb81613a7f565b9050919050565b6000613acd826132c5565b9150613ad8836132c5565b925082821015613aeb57613aea6139d1565b5b828203905092915050565b7f4974656d206d7573742065786973740000000000000000000000000000000000600082015250565b6000613b2c600f83613176565b9150613b3782613af6565b602082019050919050565b60006020820190508181036000830152613b5b81613b1f565b9050919050565b7f4f6e6c79204974656d204f776e65720000000000000000000000000000000000600082015250565b6000613b98600f83613176565b9150613ba382613b62565b602082019050919050565b60006020820190508181036000830152613bc781613b8b565b9050919050565b7f4d696e7420746f20746865207a65726f20616464726573730000000000000000600082015250565b6000613c04601883613176565b9150613c0f82613bce565b602082019050919050565b60006020820190508181036000830152613c3381613bf7565b9050919050565b7f4974656d206973206e6f742064656c696e7175656e7400000000000000000000600082015250565b6000613c70601683613176565b9150613c7b82613c3a565b602082019050919050565b60006020820190508181036000830152613c9f81613c63565b9050919050565b6000606082019050613cbb6000830186613352565b613cc86020830185613352565b613cd560408301846132cf565b949350505050565b600081519050613cec816134e7565b92915050565b600060208284031215613d0857613d07613230565b5b6000613d1684828501613cdd565b91505092915050565b6000613d2a826132c5565b9150613d35836132c5565b9250817fffffffffffffffffffffffffffffffffffffffffffffffffffffffffffffffff0483118215151615613d6e57613d6d6139d1565b5b828202905092915050565b7f4572726f723a205472616e7366657272696e67206c697374696e67732069732060008201527f6e6f7420737570706f727465642e2055736520666f7265636c6f73654974656d60208201527f20746f2064656c657465206c697374696e672e00000000000000000000000000604082015250565b6000613dfb605383613176565b9150613e0682613d79565b606082019050919050565b60006020820190508181036000830152613e2a81613dee565b9050919050565b6000604082019050613e466000830185613352565b613e5360208301846132cf565b9392505050565b7f4f6e6c7920627579696e67206163636f756e7473000000000000000000000000600082015250565b6000613e90601483613176565b9150613e9b82613e5a565b602082019050919050565b60006020820190508181036000830152613ebf81613e83565b9050919050565b7f4974656d206973206e6f74207075726368617361626c65000000000000000000600082015250565b6000613efc601783613176565b9150613f0782613ec6565b602082019050919050565b60006020820190508181036000830152613f2b81613eef565b9050919050565b7f4d75737420706179206974656d20707269636500000000000000000000000000600082015250565b6000613f68601383613176565b9150613f7382613f32565b602082019050919050565b60006020820190508181036000830152613f9781613f5b565b9050919050565b7f4974656d20657870697265640000000000000000000000000000000000000000600082015250565b6000613fd4600c83613176565b9150613fdf82613f9e565b602082019050919050565b6000602082019050818103600083015261400381613fc7565b9050919050565b7f4f7574206f662073746f636b0000000000000000000000000000000000000000600082015250565b6000614040600c83613176565b915061404b8261400a565b602082019050919050565b6000602082019050818103600083015261406f81614033565b9050919050565b600081905092915050565b50565b6000614091600083614076565b915061409c82614081565b600082019050919050565b60006140b282614084565b9150819050919050565b7f4661696c656420746f2073656e64204574686572000000000000000000000000600082015250565b60006140f2601483613176565b91506140fd826140bc565b602082019050919050565b60006020820190508181036000830152614121816140e5565b9050919050565b600060608201905061413d60008301866132cf565b61414a60208301856132cf565b61415760408301846132cf565b949350505050565b7f4d75737420726577617264207374616b65727300000000000000000000000000600082015250565b6000614195601383613176565b91506141a08261415f565b602082019050919050565b600060208201905081810360008301526141c481614188565b9050919050565b7f4e487b7100000000000000000000000000000000000000000000000000000000600052601260045260246000fd5b6000614205826132c5565b9150614210836132c5565b9250826142205761421f6141cb565b5b828204905092915050565b6000614236826132c5565b91507fffffffffffffffffffffffffffffffffffffffffffffffffffffffffffffffff821415614269576142686139d1565b5b600182019050919050565b600061ffff82169050919050565b600061428d82614274565b915061ffff8214156142a2576142a16139d1565b5b60018201905091905056fea264697066735822122030f8633f1c3ffe9cccf79c86d540323a0694d9fb5fa6e73ea894e76e6f56395964736f6c634300080c003360806040523480156200001157600080fd5b506040516200199d3803806200199d8339818101604052810190620000379190620001f6565b826000806101000a81548173ffffffffffffffffffffffffffffffffffffffff021916908373ffffffffffffffffffffffffffffffffffffffff16021790555081600260006101000a81548173ffffffffffffffffffffffffffffffffffffffff021916908373ffffffffffffffffffffffffffffffffffffffff16021790555080600160006101000a81548173ffffffffffffffffffffffffffffffffffffffff021916908373ffffffffffffffffffffffffffffffffffffffff16021790555050505062000252565b600080fd5b600073ffffffffffffffffffffffffffffffffffffffff82169050919050565b6000620001348262000107565b9050919050565b620001468162000127565b81146200015257600080fd5b50565b60008151905062000166816200013b565b92915050565b6000620001798262000127565b9050919050565b6200018b816200016c565b81146200019757600080fd5b50565b600081519050620001ab8162000180565b92915050565b6000620001be8262000127565b9050919050565b620001d081620001b1565b8114620001dc57600080fd5b50565b600081519050620001f081620001c5565b92915050565b60008060006060848603121562000212576200021162000102565b5b6000620002228682870162000155565b935050602062000235868287016200019a565b92505060406200024886828701620001df565b9150509250925092565b61173b80620002626000396000f3fe608060405234801561001057600080fd5b50600436106100b45760003560e01c8063808e5fe711610071578063808e5fe7146101c5578063ca237911146101e3578063db4e1d5614610213578063dbf143c414610244578063fc0c546a14610274578063fdd88e3014610292576100b4565b8063206b32a7146100b9578063219a318c146100e957806323bf2c1c1461011957806340c10f1914610149578063632028a81461016557806374b5a99314610195575b600080fd5b6100d360048036038101906100ce919061101f565b6102c2565b6040516100e0919061105b565b60405180910390f35b61010360048036038101906100fe91906110d4565b6102da565b604051610110919061105b565b60405180910390f35b610133600480360381019061012e919061101f565b6102f2565b604051610140919061105b565b60405180910390f35b610163600480360381019061015e9190611101565b61030a565b005b61017f600480360381019061017a9190611141565b61042d565b60405161018c919061119c565b60405180910390f35b6101af60048036038101906101aa91906111b7565b6108ec565b6040516101bc919061105b565b60405180910390f35b6101cd610911565b6040516101da9190611256565b60405180910390f35b6101fd60048036038101906101f891906110d4565b610937565b60405161020a919061105b565b60405180910390f35b61022d60048036038101906102289190611141565b61094f565b60405161023b929190611280565b60405180910390f35b61025e60048036038101906102599190611141565b6109a0565b60405161026b919061119c565b60405180910390f35b61027c610db7565b60405161028991906112ca565b60405180910390f35b6102ac60048036038101906102a791906112e5565b610ddd565b6040516102b9919061119c565b60405180910390f35b60066020528060005260406000206000915090505481565b60086020528060005260406000206000915090505481565b60056020528060005260406000206000915090505481565b600160009054906101000a900473ffffffffffffffffffffffffffffffffffffffff1673ffffffffffffffffffffffffffffffffffffffff163373ffffffffffffffffffffffffffffffffffffffff161461039a576040517f08c379a000000000000000000000000000000000000000000000000000000000815260040161039190611395565b60405180910390fd5b600260009054906101000a900473ffffffffffffffffffffffffffffffffffffffff1673ffffffffffffffffffffffffffffffffffffffff166340c10f1983836040518363ffffffff1660e01b81526004016103f7929190611280565b600060405180830381600087803b15801561041157600080fd5b505af1158015610425573d6000803e3d6000fd5b505050505050565b6000806004600085815260200190815260200160002060003373ffffffffffffffffffffffffffffffffffffffff1673ffffffffffffffffffffffffffffffffffffffff16815260200190815260200160002054905060008114156104c7576040517f08c379a00000000000000000000000000000000000000000000000000000000081526004016104be90611401565b60405180910390fd5b600060036000868152602001908152602001600020600083815260200190815260200160002060010154905083811015610536576040517f08c379a000000000000000000000000000000000000000000000000000000000815260040161052d90611493565b60405180910390fd5b838161054291906114e2565b905083600760003373ffffffffffffffffffffffffffffffffffffffff1673ffffffffffffffffffffffffffffffffffffffff168152602001908152602001600020600082825461059391906114e2565b92505081905550836006600087815260200190815260200160002060008282546105bd91906114e2565b92505081905550600060056000878152602001908152602001600020549050600082141561080b576001600860003373ffffffffffffffffffffffffffffffffffffffff1673ffffffffffffffffffffffffffffffffffffffff168152602001908152602001600020600082825461063591906114e2565b925050819055508083141561069f5760006004600088815260200190815260200160002060003373ffffffffffffffffffffffffffffffffffffffff1673ffffffffffffffffffffffffffffffffffffffff168152602001908152602001600020819055506107fb565b600060036000888152602001908152602001600020600083815260200190815260200160002060000160009054906101000a900473ffffffffffffffffffffffffffffffffffffffff1690508060036000898152602001908152602001600020600086815260200190815260200160002060000160006101000a81548173ffffffffffffffffffffffffffffffffffffffff021916908373ffffffffffffffffffffffffffffffffffffffff1602179055506003600088815260200190815260200160002060008381526020019081526020016000206001015460036000898152602001908152602001600020600086815260200190815260200160002060010181905550836004600089815260200190815260200160002060008373ffffffffffffffffffffffffffffffffffffffff1673ffffffffffffffffffffffffffffffffffffffff16815260200190815260200160002081905550505b60018161080891906114e2565b90505b600260009054906101000a900473ffffffffffffffffffffffffffffffffffffffff1673ffffffffffffffffffffffffffffffffffffffff166340c10f1933876040518363ffffffff1660e01b8152600401610868929190611280565b600060405180830381600087803b15801561088257600080fd5b505af1158015610896573d6000803e3d6000fd5b5050505084863373ffffffffffffffffffffffffffffffffffffffff167fdcca95406ac9554449be02d88dcdf9c877f96e4c02bdad4bd5cadefc98a20e3d60405160405180910390a46001935050505092915050565b6004602052816000526040600020602052806000526040600020600091509150505481565b600160009054906101000a900473ffffffffffffffffffffffffffffffffffffffff1681565b60076020528060005260406000206000915090505481565b6003602052816000526040600020602052806000526040600020600091509150508060000160009054906101000a900473ffffffffffffffffffffffffffffffffffffffff16908060010154905082565b60008073ffffffffffffffffffffffffffffffffffffffff16600160009054906101000a900473ffffffffffffffffffffffffffffffffffffffff1673ffffffffffffffffffffffffffffffffffffffff16636352211e856040518263ffffffff1660e01b8152600401610a14919061105b565b602060405180830381865afa158015610a31573d6000803e3d6000fd5b505050506040513d601f19601f82011682018060405250810190610a55919061152b565b73ffffffffffffffffffffffffffffffffffffffff161415610a7657600080fd5b60008211610ab9576040517f08c379a0000000000000000000000000000000000000000000000000000000008152600401610ab0906115a4565b60405180910390fd5b600260009054906101000a900473ffffffffffffffffffffffffffffffffffffffff1673ffffffffffffffffffffffffffffffffffffffff166379cc679033846040518363ffffffff1660e01b8152600401610b16929190611280565b600060405180830381600087803b158015610b3057600080fd5b505af1158015610b44573d6000803e3d6000fd5b5050505060006004600085815260200190815260200160002060003373ffffffffffffffffffffffffffffffffffffffff1673ffffffffffffffffffffffffffffffffffffffff16815260200190815260200160002054905060008114610be857826003600086815260200190815260200160002060008381526020019081526020016000206001016000828254610bdc91906115c4565b92505081905550610ce7565b6001600860003373ffffffffffffffffffffffffffffffffffffffff1673ffffffffffffffffffffffffffffffffffffffff1681526020019081526020016000206000828254610c3891906115c4565b925050819055506001600560008681526020019081526020016000206000828254610c6391906115c4565b92505081905550600560008581526020019081526020016000205490503360036000868152602001908152602001600020600083815260200190815260200160002060000160006101000a81548173ffffffffffffffffffffffffffffffffffffffff021916908373ffffffffffffffffffffffffffffffffffffffff1602179055505b82600760003373ffffffffffffffffffffffffffffffffffffffff1673ffffffffffffffffffffffffffffffffffffffff1681526020019081526020016000206000828254610d3691906115c4565b9250508190555082600660008681526020019081526020016000206000828254610d6091906115c4565b9250508190555082843373ffffffffffffffffffffffffffffffffffffffff167f270d6dd254edd1d985c81cf7861b8f28fb06b6d719df04d90464034d4341244060405160405180910390a4600191505092915050565b600260009054906101000a900473ffffffffffffffffffffffffffffffffffffffff1681565b6000600160009054906101000a900473ffffffffffffffffffffffffffffffffffffffff1673ffffffffffffffffffffffffffffffffffffffff163373ffffffffffffffffffffffffffffffffffffffff1614610e6f576040517f08c379a0000000000000000000000000000000000000000000000000000000008152600401610e6690611395565b60405180910390fd5b6000600560008681526020019081526020016000205490506001811115610fd857600081600143610ea091906114e2565b4060001c610eae9190611649565b90506000600360008881526020019081526020016000206000838152602001908152602001600020905060008160000160009054906101000a900473ffffffffffffffffffffffffffffffffffffffff1690506000826001015490506000600660008b81526020019081526020016000205482610f2b919061167a565b888a610f3791906116ab565b610f4191906116ab565b9050600260009054906101000a900473ffffffffffffffffffffffffffffffffffffffff1673ffffffffffffffffffffffffffffffffffffffff166340c10f1984836040518363ffffffff1660e01b8152600401610fa0929190611280565b600060405180830381600087803b158015610fba57600080fd5b505af1158015610fce573d6000803e3d6000fd5b5050505050505050505b60019150509392505050565b600080fd5b6000819050919050565b610ffc81610fe9565b811461100757600080fd5b50565b60008135905061101981610ff3565b92915050565b60006020828403121561103557611034610fe4565b5b60006110438482850161100a565b91505092915050565b61105581610fe9565b82525050565b6000602082019050611070600083018461104c565b92915050565b600073ffffffffffffffffffffffffffffffffffffffff82169050919050565b60006110a182611076565b9050919050565b6110b181611096565b81146110bc57600080fd5b50565b6000813590506110ce816110a8565b92915050565b6000602082840312156110ea576110e9610fe4565b5b60006110f8848285016110bf565b91505092915050565b6000806040838503121561111857611117610fe4565b5b6000611126858286016110bf565b92505060206111378582860161100a565b9150509250929050565b6000806040838503121561115857611157610fe4565b5b60006111668582860161100a565b92505060206111778582860161100a565b9150509250929050565b60008115159050919050565b61119681611181565b82525050565b60006020820190506111b1600083018461118d565b92915050565b600080604083850312156111ce576111cd610fe4565b5b60006111dc8582860161100a565b92505060206111ed858286016110bf565b9150509250929050565b6000819050919050565b600061121c61121761121284611076565b6111f7565b611076565b9050919050565b600061122e82611201565b9050919050565b600061124082611223565b9050919050565b61125081611235565b82525050565b600060208201905061126b6000830184611247565b92915050565b61127a81611096565b82525050565b60006040820190506112956000830185611271565b6112a2602083018461104c565b9392505050565b60006112b482611223565b9050919050565b6112c4816112a9565b82525050565b60006020820190506112df60008301846112bb565b92915050565b6000806000606084860312156112fe576112fd610fe4565b5b600061130c8682870161100a565b935050602061131d8682870161100a565b925050604061132e8682870161100a565b9150509250925092565b600082825260208201905092915050565b7f4f6e6c7920746f707368656c6600000000000000000000000000000000000000600082015250565b600061137f600d83611338565b915061138a82611349565b602082019050919050565b600060208201905081810360008301526113ae81611372565b9050919050565b7f4d757374207374616b65206265666f726520756e7374616b696e670000000000600082015250565b60006113eb601b83611338565b91506113f6826113b5565b602082019050919050565b6000602082019050818103600083015261141a816113de565b9050919050565b7f43616e6e6f7420756e7374616b65206d6f7265207468616e206973207374616b60008201527f6564000000000000000000000000000000000000000000000000000000000000602082015250565b600061147d602283611338565b915061148882611421565b604082019050919050565b600060208201905081810360008301526114ac81611470565b9050919050565b7f4e487b7100000000000000000000000000000000000000000000000000000000600052601160045260246000fd5b60006114ed82610fe9565b91506114f883610fe9565b92508282101561150b5761150a6114b3565b5b828203905092915050565b600081519050611525816110a8565b92915050565b60006020828403121561154157611540610fe4565b5b600061154f84828501611516565b91505092915050565b7f4d757374207374616b6520746f6b656e73000000000000000000000000000000600082015250565b600061158e601183611338565b915061159982611558565b602082019050919050565b600060208201905081810360008301526115bd81611581565b9050919050565b60006115cf82610fe9565b91506115da83610fe9565b9250827fffffffffffffffffffffffffffffffffffffffffffffffffffffffffffffffff0382111561160f5761160e6114b3565b5b828201905092915050565b7f4e487b7100000000000000000000000000000000000000000000000000000000600052601260045260246000fd5b600061165482610fe9565b915061165f83610fe9565b92508261166f5761166e61161a565b5b828206905092915050565b600061168582610fe9565b915061169083610fe9565b9250826116a05761169f61161a565b5b828204905092915050565b60006116b682610fe9565b91506116c183610fe9565b9250817fffffffffffffffffffffffffffffffffffffffffffffffffffffffffffffffff04831182151516156116fa576116f96114b3565b5b82820290509291505056fea2646970667358221220f2fdb7d8425398fc817ed76dff7802fa4965415bc5d793975b43886b1ed45df364736f6c634300080c0033",
  "immutableReferences": {},
  "source": "//// SPDX-License-Identifier: MIT\npragma solidity ^0.8.6;\nimport \"./TopToken.sol\";\nimport \"./TopStake.sol\";\n\n\ncontract TopShelf {\n    struct Item {\n        string name;\n        string description;\n        string URI;\n        bool paused;\n        uint256 price;\n        uint256 stock;\n        uint256 leaseDuration;  // Seconds before needing to renew\n        uint256 dateCreated;\n        uint256 timesPurchased;\n    }\n\n    address private deployer;\n    string public name;\n    string public symbol;\n    uint256 public totalSupply;\n    uint256 public listFee;  // ETH paid to contract for minting items\n    uint256 public transferFee;  // ETH paid to contract for transferring items to another address\n    uint256 public foreclosureFee;  // Tokens paid to take ownership away from delinquent seller\n    uint256 public buyReward;  // Tokens paid to contract to foreclose delinquent items\n    uint256 public defaultLeaseDuration;  // Lease period in seconds for newly minted items\n    uint256 public renewalRatio;  // Number of seconds per token given to items' lease duration (bonus for number of stakers?)\n    uint256 public stakerReward;  // Tokens paid to item stakers per user buying item\n    uint256 public stakeLeaseReward;  // Adding of stake to item adds lease duration by n seconds (DEFAULT IS 1)\n    uint256 public unstakePenalty;  // Removal of stake from item lowers lease duration by 1/(2**n)\n    mapping(uint256=>address) public itemOwner;  // itemId to owner address\n    mapping(uint256=>address) public itemOperator;  // itemId to approved operator's address\n    mapping(address=>address) public ownerOperator;  // Operator for all items owned by this address\n    mapping(address=>uint256) public ownerItemCount;  // Owner address to number of items held\n    mapping(address=>uint256) public stakerItemCount;\n    TopToken token;  // address of TOPS token\n    TopStake topstake;  // address of TOPS staking\n    Item[] public listings;\n\n    modifier onlyDeployer(){require(msg.sender == deployer, \"Only deployer\"); _;}\n    modifier onlyOwnerOf(uint256 _itemId){require(msg.sender == itemOwner[_itemId], \"Only Item Owner\"); _;}  // add approved operators\n    modifier notOwnerOf(uint256 _itemId){require(msg.sender != itemOwner[_itemId], \"Only not owners of this Item\"); _;}  // add approved operators\n    modifier onlyBuyers(){require(ownerItemCount[msg.sender] == 0, \"Only non-item owning accounts\"); _;}  // Prevent B2B purchases..  // todo preventing buyers somehow??\n    modifier onlyOperatorsOf(uint256 _itemId){require((msg.sender == itemOperator[_itemId]) || (msg.sender == ownerOperator[itemOwner[_itemId]]), \"Only operators of\"); _;}  // add approved operators\n    modifier itemExists(uint256 _itemId){require(itemOwner[_itemId] != address(0), \"Item must exist\"); _;}  //modifier isDelinquent(uint256 _itemId){Item memory item = listings[_itemId]; require(item.dateCreated+item.leaseDuration<=block.timestamp, \"Item is not delinquent\"); _;} // Use storage here?\n    modifier notNullAddress(address _to){require(_to != address(0), \"Mint to the zero address\"); _;}\n    // EVENTS\n    event TestSender(address indexed _sender);\n    event Approval(address indexed _owner, address indexed _approved, uint256 indexed _tokenId);  // todo\n    event ApprovalForAll(address indexed _owner, address indexed _operator, bool _approved);  // todo\n    event Transfer(address indexed _from, address indexed _to, uint256 indexed _itemId);  // todo allow transfers?\n    event ItemPurchased(address indexed _buyer, uint256 indexed _itemId);\n    event RenewedItem(uint256 indexed _itemId);\n    event SelfForeclosedItem(uint256 indexed _itemId);\n    event ItemForeclosed(uint256 indexed _itemId);\n    event PausedItem(uint256 indexed _itemId);  // event ItemPurchasedToken(address indexed _buyer, uint256 indexed _itemId);\n\n    // CONSTRUCTOR\n    constructor(string memory _name, string memory _symbol, TopToken _token, uint256 _listFee, uint256 _transferFee,\n        uint256 _foreclosureFee,  uint256 _stakerReward, uint256 _buyReward, uint256 _defaultLeaseDuration,\n        uint256 _renewalRatio) { //uint256 _unstakePenalty,\n        name = _name;\n        symbol = _symbol;\n        deployer = msg.sender;\n        token = _token;\n        listFee = _listFee;  // WEI ~10 dollars (higher = more good items but less overall)\n        transferFee = _transferFee;\n        foreclosureFee = _foreclosureFee;  // 10 tokens (set higher to slow down foreclosures, depends on inflation)\n        stakerReward = _stakerReward;\n        buyReward = _buyReward;  // Tokens rewarded to buyers\n        defaultLeaseDuration = _defaultLeaseDuration;  // 604800 is 7 days\n        renewalRatio = _renewalRatio;  // 1 token = 1 day  (Set higher for favoring consumers over producers)\n        topstake = new TopStake(msg.sender, _token, this);\n    }\n    // SETTERS\n    function setTokenAddress(address _address) external onlyDeployer(){token = TopToken(_address);}\n    function setStakingAddress(address _address) external onlyDeployer(){topstake = TopStake(_address);}\n    function setTransferFee(uint256 _amount) external onlyDeployer(){transferFee = _amount;}\n    function setListFee(uint256 _amount) external onlyDeployer(){listFee = _amount;}\n    function setDefaultLeaseDuration(uint256 _seconds) external onlyDeployer(){defaultLeaseDuration = _seconds;}\n    function setRenewalRatio(uint256 _tokenSeconds) external onlyDeployer(){renewalRatio = _tokenSeconds;}\n    function setForeclosureFee(uint256 _amount) external onlyDeployer(){foreclosureFee = _amount;}\n    function setBuyReward(uint256 _amount) external onlyDeployer(){buyReward = _amount;}\n    // READ VARIABLES\n    function balanceOf(address _owner) public view notNullAddress(_owner) returns (uint256) {return ownerItemCount[_owner];}\n    function ownerOf(uint256 _itemId) public view itemExists(_itemId) returns (address) {return itemOwner[_itemId];}\n    function itemExpiryDate(uint256 _itemId) public view returns(uint256){Item memory item = listings[_itemId]; return item.dateCreated+item.leaseDuration;} // item.dateCreated+item.leaseDuration-block.timestamp;}\n    function itemDelinquent(uint256 _itemId) public view returns(bool){Item memory item = listings[_itemId]; return (item.dateCreated+item.leaseDuration)<=block.timestamp;}\n    function getOwnerItems(address owner) external view returns(uint[] memory){\n        uint[] memory result = new uint[](ownerItemCount[owner]);\n        uint counter = 0;\n        for(uint16 i=0; i<listings.length; i++){\n            if (ownerOf(i)==owner){\n                result[counter] = i;\n                counter++;\n            }\n        }\n        return result;\n    }\n    function getBalance() public view returns (uint) {return address(this).balance;}\n    function withdraw(uint256 _amount) public onlyDeployer() returns(bool){require(_amount<=address(this).balance); return payable(msg.sender).send(_amount) ;}\n\n    // FUNCTIONS\n    function mint(string memory _name, string memory _description, string memory _URI, uint256 _price, bool _paused,  uint256 _stock) external payable{ // notNullAddress(_to)\n        require(msg.value >= listFee, \"Must pay mint fee\");\n        address _to = msg.sender;\n        listings.push();  //Item memory item = Item(_name, _description, _URI, _paused, _price, _stock, defaultLeaseDuration, block.timestamp, 0, 0);  // uninitialized set to default? //listings[itemId] = Item(_name, _description, _URI, _paused, _price, _stock, defaultLeaseDuration, block.timestamp, 0, 0);\n        uint256 itemId = listings.length - 1;\n        Item storage item = listings[itemId];\n        item.name = _name;\n        item.description = _description;\n        item.URI = _URI;\n        item.stock = _stock;\n        item.paused = _paused;\n        item.price = _price;  // Ether cost in WEI\n        item.dateCreated = block.timestamp;\n        item.leaseDuration = defaultLeaseDuration;\n        itemOwner[totalSupply] = _to;  // starts at itemId 0 for item[] indexing\n        itemOperator[totalSupply] = _to;  // Overwrite item Operators\n        ownerItemCount[_to] += 1;  // Increase number that address owns\n        emit Transfer(address(0), _to, totalSupply);\n        totalSupply += 1;\n    }\n    function buyItem(uint256 _itemId) external payable itemExists(_itemId) returns(bool){ // onlyBuyers()*\n        require(ownerItemCount[msg.sender] == 0, \"Only buying accounts\");\n        Item storage item = listings[_itemId];\n        require(!item.paused, \"Item is not purchasable\");\n        require(msg.value >= item.price, \"Must pay item price\");\n        require(!itemDelinquent(_itemId), \"Item expired\");\n        require(item.stock > 0, \"Out of stock\");\n\n        address payable seller = payable(ownerOf(_itemId));  // Forward buyer payment to seller\n        (bool sent, ) = seller.call{value: msg.value}(\"\");   // todo return excess payment?\n        require(sent, \"Failed to send Ether\");\n        \n        item.stock -= 1;\n        item.timesPurchased += 1;\n\n        uint256 reward = (buyReward * msg.value);\n        require(topstake.rewardStakers(_itemId, stakerReward, reward), \"Must reward stakers\");\n        topstake.mint(msg.sender, reward);  // Reward buyer\n\n        emit ItemPurchased(msg.sender, _itemId);\n        return true;\n    } // 160_639 gas \n    function renewItem(uint256 _itemId, uint256 _tokenAmount) onlyOwnerOf(_itemId) public {  // TEST BURNING\n        token.burnFrom(msg.sender, _tokenAmount);  // todo will this throw if msg.sender doesn't have tokens?\n        listings[_itemId].leaseDuration += (_tokenAmount*renewalRatio)/1e18;  // _tokenAmount in WEI, remove decimals for units\n    }\n    function forecloseItem(uint256 _itemId) public returns(bool){\n        Item memory item = listings[_itemId]; \n        require(item.dateCreated+item.leaseDuration<=block.timestamp, \"Item is not delinquent\");\n        token.transferFrom(msg.sender, address(this), foreclosureFee);  // User pays foreclosure fee in tokens\n        address owner = itemOwner[_itemId];\n        _transfer(owner, msg.sender, _itemId);\n        listings[_itemId].leaseDuration += (1*renewalRatio);\n        return true;\n    }\n    function forecloseRenovate(uint256 _itemId, string memory _name, uint256 _price, string memory _description) public returns(bool){\n        bool success = forecloseItem(_itemId);\n        if (success){\n            Item storage item = listings[_itemId];\n            item.name = _name;\n            item.price = _price;\n            item.description = _description;\n            item.timesPurchased = 0;\n            item.leaseDuration = defaultLeaseDuration;\n            item.dateCreated = block.timestamp;\n        }\n        return success;\n    }\n\n    // ITEM SETTERS\n    function changeItemPrice(uint256 _itemId, uint256 _price) external onlyOwnerOf(_itemId) returns(bool){\n        Item storage item = listings[_itemId];\n        item.price = _price;\n        return true;\n    }\n    function pausePlayItem(uint256 _itemId, bool _state) external onlyOwnerOf(_itemId) returns(bool){\n        Item storage item = listings[_itemId];\n        item.paused = _state;\n        return true;\n    }\n    function selfForecloseItem(uint256 _itemId) external onlyOwnerOf(_itemId) returns(bool){\n        Item storage item = listings[_itemId];\n        uint256 difference = block.timestamp - item.dateCreated;\n        require(difference>=0);\n        item.leaseDuration = difference;\n        item.paused = true;\n        return true;\n    }\n    function _transfer(address _from, address _to, uint256 _itemId) private notNullAddress(_to) {\n        ownerItemCount[_from] -= 1;\n        itemOwner[_itemId] = _to;\n        itemOperator[_itemId] = _to;  // Overwrite item Operators\n        ownerItemCount[_to] += 1;\n        emit Transfer(_from, _to, _itemId);\n    }\n    function transfer(address _to, uint256 _itemId) external onlyOwnerOf(_itemId) {\n        require(false, \"Error: Transferring listings is not supported. Use forecloseItem to delete listing.\");\n        token.transfer(address(this), transferFee);  // May cause userOperator to pay instead of user\n        _transfer(msg.sender, _to, _itemId);\n    }\n}",
  "sourcePath": "/Users/alexa/PycharmProjects/VsShelf/src/contracts/TopShelf.sol",
  "compiler": {
    "name": "solc",
    "version": "0.8.12+commit.f00d7308.Emscripten.clang"
  },
  "schemaVersion": "3.4.4",
  "updatedAt": "2022-03-01T00:26:18.804Z",
  "devdoc": {
    "kind": "dev",
    "methods": {},
    "version": 1
  },
  "userdoc": {
    "kind": "user",
    "methods": {},
    "version": 1
  }
}