{
  "contractName": "TopShelf",
  "abi": [
    {
      "inputs": [
        {
          "internalType": "string",
          "name": "_name",
          "type": "string"
        },
        {
          "internalType": "string",
          "name": "_symbol",
          "type": "string"
        },
        {
          "internalType": "contract TopToken",
          "name": "_token",
          "type": "address"
        },
        {
          "internalType": "uint256",
          "name": "_listFee",
          "type": "uint256"
        },
        {
          "internalType": "uint256",
          "name": "_transferFee",
          "type": "uint256"
        },
        {
          "internalType": "uint256",
          "name": "_foreclosureFee",
          "type": "uint256"
        },
        {
          "internalType": "uint256",
          "name": "_stakerReward",
          "type": "uint256"
        },
        {
          "internalType": "uint256",
          "name": "_buyReward",
          "type": "uint256"
        },
        {
          "internalType": "uint256",
          "name": "_defaultLeaseDuration",
          "type": "uint256"
        },
        {
          "internalType": "uint256",
          "name": "_renewalRatio",
          "type": "uint256"
        }
      ],
      "stateMutability": "nonpayable",
      "type": "constructor"
    },
    {
      "anonymous": false,
      "inputs": [
        {
          "indexed": true,
          "internalType": "address",
          "name": "_owner",
          "type": "address"
        },
        {
          "indexed": true,
          "internalType": "address",
          "name": "_approved",
          "type": "address"
        },
        {
          "indexed": true,
          "internalType": "uint256",
          "name": "_tokenId",
          "type": "uint256"
        }
      ],
      "name": "Approval",
      "type": "event"
    },
    {
      "anonymous": false,
      "inputs": [
        {
          "indexed": true,
          "internalType": "address",
          "name": "_owner",
          "type": "address"
        },
        {
          "indexed": true,
          "internalType": "address",
          "name": "_operator",
          "type": "address"
        },
        {
          "indexed": false,
          "internalType": "bool",
          "name": "_approved",
          "type": "bool"
        }
      ],
      "name": "ApprovalForAll",
      "type": "event"
    },
    {
      "anonymous": false,
      "inputs": [
        {
          "indexed": true,
          "internalType": "uint256",
          "name": "_itemId",
          "type": "uint256"
        }
      ],
      "name": "ItemForeclosed",
      "type": "event"
    },
    {
      "anonymous": false,
      "inputs": [
        {
          "indexed": true,
          "internalType": "address",
          "name": "_buyer",
          "type": "address"
        },
        {
          "indexed": true,
          "internalType": "uint256",
          "name": "_itemId",
          "type": "uint256"
        }
      ],
      "name": "ItemPurchased",
      "type": "event"
    },
    {
      "anonymous": false,
      "inputs": [
        {
          "indexed": true,
          "internalType": "uint256",
          "name": "_itemId",
          "type": "uint256"
        }
      ],
      "name": "PausedItem",
      "type": "event"
    },
    {
      "anonymous": false,
      "inputs": [
        {
          "indexed": false,
          "internalType": "address",
          "name": "renewer",
          "type": "address"
        },
        {
          "indexed": true,
          "internalType": "uint256",
          "name": "_itemId",
          "type": "uint256"
        },
        {
          "indexed": true,
          "internalType": "uint256",
          "name": "_seconds",
          "type": "uint256"
        }
      ],
      "name": "RenewedItem",
      "type": "event"
    },
    {
      "anonymous": false,
      "inputs": [
        {
          "indexed": true,
          "internalType": "uint256",
          "name": "_itemId",
          "type": "uint256"
        }
      ],
      "name": "SelfForeclosedItem",
      "type": "event"
    },
    {
      "anonymous": false,
      "inputs": [
        {
          "indexed": true,
          "internalType": "address",
          "name": "_staker",
          "type": "address"
        },
        {
          "indexed": true,
          "internalType": "uint256",
          "name": "_itemId",
          "type": "uint256"
        },
        {
          "indexed": true,
          "internalType": "uint256",
          "name": "_amount",
          "type": "uint256"
        }
      ],
      "name": "StakeAdded",
      "type": "event"
    },
    {
      "anonymous": false,
      "inputs": [
        {
          "indexed": true,
          "internalType": "address",
          "name": "_staker",
          "type": "address"
        },
        {
          "indexed": true,
          "internalType": "uint256",
          "name": "_itemId",
          "type": "uint256"
        },
        {
          "indexed": true,
          "internalType": "uint256",
          "name": "_amount",
          "type": "uint256"
        }
      ],
      "name": "StakeRemoved",
      "type": "event"
    },
    {
      "anonymous": false,
      "inputs": [
        {
          "indexed": true,
          "internalType": "uint256",
          "name": "_itemId",
          "type": "uint256"
        },
        {
          "indexed": true,
          "internalType": "uint256",
          "name": "_randInt",
          "type": "uint256"
        },
        {
          "indexed": true,
          "internalType": "uint256",
          "name": "_amount",
          "type": "uint256"
        }
      ],
      "name": "StakerRewarded",
      "type": "event"
    },
    {
      "anonymous": false,
      "inputs": [
        {
          "indexed": true,
          "internalType": "address",
          "name": "_sender",
          "type": "address"
        }
      ],
      "name": "TestSender",
      "type": "event"
    },
    {
      "anonymous": false,
      "inputs": [
        {
          "indexed": true,
          "internalType": "address",
          "name": "_from",
          "type": "address"
        },
        {
          "indexed": true,
          "internalType": "address",
          "name": "_to",
          "type": "address"
        },
        {
          "indexed": true,
          "internalType": "uint256",
          "name": "_itemId",
          "type": "uint256"
        }
      ],
      "name": "Transfer",
      "type": "event"
    },
    {
      "inputs": [],
      "name": "buyReward",
      "outputs": [
        {
          "internalType": "uint256",
          "name": "",
          "type": "uint256"
        }
      ],
      "stateMutability": "view",
      "type": "function",
      "constant": true
    },
    {
      "inputs": [],
      "name": "defaultLeaseDuration",
      "outputs": [
        {
          "internalType": "uint256",
          "name": "",
          "type": "uint256"
        }
      ],
      "stateMutability": "view",
      "type": "function",
      "constant": true
    },
    {
      "inputs": [],
      "name": "foreclosureFee",
      "outputs": [
        {
          "internalType": "uint256",
          "name": "",
          "type": "uint256"
        }
      ],
      "stateMutability": "view",
      "type": "function",
      "constant": true
    },
    {
      "inputs": [
        {
          "internalType": "uint256",
          "name": "",
          "type": "uint256"
        }
      ],
      "name": "itemOperator",
      "outputs": [
        {
          "internalType": "address",
          "name": "",
          "type": "address"
        }
      ],
      "stateMutability": "view",
      "type": "function",
      "constant": true
    },
    {
      "inputs": [
        {
          "internalType": "uint256",
          "name": "",
          "type": "uint256"
        }
      ],
      "name": "itemOwner",
      "outputs": [
        {
          "internalType": "address",
          "name": "",
          "type": "address"
        }
      ],
      "stateMutability": "view",
      "type": "function",
      "constant": true
    },
    {
      "inputs": [
        {
          "internalType": "uint256",
          "name": "",
          "type": "uint256"
        },
        {
          "internalType": "uint256",
          "name": "",
          "type": "uint256"
        }
      ],
      "name": "itemStake",
      "outputs": [
        {
          "internalType": "address",
          "name": "Address",
          "type": "address"
        },
        {
          "internalType": "uint256",
          "name": "Amount",
          "type": "uint256"
        }
      ],
      "stateMutability": "view",
      "type": "function",
      "constant": true
    },
    {
      "inputs": [
        {
          "internalType": "uint256",
          "name": "",
          "type": "uint256"
        },
        {
          "internalType": "address",
          "name": "",
          "type": "address"
        }
      ],
      "name": "itemStakerId",
      "outputs": [
        {
          "internalType": "uint256",
          "name": "",
          "type": "uint256"
        }
      ],
      "stateMutability": "view",
      "type": "function",
      "constant": true
    },
    {
      "inputs": [
        {
          "internalType": "uint256",
          "name": "",
          "type": "uint256"
        }
      ],
      "name": "itemTotalStake",
      "outputs": [
        {
          "internalType": "uint256",
          "name": "",
          "type": "uint256"
        }
      ],
      "stateMutability": "view",
      "type": "function",
      "constant": true
    },
    {
      "inputs": [
        {
          "internalType": "uint256",
          "name": "",
          "type": "uint256"
        }
      ],
      "name": "itemTotalStakers",
      "outputs": [
        {
          "internalType": "uint256",
          "name": "",
          "type": "uint256"
        }
      ],
      "stateMutability": "view",
      "type": "function",
      "constant": true
    },
    {
      "inputs": [],
      "name": "listFee",
      "outputs": [
        {
          "internalType": "uint256",
          "name": "",
          "type": "uint256"
        }
      ],
      "stateMutability": "view",
      "type": "function",
      "constant": true
    },
    {
      "inputs": [
        {
          "internalType": "uint256",
          "name": "",
          "type": "uint256"
        }
      ],
      "name": "listings",
      "outputs": [
        {
          "internalType": "string",
          "name": "name",
          "type": "string"
        },
        {
          "internalType": "string",
          "name": "description",
          "type": "string"
        },
        {
          "internalType": "string",
          "name": "URI",
          "type": "string"
        },
        {
          "internalType": "bool",
          "name": "paused",
          "type": "bool"
        },
        {
          "internalType": "uint256",
          "name": "price",
          "type": "uint256"
        },
        {
          "internalType": "uint256",
          "name": "stock",
          "type": "uint256"
        },
        {
          "internalType": "uint256",
          "name": "leaseDuration",
          "type": "uint256"
        },
        {
          "internalType": "uint256",
          "name": "dateCreated",
          "type": "uint256"
        }
      ],
      "stateMutability": "view",
      "type": "function",
      "constant": true
    },
    {
      "inputs": [],
      "name": "name",
      "outputs": [
        {
          "internalType": "string",
          "name": "",
          "type": "string"
        }
      ],
      "stateMutability": "view",
      "type": "function",
      "constant": true
    },
    {
      "inputs": [
        {
          "internalType": "address",
          "name": "",
          "type": "address"
        }
      ],
      "name": "ownerItemCount",
      "outputs": [
        {
          "internalType": "uint256",
          "name": "",
          "type": "uint256"
        }
      ],
      "stateMutability": "view",
      "type": "function",
      "constant": true
    },
    {
      "inputs": [
        {
          "internalType": "address",
          "name": "",
          "type": "address"
        }
      ],
      "name": "ownerOperator",
      "outputs": [
        {
          "internalType": "address",
          "name": "",
          "type": "address"
        }
      ],
      "stateMutability": "view",
      "type": "function",
      "constant": true
    },
    {
      "inputs": [],
      "name": "renewalRatio",
      "outputs": [
        {
          "internalType": "uint256",
          "name": "",
          "type": "uint256"
        }
      ],
      "stateMutability": "view",
      "type": "function",
      "constant": true
    },
    {
      "inputs": [],
      "name": "stakerReward",
      "outputs": [
        {
          "internalType": "uint256",
          "name": "",
          "type": "uint256"
        }
      ],
      "stateMutability": "view",
      "type": "function",
      "constant": true
    },
    {
      "inputs": [
        {
          "internalType": "address",
          "name": "",
          "type": "address"
        }
      ],
      "name": "stakerTotalStaked",
      "outputs": [
        {
          "internalType": "uint256",
          "name": "",
          "type": "uint256"
        }
      ],
      "stateMutability": "view",
      "type": "function",
      "constant": true
    },
    {
      "inputs": [
        {
          "internalType": "address",
          "name": "",
          "type": "address"
        }
      ],
      "name": "stakerTotalStakes",
      "outputs": [
        {
          "internalType": "uint256",
          "name": "",
          "type": "uint256"
        }
      ],
      "stateMutability": "view",
      "type": "function",
      "constant": true
    },
    {
      "inputs": [],
      "name": "symbol",
      "outputs": [
        {
          "internalType": "string",
          "name": "",
          "type": "string"
        }
      ],
      "stateMutability": "view",
      "type": "function",
      "constant": true
    },
    {
      "inputs": [],
      "name": "totalSupply",
      "outputs": [
        {
          "internalType": "uint256",
          "name": "",
          "type": "uint256"
        }
      ],
      "stateMutability": "view",
      "type": "function",
      "constant": true
    },
    {
      "inputs": [],
      "name": "transferFee",
      "outputs": [
        {
          "internalType": "uint256",
          "name": "",
          "type": "uint256"
        }
      ],
      "stateMutability": "view",
      "type": "function",
      "constant": true
    },
    {
      "inputs": [
        {
          "internalType": "address",
          "name": "_address",
          "type": "address"
        }
      ],
      "name": "setTokenAddress",
      "outputs": [],
      "stateMutability": "nonpayable",
      "type": "function"
    },
    {
      "inputs": [
        {
          "internalType": "uint256",
          "name": "_amount",
          "type": "uint256"
        }
      ],
      "name": "setTransferFee",
      "outputs": [],
      "stateMutability": "nonpayable",
      "type": "function"
    },
    {
      "inputs": [
        {
          "internalType": "uint256",
          "name": "_amount",
          "type": "uint256"
        }
      ],
      "name": "setListFee",
      "outputs": [],
      "stateMutability": "nonpayable",
      "type": "function"
    },
    {
      "inputs": [
        {
          "internalType": "uint256",
          "name": "_seconds",
          "type": "uint256"
        }
      ],
      "name": "setDefaultLeaseDuration",
      "outputs": [],
      "stateMutability": "nonpayable",
      "type": "function"
    },
    {
      "inputs": [
        {
          "internalType": "uint256",
          "name": "_tokenSeconds",
          "type": "uint256"
        }
      ],
      "name": "setRenewalRatio",
      "outputs": [],
      "stateMutability": "nonpayable",
      "type": "function"
    },
    {
      "inputs": [
        {
          "internalType": "uint256",
          "name": "_amount",
          "type": "uint256"
        }
      ],
      "name": "setForeclosureFee",
      "outputs": [],
      "stateMutability": "nonpayable",
      "type": "function"
    },
    {
      "inputs": [
        {
          "internalType": "uint256",
          "name": "_amount",
          "type": "uint256"
        }
      ],
      "name": "setBuyReward",
      "outputs": [],
      "stateMutability": "nonpayable",
      "type": "function"
    },
    {
      "inputs": [
        {
          "internalType": "address",
          "name": "_owner",
          "type": "address"
        }
      ],
      "name": "balanceOf",
      "outputs": [
        {
          "internalType": "uint256",
          "name": "",
          "type": "uint256"
        }
      ],
      "stateMutability": "view",
      "type": "function",
      "constant": true
    },
    {
      "inputs": [
        {
          "internalType": "uint256",
          "name": "_itemId",
          "type": "uint256"
        }
      ],
      "name": "ownerOf",
      "outputs": [
        {
          "internalType": "address",
          "name": "",
          "type": "address"
        }
      ],
      "stateMutability": "view",
      "type": "function",
      "constant": true
    },
    {
      "inputs": [
        {
          "internalType": "uint256",
          "name": "_itemId",
          "type": "uint256"
        }
      ],
      "name": "itemExpiryDate",
      "outputs": [
        {
          "internalType": "uint256",
          "name": "",
          "type": "uint256"
        }
      ],
      "stateMutability": "view",
      "type": "function",
      "constant": true
    },
    {
      "inputs": [
        {
          "internalType": "uint256",
          "name": "_itemId",
          "type": "uint256"
        }
      ],
      "name": "itemDelinquent",
      "outputs": [
        {
          "internalType": "bool",
          "name": "",
          "type": "bool"
        }
      ],
      "stateMutability": "view",
      "type": "function",
      "constant": true
    },
    {
      "inputs": [
        {
          "internalType": "address",
          "name": "owner",
          "type": "address"
        }
      ],
      "name": "getOwnerItems",
      "outputs": [
        {
          "internalType": "uint256[]",
          "name": "",
          "type": "uint256[]"
        }
      ],
      "stateMutability": "view",
      "type": "function",
      "constant": true
    },
    {
      "inputs": [],
      "name": "getBalance",
      "outputs": [
        {
          "internalType": "uint256",
          "name": "",
          "type": "uint256"
        }
      ],
      "stateMutability": "view",
      "type": "function",
      "constant": true
    },
    {
      "inputs": [
        {
          "internalType": "uint256",
          "name": "_amount",
          "type": "uint256"
        }
      ],
      "name": "withdraw",
      "outputs": [
        {
          "internalType": "bool",
          "name": "",
          "type": "bool"
        }
      ],
      "stateMutability": "nonpayable",
      "type": "function"
    },
    {
      "inputs": [
        {
          "internalType": "string",
          "name": "_name",
          "type": "string"
        },
        {
          "internalType": "string",
          "name": "_description",
          "type": "string"
        },
        {
          "internalType": "string",
          "name": "_URI",
          "type": "string"
        },
        {
          "internalType": "uint256",
          "name": "_price",
          "type": "uint256"
        },
        {
          "internalType": "bool",
          "name": "_paused",
          "type": "bool"
        },
        {
          "internalType": "uint256",
          "name": "_stock",
          "type": "uint256"
        }
      ],
      "name": "mint",
      "outputs": [
        {
          "internalType": "uint256",
          "name": "",
          "type": "uint256"
        }
      ],
      "stateMutability": "payable",
      "type": "function",
      "payable": true
    },
    {
      "inputs": [
        {
          "internalType": "uint256",
          "name": "_itemId",
          "type": "uint256"
        }
      ],
      "name": "buyItem",
      "outputs": [
        {
          "internalType": "bool",
          "name": "",
          "type": "bool"
        }
      ],
      "stateMutability": "payable",
      "type": "function",
      "payable": true
    },
    {
      "inputs": [
        {
          "internalType": "uint256",
          "name": "_itemId",
          "type": "uint256"
        },
        {
          "internalType": "uint256",
          "name": "_tokenAmount",
          "type": "uint256"
        }
      ],
      "name": "renewItem",
      "outputs": [],
      "stateMutability": "nonpayable",
      "type": "function"
    },
    {
      "inputs": [
        {
          "internalType": "uint256",
          "name": "_itemId",
          "type": "uint256"
        }
      ],
      "name": "forecloseItem",
      "outputs": [
        {
          "internalType": "bool",
          "name": "",
          "type": "bool"
        }
      ],
      "stateMutability": "nonpayable",
      "type": "function"
    },
    {
      "inputs": [
        {
          "internalType": "uint256",
          "name": "_itemId",
          "type": "uint256"
        },
        {
          "internalType": "string",
          "name": "_name",
          "type": "string"
        },
        {
          "internalType": "uint256",
          "name": "_price",
          "type": "uint256"
        },
        {
          "internalType": "string",
          "name": "_description",
          "type": "string"
        }
      ],
      "name": "forecloseRenovate",
      "outputs": [
        {
          "internalType": "bool",
          "name": "",
          "type": "bool"
        }
      ],
      "stateMutability": "nonpayable",
      "type": "function"
    },
    {
      "inputs": [
        {
          "internalType": "uint256",
          "name": "_itemId",
          "type": "uint256"
        },
        {
          "internalType": "uint256",
          "name": "_price",
          "type": "uint256"
        }
      ],
      "name": "changeItemPrice",
      "outputs": [
        {
          "internalType": "bool",
          "name": "",
          "type": "bool"
        }
      ],
      "stateMutability": "nonpayable",
      "type": "function"
    },
    {
      "inputs": [
        {
          "internalType": "uint256",
          "name": "_itemId",
          "type": "uint256"
        },
        {
          "internalType": "bool",
          "name": "_state",
          "type": "bool"
        }
      ],
      "name": "pausePlayItem",
      "outputs": [
        {
          "internalType": "bool",
          "name": "",
          "type": "bool"
        }
      ],
      "stateMutability": "nonpayable",
      "type": "function"
    },
    {
      "inputs": [
        {
          "internalType": "uint256",
          "name": "_itemId",
          "type": "uint256"
        }
      ],
      "name": "selfForecloseItem",
      "outputs": [
        {
          "internalType": "bool",
          "name": "",
          "type": "bool"
        }
      ],
      "stateMutability": "nonpayable",
      "type": "function"
    },
    {
      "inputs": [
        {
          "internalType": "address",
          "name": "_to",
          "type": "address"
        },
        {
          "internalType": "uint256",
          "name": "_itemId",
          "type": "uint256"
        }
      ],
      "name": "transfer",
      "outputs": [],
      "stateMutability": "nonpayable",
      "type": "function"
    },
    {
      "inputs": [
        {
          "internalType": "uint256",
          "name": "_itemId",
          "type": "uint256"
        },
        {
          "internalType": "uint256",
          "name": "_amount",
          "type": "uint256"
        }
      ],
      "name": "addItemStake",
      "outputs": [
        {
          "internalType": "bool",
          "name": "",
          "type": "bool"
        }
      ],
      "stateMutability": "nonpayable",
      "type": "function"
    },
    {
      "inputs": [
        {
          "internalType": "uint256",
          "name": "_itemId",
          "type": "uint256"
        },
        {
          "internalType": "uint256",
          "name": "_amount",
          "type": "uint256"
        }
      ],
      "name": "removeItemStake",
      "outputs": [
        {
          "internalType": "bool",
          "name": "",
          "type": "bool"
        }
      ],
      "stateMutability": "nonpayable",
      "type": "function"
    }
  ],
  "bytecode": "0x60806040523480156200001157600080fd5b50604051620056873803806200568783398181016040528101906200003791906200042c565b89600190805190602001906200004f9291906200012b565b508860029080519060200190620000689291906200012b565b50336000806101000a81548173ffffffffffffffffffffffffffffffffffffffff021916908373ffffffffffffffffffffffffffffffffffffffff16021790555087600f60006101000a81548173ffffffffffffffffffffffffffffffffffffffff021916908373ffffffffffffffffffffffffffffffffffffffff16021790555086600481905550856005819055508460068190555083600a8190555082600781905550816008819055508060098190555050505050505050505050620005c5565b82805462000139906200058f565b90600052602060002090601f0160209004810192826200015d5760008555620001a9565b82601f106200017857805160ff1916838001178555620001a9565b82800160010185558215620001a9579182015b82811115620001a85782518255916020019190600101906200018b565b5b509050620001b89190620001bc565b5090565b5b80821115620001d7576000816000905550600101620001bd565b5090565b6000604051905090565b600080fd5b600080fd5b600080fd5b600080fd5b6000601f19601f8301169050919050565b7f4e487b7100000000000000000000000000000000000000000000000000000000600052604160045260246000fd5b6200024482620001f9565b810181811067ffffffffffffffff821117156200026657620002656200020a565b5b80604052505050565b60006200027b620001db565b905062000289828262000239565b919050565b600067ffffffffffffffff821115620002ac57620002ab6200020a565b5b620002b782620001f9565b9050602081019050919050565b60005b83811015620002e4578082015181840152602081019050620002c7565b83811115620002f4576000848401525b50505050565b6000620003116200030b846200028e565b6200026f565b90508281526020810184848401111562000330576200032f620001f4565b5b6200033d848285620002c4565b509392505050565b600082601f8301126200035d576200035c620001ef565b5b81516200036f848260208601620002fa565b91505092915050565b600073ffffffffffffffffffffffffffffffffffffffff82169050919050565b6000620003a58262000378565b9050919050565b6000620003b98262000398565b9050919050565b620003cb81620003ac565b8114620003d757600080fd5b50565b600081519050620003eb81620003c0565b92915050565b6000819050919050565b6200040681620003f1565b81146200041257600080fd5b50565b6000815190506200042681620003fb565b92915050565b6000806000806000806000806000806101408b8d031215620004535762000452620001e5565b5b60008b015167ffffffffffffffff811115620004745762000473620001ea565b5b620004828d828e0162000345565b9a505060208b015167ffffffffffffffff811115620004a657620004a5620001ea565b5b620004b48d828e0162000345565b9950506040620004c78d828e01620003da565b9850506060620004da8d828e0162000415565b9750506080620004ed8d828e0162000415565b96505060a0620005008d828e0162000415565b95505060c0620005138d828e0162000415565b94505060e0620005268d828e0162000415565b9350506101006200053a8d828e0162000415565b9250506101206200054e8d828e0162000415565b9150509295989b9194979a5092959850565b7f4e487b7100000000000000000000000000000000000000000000000000000000600052602260045260246000fd5b60006002820490506001821680620005a857607f821691505b60208210811415620005bf57620005be62000560565b5b50919050565b6150b280620005d56000396000f3fe60806040526004361061027d5760003560e01c80638ffa332f1161014f578063b8e72070116100c1578063de74e57b1161007a578063de74e57b14610aaa578063e7fb74c714610aee578063f01da52414610b1e578063f2caa83e14610b49578063f6a82e6814610b72578063fc7efd1114610baf5761027d565b8063b8e720701461095f578063ca2379111461098a578063d428bf5a146109c7578063d69285ad146109f2578063db4e1d5614610a2f578063dbf143c414610a6d5761027d565b8063a7b1942411610113578063a7b1942414610829578063a9059cbb14610866578063aa22a8031461088f578063acb2ad6f146108cc578063ae379b69146108f7578063b39b2c8d146109225761027d565b80638ffa332f146107305780639548573b1461076d57806395d89b41146107aa5780639839523c146107d5578063988d1836146107fe5761027d565b80633c7baa2a116101f35780636352211e116101ac5780636352211e146105ea578063683e97581461062757806370a082311461066457806374b5a993146106a1578063872de727146106de5780638f02bb5b146107075761027d565b80633c7baa2a146104b15780633eb62885146104ee578063435b9a281461051e5780634a8b5faf146105475780634c79847314610570578063632028a8146105ad5761027d565b8063219a318c11610245578063219a318c14610369578063231f4097146103a657806323bf2c1c146103e357806326a4e8d2146104205780632d6c5c8b146104495780632e1a7d4d146104745761027d565b806306fdde031461028257806312065fe0146102ad57806318160ddd146102d85780631d04886014610303578063206b32a71461032c575b600080fd5b34801561028e57600080fd5b50610297610bec565b6040516102a49190613dd2565b60405180910390f35b3480156102b957600080fd5b506102c2610c7a565b6040516102cf9190613e0d565b60405180910390f35b3480156102e457600080fd5b506102ed610c82565b6040516102fa9190613e0d565b60405180910390f35b34801561030f57600080fd5b5061032a60048036038101906103259190613e68565b610c88565b005b34801561033857600080fd5b50610353600480360381019061034e9190613e68565b610d20565b6040516103609190613e0d565b60405180910390f35b34801561037557600080fd5b50610390600480360381019061038b9190613ef3565b610d38565b60405161039d9190613e0d565b60405180910390f35b3480156103b257600080fd5b506103cd60048036038101906103c89190613e68565b610d50565b6040516103da9190613f2f565b60405180910390f35b3480156103ef57600080fd5b5061040a60048036038101906104059190613e68565b610d83565b6040516104179190613e0d565b60405180910390f35b34801561042c57600080fd5b5061044760048036038101906104429190613ef3565b610d9b565b005b34801561045557600080fd5b5061045e610e6d565b60405161046b9190613e0d565b60405180910390f35b34801561048057600080fd5b5061049b60048036038101906104969190613e68565b610e73565b6040516104a89190613f65565b60405180910390f35b3480156104bd57600080fd5b506104d860048036038101906104d39190613e68565b610f4d565b6040516104e59190613f65565b60405180910390f35b610508600480360381019061050391906140e1565b611198565b6040516105159190613e0d565b60405180910390f35b34801561052a57600080fd5b5061054560048036038101906105409190613e68565b611454565b005b34801561055357600080fd5b5061056e60048036038101906105699190613e68565b6114ec565b005b34801561057c57600080fd5b5061059760048036038101906105929190613ef3565b611584565b6040516105a49190613e0d565b60405180910390f35b3480156105b957600080fd5b506105d460048036038101906105cf91906141c2565b61159c565b6040516105e19190613f65565b60405180910390f35b3480156105f657600080fd5b50610611600480360381019061060c9190613e68565b611a5b565b60405161061e9190613f2f565b60405180910390f35b34801561063357600080fd5b5061064e60048036038101906106499190614202565b611b3d565b60405161065b9190613f65565b60405180910390f35b34801561067057600080fd5b5061068b60048036038101906106869190613ef3565b611c2f565b6040516106989190613e0d565b60405180910390f35b3480156106ad57600080fd5b506106c860048036038101906106c39190614242565b611cea565b6040516106d59190613e0d565b60405180910390f35b3480156106ea57600080fd5b5061070560048036038101906107009190613e68565b611d0f565b005b34801561071357600080fd5b5061072e60048036038101906107299190613e68565b611da7565b005b34801561073c57600080fd5b5061075760048036038101906107529190613e68565b611e3f565b6040516107649190613f65565b60405180910390f35b34801561077957600080fd5b50610794600480360381019061078f9190613e68565b6121fe565b6040516107a19190613f2f565b60405180910390f35b3480156107b657600080fd5b506107bf612231565b6040516107cc9190613dd2565b60405180910390f35b3480156107e157600080fd5b506107fc60048036038101906107f79190613e68565b6122bf565b005b34801561080a57600080fd5b50610813612357565b6040516108209190613e0d565b60405180910390f35b34801561083557600080fd5b50610850600480360381019061084b91906141c2565b61235d565b60405161085d9190613f65565b60405180910390f35b34801561087257600080fd5b5061088d60048036038101906108889190614282565b61243c565b005b34801561089b57600080fd5b506108b660048036038101906108b19190613e68565b6125d2565b6040516108c39190613f65565b60405180910390f35b3480156108d857600080fd5b506108e16126f0565b6040516108ee9190613e0d565b60405180910390f35b34801561090357600080fd5b5061090c6126f6565b6040516109199190613e0d565b60405180910390f35b34801561092e57600080fd5b5061094960048036038101906109449190613e68565b6126fc565b6040516109569190613e0d565b60405180910390f35b34801561096b57600080fd5b50610974612944565b6040516109819190613e0d565b60405180910390f35b34801561099657600080fd5b506109b160048036038101906109ac9190613ef3565b61294a565b6040516109be9190613e0d565b60405180910390f35b3480156109d357600080fd5b506109dc612962565b6040516109e99190613e0d565b60405180910390f35b3480156109fe57600080fd5b50610a196004803603810190610a1491906142c2565b612968565b604051610a269190613f65565b60405180910390f35b348015610a3b57600080fd5b50610a566004803603810190610a5191906141c2565b6129ff565b604051610a64929190614361565b60405180910390f35b348015610a7957600080fd5b50610a946004803603810190610a8f91906141c2565b612a50565b604051610aa19190613f65565b60405180910390f35b348015610ab657600080fd5b50610ad16004803603810190610acc9190613e68565b612eee565b604051610ae598979695949392919061438a565b60405180910390f35b610b086004803603810190610b039190613e68565b6130eb565b604051610b159190613f65565b60405180910390f35b348015610b2a57600080fd5b50610b33613617565b604051610b409190613e0d565b60405180910390f35b348015610b5557600080fd5b50610b706004803603810190610b6b91906141c2565b61361d565b005b348015610b7e57600080fd5b50610b996004803603810190610b949190613ef3565b6137f4565b604051610ba69190613f2f565b60405180910390f35b348015610bbb57600080fd5b50610bd66004803603810190610bd19190613ef3565b613827565b604051610be391906144db565b60405180910390f35b60018054610bf99061452c565b80601f0160208091040260200160405190810160405280929190818152602001828054610c259061452c565b8015610c725780601f10610c4757610100808354040283529160200191610c72565b820191906000526020600020905b815481529060010190602001808311610c5557829003601f168201915b505050505081565b600047905090565b60035481565b60008054906101000a900473ffffffffffffffffffffffffffffffffffffffff1673ffffffffffffffffffffffffffffffffffffffff163373ffffffffffffffffffffffffffffffffffffffff1614610d16576040517f08c379a0000000000000000000000000000000000000000000000000000000008152600401610d0d906145aa565b60405180910390fd5b8060048190555050565b60146020528060005260406000206000915090505481565b60166020528060005260406000206000915090505481565b600c6020528060005260406000206000915054906101000a900473ffffffffffffffffffffffffffffffffffffffff1681565b60136020528060005260406000206000915090505481565b60008054906101000a900473ffffffffffffffffffffffffffffffffffffffff1673ffffffffffffffffffffffffffffffffffffffff163373ffffffffffffffffffffffffffffffffffffffff1614610e29576040517f08c379a0000000000000000000000000000000000000000000000000000000008152600401610e20906145aa565b60405180910390fd5b80600f60006101000a81548173ffffffffffffffffffffffffffffffffffffffff021916908373ffffffffffffffffffffffffffffffffffffffff16021790555050565b60065481565b60008060009054906101000a900473ffffffffffffffffffffffffffffffffffffffff1673ffffffffffffffffffffffffffffffffffffffff163373ffffffffffffffffffffffffffffffffffffffff1614610f04576040517f08c379a0000000000000000000000000000000000000000000000000000000008152600401610efb906145aa565b60405180910390fd5b47821115610f1157600080fd5b3373ffffffffffffffffffffffffffffffffffffffff166108fc839081150290604051600060405180830381858888f193505050509050919050565b60008060108381548110610f6457610f636145ca565b5b906000526020600020906008020160405180610100016040529081600082018054610f8e9061452c565b80601f0160208091040260200160405190810160405280929190818152602001828054610fba9061452c565b80156110075780601f10610fdc57610100808354040283529160200191611007565b820191906000526020600020905b815481529060010190602001808311610fea57829003601f168201915b505050505081526020016001820180546110209061452c565b80601f016020809104026020016040519081016040528092919081815260200182805461104c9061452c565b80156110995780601f1061106e57610100808354040283529160200191611099565b820191906000526020600020905b81548152906001019060200180831161107c57829003601f168201915b505050505081526020016002820180546110b29061452c565b80601f01602080910402602001604051908101604052809291908181526020018280546110de9061452c565b801561112b5780601f106111005761010080835404028352916020019161112b565b820191906000526020600020905b81548152906001019060200180831161110e57829003601f168201915b505050505081526020016003820160009054906101000a900460ff161515151581526020016004820154815260200160058201548152602001600682015481526020016007820154815250509050428160c001518260e0015161118e9190614628565b1115915050919050565b60006004543410156111df576040517f08c379a00000000000000000000000000000000000000000000000000000000081526004016111d6906146ca565b60405180910390fd5b60003390506010600181600181540180825580915050039060005260206000209050506000600160108054905061121691906146ea565b905060006010828154811061122e5761122d6145ca565b5b9060005260206000209060080201905089816000019080519060200190611256929190613c96565b508881600101908051906020019061126f929190613c96565b5087816002019080519060200190611288929190613c96565b50848160050181905550858160030160006101000a81548160ff021916908315150217905550868160040181905550428160070181905550600854816006018190555082600b6000600354815260200190815260200160002060006101000a81548173ffffffffffffffffffffffffffffffffffffffff021916908373ffffffffffffffffffffffffffffffffffffffff16021790555082600c6000600354815260200190815260200160002060006101000a81548173ffffffffffffffffffffffffffffffffffffffff021916908373ffffffffffffffffffffffffffffffffffffffff1602179055506001600e60008573ffffffffffffffffffffffffffffffffffffffff1673ffffffffffffffffffffffffffffffffffffffff16815260200190815260200160002060008282546113c39190614628565b925050819055506003548373ffffffffffffffffffffffffffffffffffffffff16600073ffffffffffffffffffffffffffffffffffffffff167fddf252ad1be2c89b69c2b068fc378daa952ba7f163c4a11628f55a4df523b3ef60405160405180910390a460016003600082825461143b9190614628565b9250508190555060035493505050509695505050505050565b60008054906101000a900473ffffffffffffffffffffffffffffffffffffffff1673ffffffffffffffffffffffffffffffffffffffff163373ffffffffffffffffffffffffffffffffffffffff16146114e2576040517f08c379a00000000000000000000000000000000000000000000000000000000081526004016114d9906145aa565b60405180910390fd5b8060098190555050565b60008054906101000a900473ffffffffffffffffffffffffffffffffffffffff1673ffffffffffffffffffffffffffffffffffffffff163373ffffffffffffffffffffffffffffffffffffffff161461157a576040517f08c379a0000000000000000000000000000000000000000000000000000000008152600401611571906145aa565b60405180910390fd5b8060088190555050565b600e6020528060005260406000206000915090505481565b6000806012600085815260200190815260200160002060003373ffffffffffffffffffffffffffffffffffffffff1673ffffffffffffffffffffffffffffffffffffffff1681526020019081526020016000205490506000811415611636576040517f08c379a000000000000000000000000000000000000000000000000000000000815260040161162d9061476a565b60405180910390fd5b6000601160008681526020019081526020016000206000838152602001908152602001600020600101549050838110156116a5576040517f08c379a000000000000000000000000000000000000000000000000000000000815260040161169c906147fc565b60405180910390fd5b83816116b191906146ea565b905083601560003373ffffffffffffffffffffffffffffffffffffffff1673ffffffffffffffffffffffffffffffffffffffff168152602001908152602001600020600082825461170291906146ea565b925050819055508360146000878152602001908152602001600020600082825461172c91906146ea565b92505081905550600060136000878152602001908152602001600020549050600082141561197a576001601660003373ffffffffffffffffffffffffffffffffffffffff1673ffffffffffffffffffffffffffffffffffffffff16815260200190815260200160002060008282546117a491906146ea565b925050819055508083141561180e5760006012600088815260200190815260200160002060003373ffffffffffffffffffffffffffffffffffffffff1673ffffffffffffffffffffffffffffffffffffffff1681526020019081526020016000208190555061196a565b600060116000888152602001908152602001600020600083815260200190815260200160002060000160009054906101000a900473ffffffffffffffffffffffffffffffffffffffff1690508060116000898152602001908152602001600020600086815260200190815260200160002060000160006101000a81548173ffffffffffffffffffffffffffffffffffffffff021916908373ffffffffffffffffffffffffffffffffffffffff1602179055506011600088815260200190815260200160002060008381526020019081526020016000206001015460116000898152602001908152602001600020600086815260200190815260200160002060010181905550836012600089815260200190815260200160002060008373ffffffffffffffffffffffffffffffffffffffff1673ffffffffffffffffffffffffffffffffffffffff16815260200190815260200160002081905550505b60018161197791906146ea565b90505b600f60009054906101000a900473ffffffffffffffffffffffffffffffffffffffff1673ffffffffffffffffffffffffffffffffffffffff166340c10f1933876040518363ffffffff1660e01b81526004016119d7929190614361565b600060405180830381600087803b1580156119f157600080fd5b505af1158015611a05573d6000803e3d6000fd5b5050505084863373ffffffffffffffffffffffffffffffffffffffff167fdcca95406ac9554449be02d88dcdf9c877f96e4c02bdad4bd5cadefc98a20e3d60405160405180910390a46001935050505092915050565b600081600073ffffffffffffffffffffffffffffffffffffffff16600b600083815260200190815260200160002060009054906101000a900473ffffffffffffffffffffffffffffffffffffffff1673ffffffffffffffffffffffffffffffffffffffff161415611b01576040517f08c379a0000000000000000000000000000000000000000000000000000000008152600401611af890614868565b60405180910390fd5b600b600084815260200190815260200160002060009054906101000a900473ffffffffffffffffffffffffffffffffffffffff16915050919050565b600082600b600082815260200190815260200160002060009054906101000a900473ffffffffffffffffffffffffffffffffffffffff1673ffffffffffffffffffffffffffffffffffffffff163373ffffffffffffffffffffffffffffffffffffffff1614611be1576040517f08c379a0000000000000000000000000000000000000000000000000000000008152600401611bd8906148d4565b60405180910390fd5b600060108581548110611bf757611bf66145ca565b5b90600052602060002090600802019050838160030160006101000a81548160ff02191690831515021790555060019250505092915050565b600081600073ffffffffffffffffffffffffffffffffffffffff168173ffffffffffffffffffffffffffffffffffffffff161415611ca2576040517f08c379a0000000000000000000000000000000000000000000000000000000008152600401611c9990614940565b60405180910390fd5b600e60008473ffffffffffffffffffffffffffffffffffffffff1673ffffffffffffffffffffffffffffffffffffffff16815260200190815260200160002054915050919050565b6012602052816000526040600020602052806000526040600020600091509150505481565b60008054906101000a900473ffffffffffffffffffffffffffffffffffffffff1673ffffffffffffffffffffffffffffffffffffffff163373ffffffffffffffffffffffffffffffffffffffff1614611d9d576040517f08c379a0000000000000000000000000000000000000000000000000000000008152600401611d94906145aa565b60405180910390fd5b8060078190555050565b60008054906101000a900473ffffffffffffffffffffffffffffffffffffffff1673ffffffffffffffffffffffffffffffffffffffff163373ffffffffffffffffffffffffffffffffffffffff1614611e35576040517f08c379a0000000000000000000000000000000000000000000000000000000008152600401611e2c906145aa565b60405180910390fd5b8060058190555050565b60008060108381548110611e5657611e556145ca565b5b906000526020600020906008020160405180610100016040529081600082018054611e809061452c565b80601f0160208091040260200160405190810160405280929190818152602001828054611eac9061452c565b8015611ef95780601f10611ece57610100808354040283529160200191611ef9565b820191906000526020600020905b815481529060010190602001808311611edc57829003601f168201915b50505050508152602001600182018054611f129061452c565b80601f0160208091040260200160405190810160405280929190818152602001828054611f3e9061452c565b8015611f8b5780601f10611f6057610100808354040283529160200191611f8b565b820191906000526020600020905b815481529060010190602001808311611f6e57829003601f168201915b50505050508152602001600282018054611fa49061452c565b80601f0160208091040260200160405190810160405280929190818152602001828054611fd09061452c565b801561201d5780601f10611ff25761010080835404028352916020019161201d565b820191906000526020600020905b81548152906001019060200180831161200057829003601f168201915b505050505081526020016003820160009054906101000a900460ff161515151581526020016004820154815260200160058201548152602001600682015481526020016007820154815250509050428160c001518260e001516120809190614628565b11156120c1576040517f08c379a00000000000000000000000000000000000000000000000000000000081526004016120b8906149ac565b60405180910390fd5b600f60009054906101000a900473ffffffffffffffffffffffffffffffffffffffff1673ffffffffffffffffffffffffffffffffffffffff166323b872dd33306006546040518463ffffffff1660e01b8152600401612122939291906149cc565b6020604051808303816000875af1158015612141573d6000803e3d6000fd5b505050506040513d601f19601f820116820180604052508101906121659190614a18565b506000600b600085815260200190815260200160002060009054906101000a900473ffffffffffffffffffffffffffffffffffffffff1690506121a981338661395b565b60095460016121b89190614a45565b601085815481106121cc576121cb6145ca565b5b906000526020600020906008020160060160008282546121ec9190614628565b92505081905550600192505050919050565b600b6020528060005260406000206000915054906101000a900473ffffffffffffffffffffffffffffffffffffffff1681565b6002805461223e9061452c565b80601f016020809104026020016040519081016040528092919081815260200182805461226a9061452c565b80156122b75780601f1061228c576101008083540402835291602001916122b7565b820191906000526020600020905b81548152906001019060200180831161229a57829003601f168201915b505050505081565b60008054906101000a900473ffffffffffffffffffffffffffffffffffffffff1673ffffffffffffffffffffffffffffffffffffffff163373ffffffffffffffffffffffffffffffffffffffff161461234d576040517f08c379a0000000000000000000000000000000000000000000000000000000008152600401612344906145aa565b60405180910390fd5b8060068190555050565b60075481565b600082600b600082815260200190815260200160002060009054906101000a900473ffffffffffffffffffffffffffffffffffffffff1673ffffffffffffffffffffffffffffffffffffffff163373ffffffffffffffffffffffffffffffffffffffff1614612401576040517f08c379a00000000000000000000000000000000000000000000000000000000081526004016123f8906148d4565b60405180910390fd5b600060108581548110612417576124166145ca565b5b9060005260206000209060080201905083816004018190555060019250505092915050565b80600b600082815260200190815260200160002060009054906101000a900473ffffffffffffffffffffffffffffffffffffffff1673ffffffffffffffffffffffffffffffffffffffff163373ffffffffffffffffffffffffffffffffffffffff16146124de576040517f08c379a00000000000000000000000000000000000000000000000000000000081526004016124d5906148d4565b60405180910390fd5b600061251f576040517f08c379a000000000000000000000000000000000000000000000000000000000815260040161251690614b37565b60405180910390fd5b600f60009054906101000a900473ffffffffffffffffffffffffffffffffffffffff1673ffffffffffffffffffffffffffffffffffffffff1663a9059cbb306005546040518363ffffffff1660e01b815260040161257e929190614361565b6020604051808303816000875af115801561259d573d6000803e3d6000fd5b505050506040513d601f19601f820116820180604052508101906125c19190614a18565b506125cd33848461395b565b505050565b600081600b600082815260200190815260200160002060009054906101000a900473ffffffffffffffffffffffffffffffffffffffff1673ffffffffffffffffffffffffffffffffffffffff163373ffffffffffffffffffffffffffffffffffffffff1614612676576040517f08c379a000000000000000000000000000000000000000000000000000000000815260040161266d906148d4565b60405180910390fd5b60006010848154811061268c5761268b6145ca565b5b9060005260206000209060080201905060008160070154426126ae91906146ea565b905060008110156126be57600080fd5b80826006018190555060018260030160006101000a81548160ff02191690831515021790555060019350505050919050565b60055481565b60085481565b60008060108381548110612713576127126145ca565b5b90600052602060002090600802016040518061010001604052908160008201805461273d9061452c565b80601f01602080910402602001604051908101604052809291908181526020018280546127699061452c565b80156127b65780601f1061278b576101008083540402835291602001916127b6565b820191906000526020600020905b81548152906001019060200180831161279957829003601f168201915b505050505081526020016001820180546127cf9061452c565b80601f01602080910402602001604051908101604052809291908181526020018280546127fb9061452c565b80156128485780601f1061281d57610100808354040283529160200191612848565b820191906000526020600020905b81548152906001019060200180831161282b57829003601f168201915b505050505081526020016002820180546128619061452c565b80601f016020809104026020016040519081016040528092919081815260200182805461288d9061452c565b80156128da5780601f106128af576101008083540402835291602001916128da565b820191906000526020600020905b8154815290600101906020018083116128bd57829003601f168201915b505050505081526020016003820160009054906101000a900460ff1615151515815260200160048201548152602001600582015481526020016006820154815260200160078201548152505090508060c001518160e0015161293c9190614628565b915050919050565b60045481565b60156020528060005260406000206000915090505481565b600a5481565b60008061297486611e3f565b905080156129f357600060108781548110612992576129916145ca565b5b90600052602060002090600802019050858160000190805190602001906129ba929190613c96565b50848160040181905550838160010190805190602001906129dc929190613c96565b506008548160060181905550428160070181905550505b80915050949350505050565b6011602052816000526040600020602052806000526040600020600091509150508060000160009054906101000a900473ffffffffffffffffffffffffffffffffffffffff16908060010154905082565b600082600073ffffffffffffffffffffffffffffffffffffffff16600b600083815260200190815260200160002060009054906101000a900473ffffffffffffffffffffffffffffffffffffffff1673ffffffffffffffffffffffffffffffffffffffff161415612af6576040517f08c379a0000000000000000000000000000000000000000000000000000000008152600401612aed90614868565b60405180910390fd5b60008311612b39576040517f08c379a0000000000000000000000000000000000000000000000000000000008152600401612b3090614ba3565b60405180910390fd5b600f60009054906101000a900473ffffffffffffffffffffffffffffffffffffffff1673ffffffffffffffffffffffffffffffffffffffff166379cc679033856040518363ffffffff1660e01b8152600401612b96929190614361565b600060405180830381600087803b158015612bb057600080fd5b505af1158015612bc4573d6000803e3d6000fd5b5050505060006012600086815260200190815260200160002060003373ffffffffffffffffffffffffffffffffffffffff1673ffffffffffffffffffffffffffffffffffffffff16815260200190815260200160002054905060008114612c6857836011600087815260200190815260200160002060008381526020019081526020016000206001016000828254612c5c9190614628565b92505081905550612e1d565b6001601660003373ffffffffffffffffffffffffffffffffffffffff1673ffffffffffffffffffffffffffffffffffffffff1681526020019081526020016000206000828254612cb89190614628565b925050819055506001601360008781526020019081526020016000206000828254612ce39190614628565b9250508190555060136000868152602001908152602001600020546012600087815260200190815260200160002060003373ffffffffffffffffffffffffffffffffffffffff1673ffffffffffffffffffffffffffffffffffffffff16815260200190815260200160002081905550336011600087815260200190815260200160002060006013600089815260200190815260200160002054815260200190815260200160002060000160006101000a81548173ffffffffffffffffffffffffffffffffffffffff021916908373ffffffffffffffffffffffffffffffffffffffff16021790555083601160008781526020019081526020016000206000601360008981526020019081526020016000205481526020019081526020016000206001016000828254612e159190614628565b925050819055505b83601560003373ffffffffffffffffffffffffffffffffffffffff1673ffffffffffffffffffffffffffffffffffffffff1681526020019081526020016000206000828254612e6c9190614628565b9250508190555083601460008781526020019081526020016000206000828254612e969190614628565b9250508190555083853373ffffffffffffffffffffffffffffffffffffffff167f270d6dd254edd1d985c81cf7861b8f28fb06b6d719df04d90464034d4341244060405160405180910390a460019250505092915050565b60108181548110612efe57600080fd5b9060005260206000209060080201600091509050806000018054612f219061452c565b80601f0160208091040260200160405190810160405280929190818152602001828054612f4d9061452c565b8015612f9a5780601f10612f6f57610100808354040283529160200191612f9a565b820191906000526020600020905b815481529060010190602001808311612f7d57829003601f168201915b505050505090806001018054612faf9061452c565b80601f0160208091040260200160405190810160405280929190818152602001828054612fdb9061452c565b80156130285780601f10612ffd57610100808354040283529160200191613028565b820191906000526020600020905b81548152906001019060200180831161300b57829003601f168201915b50505050509080600201805461303d9061452c565b80601f01602080910402602001604051908101604052809291908181526020018280546130699061452c565b80156130b65780601f1061308b576101008083540402835291602001916130b6565b820191906000526020600020905b81548152906001019060200180831161309957829003601f168201915b5050505050908060030160009054906101000a900460ff16908060040154908060050154908060060154908060070154905088565b600081600073ffffffffffffffffffffffffffffffffffffffff16600b600083815260200190815260200160002060009054906101000a900473ffffffffffffffffffffffffffffffffffffffff1673ffffffffffffffffffffffffffffffffffffffff161415613191576040517f08c379a000000000000000000000000000000000000000000000000000000000815260040161318890614868565b60405180910390fd5b82600b600082815260200190815260200160002060009054906101000a900473ffffffffffffffffffffffffffffffffffffffff1673ffffffffffffffffffffffffffffffffffffffff163373ffffffffffffffffffffffffffffffffffffffff161415613234576040517f08c379a000000000000000000000000000000000000000000000000000000000815260040161322b90614c0f565b60405180910390fd5b6000600e60003373ffffffffffffffffffffffffffffffffffffffff1673ffffffffffffffffffffffffffffffffffffffff16815260200190815260200160002054146132b6576040517f08c379a00000000000000000000000000000000000000000000000000000000081526004016132ad90614c7b565b60405180910390fd5b6000601085815481106132cc576132cb6145ca565b5b906000526020600020906008020190508060030160009054906101000a900460ff161561332e576040517f08c379a000000000000000000000000000000000000000000000000000000000815260040161332590614ce7565b60405180910390fd5b8060040154341015613375576040517f08c379a000000000000000000000000000000000000000000000000000000000815260040161336c90614d53565b60405180910390fd5b61337e85610f4d565b156133be576040517f08c379a00000000000000000000000000000000000000000000000000000000081526004016133b590614dbf565b60405180910390fd5b6000816005015411613405576040517f08c379a00000000000000000000000000000000000000000000000000000000081526004016133fc90614e2b565b60405180910390fd5b600061341086611a5b565b905060008173ffffffffffffffffffffffffffffffffffffffff163460405161343890614e7c565b60006040518083038185875af1925050503d8060008114613475576040519150601f19603f3d011682016040523d82523d6000602084013e61347a565b606091505b50509050806134be576040517f08c379a00000000000000000000000000000000000000000000000000000000081526004016134b590614edd565b60405180910390fd5b60018360050160008282546134d391906146ea565b925050819055506000346007546134ea9190614a45565b90506134f68882613b7f565b613535576040517f08c379a000000000000000000000000000000000000000000000000000000000815260040161352c90614f49565b60405180910390fd5b600f60009054906101000a900473ffffffffffffffffffffffffffffffffffffffff1673ffffffffffffffffffffffffffffffffffffffff166340c10f1933836040518363ffffffff1660e01b8152600401613592929190614361565b600060405180830381600087803b1580156135ac57600080fd5b505af11580156135c0573d6000803e3d6000fd5b50505050873373ffffffffffffffffffffffffffffffffffffffff167f792fe07c0f3ce4ef42df79c4a2b07925168cddbaabf7a7ef1351f027a376031360405160405180910390a360019650505050505050919050565b60095481565b81600b600082815260200190815260200160002060009054906101000a900473ffffffffffffffffffffffffffffffffffffffff1673ffffffffffffffffffffffffffffffffffffffff163373ffffffffffffffffffffffffffffffffffffffff16146136bf576040517f08c379a00000000000000000000000000000000000000000000000000000000081526004016136b6906148d4565b60405180910390fd5b600f60009054906101000a900473ffffffffffffffffffffffffffffffffffffffff1673ffffffffffffffffffffffffffffffffffffffff166379cc679033846040518363ffffffff1660e01b815260040161371c929190614361565b600060405180830381600087803b15801561373657600080fd5b505af115801561374a573d6000803e3d6000fd5b50505050600060108481548110613764576137636145ca565b5b906000526020600020906008020190506000670de0b6b3a76400006009548561378d9190614a45565b6137979190614f98565b9050808260060160008282546137ad9190614628565b9250508190555080857fea4c9e2dae0528306947767a1a80f7b3c2e533ca68318dc59c8eb586cd52bd04336040516137e59190613f2f565b60405180910390a35050505050565b600d6020528060005260406000206000915054906101000a900473ffffffffffffffffffffffffffffffffffffffff1681565b60606000600e60008473ffffffffffffffffffffffffffffffffffffffff1673ffffffffffffffffffffffffffffffffffffffff1681526020019081526020016000205467ffffffffffffffff81111561388457613883613f8a565b5b6040519080825280602002602001820160405280156138b25781602001602082028036833780820191505090505b5090506000805b6010805490508161ffff161015613950578473ffffffffffffffffffffffffffffffffffffffff166138ee8261ffff16611a5b565b73ffffffffffffffffffffffffffffffffffffffff16141561393d578061ffff16838381518110613922576139216145ca565b5b602002602001018181525050818061393990614fc9565b9250505b808061394890615020565b9150506138b9565b508192505050919050565b81600073ffffffffffffffffffffffffffffffffffffffff168173ffffffffffffffffffffffffffffffffffffffff1614156139cc576040517f08c379a00000000000000000000000000000000000000000000000000000000081526004016139c390614940565b60405180910390fd5b6001600e60008673ffffffffffffffffffffffffffffffffffffffff1673ffffffffffffffffffffffffffffffffffffffff1681526020019081526020016000206000828254613a1c91906146ea565b9250508190555082600b600084815260200190815260200160002060006101000a81548173ffffffffffffffffffffffffffffffffffffffff021916908373ffffffffffffffffffffffffffffffffffffffff16021790555082600c600084815260200190815260200160002060006101000a81548173ffffffffffffffffffffffffffffffffffffffff021916908373ffffffffffffffffffffffffffffffffffffffff1602179055506001600e60008573ffffffffffffffffffffffffffffffffffffffff1673ffffffffffffffffffffffffffffffffffffffff1681526020019081526020016000206000828254613b179190614628565b92505081905550818373ffffffffffffffffffffffffffffffffffffffff168573ffffffffffffffffffffffffffffffffffffffff167fddf252ad1be2c89b69c2b068fc378daa952ba7f163c4a11628f55a4df523b3ef60405160405180910390a450505050565b600080601360008581526020019081526020016000205490506000811115613c8b57600081600143613bb191906146ea565b4060001c613bbf919061504b565b90506000601160008781526020019081526020016000206000838152602001908152602001600020905060008160000160009054906101000a900473ffffffffffffffffffffffffffffffffffffffff1690506000826001015490506000601460008a81526020019081526020016000205482613c3c9190614f98565b88600a54613c4a9190614a45565b613c549190614a45565b905080858a7fc61d9966399d41f152c52bb68844dae105f486a90e3a09903e113d5b02f84baa60405160405180910390a450505050505b600191505092915050565b828054613ca29061452c565b90600052602060002090601f016020900481019282613cc45760008555613d0b565b82601f10613cdd57805160ff1916838001178555613d0b565b82800160010185558215613d0b579182015b82811115613d0a578251825591602001919060010190613cef565b5b509050613d189190613d1c565b5090565b5b80821115613d35576000816000905550600101613d1d565b5090565b600081519050919050565b600082825260208201905092915050565b60005b83811015613d73578082015181840152602081019050613d58565b83811115613d82576000848401525b50505050565b6000601f19601f8301169050919050565b6000613da482613d39565b613dae8185613d44565b9350613dbe818560208601613d55565b613dc781613d88565b840191505092915050565b60006020820190508181036000830152613dec8184613d99565b905092915050565b6000819050919050565b613e0781613df4565b82525050565b6000602082019050613e226000830184613dfe565b92915050565b6000604051905090565b600080fd5b600080fd5b613e4581613df4565b8114613e5057600080fd5b50565b600081359050613e6281613e3c565b92915050565b600060208284031215613e7e57613e7d613e32565b5b6000613e8c84828501613e53565b91505092915050565b600073ffffffffffffffffffffffffffffffffffffffff82169050919050565b6000613ec082613e95565b9050919050565b613ed081613eb5565b8114613edb57600080fd5b50565b600081359050613eed81613ec7565b92915050565b600060208284031215613f0957613f08613e32565b5b6000613f1784828501613ede565b91505092915050565b613f2981613eb5565b82525050565b6000602082019050613f446000830184613f20565b92915050565b60008115159050919050565b613f5f81613f4a565b82525050565b6000602082019050613f7a6000830184613f56565b92915050565b600080fd5b600080fd5b7f4e487b7100000000000000000000000000000000000000000000000000000000600052604160045260246000fd5b613fc282613d88565b810181811067ffffffffffffffff82111715613fe157613fe0613f8a565b5b80604052505050565b6000613ff4613e28565b90506140008282613fb9565b919050565b600067ffffffffffffffff8211156140205761401f613f8a565b5b61402982613d88565b9050602081019050919050565b82818337600083830152505050565b600061405861405384614005565b613fea565b90508281526020810184848401111561407457614073613f85565b5b61407f848285614036565b509392505050565b600082601f83011261409c5761409b613f80565b5b81356140ac848260208601614045565b91505092915050565b6140be81613f4a565b81146140c957600080fd5b50565b6000813590506140db816140b5565b92915050565b60008060008060008060c087890312156140fe576140fd613e32565b5b600087013567ffffffffffffffff81111561411c5761411b613e37565b5b61412889828a01614087565b965050602087013567ffffffffffffffff81111561414957614148613e37565b5b61415589828a01614087565b955050604087013567ffffffffffffffff81111561417657614175613e37565b5b61418289828a01614087565b945050606061419389828a01613e53565b93505060806141a489828a016140cc565b92505060a06141b589828a01613e53565b9150509295509295509295565b600080604083850312156141d9576141d8613e32565b5b60006141e785828601613e53565b92505060206141f885828601613e53565b9150509250929050565b6000806040838503121561421957614218613e32565b5b600061422785828601613e53565b9250506020614238858286016140cc565b9150509250929050565b6000806040838503121561425957614258613e32565b5b600061426785828601613e53565b925050602061427885828601613ede565b9150509250929050565b6000806040838503121561429957614298613e32565b5b60006142a785828601613ede565b92505060206142b885828601613e53565b9150509250929050565b600080600080608085870312156142dc576142db613e32565b5b60006142ea87828801613e53565b945050602085013567ffffffffffffffff81111561430b5761430a613e37565b5b61431787828801614087565b935050604061432887828801613e53565b925050606085013567ffffffffffffffff81111561434957614348613e37565b5b61435587828801614087565b91505092959194509250565b60006040820190506143766000830185613f20565b6143836020830184613dfe565b9392505050565b60006101008201905081810360008301526143a5818b613d99565b905081810360208301526143b9818a613d99565b905081810360408301526143cd8189613d99565b90506143dc6060830188613f56565b6143e96080830187613dfe565b6143f660a0830186613dfe565b61440360c0830185613dfe565b61441060e0830184613dfe565b9998505050505050505050565b600081519050919050565b600082825260208201905092915050565b6000819050602082019050919050565b61445281613df4565b82525050565b60006144648383614449565b60208301905092915050565b6000602082019050919050565b60006144888261441d565b6144928185614428565b935061449d83614439565b8060005b838110156144ce5781516144b58882614458565b97506144c083614470565b9250506001810190506144a1565b5085935050505092915050565b600060208201905081810360008301526144f5818461447d565b905092915050565b7f4e487b7100000000000000000000000000000000000000000000000000000000600052602260045260246000fd5b6000600282049050600182168061454457607f821691505b60208210811415614558576145576144fd565b5b50919050565b7f4f6e6c79206465706c6f79657200000000000000000000000000000000000000600082015250565b6000614594600d83613d44565b915061459f8261455e565b602082019050919050565b600060208201905081810360008301526145c381614587565b9050919050565b7f4e487b7100000000000000000000000000000000000000000000000000000000600052603260045260246000fd5b7f4e487b7100000000000000000000000000000000000000000000000000000000600052601160045260246000fd5b600061463382613df4565b915061463e83613df4565b9250827fffffffffffffffffffffffffffffffffffffffffffffffffffffffffffffffff03821115614673576146726145f9565b5b828201905092915050565b7f4d75737420706179206d696e7420666565000000000000000000000000000000600082015250565b60006146b4601183613d44565b91506146bf8261467e565b602082019050919050565b600060208201905081810360008301526146e3816146a7565b9050919050565b60006146f582613df4565b915061470083613df4565b925082821015614713576147126145f9565b5b828203905092915050565b7f4d757374207374616b65206265666f726520756e7374616b696e670000000000600082015250565b6000614754601b83613d44565b915061475f8261471e565b602082019050919050565b6000602082019050818103600083015261478381614747565b9050919050565b7f43616e6e6f7420756e7374616b65206d6f7265207468616e206973207374616b60008201527f6564000000000000000000000000000000000000000000000000000000000000602082015250565b60006147e6602283613d44565b91506147f18261478a565b604082019050919050565b60006020820190508181036000830152614815816147d9565b9050919050565b7f4974656d206d7573742065786973740000000000000000000000000000000000600082015250565b6000614852600f83613d44565b915061485d8261481c565b602082019050919050565b6000602082019050818103600083015261488181614845565b9050919050565b7f4f6e6c79204974656d204f776e65720000000000000000000000000000000000600082015250565b60006148be600f83613d44565b91506148c982614888565b602082019050919050565b600060208201905081810360008301526148ed816148b1565b9050919050565b7f4d696e7420746f20746865207a65726f20616464726573730000000000000000600082015250565b600061492a601883613d44565b9150614935826148f4565b602082019050919050565b600060208201905081810360008301526149598161491d565b9050919050565b7f4974656d206973206e6f742064656c696e7175656e7400000000000000000000600082015250565b6000614996601683613d44565b91506149a182614960565b602082019050919050565b600060208201905081810360008301526149c581614989565b9050919050565b60006060820190506149e16000830186613f20565b6149ee6020830185613f20565b6149fb6040830184613dfe565b949350505050565b600081519050614a12816140b5565b92915050565b600060208284031215614a2e57614a2d613e32565b5b6000614a3c84828501614a03565b91505092915050565b6000614a5082613df4565b9150614a5b83613df4565b9250817fffffffffffffffffffffffffffffffffffffffffffffffffffffffffffffffff0483118215151615614a9457614a936145f9565b5b828202905092915050565b7f4572726f723a205472616e7366657272696e67206c697374696e67732069732060008201527f6e6f7420737570706f727465642e2055736520666f7265636c6f73654974656d60208201527f20746f2064656c657465206c697374696e672e00000000000000000000000000604082015250565b6000614b21605383613d44565b9150614b2c82614a9f565b606082019050919050565b60006020820190508181036000830152614b5081614b14565b9050919050565b7f4d757374207374616b6520746f6b656e73000000000000000000000000000000600082015250565b6000614b8d601183613d44565b9150614b9882614b57565b602082019050919050565b60006020820190508181036000830152614bbc81614b80565b9050919050565b7f4f6e6c79206e6f74206f776e657273206f662074686973204974656d00000000600082015250565b6000614bf9601c83613d44565b9150614c0482614bc3565b602082019050919050565b60006020820190508181036000830152614c2881614bec565b9050919050565b7f4f6e6c7920637573746f6d6572206163636f756e747300000000000000000000600082015250565b6000614c65601683613d44565b9150614c7082614c2f565b602082019050919050565b60006020820190508181036000830152614c9481614c58565b9050919050565b7f4974656d206973206e6f74207075726368617361626c65000000000000000000600082015250565b6000614cd1601783613d44565b9150614cdc82614c9b565b602082019050919050565b60006020820190508181036000830152614d0081614cc4565b9050919050565b7f4d75737420706179206974656d20707269636500000000000000000000000000600082015250565b6000614d3d601383613d44565b9150614d4882614d07565b602082019050919050565b60006020820190508181036000830152614d6c81614d30565b9050919050565b7f4974656d20657870697265640000000000000000000000000000000000000000600082015250565b6000614da9600c83613d44565b9150614db482614d73565b602082019050919050565b60006020820190508181036000830152614dd881614d9c565b9050919050565b7f4f7574206f662073746f636b0000000000000000000000000000000000000000600082015250565b6000614e15600c83613d44565b9150614e2082614ddf565b602082019050919050565b60006020820190508181036000830152614e4481614e08565b9050919050565b600081905092915050565b50565b6000614e66600083614e4b565b9150614e7182614e56565b600082019050919050565b6000614e8782614e59565b9150819050919050565b7f4661696c656420746f2073656e64204574686572000000000000000000000000600082015250565b6000614ec7601483613d44565b9150614ed282614e91565b602082019050919050565b60006020820190508181036000830152614ef681614eba565b9050919050565b7f4d75737420726577617264207374616b65727300000000000000000000000000600082015250565b6000614f33601383613d44565b9150614f3e82614efd565b602082019050919050565b60006020820190508181036000830152614f6281614f26565b9050919050565b7f4e487b7100000000000000000000000000000000000000000000000000000000600052601260045260246000fd5b6000614fa382613df4565b9150614fae83613df4565b925082614fbe57614fbd614f69565b5b828204905092915050565b6000614fd482613df4565b91507fffffffffffffffffffffffffffffffffffffffffffffffffffffffffffffffff821415615007576150066145f9565b5b600182019050919050565b600061ffff82169050919050565b600061502b82615012565b915061ffff8214156150405761503f6145f9565b5b600182019050919050565b600061505682613df4565b915061506183613df4565b92508261507157615070614f69565b5b82820690509291505056fea264697066735822122045481ef51f9d5765d483df62523b2b984740107795d1b92aa8e70af859a9b3be64736f6c634300080c0033",
  "immutableReferences": {},
  "source": "//// SPDX-License-Identifier: MIT\npragma solidity ^0.8.6;\nimport \"./TopToken.sol\";\nimport \"./TopStake.sol\";\n\n\ncontract TopShelf {\n    struct Item {\n        string name;\n        string description;\n        string URI;\n        bool paused;\n        uint256 price;\n        uint256 stock;\n        uint256 leaseDuration;  // Seconds before needing to renew\n        uint256 dateCreated;\n        // uint256 timesPurchased;\n    }\n\n    address private deployer;\n    string public name;\n    string public symbol;\n    uint256 public totalSupply;\n    uint256 public listFee;  // ETH paid to contract for minting items\n    uint256 public transferFee;  // ETH paid to contract for transferring items to another address\n    uint256 public foreclosureFee;  // Tokens paid to take ownership away from delinquent seller\n    uint256 public buyReward;  // Tokens paid to contract to foreclose delinquent items\n    uint256 public defaultLeaseDuration;  // Lease period in seconds for newly minted items\n    uint256 public renewalRatio;  // Number of seconds per token given to items' lease duration (bonus for number of stakers?)\n    uint256 public stakerReward;  // Tokens paid to item stakers per user buying item\n    // uint256 public stakeLeaseReward;  // Adding of stake to item adds lease duration by n seconds (DEFAULT IS 1)\n    // uint256 public unstakePenalty;  // Removal of stake from item lowers lease duration by 1/(2**n)\n    mapping(uint256=>address) public itemOwner;  // itemId to owner address\n    mapping(uint256=>address) public itemOperator;  // itemId to approved operator's address\n    mapping(address=>address) public ownerOperator;  // Operator for all items owned by this address\n    mapping(address=>uint256) public ownerItemCount;  // Owner address to number of items held\n    TopToken token;  // address of TOPS token\n    // TopStake topstake;  // address of TOPS staking\n    Item[] public listings;\n\n    modifier onlyDeployer(){require(msg.sender == deployer, \"Only deployer\"); _;}\n    modifier onlyOwnerOf(uint256 _itemId){require(msg.sender == itemOwner[_itemId], \"Only Item Owner\"); _;}  // add approved operators\n    modifier notOwnerOf(uint256 _itemId){require(msg.sender != itemOwner[_itemId], \"Only not owners of this Item\"); _;}  // add approved operators\n    modifier onlyBuyers(){require(ownerItemCount[msg.sender] == 0, \"Only non-item owning accounts\"); _;}  // Prevent B2B purchases..  // todo preventing buyers somehow??\n    // modifier onlyOperatorsOf(uint256 _itemId){require((msg.sender == itemOperator[_itemId]) || (msg.sender == ownerOperator[itemOwner[_itemId]]), \"Only operators of\"); _;}  // add approved operators\n    modifier itemExists(uint256 _itemId){require(itemOwner[_itemId] != address(0), \"Item must exist\"); _;}  //modifier isDelinquent(uint256 _itemId){Item memory item = listings[_itemId]; require(item.dateCreated+item.leaseDuration<=block.timestamp, \"Item is not delinquent\"); _;} // Use storage here?\n    modifier notNullAddress(address _to){require(_to != address(0), \"Mint to the zero address\"); _;}\n    // EVENTS\n    event TestSender(address indexed _sender);\n    event Approval(address indexed _owner, address indexed _approved, uint256 indexed _tokenId);  // todo\n    event ApprovalForAll(address indexed _owner, address indexed _operator, bool _approved);  // todo\n    event Transfer(address indexed _from, address indexed _to, uint256 indexed _itemId);  // todo allow transfers?\n    event ItemPurchased(address indexed _buyer, uint256 indexed _itemId);\n    event StakerRewarded(uint256 indexed _itemId, uint256 indexed _randInt, uint256 indexed _amount);\n    event RenewedItem(address renewer, uint256 indexed _itemId, uint256 indexed _seconds);\n    event SelfForeclosedItem(uint256 indexed _itemId);\n    event ItemForeclosed(uint256 indexed _itemId);\n    event PausedItem(uint256 indexed _itemId);  // event ItemPurchasedToken(address indexed _buyer, uint256 indexed _itemId);\n\n    // CONSTRUCTOR\n    constructor(string memory _name, string memory _symbol, TopToken _token, uint256 _listFee, uint256 _transferFee,\n        uint256 _foreclosureFee,  uint256 _stakerReward, uint256 _buyReward, uint256 _defaultLeaseDuration,\n        uint256 _renewalRatio) { //uint256 _unstakePenalty,\n        name = _name;\n        symbol = _symbol;\n        deployer = msg.sender;\n        token = _token;\n        listFee = _listFee;  // WEI ~10 dollars (higher = more good items but less overall)\n        transferFee = _transferFee;\n        foreclosureFee = _foreclosureFee;  // 10 tokens (set higher to slow down foreclosures, depends on inflation)\n        stakerReward = _stakerReward;\n        buyReward = _buyReward;  // Tokens rewarded to buyers\n        defaultLeaseDuration = _defaultLeaseDuration;  // 604800 is 7 days\n        renewalRatio = _renewalRatio;  // 1 token = 1 day  (Set higher for favoring consumers over producers)\n    }\n    // SETTERS\n    function setTokenAddress(address _address) external onlyDeployer(){token = TopToken(_address);}\n    // function setStakingAddress(address _address) external onlyDeployer(){topstake = TopStake(_address);}\n    function setTransferFee(uint256 _amount) external onlyDeployer(){transferFee = _amount;}\n    function setListFee(uint256 _amount) external onlyDeployer(){listFee = _amount;}\n    function setDefaultLeaseDuration(uint256 _seconds) external onlyDeployer(){defaultLeaseDuration = _seconds;}\n    function setRenewalRatio(uint256 _tokenSeconds) external onlyDeployer(){renewalRatio = _tokenSeconds;}\n    function setForeclosureFee(uint256 _amount) external onlyDeployer(){foreclosureFee = _amount;}\n    function setBuyReward(uint256 _amount) external onlyDeployer(){buyReward = _amount;}\n    // READ VARIABLES\n    function balanceOf(address _owner) public view notNullAddress(_owner) returns (uint256) {return ownerItemCount[_owner];}\n    function ownerOf(uint256 _itemId) public view itemExists(_itemId) returns (address) {return itemOwner[_itemId];}\n    function itemExpiryDate(uint256 _itemId) public view returns(uint256){Item memory item = listings[_itemId]; return item.dateCreated+item.leaseDuration;} // item.dateCreated+item.leaseDuration-block.timestamp;}\n    function itemDelinquent(uint256 _itemId) public view returns(bool){Item memory item = listings[_itemId]; return (item.dateCreated+item.leaseDuration)<=block.timestamp;}\n    function getOwnerItems(address owner) external view returns(uint[] memory){\n        uint[] memory result = new uint[](ownerItemCount[owner]);\n        uint counter = 0;\n        for(uint16 i=0; i<listings.length; i++){\n            if (ownerOf(i)==owner){\n                result[counter] = i;\n                counter++;\n            }\n        }\n        return result;\n    }\n    function getBalance() public view returns (uint) {return address(this).balance;}\n    function withdraw(uint256 _amount) public onlyDeployer() returns(bool){require(_amount<=address(this).balance); return payable(msg.sender).send(_amount) ;}\n\n    // FUNCTIONS\n    function mint(string memory _name, string memory _description, string memory _URI, uint256 _price, bool _paused,  uint256 _stock) external payable returns(uint256){ // notNullAddress(_to)\n        require(msg.value >= listFee, \"Must pay mint fee\");\n        address _to = msg.sender;\n        listings.push();  //Item memory item = Item(_name, _description, _URI, _paused, _price, _stock, defaultLeaseDuration, block.timestamp, 0, 0);  // uninitialized set to default? //listings[itemId] = Item(_name, _description, _URI, _paused, _price, _stock, defaultLeaseDuration, block.timestamp, 0, 0);\n        uint256 itemId = listings.length - 1;\n        Item storage item = listings[itemId];\n        item.name = _name;\n        item.description = _description;\n        item.URI = _URI;\n        item.stock = _stock;\n        item.paused = _paused;\n        item.price = _price;  // Ether cost in WEI\n        item.dateCreated = block.timestamp;\n        item.leaseDuration = defaultLeaseDuration;\n        // Item item = Item(_name, _description, _URI, _stock, _paused, _price, block.timestamp, defaultLeaseDuration)  // TODO check no empty values are passed\n        itemOwner[totalSupply] = _to;  // starts at itemId 0 for item[] indexing\n        itemOperator[totalSupply] = _to;  // Overwrite item Operators\n        ownerItemCount[_to] += 1;  // Increase number that address owns\n        emit Transfer(address(0), _to, totalSupply);\n        totalSupply += 1;\n        return totalSupply;\n    }\n    function buyItem(uint256 _itemId) external payable itemExists(_itemId) notOwnerOf(_itemId) returns(bool){ // onlyBuyers()*\n        require(ownerItemCount[msg.sender] == 0, \"Only customer accounts\");\n        Item storage item = listings[_itemId];\n        require(!item.paused, \"Item is not purchasable\");\n        require(msg.value >= item.price, \"Must pay item price\");\n        require(!itemDelinquent(_itemId), \"Item expired\");\n        require(item.stock > 0, \"Out of stock\");\n\n        address payable seller = payable(ownerOf(_itemId));  // Forward buyer payment to seller\n        (bool sent, ) = seller.call{value: msg.value}(\"\");   // todo return excess payment?\n        require(sent, \"Failed to send Ether\");\n        \n        item.stock -= 1;\n        uint256 reward = (buyReward * msg.value);\n        require(rewardStakers(_itemId, reward), \"Must reward stakers\");\n        token.mint(msg.sender, reward);  // Reward buyer\n\n        emit ItemPurchased(msg.sender, _itemId);\n        return true;\n    }\n    function renewItem(uint256 _itemId, uint256 _tokenAmount) onlyOwnerOf(_itemId) public {  // TEST BURNING\n        token.burnFrom(msg.sender, _tokenAmount);  // todo will this throw if msg.sender doesn't have tokens?\n        Item storage item = listings[_itemId];\n        uint256 _seconds = (_tokenAmount*renewalRatio)/1e18;\n        item.leaseDuration += _seconds;  // _tokenAmount in WEI, remove decimals for units\n        emit RenewedItem(msg.sender, _itemId, _seconds);\n    }\n    function forecloseItem(uint256 _itemId) public returns(bool){\n        Item memory item = listings[_itemId]; \n        require(item.dateCreated+item.leaseDuration<=block.timestamp, \"Item is not delinquent\");\n        token.transferFrom(msg.sender, address(this), foreclosureFee);  // User pays foreclosure fee in tokens\n        address owner = itemOwner[_itemId];\n        _transfer(owner, msg.sender, _itemId);\n        listings[_itemId].leaseDuration += (1*renewalRatio);\n        return true;\n    }\n    function forecloseRenovate(uint256 _itemId, string memory _name, uint256 _price, string memory _description) public returns(bool){\n        bool success = forecloseItem(_itemId);\n        if (success){\n            Item storage item = listings[_itemId];\n            item.name = _name;\n            item.price = _price;\n            item.description = _description;\n            // item.timesPurchased = 0;\n            item.leaseDuration = defaultLeaseDuration;\n            item.dateCreated = block.timestamp;\n        }\n        return success;\n    }\n\n    // ITEM SETTERS\n    function changeItemPrice(uint256 _itemId, uint256 _price) external onlyOwnerOf(_itemId) returns(bool){\n        Item storage item = listings[_itemId];\n        item.price = _price;\n        return true;\n    }\n    function pausePlayItem(uint256 _itemId, bool _state) external onlyOwnerOf(_itemId) returns(bool){\n        Item storage item = listings[_itemId];\n        item.paused = _state;\n        return true;\n    }\n    function selfForecloseItem(uint256 _itemId) external onlyOwnerOf(_itemId) returns(bool){\n        Item storage item = listings[_itemId];\n        uint256 difference = block.timestamp - item.dateCreated;\n        require(difference>=0);\n        item.leaseDuration = difference;\n        item.paused = true;\n        return true;\n    }\n    function _transfer(address _from, address _to, uint256 _itemId) private notNullAddress(_to) {\n        ownerItemCount[_from] -= 1;\n        itemOwner[_itemId] = _to;\n        itemOperator[_itemId] = _to;  // Overwrite item Operators\n        ownerItemCount[_to] += 1;\n        emit Transfer(_from, _to, _itemId);\n    }\n    function transfer(address _to, uint256 _itemId) external onlyOwnerOf(_itemId) {\n        require(false, \"Error: Transferring listings is not supported. Use forecloseItem to delete listing.\");\n        token.transfer(address(this), transferFee);  // May cause userOperator to pay instead of user\n        _transfer(msg.sender, _to, _itemId);\n    }\n\n// STAKING CONTRACT\n    struct Stake{\n        address Address;\n        uint256 Amount;\n    }\n    mapping(uint256 => mapping(uint256 => Stake)) public itemStake;   \n    mapping(uint256 => mapping(address => uint256)) public itemStakerId;  // itemId to address to stakeIndex (user's stakeId for their item investment) [This is used as the storage limiter for ISAs, everything after is not considered]\n    mapping(uint256 => uint256) public itemTotalStakers;  // itemId to number of staker\n    mapping(uint256 => uint256) public itemTotalStake;  // itemId to number of stakes \n\n    mapping(address => uint256) public stakerTotalStaked;  // ItemId to stakerAddress to stakeAmount (amount of investment user made)\n    mapping(address => uint256) public stakerTotalStakes;  // Address to itemId to stakeIndex (number of investments user has)\n\n    event StakeAdded(address indexed _staker, uint256 indexed _itemId, uint256 indexed _amount);\n    event StakeRemoved(address indexed _staker, uint256 indexed _itemId, uint256 indexed _amount);\n\n    function addItemStake(uint256 _itemId, uint256 _amount) external itemExists(_itemId) returns(bool){  /*onlyBuyers(msg.sender)*/ \n        require(_amount>0, 'Must stake tokens');\n\n        token.burnFrom(msg.sender, _amount);\n        uint256 stakeId = itemStakerId[_itemId][msg.sender];  // Find their stakeId for an item\n        if (stakeId != 0){  // They've already staked\n            itemStake[_itemId][stakeId].Amount += _amount;\n        } else{  // New staker\n            stakerTotalStakes[msg.sender] +=1;  // Add to the number of stakes user has\n\n            itemTotalStakers[_itemId] += 1;  // Add to the number of stakers item has\n            itemStakerId[_itemId][msg.sender] = itemTotalStakers[_itemId]; // Update their stakeId to numStakers+1 //stakeId = itemTotalStakers[_itemId];  // DOES THIS UPDATE STORAGE??\n            itemStake[_itemId][itemTotalStakers[_itemId]].Address = msg.sender;\n            itemStake[_itemId][itemTotalStakers[_itemId]].Amount += _amount;\n        }\n        stakerTotalStaked[msg.sender] += _amount;\n        itemTotalStake[_itemId] += _amount;   // leaseDuration += _amount;  // (_amount*renewalRatio);\n\n        emit StakeAdded(msg.sender, _itemId, _amount);\n        return true;\n    }\n\n    function removeItemStake(uint256 _itemId, uint256 _amount) external returns(bool){ // if remove all stake just move last user to vacant spot\n        uint256 stakeId = itemStakerId[_itemId][msg.sender];\n        require(stakeId !=0, \"Must stake before unstaking\");\n        \n        uint256 userStake = itemStake[_itemId][stakeId].Amount;\n        require(userStake >= _amount, \"Cannot unstake more than is staked\");\n        userStake -= _amount;  // does this change storage?  // leaseDuration -= _amount; //1 >> _amount;  // Un-stake penalty is half of stake leaseDuration reward (exploitable)\n        \n        stakerTotalStaked[msg.sender] -= _amount;\n        itemTotalStake[_itemId] -= _amount;\n        uint256 thisItemTotalStakers = itemTotalStakers[_itemId];\n        \n        if (userStake == 0){  // User is removing all of item stake\n            stakerTotalStakes[msg.sender] -= 1;\n            if (stakeId == thisItemTotalStakers){  // Exiting staker is also last staker, just disregard them and after\n                itemStakerId[_itemId][msg.sender] = 0;\n            } else{  // Exiting staker leaves hole, fill it with last staker's info\n                address lastStaker = itemStake[_itemId][thisItemTotalStakers].Address;\n                itemStake[_itemId][stakeId].Address = lastStaker;\n                itemStake[_itemId][stakeId].Amount = itemStake[_itemId][thisItemTotalStakers].Amount;\n                itemStakerId[_itemId][lastStaker] = stakeId;\n            }\n            thisItemTotalStakers -= 1;  // Every stake after this index is disregarded\n        }\n        token.mint(msg.sender, _amount);\n        emit StakeRemoved(msg.sender, _itemId, _amount);\n        return true;\n    }\n\n    function rewardStakers(uint256 _itemId, uint256 _reward) private returns(bool){ // private?  // https://en.wikipedia.org/wiki/Modulo_operation#Performance_issues + https://medium.com/coinmonks/math-in-solidity-part-5-exponent-and-logarithm-9aef8515136e#ebd5\n        uint256 totalStakers = itemTotalStakers[_itemId];\n        if (totalStakers > 0){  // uint256 randomInt = 1;  // _item.itemStakeAddresses.length%((block.timestamp%10)+1);  // uint256 randomInt = (block.timestamp & ((1 << _item.itemStakeAddresses.length)-1))+1;  // TODO random int from oracle (0->n]\n            uint256 randomInt = uint(blockhash(block.number - 1)) % totalStakers; //itemStakeAddresses[_itemId].length;\n            Stake storage randStake = itemStake[_itemId][randomInt];\n            address stakerAddress = randStake.Address;\n            uint256 stakerAmount = randStake.Amount;\n\n            uint256 reward = (stakerReward *_reward) * (stakerAmount/itemTotalStake[_itemId]);  // Reward proportional to other stakers and price of the item\n            emit StakerRewarded(_itemId, randomInt, reward);\n            // token.mint(stakerAddress, reward);  // Reward curator in token\n        }\n        return true;\n    }\n}",
  "sourcePath": "/Users/alexa/PycharmProjects/VsShelf/src/contracts/TopShelf.sol",
  "compiler": {
    "name": "solc",
    "version": "0.8.12+commit.f00d7308.Emscripten.clang"
  },
  "schemaVersion": "3.4.4",
  "updatedAt": "2022-03-14T20:08:03.265Z",
  "networkType": "ethereum",
  "devdoc": {
    "kind": "dev",
    "methods": {},
    "version": 1
  },
  "userdoc": {
    "kind": "user",
    "methods": {},
    "version": 1
  }
}