{
  "contractName": "TopToken",
  "abi": [
    {
      "inputs": [
        {
          "internalType": "string",
          "name": "_name",
          "type": "string"
        },
        {
          "internalType": "string",
          "name": "_symbol",
          "type": "string"
        },
        {
          "internalType": "uint256",
          "name": "_decimals",
          "type": "uint256"
        },
        {
          "internalType": "uint256",
          "name": "_fee",
          "type": "uint256"
        }
      ],
      "stateMutability": "nonpayable",
      "type": "constructor"
    },
    {
      "anonymous": false,
      "inputs": [
        {
          "indexed": true,
          "internalType": "address",
          "name": "_owner",
          "type": "address"
        },
        {
          "indexed": true,
          "internalType": "address",
          "name": "_spender",
          "type": "address"
        },
        {
          "indexed": false,
          "internalType": "uint256",
          "name": "_value",
          "type": "uint256"
        }
      ],
      "name": "Approval",
      "type": "event"
    },
    {
      "anonymous": false,
      "inputs": [
        {
          "indexed": true,
          "internalType": "address",
          "name": "from",
          "type": "address"
        },
        {
          "indexed": true,
          "internalType": "address",
          "name": "to",
          "type": "address"
        }
      ],
      "name": "MinterChanged",
      "type": "event"
    },
    {
      "anonymous": false,
      "inputs": [
        {
          "indexed": true,
          "internalType": "address",
          "name": "from",
          "type": "address"
        },
        {
          "indexed": true,
          "internalType": "address",
          "name": "to",
          "type": "address"
        },
        {
          "indexed": false,
          "internalType": "uint256",
          "name": "value",
          "type": "uint256"
        }
      ],
      "name": "Transfer",
      "type": "event"
    },
    {
      "inputs": [],
      "name": "admin",
      "outputs": [
        {
          "internalType": "address",
          "name": "",
          "type": "address"
        }
      ],
      "stateMutability": "view",
      "type": "function"
    },
    {
      "inputs": [],
      "name": "decimals",
      "outputs": [
        {
          "internalType": "uint256",
          "name": "",
          "type": "uint256"
        }
      ],
      "stateMutability": "view",
      "type": "function"
    },
    {
      "inputs": [],
      "name": "name",
      "outputs": [
        {
          "internalType": "string",
          "name": "",
          "type": "string"
        }
      ],
      "stateMutability": "view",
      "type": "function"
    },
    {
      "inputs": [],
      "name": "symbol",
      "outputs": [
        {
          "internalType": "string",
          "name": "",
          "type": "string"
        }
      ],
      "stateMutability": "view",
      "type": "function"
    },
    {
      "inputs": [],
      "name": "totalSupply",
      "outputs": [
        {
          "internalType": "uint256",
          "name": "",
          "type": "uint256"
        }
      ],
      "stateMutability": "view",
      "type": "function"
    },
    {
      "inputs": [],
      "name": "transferFee",
      "outputs": [
        {
          "internalType": "uint256",
          "name": "",
          "type": "uint256"
        }
      ],
      "stateMutability": "view",
      "type": "function"
    },
    {
      "inputs": [
        {
          "internalType": "address",
          "name": "owner",
          "type": "address"
        }
      ],
      "name": "balanceOf",
      "outputs": [
        {
          "internalType": "uint256",
          "name": "",
          "type": "uint256"
        }
      ],
      "stateMutability": "view",
      "type": "function"
    },
    {
      "inputs": [
        {
          "internalType": "address",
          "name": "owner",
          "type": "address"
        },
        {
          "internalType": "address",
          "name": "spender",
          "type": "address"
        }
      ],
      "name": "allowance",
      "outputs": [
        {
          "internalType": "uint256",
          "name": "",
          "type": "uint256"
        }
      ],
      "stateMutability": "view",
      "type": "function"
    },
    {
      "inputs": [
        {
          "internalType": "uint256",
          "name": "_fee",
          "type": "uint256"
        }
      ],
      "name": "setTransferFee",
      "outputs": [],
      "stateMutability": "nonpayable",
      "type": "function"
    },
    {
      "inputs": [
        {
          "internalType": "address",
          "name": "topstake",
          "type": "address"
        }
      ],
      "name": "passMinterRole",
      "outputs": [
        {
          "internalType": "bool",
          "name": "",
          "type": "bool"
        }
      ],
      "stateMutability": "nonpayable",
      "type": "function"
    },
    {
      "inputs": [
        {
          "internalType": "address",
          "name": "to",
          "type": "address"
        },
        {
          "internalType": "uint256",
          "name": "value",
          "type": "uint256"
        }
      ],
      "name": "transfer",
      "outputs": [
        {
          "internalType": "bool",
          "name": "",
          "type": "bool"
        }
      ],
      "stateMutability": "nonpayable",
      "type": "function"
    },
    {
      "inputs": [
        {
          "internalType": "address",
          "name": "from",
          "type": "address"
        },
        {
          "internalType": "address",
          "name": "to",
          "type": "address"
        },
        {
          "internalType": "uint256",
          "name": "value",
          "type": "uint256"
        }
      ],
      "name": "transferFrom",
      "outputs": [
        {
          "internalType": "bool",
          "name": "",
          "type": "bool"
        }
      ],
      "stateMutability": "nonpayable",
      "type": "function"
    },
    {
      "inputs": [
        {
          "internalType": "address",
          "name": "spender",
          "type": "address"
        },
        {
          "internalType": "uint256",
          "name": "value",
          "type": "uint256"
        }
      ],
      "name": "approve",
      "outputs": [
        {
          "internalType": "bool",
          "name": "",
          "type": "bool"
        }
      ],
      "stateMutability": "nonpayable",
      "type": "function"
    },
    {
      "inputs": [
        {
          "internalType": "address",
          "name": "spender",
          "type": "address"
        },
        {
          "internalType": "uint256",
          "name": "addedValue",
          "type": "uint256"
        }
      ],
      "name": "increaseAllowance",
      "outputs": [
        {
          "internalType": "bool",
          "name": "",
          "type": "bool"
        }
      ],
      "stateMutability": "nonpayable",
      "type": "function"
    },
    {
      "inputs": [
        {
          "internalType": "address",
          "name": "spender",
          "type": "address"
        },
        {
          "internalType": "uint256",
          "name": "subtractedValue",
          "type": "uint256"
        }
      ],
      "name": "decreaseAllowance",
      "outputs": [
        {
          "internalType": "bool",
          "name": "",
          "type": "bool"
        }
      ],
      "stateMutability": "nonpayable",
      "type": "function"
    },
    {
      "inputs": [
        {
          "internalType": "address",
          "name": "account",
          "type": "address"
        },
        {
          "internalType": "uint256",
          "name": "amount",
          "type": "uint256"
        }
      ],
      "name": "mint",
      "outputs": [],
      "stateMutability": "nonpayable",
      "type": "function"
    },
    {
      "inputs": [
        {
          "internalType": "address",
          "name": "account",
          "type": "address"
        },
        {
          "internalType": "uint256",
          "name": "amount",
          "type": "uint256"
        }
      ],
      "name": "burn",
      "outputs": [],
      "stateMutability": "nonpayable",
      "type": "function"
    },
    {
      "inputs": [
        {
          "internalType": "address",
          "name": "account",
          "type": "address"
        },
        {
          "internalType": "uint256",
          "name": "amount",
          "type": "uint256"
        }
      ],
      "name": "burnFrom",
      "outputs": [],
      "stateMutability": "nonpayable",
      "type": "function"
    }
  ],
  "bytecode": "0x60806040523480156200001157600080fd5b50604051620026153803806200261583398181016040528101906200003791906200034a565b83600090805190602001906200004f929190620000c2565b50826001908051906020019062000068929190620000c2565b508160038190555033600260006101000a81548173ffffffffffffffffffffffffffffffffffffffff021916908373ffffffffffffffffffffffffffffffffffffffff16021790555080600481905550505050506200045f565b828054620000d09062000429565b90600052602060002090601f016020900481019282620000f4576000855562000140565b82601f106200010f57805160ff191683800117855562000140565b8280016001018555821562000140579182015b828111156200013f57825182559160200191906001019062000122565b5b5090506200014f919062000153565b5090565b5b808211156200016e57600081600090555060010162000154565b5090565b6000604051905090565b600080fd5b600080fd5b600080fd5b600080fd5b6000601f19601f8301169050919050565b7f4e487b7100000000000000000000000000000000000000000000000000000000600052604160045260246000fd5b620001db8262000190565b810181811067ffffffffffffffff82111715620001fd57620001fc620001a1565b5b80604052505050565b60006200021262000172565b9050620002208282620001d0565b919050565b600067ffffffffffffffff821115620002435762000242620001a1565b5b6200024e8262000190565b9050602081019050919050565b60005b838110156200027b5780820151818401526020810190506200025e565b838111156200028b576000848401525b50505050565b6000620002a8620002a28462000225565b62000206565b905082815260208101848484011115620002c757620002c66200018b565b5b620002d48482856200025b565b509392505050565b600082601f830112620002f457620002f362000186565b5b81516200030684826020860162000291565b91505092915050565b6000819050919050565b62000324816200030f565b81146200033057600080fd5b50565b600081519050620003448162000319565b92915050565b600080600080608085870312156200036757620003666200017c565b5b600085015167ffffffffffffffff81111562000388576200038762000181565b5b6200039687828801620002dc565b945050602085015167ffffffffffffffff811115620003ba57620003b962000181565b5b620003c887828801620002dc565b9350506040620003db8782880162000333565b9250506060620003ee8782880162000333565b91505092959194509250565b7f4e487b7100000000000000000000000000000000000000000000000000000000600052602260045260246000fd5b600060028204905060018216806200044257607f821691505b60208210811415620004595762000458620003fa565b5b50919050565b6121a6806200046f6000396000f3fe608060405234801561001057600080fd5b50600436106101165760003560e01c80638f02bb5b116100a2578063a9059cbb11610071578063a9059cbb146102f3578063acb2ad6f14610323578063d7fc5b1514610341578063dd62ed3e14610371578063f851a440146103a157610116565b80638f02bb5b1461026d57806395d89b41146102895780639dc29fac146102a7578063a457c2d7146102c357610116565b8063313ce567116100e9578063313ce567146101b757806339509351146101d557806340c10f191461020557806370a082311461022157806379cc67901461025157610116565b806306fdde031461011b578063095ea7b31461013957806318160ddd1461016957806323b872dd14610187575b600080fd5b6101236103bf565b6040516101309190611b7c565b60405180910390f35b610153600480360381019061014e9190611c37565b61044d565b6040516101609190611c92565b60405180910390f35b6101716105b1565b60405161017e9190611cbc565b60405180910390f35b6101a1600480360381019061019c9190611cd7565b6105bb565b6040516101ae9190611c92565b60405180910390f35b6101bf610869565b6040516101cc9190611cbc565b60405180910390f35b6101ef60048036038101906101ea9190611c37565b61086f565b6040516101fc9190611c92565b60405180910390f35b61021f600480360381019061021a9190611c37565b610ad6565b005b61023b60048036038101906102369190611d2a565b610b74565b6040516102489190611cbc565b60405180910390f35b61026b60048036038101906102669190611c37565b610bbd565b005b61028760048036038101906102829190611d57565b610c5b565b005b610291610cf5565b60405161029e9190611b7c565b60405180910390f35b6102c160048036038101906102bc9190611c37565b610d83565b005b6102dd60048036038101906102d89190611c37565b610e21565b6040516102ea9190611c92565b60405180910390f35b61030d60048036038101906103089190611c37565b611088565b60405161031a9190611c92565b60405180910390f35b61032b611214565b6040516103389190611cbc565b60405180910390f35b61035b60048036038101906103569190611d2a565b61121e565b6040516103689190611c92565b60405180910390f35b61038b60048036038101906103869190611d84565b611354565b6040516103989190611cbc565b60405180910390f35b6103a96113db565b6040516103b69190611dd3565b60405180910390f35b600080546103cc90611e1d565b80601f01602080910402602001604051908101604052809291908181526020018280546103f890611e1d565b80156104455780601f1061041a57610100808354040283529160200191610445565b820191906000526020600020905b81548152906001019060200180831161042857829003601f168201915b505050505081565b600082600073ffffffffffffffffffffffffffffffffffffffff168173ffffffffffffffffffffffffffffffffffffffff1614156104c0576040517f08c379a00000000000000000000000000000000000000000000000000000000081526004016104b790611ec1565b60405180910390fd5b82600760003373ffffffffffffffffffffffffffffffffffffffff1673ffffffffffffffffffffffffffffffffffffffff16815260200190815260200160002060008673ffffffffffffffffffffffffffffffffffffffff1673ffffffffffffffffffffffffffffffffffffffff168152602001908152602001600020819055508373ffffffffffffffffffffffffffffffffffffffff163373ffffffffffffffffffffffffffffffffffffffff167f8c5be1e5ebec7d5bd14f71427d1e84f3dd0314c0f7b2291e5b200ac8c7c3b9258560405161059e9190611cbc565b60405180910390a3600191505092915050565b6000600554905090565b60008073ffffffffffffffffffffffffffffffffffffffff168373ffffffffffffffffffffffffffffffffffffffff16141561062c576040517f08c379a000000000000000000000000000000000000000000000000000000000815260040161062390611f2d565b60405180910390fd5b81600660008673ffffffffffffffffffffffffffffffffffffffff1673ffffffffffffffffffffffffffffffffffffffff168152602001908152602001600020600082825461067b9190611f7c565b9250508190555081600660008573ffffffffffffffffffffffffffffffffffffffff1673ffffffffffffffffffffffffffffffffffffffff168152602001908152602001600020546106cd9190611fb0565b600660008573ffffffffffffffffffffffffffffffffffffffff1673ffffffffffffffffffffffffffffffffffffffff16815260200190815260200160002081905550600260009054906101000a900473ffffffffffffffffffffffffffffffffffffffff1673ffffffffffffffffffffffffffffffffffffffff163373ffffffffffffffffffffffffffffffffffffffff16146107f95781600760008673ffffffffffffffffffffffffffffffffffffffff1673ffffffffffffffffffffffffffffffffffffffff16815260200190815260200160002060003373ffffffffffffffffffffffffffffffffffffffff1673ffffffffffffffffffffffffffffffffffffffff16815260200190815260200160002060008282546107f19190611f7c565b925050819055505b8273ffffffffffffffffffffffffffffffffffffffff168473ffffffffffffffffffffffffffffffffffffffff167fddf252ad1be2c89b69c2b068fc378daa952ba7f163c4a11628f55a4df523b3ef846040516108569190611cbc565b60405180910390a3600190509392505050565b60035481565b600082600073ffffffffffffffffffffffffffffffffffffffff168173ffffffffffffffffffffffffffffffffffffffff1614156108e2576040517f08c379a00000000000000000000000000000000000000000000000000000000081526004016108d990611ec1565b60405180910390fd5b82600760003373ffffffffffffffffffffffffffffffffffffffff1673ffffffffffffffffffffffffffffffffffffffff16815260200190815260200160002060008673ffffffffffffffffffffffffffffffffffffffff1673ffffffffffffffffffffffffffffffffffffffff1681526020019081526020016000205461096a9190611fb0565b600760003373ffffffffffffffffffffffffffffffffffffffff1673ffffffffffffffffffffffffffffffffffffffff16815260200190815260200160002060008673ffffffffffffffffffffffffffffffffffffffff1673ffffffffffffffffffffffffffffffffffffffff168152602001908152602001600020819055508373ffffffffffffffffffffffffffffffffffffffff163373ffffffffffffffffffffffffffffffffffffffff167f8c5be1e5ebec7d5bd14f71427d1e84f3dd0314c0f7b2291e5b200ac8c7c3b925600760003373ffffffffffffffffffffffffffffffffffffffff1673ffffffffffffffffffffffffffffffffffffffff16815260200190815260200160002060008873ffffffffffffffffffffffffffffffffffffffff1673ffffffffffffffffffffffffffffffffffffffff16815260200190815260200160002054604051610ac39190611cbc565b60405180910390a3600191505092915050565b600260009054906101000a900473ffffffffffffffffffffffffffffffffffffffff1673ffffffffffffffffffffffffffffffffffffffff163373ffffffffffffffffffffffffffffffffffffffff1614610b66576040517f08c379a0000000000000000000000000000000000000000000000000000000008152600401610b5d90612052565b60405180910390fd5b610b708282611401565b5050565b6000600660008373ffffffffffffffffffffffffffffffffffffffff1673ffffffffffffffffffffffffffffffffffffffff168152602001908152602001600020549050919050565b600260009054906101000a900473ffffffffffffffffffffffffffffffffffffffff1673ffffffffffffffffffffffffffffffffffffffff163373ffffffffffffffffffffffffffffffffffffffff1614610c4d576040517f08c379a0000000000000000000000000000000000000000000000000000000008152600401610c4490612052565b60405180910390fd5b610c57828261157f565b5050565b600260009054906101000a900473ffffffffffffffffffffffffffffffffffffffff1673ffffffffffffffffffffffffffffffffffffffff163373ffffffffffffffffffffffffffffffffffffffff1614610ceb576040517f08c379a0000000000000000000000000000000000000000000000000000000008152600401610ce290612052565b60405180910390fd5b8060048190555050565b60018054610d0290611e1d565b80601f0160208091040260200160405190810160405280929190818152602001828054610d2e90611e1d565b8015610d7b5780601f10610d5057610100808354040283529160200191610d7b565b820191906000526020600020905b815481529060010190602001808311610d5e57829003601f168201915b505050505081565b600260009054906101000a900473ffffffffffffffffffffffffffffffffffffffff1673ffffffffffffffffffffffffffffffffffffffff163373ffffffffffffffffffffffffffffffffffffffff1614610e13576040517f08c379a0000000000000000000000000000000000000000000000000000000008152600401610e0a90612052565b60405180910390fd5b610e1d82826118e3565b5050565b600082600073ffffffffffffffffffffffffffffffffffffffff168173ffffffffffffffffffffffffffffffffffffffff161415610e94576040517f08c379a0000000000000000000000000000000000000000000000000000000008152600401610e8b90611ec1565b60405180910390fd5b82600760003373ffffffffffffffffffffffffffffffffffffffff1673ffffffffffffffffffffffffffffffffffffffff16815260200190815260200160002060008673ffffffffffffffffffffffffffffffffffffffff1673ffffffffffffffffffffffffffffffffffffffff16815260200190815260200160002054610f1c9190611f7c565b600760003373ffffffffffffffffffffffffffffffffffffffff1673ffffffffffffffffffffffffffffffffffffffff16815260200190815260200160002060008673ffffffffffffffffffffffffffffffffffffffff1673ffffffffffffffffffffffffffffffffffffffff168152602001908152602001600020819055508373ffffffffffffffffffffffffffffffffffffffff163373ffffffffffffffffffffffffffffffffffffffff167f8c5be1e5ebec7d5bd14f71427d1e84f3dd0314c0f7b2291e5b200ac8c7c3b925600760003373ffffffffffffffffffffffffffffffffffffffff1673ffffffffffffffffffffffffffffffffffffffff16815260200190815260200160002060008873ffffffffffffffffffffffffffffffffffffffff1673ffffffffffffffffffffffffffffffffffffffff168152602001908152602001600020546040516110759190611cbc565b60405180910390a3600191505092915050565b60008073ffffffffffffffffffffffffffffffffffffffff168373ffffffffffffffffffffffffffffffffffffffff1614156110f9576040517f08c379a00000000000000000000000000000000000000000000000000000000081526004016110f090611f2d565b60405180910390fd5b81600660003373ffffffffffffffffffffffffffffffffffffffff1673ffffffffffffffffffffffffffffffffffffffff16815260200190815260200160002060008282546111489190611f7c565b9250508190555081600660008573ffffffffffffffffffffffffffffffffffffffff1673ffffffffffffffffffffffffffffffffffffffff168152602001908152602001600020600082825461119e9190611fb0565b925050819055508273ffffffffffffffffffffffffffffffffffffffff163373ffffffffffffffffffffffffffffffffffffffff167fddf252ad1be2c89b69c2b068fc378daa952ba7f163c4a11628f55a4df523b3ef846040516112029190611cbc565b60405180910390a36001905092915050565b6000600454905090565b6000600260009054906101000a900473ffffffffffffffffffffffffffffffffffffffff1673ffffffffffffffffffffffffffffffffffffffff163373ffffffffffffffffffffffffffffffffffffffff16146112b0576040517f08c379a00000000000000000000000000000000000000000000000000000000081526004016112a790612052565b60405180910390fd5b81600260006101000a81548173ffffffffffffffffffffffffffffffffffffffff021916908373ffffffffffffffffffffffffffffffffffffffff1602179055508173ffffffffffffffffffffffffffffffffffffffff163373ffffffffffffffffffffffffffffffffffffffff167f3b0007eb941cf645526cbb3a4fdaecda9d28ce4843167d9263b536a1f1edc0f660405160405180910390a360019050919050565b6000600760008473ffffffffffffffffffffffffffffffffffffffff1673ffffffffffffffffffffffffffffffffffffffff16815260200190815260200160002060008373ffffffffffffffffffffffffffffffffffffffff1673ffffffffffffffffffffffffffffffffffffffff16815260200190815260200160002054905092915050565b600260009054906101000a900473ffffffffffffffffffffffffffffffffffffffff1681565b81600073ffffffffffffffffffffffffffffffffffffffff168173ffffffffffffffffffffffffffffffffffffffff161415611472576040517f08c379a000000000000000000000000000000000000000000000000000000000815260040161146990611ec1565b60405180910390fd5b816005546114809190611fb0565b60058190555081600660008573ffffffffffffffffffffffffffffffffffffffff1673ffffffffffffffffffffffffffffffffffffffff168152602001908152602001600020546114d19190611fb0565b600660008573ffffffffffffffffffffffffffffffffffffffff1673ffffffffffffffffffffffffffffffffffffffff168152602001908152602001600020819055508273ffffffffffffffffffffffffffffffffffffffff16600073ffffffffffffffffffffffffffffffffffffffff167fddf252ad1be2c89b69c2b068fc378daa952ba7f163c4a11628f55a4df523b3ef846040516115729190611cbc565b60405180910390a3505050565b600760008373ffffffffffffffffffffffffffffffffffffffff1673ffffffffffffffffffffffffffffffffffffffff16815260200190815260200160002060003373ffffffffffffffffffffffffffffffffffffffff1673ffffffffffffffffffffffffffffffffffffffff16815260200190815260200160002054811115806116575750600260009054906101000a900473ffffffffffffffffffffffffffffffffffffffff1673ffffffffffffffffffffffffffffffffffffffff163373ffffffffffffffffffffffffffffffffffffffff16145b611696576040517f08c379a000000000000000000000000000000000000000000000000000000000815260040161168d906120e4565b60405180910390fd5b600260009054906101000a900473ffffffffffffffffffffffffffffffffffffffff1673ffffffffffffffffffffffffffffffffffffffff163373ffffffffffffffffffffffffffffffffffffffff16146117f45780600760008473ffffffffffffffffffffffffffffffffffffffff1673ffffffffffffffffffffffffffffffffffffffff16815260200190815260200160002060003373ffffffffffffffffffffffffffffffffffffffff1673ffffffffffffffffffffffffffffffffffffffff168152602001908152602001600020546117739190611f7c565b600760008473ffffffffffffffffffffffffffffffffffffffff1673ffffffffffffffffffffffffffffffffffffffff16815260200190815260200160002060003373ffffffffffffffffffffffffffffffffffffffff1673ffffffffffffffffffffffffffffffffffffffff168152602001908152602001600020819055505b6117fe82826118e3565b3373ffffffffffffffffffffffffffffffffffffffff168273ffffffffffffffffffffffffffffffffffffffff167f8c5be1e5ebec7d5bd14f71427d1e84f3dd0314c0f7b2291e5b200ac8c7c3b925600760008673ffffffffffffffffffffffffffffffffffffffff1673ffffffffffffffffffffffffffffffffffffffff16815260200190815260200160002060003373ffffffffffffffffffffffffffffffffffffffff1673ffffffffffffffffffffffffffffffffffffffff168152602001908152602001600020546040516118d79190611cbc565b60405180910390a35050565b81600073ffffffffffffffffffffffffffffffffffffffff168173ffffffffffffffffffffffffffffffffffffffff161415611954576040517f08c379a000000000000000000000000000000000000000000000000000000000815260040161194b90611ec1565b60405180910390fd5b600660008473ffffffffffffffffffffffffffffffffffffffff1673ffffffffffffffffffffffffffffffffffffffff168152602001908152602001600020548211156119d6576040517f08c379a00000000000000000000000000000000000000000000000000000000081526004016119cd90612150565b60405180910390fd5b816005546119e49190611f7c565b60058190555081600660008573ffffffffffffffffffffffffffffffffffffffff1673ffffffffffffffffffffffffffffffffffffffff16815260200190815260200160002054611a359190611f7c565b600660008573ffffffffffffffffffffffffffffffffffffffff1673ffffffffffffffffffffffffffffffffffffffff16815260200190815260200160002081905550600073ffffffffffffffffffffffffffffffffffffffff168373ffffffffffffffffffffffffffffffffffffffff167fddf252ad1be2c89b69c2b068fc378daa952ba7f163c4a11628f55a4df523b3ef84604051611ad69190611cbc565b60405180910390a3505050565b600081519050919050565b600082825260208201905092915050565b60005b83811015611b1d578082015181840152602081019050611b02565b83811115611b2c576000848401525b50505050565b6000601f19601f8301169050919050565b6000611b4e82611ae3565b611b588185611aee565b9350611b68818560208601611aff565b611b7181611b32565b840191505092915050565b60006020820190508181036000830152611b968184611b43565b905092915050565b600080fd5b600073ffffffffffffffffffffffffffffffffffffffff82169050919050565b6000611bce82611ba3565b9050919050565b611bde81611bc3565b8114611be957600080fd5b50565b600081359050611bfb81611bd5565b92915050565b6000819050919050565b611c1481611c01565b8114611c1f57600080fd5b50565b600081359050611c3181611c0b565b92915050565b60008060408385031215611c4e57611c4d611b9e565b5b6000611c5c85828601611bec565b9250506020611c6d85828601611c22565b9150509250929050565b60008115159050919050565b611c8c81611c77565b82525050565b6000602082019050611ca76000830184611c83565b92915050565b611cb681611c01565b82525050565b6000602082019050611cd16000830184611cad565b92915050565b600080600060608486031215611cf057611cef611b9e565b5b6000611cfe86828701611bec565b9350506020611d0f86828701611bec565b9250506040611d2086828701611c22565b9150509250925092565b600060208284031215611d4057611d3f611b9e565b5b6000611d4e84828501611bec565b91505092915050565b600060208284031215611d6d57611d6c611b9e565b5b6000611d7b84828501611c22565b91505092915050565b60008060408385031215611d9b57611d9a611b9e565b5b6000611da985828601611bec565b9250506020611dba85828601611bec565b9150509250929050565b611dcd81611bc3565b82525050565b6000602082019050611de86000830184611dc4565b92915050565b7f4e487b7100000000000000000000000000000000000000000000000000000000600052602260045260246000fd5b60006002820490506001821680611e3557607f821691505b60208210811415611e4957611e48611dee565b5b50919050565b7f4572726f722c207573696e67206e756c6c2061646472657373206e6f7420616c60008201527f6c6f776564000000000000000000000000000000000000000000000000000000602082015250565b6000611eab602583611aee565b9150611eb682611e4f565b604082019050919050565b60006020820190508181036000830152611eda81611e9e565b9050919050565b7f4e6f7420746f206e756c6c000000000000000000000000000000000000000000600082015250565b6000611f17600b83611aee565b9150611f2282611ee1565b602082019050919050565b60006020820190508181036000830152611f4681611f0a565b9050919050565b7f4e487b7100000000000000000000000000000000000000000000000000000000600052601160045260246000fd5b6000611f8782611c01565b9150611f9283611c01565b925082821015611fa557611fa4611f4d565b5b828203905092915050565b6000611fbb82611c01565b9150611fc683611c01565b9250827fffffffffffffffffffffffffffffffffffffffffffffffffffffffffffffffff03821115611ffb57611ffa611f4d565b5b828201905092915050565b7f4572726f722c206f6e6c792061646d696e000000000000000000000000000000600082015250565b600061203c601183611aee565b915061204782612006565b602082019050919050565b6000602082019050818103600083015261206b8161202f565b9050919050565b7f416d6f756e7420746f206275726e2067726561746572207468616e206170707260008201527f6f76656400000000000000000000000000000000000000000000000000000000602082015250565b60006120ce602483611aee565b91506120d982612072565b604082019050919050565b600060208201905081810360008301526120fd816120c1565b9050919050565b7f4572726f723a20496e73756666696369656e742046756e647300000000000000600082015250565b600061213a601983611aee565b915061214582612104565b602082019050919050565b600060208201905081810360008301526121698161212d565b905091905056fea2646970667358221220a6ed6342d5e796d01888d73e0764d9575b9872af66ebc23acc4376dc784e22cf64736f6c634300080c0033",
  "immutableReferences": {},
  "source": "// SPDX-License-Identifier: MIT\npragma solidity ^0.8.6;\n\n// Deployer acts as operator but is not listed in _allowed by default. Ensure it cannot be\n\ncontract TopToken {\n    string public name;\n    string public symbol;\n    address public admin;  // Give privileges to TopShelf\n    uint256 public decimals;\n    uint256 private _transferFee;\n    uint256 private _totalSupply;\n    mapping(address=>uint256) private _balances;  // Keep track balances and allowances approved\n    mapping(address=>mapping(address=>uint256)) private _allowed;\n\n    event Transfer(address indexed from, address indexed to, uint256 value);\n    event Approval(address indexed _owner, address indexed _spender, uint256 _value);\n    event MinterChanged(address indexed from, address indexed to);\n\n    modifier onlyAdmin(){require(msg.sender==admin, 'Error, only admin'); _;}\n    modifier onlyTops(){require(msg.sender==admin, 'Error, only Top contracts'); _;}\n    modifier notNullAddress(address _address){require(_address!=address(0), 'Error, using null address not allowed'); _;}\n    constructor(string memory _name, string memory _symbol, uint256 _decimals, uint256 _fee){\n        name = _name;\n        symbol = _symbol;\n        decimals = _decimals;\n        admin = msg.sender;\n        _transferFee = _fee;\n    }\n    // READ FUNCTIONS\n    function totalSupply() public view returns(uint256){return _totalSupply;}\n    function transferFee() public view returns(uint256){return _transferFee;}\n    function balanceOf(address owner) public view returns(uint256){return _balances[owner];}\n    function allowance(address owner, address spender) public view returns (uint256){return _allowed[owner][spender];}\n    // SET FUNCTIONS\n    function setTransferFee(uint256 _fee) external onlyAdmin(){_transferFee = _fee;}\n    // FUNCTIONS\n    function passMinterRole(address topstake) public onlyAdmin() returns(bool){\n        admin = topstake;\n        emit MinterChanged(msg.sender, topstake);\n        return true;\n    }\n    function transfer(address to, uint256 value) public returns (bool) {\n        // uint256 withFee = _transferFee << value;  // Total cost = value * 2**n (transfer loses 1/(2**n))\n        // require(withFee <= _balances[msg.sender], \"Error: Insufficient funds\");\n        require(to != address(0), \"Not to null\");\n        _balances[msg.sender] -= value;  // withFee\n        _balances[to] += value;\n        emit Transfer(msg.sender, to, value);\n        return true;\n    }\n    function transferFrom(address from, address to, uint256 value) public returns (bool){\n        // uint256 withFee = _transferFee << value;  // Total cost = value * 2**n (transfer loses 1/(2**n))\n        // require(withFee <= _balances[from], \"Error: Insufficient funds\");\n        // require(((withFee <= _allowed[from][msg.sender]) || (msg.sender == admin)), // Always allow TopShelf\n        //     \"Error: transferring more than approved\");\n        require(to != address(0), \"Not to null\");\n\n        _balances[from] -= value;  // withFee\n        _balances[to] = _balances[to] + value;\n        if (msg.sender != admin){  // May be vulnerable\n            _allowed[from][msg.sender] -= value;  //withFee\n        }\n        emit Transfer(from, to, value);\n        return true;\n    }\n    function approve(address spender, uint256 value) public notNullAddress(spender) returns (bool) {\n        _allowed[msg.sender][spender] = value;\n        emit Approval(msg.sender, spender, value);\n        return true;\n    }\n    function increaseAllowance(address spender, uint256 addedValue) public notNullAddress(spender) returns (bool){\n        _allowed[msg.sender][spender] = (_allowed[msg.sender][spender] + addedValue);\n        emit Approval(msg.sender, spender, _allowed[msg.sender][spender]);\n        return true;\n    }\n    function decreaseAllowance(address spender, uint256 subtractedValue) public notNullAddress(spender) returns (bool){\n        _allowed[msg.sender][spender] = (_allowed[msg.sender][spender] - subtractedValue);  // If subtractedValue>approved?\n        emit Approval(msg.sender, spender, _allowed[msg.sender][spender]);\n        return true;\n    }\n    function _mint(address account, uint256 amount) internal notNullAddress(account){\n        _totalSupply = _totalSupply + amount;\n        _balances[account] = _balances[account] + amount;\n        emit Transfer(address(0), account, amount);\n    }\n    function mint(address account, uint256 amount) external onlyAdmin(){\n        _mint(account, amount);\n    }\n\n    function _burn(address account, uint256 amount) internal notNullAddress(account){\n        require(amount <= _balances[account], \"Error: Insufficient Funds\");\n        _totalSupply = _totalSupply - amount;\n        _balances[account] = _balances[account] - amount;\n        emit Transfer(account, address(0), amount);\n    }\n    \n    function burn(address account, uint256 amount) external onlyAdmin(){\n        _burn(account, amount);\n    }\n\n    function _burnFrom(address account, uint256 amount) internal {\n        require(amount <= _allowed[account][msg.sender] || msg.sender==admin, \"Amount to burn greater than approved\");\n        if (msg.sender!=admin){  // Allows burn from to reduce allowances if not called from admin\n            _allowed[account][msg.sender] = _allowed[account][msg.sender] - amount;\n        }\n        _burn(account, amount);\n        emit Approval(account, msg.sender, _allowed[account][msg.sender]);\n    }\n    function burnFrom(address account, uint256 amount) external onlyAdmin(){\n        _burnFrom(account, amount);\n    }\n}",
  "sourcePath": "/Users/alexa/PycharmProjects/VsShelf/src/contracts/TopToken.sol",
  "compiler": {
    "name": "solc",
    "version": "0.8.12+commit.f00d7308.Emscripten.clang"
  },
  "schemaVersion": "3.4.4",
  "updatedAt": "2022-03-01T00:23:27.913Z",
  "devdoc": {
    "kind": "dev",
    "methods": {},
    "version": 1
  },
  "userdoc": {
    "kind": "user",
    "methods": {},
    "version": 1
  }
}