{
  "contractName": "TopToken",
  "abi": [
    {
      "inputs": [
        {
          "internalType": "string",
          "name": "_name",
          "type": "string"
        },
        {
          "internalType": "string",
          "name": "_symbol",
          "type": "string"
        },
        {
          "internalType": "uint256",
          "name": "_decimals",
          "type": "uint256"
        },
        {
          "internalType": "uint256",
          "name": "_fee",
          "type": "uint256"
        }
      ],
      "stateMutability": "nonpayable",
      "type": "constructor"
    },
    {
      "anonymous": false,
      "inputs": [
        {
          "indexed": true,
          "internalType": "address",
          "name": "_owner",
          "type": "address"
        },
        {
          "indexed": true,
          "internalType": "address",
          "name": "_spender",
          "type": "address"
        },
        {
          "indexed": false,
          "internalType": "uint256",
          "name": "_value",
          "type": "uint256"
        }
      ],
      "name": "Approval",
      "type": "event"
    },
    {
      "anonymous": false,
      "inputs": [
        {
          "indexed": true,
          "internalType": "address",
          "name": "from",
          "type": "address"
        },
        {
          "indexed": true,
          "internalType": "address",
          "name": "to",
          "type": "address"
        }
      ],
      "name": "MinterChanged",
      "type": "event"
    },
    {
      "anonymous": false,
      "inputs": [
        {
          "indexed": true,
          "internalType": "address",
          "name": "from",
          "type": "address"
        },
        {
          "indexed": true,
          "internalType": "address",
          "name": "to",
          "type": "address"
        },
        {
          "indexed": false,
          "internalType": "uint256",
          "name": "value",
          "type": "uint256"
        }
      ],
      "name": "Transfer",
      "type": "event"
    },
    {
      "inputs": [],
      "name": "admin",
      "outputs": [
        {
          "internalType": "address",
          "name": "",
          "type": "address"
        }
      ],
      "stateMutability": "view",
      "type": "function",
      "constant": true
    },
    {
      "inputs": [],
      "name": "decimals",
      "outputs": [
        {
          "internalType": "uint256",
          "name": "",
          "type": "uint256"
        }
      ],
      "stateMutability": "view",
      "type": "function",
      "constant": true
    },
    {
      "inputs": [],
      "name": "name",
      "outputs": [
        {
          "internalType": "string",
          "name": "",
          "type": "string"
        }
      ],
      "stateMutability": "view",
      "type": "function",
      "constant": true
    },
    {
      "inputs": [],
      "name": "symbol",
      "outputs": [
        {
          "internalType": "string",
          "name": "",
          "type": "string"
        }
      ],
      "stateMutability": "view",
      "type": "function",
      "constant": true
    },
    {
      "inputs": [],
      "name": "totalSupply",
      "outputs": [
        {
          "internalType": "uint256",
          "name": "",
          "type": "uint256"
        }
      ],
      "stateMutability": "view",
      "type": "function",
      "constant": true
    },
    {
      "inputs": [],
      "name": "transferFee",
      "outputs": [
        {
          "internalType": "uint256",
          "name": "",
          "type": "uint256"
        }
      ],
      "stateMutability": "view",
      "type": "function",
      "constant": true
    },
    {
      "inputs": [
        {
          "internalType": "address",
          "name": "owner",
          "type": "address"
        }
      ],
      "name": "balanceOf",
      "outputs": [
        {
          "internalType": "uint256",
          "name": "",
          "type": "uint256"
        }
      ],
      "stateMutability": "view",
      "type": "function",
      "constant": true
    },
    {
      "inputs": [
        {
          "internalType": "address",
          "name": "owner",
          "type": "address"
        },
        {
          "internalType": "address",
          "name": "spender",
          "type": "address"
        }
      ],
      "name": "allowance",
      "outputs": [
        {
          "internalType": "uint256",
          "name": "",
          "type": "uint256"
        }
      ],
      "stateMutability": "view",
      "type": "function",
      "constant": true
    },
    {
      "inputs": [
        {
          "internalType": "uint256",
          "name": "_fee",
          "type": "uint256"
        }
      ],
      "name": "setTransferFee",
      "outputs": [],
      "stateMutability": "nonpayable",
      "type": "function"
    },
    {
      "inputs": [
        {
          "internalType": "address",
          "name": "topstake",
          "type": "address"
        }
      ],
      "name": "passMinterRole",
      "outputs": [
        {
          "internalType": "bool",
          "name": "",
          "type": "bool"
        }
      ],
      "stateMutability": "nonpayable",
      "type": "function"
    },
    {
      "inputs": [
        {
          "internalType": "address",
          "name": "to",
          "type": "address"
        },
        {
          "internalType": "uint256",
          "name": "value",
          "type": "uint256"
        }
      ],
      "name": "transfer",
      "outputs": [
        {
          "internalType": "bool",
          "name": "",
          "type": "bool"
        }
      ],
      "stateMutability": "nonpayable",
      "type": "function"
    },
    {
      "inputs": [
        {
          "internalType": "address",
          "name": "from",
          "type": "address"
        },
        {
          "internalType": "address",
          "name": "to",
          "type": "address"
        },
        {
          "internalType": "uint256",
          "name": "value",
          "type": "uint256"
        }
      ],
      "name": "transferFrom",
      "outputs": [
        {
          "internalType": "bool",
          "name": "",
          "type": "bool"
        }
      ],
      "stateMutability": "nonpayable",
      "type": "function"
    },
    {
      "inputs": [
        {
          "internalType": "address",
          "name": "spender",
          "type": "address"
        },
        {
          "internalType": "uint256",
          "name": "value",
          "type": "uint256"
        }
      ],
      "name": "approve",
      "outputs": [
        {
          "internalType": "bool",
          "name": "",
          "type": "bool"
        }
      ],
      "stateMutability": "nonpayable",
      "type": "function"
    },
    {
      "inputs": [
        {
          "internalType": "address",
          "name": "spender",
          "type": "address"
        },
        {
          "internalType": "uint256",
          "name": "addedValue",
          "type": "uint256"
        }
      ],
      "name": "increaseAllowance",
      "outputs": [
        {
          "internalType": "bool",
          "name": "",
          "type": "bool"
        }
      ],
      "stateMutability": "nonpayable",
      "type": "function"
    },
    {
      "inputs": [
        {
          "internalType": "address",
          "name": "spender",
          "type": "address"
        },
        {
          "internalType": "uint256",
          "name": "subtractedValue",
          "type": "uint256"
        }
      ],
      "name": "decreaseAllowance",
      "outputs": [
        {
          "internalType": "bool",
          "name": "",
          "type": "bool"
        }
      ],
      "stateMutability": "nonpayable",
      "type": "function"
    },
    {
      "inputs": [
        {
          "internalType": "address",
          "name": "account",
          "type": "address"
        },
        {
          "internalType": "uint256",
          "name": "amount",
          "type": "uint256"
        }
      ],
      "name": "mint",
      "outputs": [],
      "stateMutability": "nonpayable",
      "type": "function"
    },
    {
      "inputs": [
        {
          "internalType": "address",
          "name": "account",
          "type": "address"
        },
        {
          "internalType": "uint256",
          "name": "amount",
          "type": "uint256"
        }
      ],
      "name": "burn",
      "outputs": [],
      "stateMutability": "nonpayable",
      "type": "function"
    },
    {
      "inputs": [
        {
          "internalType": "address",
          "name": "account",
          "type": "address"
        },
        {
          "internalType": "uint256",
          "name": "amount",
          "type": "uint256"
        }
      ],
      "name": "burnFrom",
      "outputs": [],
      "stateMutability": "nonpayable",
      "type": "function"
    }
  ],
  "bytecode": "0x60806040523480156200001157600080fd5b506040516200267f3803806200267f83398181016040528101906200003791906200034a565b83600090805190602001906200004f929190620000c2565b50826001908051906020019062000068929190620000c2565b508160038190555033600260006101000a81548173ffffffffffffffffffffffffffffffffffffffff021916908373ffffffffffffffffffffffffffffffffffffffff16021790555080600481905550505050506200045f565b828054620000d09062000429565b90600052602060002090601f016020900481019282620000f4576000855562000140565b82601f106200010f57805160ff191683800117855562000140565b8280016001018555821562000140579182015b828111156200013f57825182559160200191906001019062000122565b5b5090506200014f919062000153565b5090565b5b808211156200016e57600081600090555060010162000154565b5090565b6000604051905090565b600080fd5b600080fd5b600080fd5b600080fd5b6000601f19601f8301169050919050565b7f4e487b7100000000000000000000000000000000000000000000000000000000600052604160045260246000fd5b620001db8262000190565b810181811067ffffffffffffffff82111715620001fd57620001fc620001a1565b5b80604052505050565b60006200021262000172565b9050620002208282620001d0565b919050565b600067ffffffffffffffff821115620002435762000242620001a1565b5b6200024e8262000190565b9050602081019050919050565b60005b838110156200027b5780820151818401526020810190506200025e565b838111156200028b576000848401525b50505050565b6000620002a8620002a28462000225565b62000206565b905082815260208101848484011115620002c757620002c66200018b565b5b620002d48482856200025b565b509392505050565b600082601f830112620002f457620002f362000186565b5b81516200030684826020860162000291565b91505092915050565b6000819050919050565b62000324816200030f565b81146200033057600080fd5b50565b600081519050620003448162000319565b92915050565b600080600080608085870312156200036757620003666200017c565b5b600085015167ffffffffffffffff81111562000388576200038762000181565b5b6200039687828801620002dc565b945050602085015167ffffffffffffffff811115620003ba57620003b962000181565b5b620003c887828801620002dc565b9350506040620003db8782880162000333565b9250506060620003ee8782880162000333565b91505092959194509250565b7f4e487b7100000000000000000000000000000000000000000000000000000000600052602260045260246000fd5b600060028204905060018216806200044257607f821691505b60208210811415620004595762000458620003fa565b5b50919050565b612210806200046f6000396000f3fe608060405234801561001057600080fd5b50600436106101165760003560e01c80638f02bb5b116100a2578063a9059cbb11610071578063a9059cbb146102f3578063acb2ad6f14610323578063d7fc5b1514610341578063dd62ed3e14610371578063f851a440146103a157610116565b80638f02bb5b1461026d57806395d89b41146102895780639dc29fac146102a7578063a457c2d7146102c357610116565b8063313ce567116100e9578063313ce567146101b757806339509351146101d557806340c10f191461020557806370a082311461022157806379cc67901461025157610116565b806306fdde031461011b578063095ea7b31461013957806318160ddd1461016957806323b872dd14610187575b600080fd5b6101236103bf565b6040516101309190611b7a565b60405180910390f35b610153600480360381019061014e9190611c35565b61044d565b6040516101609190611c90565b60405180910390f35b6101716105b1565b60405161017e9190611cba565b60405180910390f35b6101a1600480360381019061019c9190611cd5565b6105bb565b6040516101ae9190611c90565b60405180910390f35b6101bf610869565b6040516101cc9190611cba565b60405180910390f35b6101ef60048036038101906101ea9190611c35565b61086f565b6040516101fc9190611c90565b60405180910390f35b61021f600480360381019061021a9190611c35565b610ad6565b005b61023b60048036038101906102369190611d28565b610b74565b6040516102489190611cba565b60405180910390f35b61026b60048036038101906102669190611c35565b610bbd565b005b61028760048036038101906102829190611d55565b610c5b565b005b610291610cf5565b60405161029e9190611b7a565b60405180910390f35b6102c160048036038101906102bc9190611c35565b610d83565b005b6102dd60048036038101906102d89190611c35565b610e21565b6040516102ea9190611c90565b60405180910390f35b61030d60048036038101906103089190611c35565b611088565b60405161031a9190611c90565b60405180910390f35b61032b611214565b6040516103389190611cba565b60405180910390f35b61035b60048036038101906103569190611d28565b61121e565b6040516103689190611c90565b60405180910390f35b61038b60048036038101906103869190611d82565b611354565b6040516103989190611cba565b60405180910390f35b6103a96113db565b6040516103b69190611dd1565b60405180910390f35b600080546103cc90611e1b565b80601f01602080910402602001604051908101604052809291908181526020018280546103f890611e1b565b80156104455780601f1061041a57610100808354040283529160200191610445565b820191906000526020600020905b81548152906001019060200180831161042857829003601f168201915b505050505081565b600082600073ffffffffffffffffffffffffffffffffffffffff168173ffffffffffffffffffffffffffffffffffffffff1614156104c0576040517f08c379a00000000000000000000000000000000000000000000000000000000081526004016104b790611ebf565b60405180910390fd5b82600760003373ffffffffffffffffffffffffffffffffffffffff1673ffffffffffffffffffffffffffffffffffffffff16815260200190815260200160002060008673ffffffffffffffffffffffffffffffffffffffff1673ffffffffffffffffffffffffffffffffffffffff168152602001908152602001600020819055508373ffffffffffffffffffffffffffffffffffffffff163373ffffffffffffffffffffffffffffffffffffffff167f8c5be1e5ebec7d5bd14f71427d1e84f3dd0314c0f7b2291e5b200ac8c7c3b9258560405161059e9190611cba565b60405180910390a3600191505092915050565b6000600554905090565b60008073ffffffffffffffffffffffffffffffffffffffff168373ffffffffffffffffffffffffffffffffffffffff16141561062c576040517f08c379a000000000000000000000000000000000000000000000000000000000815260040161062390611f2b565b60405180910390fd5b81600660008673ffffffffffffffffffffffffffffffffffffffff1673ffffffffffffffffffffffffffffffffffffffff168152602001908152602001600020600082825461067b9190611f7a565b9250508190555081600660008573ffffffffffffffffffffffffffffffffffffffff1673ffffffffffffffffffffffffffffffffffffffff168152602001908152602001600020546106cd9190611fae565b600660008573ffffffffffffffffffffffffffffffffffffffff1673ffffffffffffffffffffffffffffffffffffffff16815260200190815260200160002081905550600260009054906101000a900473ffffffffffffffffffffffffffffffffffffffff1673ffffffffffffffffffffffffffffffffffffffff163373ffffffffffffffffffffffffffffffffffffffff16146107f95781600760008673ffffffffffffffffffffffffffffffffffffffff1673ffffffffffffffffffffffffffffffffffffffff16815260200190815260200160002060003373ffffffffffffffffffffffffffffffffffffffff1673ffffffffffffffffffffffffffffffffffffffff16815260200190815260200160002060008282546107f19190611f7a565b925050819055505b8273ffffffffffffffffffffffffffffffffffffffff168473ffffffffffffffffffffffffffffffffffffffff167fddf252ad1be2c89b69c2b068fc378daa952ba7f163c4a11628f55a4df523b3ef846040516108569190611cba565b60405180910390a3600190509392505050565b60035481565b600082600073ffffffffffffffffffffffffffffffffffffffff168173ffffffffffffffffffffffffffffffffffffffff1614156108e2576040517f08c379a00000000000000000000000000000000000000000000000000000000081526004016108d990611ebf565b60405180910390fd5b82600760003373ffffffffffffffffffffffffffffffffffffffff1673ffffffffffffffffffffffffffffffffffffffff16815260200190815260200160002060008673ffffffffffffffffffffffffffffffffffffffff1673ffffffffffffffffffffffffffffffffffffffff1681526020019081526020016000205461096a9190611fae565b600760003373ffffffffffffffffffffffffffffffffffffffff1673ffffffffffffffffffffffffffffffffffffffff16815260200190815260200160002060008673ffffffffffffffffffffffffffffffffffffffff1673ffffffffffffffffffffffffffffffffffffffff168152602001908152602001600020819055508373ffffffffffffffffffffffffffffffffffffffff163373ffffffffffffffffffffffffffffffffffffffff167f8c5be1e5ebec7d5bd14f71427d1e84f3dd0314c0f7b2291e5b200ac8c7c3b925600760003373ffffffffffffffffffffffffffffffffffffffff1673ffffffffffffffffffffffffffffffffffffffff16815260200190815260200160002060008873ffffffffffffffffffffffffffffffffffffffff1673ffffffffffffffffffffffffffffffffffffffff16815260200190815260200160002054604051610ac39190611cba565b60405180910390a3600191505092915050565b600260009054906101000a900473ffffffffffffffffffffffffffffffffffffffff1673ffffffffffffffffffffffffffffffffffffffff163373ffffffffffffffffffffffffffffffffffffffff1614610b66576040517f08c379a0000000000000000000000000000000000000000000000000000000008152600401610b5d90612050565b60405180910390fd5b610b708282611401565b5050565b6000600660008373ffffffffffffffffffffffffffffffffffffffff1673ffffffffffffffffffffffffffffffffffffffff168152602001908152602001600020549050919050565b600260009054906101000a900473ffffffffffffffffffffffffffffffffffffffff1673ffffffffffffffffffffffffffffffffffffffff163373ffffffffffffffffffffffffffffffffffffffff1614610c4d576040517f08c379a0000000000000000000000000000000000000000000000000000000008152600401610c4490612050565b60405180910390fd5b610c57828261157d565b5050565b600260009054906101000a900473ffffffffffffffffffffffffffffffffffffffff1673ffffffffffffffffffffffffffffffffffffffff163373ffffffffffffffffffffffffffffffffffffffff1614610ceb576040517f08c379a0000000000000000000000000000000000000000000000000000000008152600401610ce290612050565b60405180910390fd5b8060048190555050565b60018054610d0290611e1b565b80601f0160208091040260200160405190810160405280929190818152602001828054610d2e90611e1b565b8015610d7b5780601f10610d5057610100808354040283529160200191610d7b565b820191906000526020600020905b815481529060010190602001808311610d5e57829003601f168201915b505050505081565b600260009054906101000a900473ffffffffffffffffffffffffffffffffffffffff1673ffffffffffffffffffffffffffffffffffffffff163373ffffffffffffffffffffffffffffffffffffffff1614610e13576040517f08c379a0000000000000000000000000000000000000000000000000000000008152600401610e0a90612050565b60405180910390fd5b610e1d82826118e1565b5050565b600082600073ffffffffffffffffffffffffffffffffffffffff168173ffffffffffffffffffffffffffffffffffffffff161415610e94576040517f08c379a0000000000000000000000000000000000000000000000000000000008152600401610e8b90611ebf565b60405180910390fd5b82600760003373ffffffffffffffffffffffffffffffffffffffff1673ffffffffffffffffffffffffffffffffffffffff16815260200190815260200160002060008673ffffffffffffffffffffffffffffffffffffffff1673ffffffffffffffffffffffffffffffffffffffff16815260200190815260200160002054610f1c9190611f7a565b600760003373ffffffffffffffffffffffffffffffffffffffff1673ffffffffffffffffffffffffffffffffffffffff16815260200190815260200160002060008673ffffffffffffffffffffffffffffffffffffffff1673ffffffffffffffffffffffffffffffffffffffff168152602001908152602001600020819055508373ffffffffffffffffffffffffffffffffffffffff163373ffffffffffffffffffffffffffffffffffffffff167f8c5be1e5ebec7d5bd14f71427d1e84f3dd0314c0f7b2291e5b200ac8c7c3b925600760003373ffffffffffffffffffffffffffffffffffffffff1673ffffffffffffffffffffffffffffffffffffffff16815260200190815260200160002060008873ffffffffffffffffffffffffffffffffffffffff1673ffffffffffffffffffffffffffffffffffffffff168152602001908152602001600020546040516110759190611cba565b60405180910390a3600191505092915050565b60008073ffffffffffffffffffffffffffffffffffffffff168373ffffffffffffffffffffffffffffffffffffffff1614156110f9576040517f08c379a00000000000000000000000000000000000000000000000000000000081526004016110f090611f2b565b60405180910390fd5b81600660003373ffffffffffffffffffffffffffffffffffffffff1673ffffffffffffffffffffffffffffffffffffffff16815260200190815260200160002060008282546111489190611f7a565b9250508190555081600660008573ffffffffffffffffffffffffffffffffffffffff1673ffffffffffffffffffffffffffffffffffffffff168152602001908152602001600020600082825461119e9190611fae565b925050819055508273ffffffffffffffffffffffffffffffffffffffff163373ffffffffffffffffffffffffffffffffffffffff167fddf252ad1be2c89b69c2b068fc378daa952ba7f163c4a11628f55a4df523b3ef846040516112029190611cba565b60405180910390a36001905092915050565b6000600454905090565b6000600260009054906101000a900473ffffffffffffffffffffffffffffffffffffffff1673ffffffffffffffffffffffffffffffffffffffff163373ffffffffffffffffffffffffffffffffffffffff16146112b0576040517f08c379a00000000000000000000000000000000000000000000000000000000081526004016112a790612050565b60405180910390fd5b81600260006101000a81548173ffffffffffffffffffffffffffffffffffffffff021916908373ffffffffffffffffffffffffffffffffffffffff1602179055508173ffffffffffffffffffffffffffffffffffffffff163373ffffffffffffffffffffffffffffffffffffffff167f3b0007eb941cf645526cbb3a4fdaecda9d28ce4843167d9263b536a1f1edc0f660405160405180910390a360019050919050565b6000600760008473ffffffffffffffffffffffffffffffffffffffff1673ffffffffffffffffffffffffffffffffffffffff16815260200190815260200160002060008373ffffffffffffffffffffffffffffffffffffffff1673ffffffffffffffffffffffffffffffffffffffff16815260200190815260200160002054905092915050565b600260009054906101000a900473ffffffffffffffffffffffffffffffffffffffff1681565b600073ffffffffffffffffffffffffffffffffffffffff168273ffffffffffffffffffffffffffffffffffffffff161415611471576040517f08c379a0000000000000000000000000000000000000000000000000000000008152600401611468906120bc565b60405180910390fd5b8060055461147f9190611fae565b60058190555080600660008473ffffffffffffffffffffffffffffffffffffffff1673ffffffffffffffffffffffffffffffffffffffff168152602001908152602001600020546114d09190611fae565b600660008473ffffffffffffffffffffffffffffffffffffffff1673ffffffffffffffffffffffffffffffffffffffff168152602001908152602001600020819055508173ffffffffffffffffffffffffffffffffffffffff16600073ffffffffffffffffffffffffffffffffffffffff167fddf252ad1be2c89b69c2b068fc378daa952ba7f163c4a11628f55a4df523b3ef836040516115719190611cba565b60405180910390a35050565b600760008373ffffffffffffffffffffffffffffffffffffffff1673ffffffffffffffffffffffffffffffffffffffff16815260200190815260200160002060003373ffffffffffffffffffffffffffffffffffffffff1673ffffffffffffffffffffffffffffffffffffffff16815260200190815260200160002054811115806116555750600260009054906101000a900473ffffffffffffffffffffffffffffffffffffffff1673ffffffffffffffffffffffffffffffffffffffff163373ffffffffffffffffffffffffffffffffffffffff16145b611694576040517f08c379a000000000000000000000000000000000000000000000000000000000815260040161168b9061214e565b60405180910390fd5b600260009054906101000a900473ffffffffffffffffffffffffffffffffffffffff1673ffffffffffffffffffffffffffffffffffffffff163373ffffffffffffffffffffffffffffffffffffffff16146117f25780600760008473ffffffffffffffffffffffffffffffffffffffff1673ffffffffffffffffffffffffffffffffffffffff16815260200190815260200160002060003373ffffffffffffffffffffffffffffffffffffffff1673ffffffffffffffffffffffffffffffffffffffff168152602001908152602001600020546117719190611f7a565b600760008473ffffffffffffffffffffffffffffffffffffffff1673ffffffffffffffffffffffffffffffffffffffff16815260200190815260200160002060003373ffffffffffffffffffffffffffffffffffffffff1673ffffffffffffffffffffffffffffffffffffffff168152602001908152602001600020819055505b6117fc82826118e1565b3373ffffffffffffffffffffffffffffffffffffffff168273ffffffffffffffffffffffffffffffffffffffff167f8c5be1e5ebec7d5bd14f71427d1e84f3dd0314c0f7b2291e5b200ac8c7c3b925600760008673ffffffffffffffffffffffffffffffffffffffff1673ffffffffffffffffffffffffffffffffffffffff16815260200190815260200160002060003373ffffffffffffffffffffffffffffffffffffffff1673ffffffffffffffffffffffffffffffffffffffff168152602001908152602001600020546040516118d59190611cba565b60405180910390a35050565b81600073ffffffffffffffffffffffffffffffffffffffff168173ffffffffffffffffffffffffffffffffffffffff161415611952576040517f08c379a000000000000000000000000000000000000000000000000000000000815260040161194990611ebf565b60405180910390fd5b600660008473ffffffffffffffffffffffffffffffffffffffff1673ffffffffffffffffffffffffffffffffffffffff168152602001908152602001600020548211156119d4576040517f08c379a00000000000000000000000000000000000000000000000000000000081526004016119cb906121ba565b60405180910390fd5b816005546119e29190611f7a565b60058190555081600660008573ffffffffffffffffffffffffffffffffffffffff1673ffffffffffffffffffffffffffffffffffffffff16815260200190815260200160002054611a339190611f7a565b600660008573ffffffffffffffffffffffffffffffffffffffff1673ffffffffffffffffffffffffffffffffffffffff16815260200190815260200160002081905550600073ffffffffffffffffffffffffffffffffffffffff168373ffffffffffffffffffffffffffffffffffffffff167fddf252ad1be2c89b69c2b068fc378daa952ba7f163c4a11628f55a4df523b3ef84604051611ad49190611cba565b60405180910390a3505050565b600081519050919050565b600082825260208201905092915050565b60005b83811015611b1b578082015181840152602081019050611b00565b83811115611b2a576000848401525b50505050565b6000601f19601f8301169050919050565b6000611b4c82611ae1565b611b568185611aec565b9350611b66818560208601611afd565b611b6f81611b30565b840191505092915050565b60006020820190508181036000830152611b948184611b41565b905092915050565b600080fd5b600073ffffffffffffffffffffffffffffffffffffffff82169050919050565b6000611bcc82611ba1565b9050919050565b611bdc81611bc1565b8114611be757600080fd5b50565b600081359050611bf981611bd3565b92915050565b6000819050919050565b611c1281611bff565b8114611c1d57600080fd5b50565b600081359050611c2f81611c09565b92915050565b60008060408385031215611c4c57611c4b611b9c565b5b6000611c5a85828601611bea565b9250506020611c6b85828601611c20565b9150509250929050565b60008115159050919050565b611c8a81611c75565b82525050565b6000602082019050611ca56000830184611c81565b92915050565b611cb481611bff565b82525050565b6000602082019050611ccf6000830184611cab565b92915050565b600080600060608486031215611cee57611ced611b9c565b5b6000611cfc86828701611bea565b9350506020611d0d86828701611bea565b9250506040611d1e86828701611c20565b9150509250925092565b600060208284031215611d3e57611d3d611b9c565b5b6000611d4c84828501611bea565b91505092915050565b600060208284031215611d6b57611d6a611b9c565b5b6000611d7984828501611c20565b91505092915050565b60008060408385031215611d9957611d98611b9c565b5b6000611da785828601611bea565b9250506020611db885828601611bea565b9150509250929050565b611dcb81611bc1565b82525050565b6000602082019050611de66000830184611dc2565b92915050565b7f4e487b7100000000000000000000000000000000000000000000000000000000600052602260045260246000fd5b60006002820490506001821680611e3357607f821691505b60208210811415611e4757611e46611dec565b5b50919050565b7f4572726f722c207573696e67206e756c6c2061646472657373206e6f7420616c60008201527f6c6f776564000000000000000000000000000000000000000000000000000000602082015250565b6000611ea9602583611aec565b9150611eb482611e4d565b604082019050919050565b60006020820190508181036000830152611ed881611e9c565b9050919050565b7f4e6f7420746f206e756c6c000000000000000000000000000000000000000000600082015250565b6000611f15600b83611aec565b9150611f2082611edf565b602082019050919050565b60006020820190508181036000830152611f4481611f08565b9050919050565b7f4e487b7100000000000000000000000000000000000000000000000000000000600052601160045260246000fd5b6000611f8582611bff565b9150611f9083611bff565b925082821015611fa357611fa2611f4b565b5b828203905092915050565b6000611fb982611bff565b9150611fc483611bff565b9250827fffffffffffffffffffffffffffffffffffffffffffffffffffffffffffffffff03821115611ff957611ff8611f4b565b5b828201905092915050565b7f4572726f722c206f6e6c792061646d696e000000000000000000000000000000600082015250565b600061203a601183611aec565b915061204582612004565b602082019050919050565b600060208201905081810360008301526120698161202d565b9050919050565b7f4572726f722c2063616e74206d696e7420746f206e756c6c2061646472657373600082015250565b60006120a6602083611aec565b91506120b182612070565b602082019050919050565b600060208201905081810360008301526120d581612099565b9050919050565b7f416d6f756e7420746f206275726e2067726561746572207468616e206170707260008201527f6f76656400000000000000000000000000000000000000000000000000000000602082015250565b6000612138602483611aec565b9150612143826120dc565b604082019050919050565b600060208201905081810360008301526121678161212b565b9050919050565b7f4572726f723a20496e73756666696369656e742046756e647300000000000000600082015250565b60006121a4601983611aec565b91506121af8261216e565b602082019050919050565b600060208201905081810360008301526121d381612197565b905091905056fea2646970667358221220b0e8a5f5677d38073ffb8e929c06a162f4dd735b8611ada941419176f4a29df264736f6c634300080c0033",
  "immutableReferences": {},
  "source": "// SPDX-License-Identifier: MIT\npragma solidity ^0.8.6;\n\n// Deployer acts as operator but is not listed in _allowed by default. Ensure it cannot be\n\ncontract TopToken {\n    string public name;\n    string public symbol;\n    address public admin;  // Give privileges to TopShelf\n    uint256 public decimals;\n    uint256 private _transferFee;\n    uint256 private _totalSupply;\n    mapping(address=>uint256) private _balances;  // Keep track balances and allowances approved\n    mapping(address=>mapping(address=>uint256)) private _allowed;\n\n    event Transfer(address indexed from, address indexed to, uint256 value);\n    event Approval(address indexed _owner, address indexed _spender, uint256 _value);\n    event MinterChanged(address indexed from, address indexed to);\n\n    modifier onlyAdmin(){require(msg.sender==admin, 'Error, only admin'); _;}\n    modifier onlyTops(){require(msg.sender==admin, 'Error, only Top contracts'); _;}\n    modifier notNullAddress(address _address){require(_address!=address(0), 'Error, using null address not allowed'); _;}\n    constructor(string memory _name, string memory _symbol, uint256 _decimals, uint256 _fee){\n        name = _name;\n        symbol = _symbol;\n        decimals = _decimals;\n        admin = msg.sender;\n        _transferFee = _fee;\n    }\n    // READ FUNCTIONS\n    function totalSupply() public view returns(uint256){return _totalSupply;}\n    function transferFee() public view returns(uint256){return _transferFee;}\n    function balanceOf(address owner) public view returns(uint256){return _balances[owner];}\n    function allowance(address owner, address spender) public view returns (uint256){return _allowed[owner][spender];}\n    // SET FUNCTIONS\n    function setTransferFee(uint256 _fee) external onlyAdmin(){_transferFee = _fee;}\n    // FUNCTIONS\n    function passMinterRole(address topstake) public onlyAdmin() returns(bool){\n        admin = topstake;\n        emit MinterChanged(msg.sender, topstake);\n        return true;\n    }\n    function transfer(address to, uint256 value) public returns (bool) {\n        // uint256 withFee = _transferFee << value;  // Total cost = value * 2**n (transfer loses 1/(2**n))\n        // require(withFee <= _balances[msg.sender], \"Error: Insufficient funds\");\n        require(to != address(0), \"Not to null\");\n        _balances[msg.sender] -= value;  // withFee\n        _balances[to] += value;\n        emit Transfer(msg.sender, to, value);\n        return true;\n    }\n    function transferFrom(address from, address to, uint256 value) public returns (bool){\n        // uint256 withFee = _transferFee << value;  // Total cost = value * 2**n (transfer loses 1/(2**n))\n        // require(withFee <= _balances[from], \"Error: Insufficient funds\");\n        // require(((withFee <= _allowed[from][msg.sender]) || (msg.sender == admin)), // Always allow TopShelf\n        //     \"Error: transferring more than approved\");\n        require(to != address(0), \"Not to null\");\n\n        _balances[from] -= value;  // withFee\n        _balances[to] = _balances[to] + value;\n        if (msg.sender != admin){  // May be vulnerable\n            _allowed[from][msg.sender] -= value;  //withFee\n        }\n        emit Transfer(from, to, value);\n        return true;\n    }\n    function approve(address spender, uint256 value) public notNullAddress(spender) returns (bool) {\n        _allowed[msg.sender][spender] = value;\n        emit Approval(msg.sender, spender, value);\n        return true;\n    }\n    function increaseAllowance(address spender, uint256 addedValue) public notNullAddress(spender) returns (bool){\n        _allowed[msg.sender][spender] = (_allowed[msg.sender][spender] + addedValue);\n        emit Approval(msg.sender, spender, _allowed[msg.sender][spender]);\n        return true;\n    }\n    function decreaseAllowance(address spender, uint256 subtractedValue) public notNullAddress(spender) returns (bool){\n        _allowed[msg.sender][spender] = (_allowed[msg.sender][spender] - subtractedValue);  // If subtractedValue>approved?\n        emit Approval(msg.sender, spender, _allowed[msg.sender][spender]);\n        return true;\n    }\n    function _mint(address account, uint256 amount) internal{ // /* notNullAddress(account) */\n        require(account!=address(0), 'Error, cant mint to null address');\n        _totalSupply = _totalSupply + amount;\n        _balances[account] = _balances[account] + amount;\n        emit Transfer(address(0), account, amount);\n    }\n    function mint(address account, uint256 amount) external onlyAdmin(){\n        _mint(account, amount);\n    }\n\n    function _burn(address account, uint256 amount) internal notNullAddress(account){\n        require(amount <= _balances[account], \"Error: Insufficient Funds\");\n        _totalSupply = _totalSupply - amount;\n        _balances[account] = _balances[account] - amount;\n        emit Transfer(account, address(0), amount);\n    }\n    \n    function burn(address account, uint256 amount) external onlyAdmin(){\n        _burn(account, amount);\n    }\n\n    function _burnFrom(address account, uint256 amount) internal {\n        require(amount <= _allowed[account][msg.sender] || msg.sender==admin, \"Amount to burn greater than approved\");\n        if (msg.sender!=admin){  // Allows burn from to reduce allowances if not called from admin\n            _allowed[account][msg.sender] = _allowed[account][msg.sender] - amount;\n        }\n        _burn(account, amount);\n        emit Approval(account, msg.sender, _allowed[account][msg.sender]);\n    }\n    function burnFrom(address account, uint256 amount) external onlyAdmin(){\n        _burnFrom(account, amount);\n    }\n}",
  "sourcePath": "/Users/alexa/PycharmProjects/VsShelf/src/contracts/TopToken.sol",
  "compiler": {
    "name": "solc",
    "version": "0.8.12+commit.f00d7308.Emscripten.clang"
  },
  "schemaVersion": "3.4.4",
  "updatedAt": "2022-03-14T20:08:03.214Z",
  "networkType": "ethereum",
  "devdoc": {
    "kind": "dev",
    "methods": {},
    "version": 1
  },
  "userdoc": {
    "kind": "user",
    "methods": {},
    "version": 1
  }
}